{
  "abi": [
    {
      "inputs": [],
      "stateMutability": "nonpayable",
      "type": "constructor"
    },
    {
      "anonymous": false,
      "inputs": [
        {
          "indexed": false,
          "internalType": "uint256",
          "name": "totalburn",
          "type": "uint256"
        },
        {
          "indexed": false,
          "internalType": "address",
          "name": "burnedFor",
          "type": "address"
        },
        {
          "indexed": false,
          "internalType": "uint256",
          "name": "TotalDaysBurned",
          "type": "uint256"
        }
      ],
      "name": "Burn",
      "type": "event"
    },
    {
      "anonymous": false,
      "inputs": [
        {
          "indexed": true,
          "internalType": "address",
          "name": "previousOwner",
          "type": "address"
        },
        {
          "indexed": true,
          "internalType": "address",
          "name": "newOwner",
          "type": "address"
        }
      ],
      "name": "OwnershipTransferred",
      "type": "event"
    },
    {
      "anonymous": false,
      "inputs": [
        {
          "indexed": false,
          "internalType": "uint256",
          "name": "ZeroXBitcoinAmount",
          "type": "uint256"
        },
        {
          "indexed": false,
          "internalType": "uint256",
          "name": "ForgeAmount",
          "type": "uint256"
        }
      ],
      "name": "Zap",
      "type": "event"
    },
    {
      "inputs": [],
      "name": "AddressForgeToken",
      "outputs": [
        {
          "internalType": "address",
          "name": "",
          "type": "address"
        }
      ],
      "stateMutability": "view",
      "type": "function"
    },
    {
      "inputs": [],
      "name": "AddressZeroXBTC",
      "outputs": [
        {
          "internalType": "address",
          "name": "",
          "type": "address"
        }
      ],
      "stateMutability": "view",
      "type": "function"
    },
    {
      "inputs": [],
      "name": "AuctionAddress",
      "outputs": [
        {
          "internalType": "address",
          "name": "",
          "type": "address"
        }
      ],
      "stateMutability": "view",
      "type": "function"
    },
    {
      "inputs": [],
      "name": "Liquidity_PoolAddress",
      "outputs": [
        {
          "internalType": "address",
          "name": "",
          "type": "address"
        }
      ],
      "stateMutability": "view",
      "type": "function"
    },
    {
      "inputs": [
        {
          "internalType": "uint256",
          "name": "blockz",
          "type": "uint256"
        },
        {
          "internalType": "uint256",
          "name": "min",
          "type": "uint256"
        }
      ],
      "name": "ONEburn0xBTCForMember",
      "outputs": [
        {
          "internalType": "bool",
          "name": "success",
          "type": "bool"
        }
      ],
      "stateMutability": "nonpayable",
      "type": "function"
    },
    {
      "inputs": [
        {
          "internalType": "uint256",
          "name": "amtMin",
          "type": "uint256"
        }
      ],
      "name": "ONEburn0xBTCForMemberNOBLOCK",
      "outputs": [
        {
          "internalType": "bool",
          "name": "success",
          "type": "bool"
        }
      ],
      "stateMutability": "payable",
      "type": "function"
    },
    {
      "inputs": [
        {
          "internalType": "uint256",
          "name": "amountOutMin",
          "type": "uint256"
        }
      ],
      "name": "OneTeste0",
      "outputs": [],
      "stateMutability": "nonpayable",
      "type": "function"
    },
    {
      "inputs": [
        {
          "internalType": "uint256",
          "name": "amountOutMin",
          "type": "uint256"
        }
      ],
      "name": "OneTeste233",
      "outputs": [],
      "stateMutability": "nonpayable",
      "type": "function"
    },
    {
      "inputs": [
        {
          "internalType": "uint256",
          "name": "amountOutMin",
          "type": "uint256"
        }
      ],
      "name": "OneTeste32",
      "outputs": [],
      "stateMutability": "nonpayable",
      "type": "function"
    },
    {
      "inputs": [
        {
          "internalType": "uint256",
          "name": "amountOutMin",
          "type": "uint256"
        }
      ],
      "name": "OneTeste4233",
      "outputs": [],
      "stateMutability": "nonpayable",
      "type": "function"
    },
    {
      "inputs": [
        {
          "internalType": "uint256",
          "name": "amountOutMin",
          "type": "uint256"
        }
      ],
      "name": "OneTeste44233",
      "outputs": [],
      "stateMutability": "nonpayable",
      "type": "function"
    },
    {
      "inputs": [],
      "name": "StakingAddress",
      "outputs": [
        {
          "internalType": "address",
          "name": "",
          "type": "address"
        }
      ],
      "stateMutability": "view",
      "type": "function"
    },
    {
      "inputs": [],
      "name": "Total0xBTCToRecieve",
      "outputs": [
        {
          "internalType": "uint256",
          "name": "",
          "type": "uint256"
        }
      ],
      "stateMutability": "view",
      "type": "function"
    },
    {
      "inputs": [],
      "name": "TotalForgeToRecieve",
      "outputs": [
        {
          "internalType": "uint256",
          "name": "",
          "type": "uint256"
        }
      ],
      "stateMutability": "view",
      "type": "function"
    },
    {
      "inputs": [],
      "name": "amountZapped",
      "outputs": [
        {
          "internalType": "uint256",
          "name": "",
          "type": "uint256"
        }
      ],
      "stateMutability": "view",
      "type": "function"
    },
    {
      "inputs": [],
      "name": "approes",
      "outputs": [],
      "stateMutability": "nonpayable",
      "type": "function"
    },
    {
      "inputs": [],
      "name": "currentDay",
      "outputs": [
        {
          "internalType": "uint256",
          "name": "",
          "type": "uint256"
        }
      ],
      "stateMutability": "view",
      "type": "function"
    },
    {
      "inputs": [],
      "name": "daysPerEra",
      "outputs": [
        {
          "internalType": "uint256",
          "name": "",
          "type": "uint256"
        }
      ],
      "stateMutability": "view",
      "type": "function"
    },
    {
      "inputs": [],
      "name": "decimals",
      "outputs": [
        {
          "internalType": "uint256",
          "name": "",
          "type": "uint256"
        }
      ],
      "stateMutability": "view",
      "type": "function"
    },
    {
      "inputs": [],
      "name": "extraGas",
      "outputs": [
        {
          "internalType": "uint256",
          "name": "",
          "type": "uint256"
        }
      ],
      "stateMutability": "view",
      "type": "function"
    },
    {
      "inputs": [
        {
          "internalType": "uint256",
          "name": "",
          "type": "uint256"
        }
      ],
      "name": "moderators",
      "outputs": [
        {
          "internalType": "address",
          "name": "",
          "type": "address"
        }
      ],
      "stateMutability": "view",
      "type": "function"
    },
    {
      "inputs": [],
      "name": "name",
      "outputs": [
        {
          "internalType": "string",
          "name": "",
          "type": "string"
        }
      ],
      "stateMutability": "view",
      "type": "function"
    },
    {
      "inputs": [],
      "name": "nextDayTime",
      "outputs": [
        {
          "internalType": "uint256",
          "name": "",
          "type": "uint256"
        }
      ],
      "stateMutability": "view",
      "type": "function"
    },
    {
      "inputs": [],
      "name": "owner",
      "outputs": [
        {
          "internalType": "address",
          "name": "",
          "type": "address"
        }
      ],
      "stateMutability": "view",
      "type": "function"
    },
    {
      "inputs": [],
      "name": "secondsPerDay",
      "outputs": [
        {
          "internalType": "uint256",
          "name": "",
          "type": "uint256"
        }
      ],
      "stateMutability": "view",
      "type": "function"
    },
    {
      "inputs": [],
      "name": "timescalled",
      "outputs": [
        {
          "internalType": "uint256",
          "name": "",
          "type": "uint256"
        }
      ],
      "stateMutability": "view",
      "type": "function"
    },
    {
      "inputs": [],
      "name": "totalBurnt",
      "outputs": [
        {
          "internalType": "uint256",
          "name": "",
          "type": "uint256"
        }
      ],
      "stateMutability": "view",
      "type": "function"
    },
    {
      "inputs": [],
      "name": "totalEmitted",
      "outputs": [
        {
          "internalType": "uint256",
          "name": "",
          "type": "uint256"
        }
      ],
      "stateMutability": "view",
      "type": "function"
    },
    {
      "inputs": [],
      "name": "viewMinFee",
      "outputs": [
        {
          "internalType": "uint256",
          "name": "amtToInput",
          "type": "uint256"
        }
      ],
      "stateMutability": "view",
      "type": "function"
    }
  ],
  "bytecode": "60806040526006805460ff19169055670de0b6b3a76400006007556305f5e100600855600060105534801561003357600080fd5b50600180546001600160a01b0319908116331790915560048054821673f44fb43066f7ecc91058e3a614fb8a15a27352761790556003805482167371b821aa52a49f32eed535fca6eb5aa13008597817905560208054821673bb1fa87a4738b22f7d2d5ec34ba349375b4d86f0179055601f8054821673a5e0829caced8ffdd4de3c43696c57f7d7a678ff17905560228054821673562322f8e7131d0bb9f487ae566935d3be96406b908117909155601b80548316732791bca1f2de4661ed88a30c99a7a9449aa84174179055601c80548316730d500b1d8e8ef31e21c99d1db9a6444d3adf1270179055601d805483169091179055601e80548216737d28fa576a4e08922b01e897ce4f5517ad3515789081179091556021805490921617905561253c806101636000396000f3fe6080604052600436106101c25760003560e01c8063966ff650116100f7578063c78e914811610095578063e55e197211610064578063e55e1972146104af578063ed8ba5ed146104c4578063f1261e92146104d9578063fee05d62146104f957600080fd5b8063c78e91481461044d578063d39614f41461046d578063df0244b114610483578063e3e0e3ee1461049957600080fd5b8063afd70eb5116100d1578063afd70eb5146103cd578063b6edd06f146103ed578063b71cf78a1461040d578063bd842a111461042d57600080fd5b8063966ff6501461038e57806397b7086b146103a4578063a8c817d1146103b757600080fd5b806361d5be29116101645780637303e8cd1161013e5780637303e8cd146103185780638560a2f41461032e5780638da5cb5b1461034e578063953fb4fb1461036e57600080fd5b806361d5be29146102b05780636297597b146102e0578063638099531461030257600080fd5b80633767e339116101a05780633767e3391461024e5780633ac1c86314610264578063510de0941461027a5780635c9302c91461029a57600080fd5b806306fdde03146101c757806308e7154a146101f2578063313ce5671461022a575b600080fd5b3480156101d357600080fd5b506101dc61050f565b6040516101e991906120af565b60405180910390f35b3480156101fe57600080fd5b50600f54610212906001600160a01b031681565b6040516001600160a01b0390911681526020016101e9565b34801561023657600080fd5b50610240600a5481565b6040519081526020016101e9565b34801561025a57600080fd5b5061024060055481565b34801561027057600080fd5b5061024060145481565b34801561028657600080fd5b50600354610212906001600160a01b031681565b3480156102a657600080fd5b5061024060135481565b3480156102bc57600080fd5b506102d06102cb366004612104565b61059d565b60405190151581526020016101e9565b3480156102ec57600080fd5b506103006102fb366004612126565b610dce565b005b34801561030e57600080fd5b5061024060155481565b34801561032457600080fd5b5061024060105481565b34801561033a57600080fd5b50600d54610212906001600160a01b031681565b34801561035a57600080fd5b50600154610212906001600160a01b031681565b34801561037a57600080fd5b50600e54610212906001600160a01b031681565b34801561039a57600080fd5b5061024060175481565b6102d06103b2366004612126565b610ef2565b3480156103c357600080fd5b5061024060195481565b3480156103d957600080fd5b506103006103e8366004612126565b611658565b3480156103f957600080fd5b50610300610408366004612126565b611793565b34801561041957600080fd5b50610300610428366004612126565b611888565b34801561043957600080fd5b50610212610448366004612126565b611a92565b34801561045957600080fd5b50610300610468366004612126565b611abc565b34801561047957600080fd5b5061024060115481565b34801561048f57600080fd5b5061024060185481565b3480156104a557600080fd5b5061024060125481565b3480156104bb57600080fd5b50610240611cb9565b3480156104d057600080fd5b50610300611f0e565b3480156104e557600080fd5b50600454610212906001600160a01b031681565b34801561050557600080fd5b5061024060165481565b6009805461051c9061213f565b80601f01602080910402602001604051908101604052809291908181526020018280546105489061213f565b80156105955780601f1061056a57610100808354040283529160200191610595565b820191906000526020600020905b81548152906001019060200180831161057857829003601f168201915b505050505081565b600080805b6002548110156105fb57336001600160a01b0316600282815481106105c9576105c9612174565b6000918252602090912001546001600160a01b031614156105e957600191505b806105f3816121a0565b9150506105a2565b506001546001600160a01b03163314806106125750805b6106375760405162461bcd60e51b815260040161062e906121bb565b60405180910390fd5b6020805460408051637f702eb160e11b8152905187936001600160a01b039093169263fee05d6292600480820193918290030181865afa15801561067f573d6000803e3d6000fd5b505050506040513d601f19601f820116820180604052508101906106a391906121ff565b6106ad9190612218565b42116106fb5760405162461bcd60e51b815260206004820152601b60248201527f4d757374206265206e65617220656e64206f662061756374696f6e0000000000604482015260640161062e565b6020805460408051637f702eb160e11b815290516001600160a01b039092169263fee05d62926004808401938290030181865afa158015610740573d6000803e3d6000fd5b505050506040513d601f19601f8201168201806040525081019061076491906121ff565b421115610dc4576000806000602260009054906101000a90046001600160a01b03166001600160a01b0316630902f1ac6040518163ffffffff1660e01b8152600401606060405180830381865afa1580156107c3573d6000803e3d6000fd5b505050506040513d601f19601f820116820180604052508101906107e7919061224b565b919450925090506901bc16d674ec80000000600061080e826001600160701b03861661229b565b6108216001600160701b038716846122b3565b61082b91906122d2565b90506000606461083c83605f6122b3565b61084691906122d2565b6020805460408051634b9b147b60e11b815290519394506000936001600160a01b03909216926360b2925992849263973628f69260048083019391928290030181865afa15801561089b573d6000803e3d6000fd5b505050506040513d601f19601f820116820180604052508101906108bf91906121ff565b6020805460408051635c9302c960e01b815290516001600160a01b0390921692635c9302c9926004808401938290030181865afa158015610904573d6000803e3d6000fd5b505050506040513d601f19601f8201168201806040525081019061092891906121ff565b6040516001600160e01b031960e085901b16815260048101929092526024820152604401602060405180830381865afa158015610969573d6000803e3d6000fd5b505050506040513d601f19601f8201168201806040525081019061098d91906121ff565b6109979083612218565b9050600060076109a88360066122b3565b6109b291906122d2565b6003546040516323b872dd60e01b81529192506001600160a01b0316906323b872dd906109e7903390309086906004016122f4565b6020604051808303816000875af1158015610a06573d6000803e3d6000fd5b505050506040513d601f19601f82011682018060405250810190610a2a9190612318565b5060035460205460405163095ea7b360e01b81526001600160a01b039283169263095ea7b392610a6b9291169069152d02c7e14af67fffff90600401612341565b6020604051808303816000875af1158015610a8a573d6000803e3d6000fd5b505050506040513d601f19601f82011682018060405250810190610aae9190612318565b506020546040516336f31f1360e11b81526001600160a01b0390911690636de63e2690610ae19030908590600401612341565b600060405180830381600087803b158015610afb57600080fd5b505af1158015610b0f573d6000803e3d6000fd5b505060205460405163ee1f84c360e01b81523060048201526001600160a01b03909116925063ee1f84c39150602401600060405180830381600087803b158015610b5857600080fd5b505af1158015610b6c573d6000803e3d6000fd5b5050600480546040516370a0823160e01b81523092810192909252600093506001600160a01b031691506370a0823190602401602060405180830381865afa158015610bbc573d6000803e3d6000fd5b505050506040513d601f19601f82011682018060405250810190610be091906121ff565b60048054601f5460405163095ea7b360e01b81529394506001600160a01b039182169363095ea7b393610c2e93909216917406d79f82328ea3da61e066ebb2f889ffffffffffff9101612341565b6020604051808303816000875af1158015610c4d573d6000803e3d6000fd5b505050506040513d601f19601f82011682018060405250810190610c719190612318565b610c8d5760405162461bcd60e51b815260040161062e9061235a565b604080516002808252606082018352600092602083019080368337505060045482519293506001600160a01b031691839150600090610cce57610cce612174565b6001600160a01b039283166020918202929092010152600354825191169082906001908110610cff57610cff612174565b60200260200101906001600160a01b031690816001600160a01b031681525050601f60009054906101000a90046001600160a01b03166001600160a01b03166338ed1739838f843368056bc75e2d630fffff6040518663ffffffff1660e01b8152600401610d719594939291906123dd565b6000604051808303816000875af1158015610d90573d6000803e3d6000fd5b505050506040513d6000823e601f3d908101601f19168201604052610db89190810190612419565b50505050505050505050505b5060019392505050565b604080516002808252606082018352600092602083019080368337505060035482519293506001600160a01b031691839150600090610e0f57610e0f612174565b6001600160a01b039283166020918202929092010152600454825191169082906001908110610e4057610e40612174565b6001600160a01b039283166020918202929092010152601f546040516338ed173960e01b81529116906338ed173990610ea690620f424090600190869073bb3a3d4a665ab4e9d5594077163c0044d12906999068056bc75e2d630fffff906004016123dd565b6000604051808303816000875af1158015610ec5573d6000803e3d6000fd5b505050506040513d6000823e601f3d908101601f19168201604052610eed9190810190612419565b505050565b600080805b600254811015610f5057336001600160a01b031660028281548110610f1e57610f1e612174565b6000918252602090912001546001600160a01b03161415610f3e57600191505b80610f48816121a0565b915050610ef7565b506001546001600160a01b0316331480610f675750805b610f835760405162461bcd60e51b815260040161062e906121bb565b6000806000602260009054906101000a90046001600160a01b03166001600160a01b0316630902f1ac6040518163ffffffff1660e01b8152600401606060405180830381865afa158015610fdb573d6000803e3d6000fd5b505050506040513d601f19601f82011682018060405250810190610fff919061224b565b919450925090506901bc16d674ec800000006000611026826001600160701b03861661229b565b6110396001600160701b038716846122b3565b61104391906122d2565b90506000606461105483605f6122b3565b61105e91906122d2565b6020805460408051634b9b147b60e11b815290519394506000936001600160a01b03909216926360b2925992849263973628f69260048083019391928290030181865afa1580156110b3573d6000803e3d6000fd5b505050506040513d601f19601f820116820180604052508101906110d791906121ff565b6020805460408051635c9302c960e01b815290516001600160a01b0390921692635c9302c9926004808401938290030181865afa15801561111c573d6000803e3d6000fd5b505050506040513d601f19601f8201168201806040525081019061114091906121ff565b6040516001600160e01b031960e085901b16815260048101929092526024820152604401602060405180830381865afa158015611181573d6000803e3d6000fd5b505050506040513d601f19601f820116820180604052508101906111a591906121ff565b6111af9083612218565b9050600060466111c08360066122b3565b6111ca91906122d2565b6003546040516323b872dd60e01b81529192506001600160a01b0316906323b872dd906111ff903390309086906004016122f4565b6020604051808303816000875af115801561121e573d6000803e3d6000fd5b505050506040513d601f19601f820116820180604052508101906112429190612318565b5060035460205460405163095ea7b360e01b81526001600160a01b039283169263095ea7b3926112839291169069152d02c7e14af67fffff90600401612341565b6020604051808303816000875af11580156112a2573d6000803e3d6000fd5b505050506040513d601f19601f820116820180604052508101906112c69190612318565b506020546040516336f31f1360e11b81526001600160a01b0390911690636de63e26906112f99030908590600401612341565b600060405180830381600087803b15801561131357600080fd5b505af1158015611327573d6000803e3d6000fd5b505060205460405163ee1f84c360e01b81523060048201526001600160a01b03909116925063ee1f84c39150602401600060405180830381600087803b15801561137057600080fd5b505af1158015611384573d6000803e3d6000fd5b5050600480546040516370a0823160e01b81523092810192909252600093506001600160a01b031691506370a0823190602401602060405180830381865afa1580156113d4573d6000803e3d6000fd5b505050506040513d601f19601f820116820180604052508101906113f891906121ff565b60048054601f5460405163095ea7b360e01b81529394506001600160a01b039182169363095ea7b39361144693909216917406d79f82328ea3da61e066ebb2f889ffffffffffff9101612341565b6020604051808303816000875af1158015611465573d6000803e3d6000fd5b505050506040513d601f19601f820116820180604052508101906114899190612318565b6114a55760405162461bcd60e51b815260040161062e9061235a565b604080516002808252606082018352600092602083019080368337505060045482519293506001600160a01b0316918391506000906114e6576114e6612174565b6001600160a01b03928316602091820292909201015260035482519116908290600190811061151757611517612174565b6001600160a01b039283166020918202929092010152600480546040516323b872dd60e01b81529216916323b872dd9161155e913391309166038d7ea4c6800091016122f4565b6020604051808303816000875af115801561157d573d6000803e3d6000fd5b505050506040513d601f19601f820116820180604052508101906115a19190612318565b50601f60009054906101000a90046001600160a01b03166001600160a01b03166338ed173966038d7ea4c680008f843368056bc75e2d630fffff6040518663ffffffff1660e01b81526004016115fb9594939291906123dd565b6000604051808303816000875af115801561161a573d6000803e3d6000fd5b505050506040513d6000823e601f3d908101601f191682016040526116429190810190612419565b5060019b50505050505050505050505b50919050565b6003546040516323b872dd60e01b81526001600160a01b03909116906323b872dd906116939033903090662386f26fc10000906004016122f4565b6020604051808303816000875af11580156116b2573d6000803e3d6000fd5b505050506040513d601f19601f820116820180604052508101906116d69190612318565b6116f25760405162461bcd60e51b815260040161062e906124d7565b600354601f5460405163095ea7b360e01b81526001600160a01b039283169263095ea7b3926117319291169068056bc75e2d6310000090600401612341565b6020604051808303816000875af1158015611750573d6000803e3d6000fd5b505050506040513d601f19601f820116820180604052508101906117749190612318565b6117905760405162461bcd60e51b815260040161062e9061235a565b50565b600480546040516370a0823160e01b8152339281018390526001600160a01b03909116916323b872dd91309084906370a0823190602401602060405180830381865afa1580156117e7573d6000803e3d6000fd5b505050506040513d601f19601f8201168201806040525081019061180b91906121ff565b6040518463ffffffff1660e01b8152600401611829939291906122f4565b6020604051808303816000875af1158015611848573d6000803e3d6000fd5b505050506040513d601f19601f8201168201806040525081019061186c9190612318565b6117905760405162461bcd60e51b815260040161062e906124d7565b6003546040516323b872dd60e01b81526001600160a01b03909116906323b872dd906118be9033903090612710906004016122f4565b6020604051808303816000875af11580156118dd573d6000803e3d6000fd5b505050506040513d601f19601f820116820180604052508101906119019190612318565b61191d5760405162461bcd60e51b815260040161062e906124d7565b600354601f5460405163095ea7b360e01b81526001600160a01b039283169263095ea7b39261195c9291169068056bc75e2d6310000090600401612341565b6020604051808303816000875af115801561197b573d6000803e3d6000fd5b505050506040513d601f19601f8201168201806040525081019061199f9190612318565b6119bb5760405162461bcd60e51b815260040161062e9061235a565b604080516002808252606082018352600092602083019080368337505060035482519293506001600160a01b0316918391506000906119fc576119fc612174565b6001600160a01b039283166020918202929092010152600454825191169082906001908110611a2d57611a2d612174565b6001600160a01b039283166020918202929092010152601f546040516338ed173960e01b81529116906338ed173990610ea69061271090600190869073bb3a3d4a665ab4e9d5594077163c0044d12906999068056bc75e2d630fffff906004016123dd565b60028181548110611aa257600080fd5b6000918252602090912001546001600160a01b0316905081565b600480546040516323b872dd60e01b81526001600160a01b03909116916323b872dd91611af69133913091662386f26fc1000091016122f4565b6020604051808303816000875af1158015611b15573d6000803e3d6000fd5b505050506040513d601f19601f82011682018060405250810190611b399190612318565b611b555760405162461bcd60e51b815260040161062e906124d7565b60048054601f5460405163095ea7b360e01b81526001600160a01b039283169363095ea7b393611b9293169168056bc75e2d631000009101612341565b6020604051808303816000875af1158015611bb1573d6000803e3d6000fd5b505050506040513d601f19601f82011682018060405250810190611bd59190612318565b611bf15760405162461bcd60e51b815260040161062e9061235a565b604080516002808252606082018352600092602083019080368337505060045482519293506001600160a01b031691839150600090611c3257611c32612174565b6001600160a01b039283166020918202929092010152600354825191169082906001908110611c6357611c63612174565b6001600160a01b039283166020918202929092010152601f546040516338ed173960e01b81529116906338ed173990610ea690662386f26fc10000906001908690339068056bc75e2d630fffff906004016123dd565b600080600080602260009054906101000a90046001600160a01b03166001600160a01b0316630902f1ac6040518163ffffffff1660e01b8152600401606060405180830381865afa158015611d12573d6000803e3d6000fd5b505050506040513d601f19601f82011682018060405250810190611d36919061224b565b919450925090506901bc16d674ec800000006000611d5d826001600160701b03861661229b565b611d706001600160701b038716846122b3565b611d7a91906122d2565b905060006064611d8b83605f6122b3565b611d9591906122d2565b6020805460408051634b9b147b60e11b815290519394506000936001600160a01b03909216926360b2925992849263973628f69260048083019391928290030181865afa158015611dea573d6000803e3d6000fd5b505050506040513d601f19601f82011682018060405250810190611e0e91906121ff565b6020805460408051635c9302c960e01b815290516001600160a01b0390921692635c9302c9926004808401938290030181865afa158015611e53573d6000803e3d6000fd5b505050506040513d601f19601f82011682018060405250810190611e7791906121ff565b6040516001600160e01b031960e085901b16815260048101929092526024820152604401602060405180830381865afa158015611eb8573d6000803e3d6000fd5b505050506040513d601f19601f82011682018060405250810190611edc91906121ff565b611ee69083612218565b905060006007611ef78360066122b3565b611f0191906122d2565b9998505050505050505050565b6000805b600254811015611f6b57336001600160a01b031660028281548110611f3957611f39612174565b6000918252602090912001546001600160a01b03161415611f5957600191505b80611f63816121a0565b915050611f12565b506001546001600160a01b0316331480611f825750805b611f9e5760405162461bcd60e51b815260040161062e906121bb565b60035460205460405163095ea7b360e01b81526001600160a01b039283169263095ea7b392611fde9291169069152d02c7e14af67fffff90600401612341565b6020604051808303816000875af1158015611ffd573d6000803e3d6000fd5b505050506040513d601f19601f820116820180604052508101906120219190612318565b5060048054601f5460405163095ea7b360e01b81526001600160a01b039283169363095ea7b393612068931691710b7abc627050305adf14a3d9e3ffffffffff9101612341565b6020604051808303816000875af1158015612087573d6000803e3d6000fd5b505050506040513d601f19601f820116820180604052508101906120ab9190612318565b5050565b600060208083528351808285015260005b818110156120dc578581018301518582016040015282016120c0565b818111156120ee576000604083870101525b50601f01601f1916929092016040019392505050565b6000806040838503121561211757600080fd5b50508035926020909101359150565b60006020828403121561213857600080fd5b5035919050565b600181811c9082168061215357607f821691505b6020821081141561165257634e487b7160e01b600052602260045260246000fd5b634e487b7160e01b600052603260045260246000fd5b634e487b7160e01b600052601160045260246000fd5b60006000198214156121b4576121b461218a565b5060010190565b60208082526024908201527f4f776e61626c653a2063616c6c6572206973206e6f7420746865206f776e65726040820152630bdb5bd960e21b606082015260800190565b60006020828403121561221157600080fd5b5051919050565b60008282101561222a5761222a61218a565b500390565b80516001600160701b038116811461224657600080fd5b919050565b60008060006060848603121561226057600080fd5b6122698461222f565b92506122776020850161222f565b9150604084015163ffffffff8116811461229057600080fd5b809150509250925092565b600082198211156122ae576122ae61218a565b500190565b60008160001904831182151516156122cd576122cd61218a565b500290565b6000826122ef57634e487b7160e01b600052601260045260246000fd5b500490565b6001600160a01b039384168152919092166020820152604081019190915260600190565b60006020828403121561232a57600080fd5b8151801515811461233a57600080fd5b9392505050565b6001600160a01b03929092168252602082015260400190565b6020808252600f908201526e30b8383937bb32903330b4b632b21760891b604082015260600190565b634e487b7160e01b600052604160045260246000fd5b600081518084526020808501945080840160005b838110156123d25781516001600160a01b0316875295820195908201906001016123ad565b509495945050505050565b85815284602082015260a0604082015260006123fc60a0830186612399565b6001600160a01b0394909416606083015250608001529392505050565b6000602080838503121561242c57600080fd5b825167ffffffffffffffff8082111561244457600080fd5b818501915085601f83011261245857600080fd5b81518181111561246a5761246a612383565b8060051b604051601f19603f8301168101818110858211171561248f5761248f612383565b6040529182528482019250838101850191888311156124ad57600080fd5b938501935b828510156124cb578451845293850193928501926124b2565b98975050505050505050565b6020808252601590820152743a3930b739b332b9233937b699103330b4b632b21760591b60408201526060019056fea264697066735822122088d12a3dabfb854ec8018044f680ebda99318e79718089e4de9e5ac2f5822ffa64736f6c634300080b0033",
  "bytecodeSha1": "15c6cb526b270476e3ce76bd1eab940fc2feb5eb",
  "compiler": {
    "evm_version": "istanbul",
    "optimizer": {
      "enabled": true,
      "runs": 200
    },
    "version": "0.8.11+commit.d7f03943"
  },
  "contractName": "ForgeZap",
  "language": "Solidity",
  "natspec": {
    "kind": "dev",
    "methods": {},
    "version": 1
  },
  "opcodes": "PUSH1 0x80 PUSH1 0x40 MSTORE PUSH1 0x4 CALLDATASIZE LT PUSH2 0x1C2 JUMPI PUSH1 0x0 CALLDATALOAD PUSH1 0xE0 SHR DUP1 PUSH4 0x966FF650 GT PUSH2 0xF7 JUMPI DUP1 PUSH4 0xC78E9148 GT PUSH2 0x95 JUMPI DUP1 PUSH4 0xE55E1972 GT PUSH2 0x64 JUMPI DUP1 PUSH4 0xE55E1972 EQ PUSH2 0x4AF JUMPI DUP1 PUSH4 0xED8BA5ED EQ PUSH2 0x4C4 JUMPI DUP1 PUSH4 0xF1261E92 EQ PUSH2 0x4D9 JUMPI DUP1 PUSH4 0xFEE05D62 EQ PUSH2 0x4F9 JUMPI PUSH1 0x0 DUP1 REVERT JUMPDEST DUP1 PUSH4 0xC78E9148 EQ PUSH2 0x44D JUMPI DUP1 PUSH4 0xD39614F4 EQ PUSH2 0x46D JUMPI DUP1 PUSH4 0xDF0244B1 EQ PUSH2 0x483 JUMPI DUP1 PUSH4 0xE3E0E3EE EQ PUSH2 0x499 JUMPI PUSH1 0x0 DUP1 REVERT JUMPDEST DUP1 PUSH4 0xAFD70EB5 GT PUSH2 0xD1 JUMPI DUP1 PUSH4 0xAFD70EB5 EQ PUSH2 0x3CD JUMPI DUP1 PUSH4 0xB6EDD06F EQ PUSH2 0x3ED JUMPI DUP1 PUSH4 0xB71CF78A EQ PUSH2 0x40D JUMPI DUP1 PUSH4 0xBD842A11 EQ PUSH2 0x42D JUMPI PUSH1 0x0 DUP1 REVERT JUMPDEST DUP1 PUSH4 0x966FF650 EQ PUSH2 0x38E JUMPI DUP1 PUSH4 0x97B7086B EQ PUSH2 0x3A4 JUMPI DUP1 PUSH4 0xA8C817D1 EQ PUSH2 0x3B7 JUMPI PUSH1 0x0 DUP1 REVERT JUMPDEST DUP1 PUSH4 0x61D5BE29 GT PUSH2 0x164 JUMPI DUP1 PUSH4 0x7303E8CD GT PUSH2 0x13E JUMPI DUP1 PUSH4 0x7303E8CD EQ PUSH2 0x318 JUMPI DUP1 PUSH4 0x8560A2F4 EQ PUSH2 0x32E JUMPI DUP1 PUSH4 0x8DA5CB5B EQ PUSH2 0x34E JUMPI DUP1 PUSH4 0x953FB4FB EQ PUSH2 0x36E JUMPI PUSH1 0x0 DUP1 REVERT JUMPDEST DUP1 PUSH4 0x61D5BE29 EQ PUSH2 0x2B0 JUMPI DUP1 PUSH4 0x6297597B EQ PUSH2 0x2E0 JUMPI DUP1 PUSH4 0x63809953 EQ PUSH2 0x302 JUMPI PUSH1 0x0 DUP1 REVERT JUMPDEST DUP1 PUSH4 0x3767E339 GT PUSH2 0x1A0 JUMPI DUP1 PUSH4 0x3767E339 EQ PUSH2 0x24E JUMPI DUP1 PUSH4 0x3AC1C863 EQ PUSH2 0x264 JUMPI DUP1 PUSH4 0x510DE094 EQ PUSH2 0x27A JUMPI DUP1 PUSH4 0x5C9302C9 EQ PUSH2 0x29A JUMPI PUSH1 0x0 DUP1 REVERT JUMPDEST DUP1 PUSH4 0x6FDDE03 EQ PUSH2 0x1C7 JUMPI DUP1 PUSH4 0x8E7154A EQ PUSH2 0x1F2 JUMPI DUP1 PUSH4 0x313CE567 EQ PUSH2 0x22A JUMPI JUMPDEST PUSH1 0x0 DUP1 REVERT JUMPDEST CALLVALUE DUP1 ISZERO PUSH2 0x1D3 JUMPI PUSH1 0x0 DUP1 REVERT JUMPDEST POP PUSH2 0x1DC PUSH2 0x50F JUMP JUMPDEST PUSH1 0x40 MLOAD PUSH2 0x1E9 SWAP2 SWAP1 PUSH2 0x20AF JUMP JUMPDEST PUSH1 0x40 MLOAD DUP1 SWAP2 SUB SWAP1 RETURN JUMPDEST CALLVALUE DUP1 ISZERO PUSH2 0x1FE JUMPI PUSH1 0x0 DUP1 REVERT JUMPDEST POP PUSH1 0xF SLOAD PUSH2 0x212 SWAP1 PUSH1 0x1 PUSH1 0x1 PUSH1 0xA0 SHL SUB AND DUP2 JUMP JUMPDEST PUSH1 0x40 MLOAD PUSH1 0x1 PUSH1 0x1 PUSH1 0xA0 SHL SUB SWAP1 SWAP2 AND DUP2 MSTORE PUSH1 0x20 ADD PUSH2 0x1E9 JUMP JUMPDEST CALLVALUE DUP1 ISZERO PUSH2 0x236 JUMPI PUSH1 0x0 DUP1 REVERT JUMPDEST POP PUSH2 0x240 PUSH1 0xA SLOAD DUP2 JUMP JUMPDEST PUSH1 0x40 MLOAD SWAP1 DUP2 MSTORE PUSH1 0x20 ADD PUSH2 0x1E9 JUMP JUMPDEST CALLVALUE DUP1 ISZERO PUSH2 0x25A JUMPI PUSH1 0x0 DUP1 REVERT JUMPDEST POP PUSH2 0x240 PUSH1 0x5 SLOAD DUP2 JUMP JUMPDEST CALLVALUE DUP1 ISZERO PUSH2 0x270 JUMPI PUSH1 0x0 DUP1 REVERT JUMPDEST POP PUSH2 0x240 PUSH1 0x14 SLOAD DUP2 JUMP JUMPDEST CALLVALUE DUP1 ISZERO PUSH2 0x286 JUMPI PUSH1 0x0 DUP1 REVERT JUMPDEST POP PUSH1 0x3 SLOAD PUSH2 0x212 SWAP1 PUSH1 0x1 PUSH1 0x1 PUSH1 0xA0 SHL SUB AND DUP2 JUMP JUMPDEST CALLVALUE DUP1 ISZERO PUSH2 0x2A6 JUMPI PUSH1 0x0 DUP1 REVERT JUMPDEST POP PUSH2 0x240 PUSH1 0x13 SLOAD DUP2 JUMP JUMPDEST CALLVALUE DUP1 ISZERO PUSH2 0x2BC JUMPI PUSH1 0x0 DUP1 REVERT JUMPDEST POP PUSH2 0x2D0 PUSH2 0x2CB CALLDATASIZE PUSH1 0x4 PUSH2 0x2104 JUMP JUMPDEST PUSH2 0x59D JUMP JUMPDEST PUSH1 0x40 MLOAD SWAP1 ISZERO ISZERO DUP2 MSTORE PUSH1 0x20 ADD PUSH2 0x1E9 JUMP JUMPDEST CALLVALUE DUP1 ISZERO PUSH2 0x2EC JUMPI PUSH1 0x0 DUP1 REVERT JUMPDEST POP PUSH2 0x300 PUSH2 0x2FB CALLDATASIZE PUSH1 0x4 PUSH2 0x2126 JUMP JUMPDEST PUSH2 0xDCE JUMP JUMPDEST STOP JUMPDEST CALLVALUE DUP1 ISZERO PUSH2 0x30E JUMPI PUSH1 0x0 DUP1 REVERT JUMPDEST POP PUSH2 0x240 PUSH1 0x15 SLOAD DUP2 JUMP JUMPDEST CALLVALUE DUP1 ISZERO PUSH2 0x324 JUMPI PUSH1 0x0 DUP1 REVERT JUMPDEST POP PUSH2 0x240 PUSH1 0x10 SLOAD DUP2 JUMP JUMPDEST CALLVALUE DUP1 ISZERO PUSH2 0x33A JUMPI PUSH1 0x0 DUP1 REVERT JUMPDEST POP PUSH1 0xD SLOAD PUSH2 0x212 SWAP1 PUSH1 0x1 PUSH1 0x1 PUSH1 0xA0 SHL SUB AND DUP2 JUMP JUMPDEST CALLVALUE DUP1 ISZERO PUSH2 0x35A JUMPI PUSH1 0x0 DUP1 REVERT JUMPDEST POP PUSH1 0x1 SLOAD PUSH2 0x212 SWAP1 PUSH1 0x1 PUSH1 0x1 PUSH1 0xA0 SHL SUB AND DUP2 JUMP JUMPDEST CALLVALUE DUP1 ISZERO PUSH2 0x37A JUMPI PUSH1 0x0 DUP1 REVERT JUMPDEST POP PUSH1 0xE SLOAD PUSH2 0x212 SWAP1 PUSH1 0x1 PUSH1 0x1 PUSH1 0xA0 SHL SUB AND DUP2 JUMP JUMPDEST CALLVALUE DUP1 ISZERO PUSH2 0x39A JUMPI PUSH1 0x0 DUP1 REVERT JUMPDEST POP PUSH2 0x240 PUSH1 0x17 SLOAD DUP2 JUMP JUMPDEST PUSH2 0x2D0 PUSH2 0x3B2 CALLDATASIZE PUSH1 0x4 PUSH2 0x2126 JUMP JUMPDEST PUSH2 0xEF2 JUMP JUMPDEST CALLVALUE DUP1 ISZERO PUSH2 0x3C3 JUMPI PUSH1 0x0 DUP1 REVERT JUMPDEST POP PUSH2 0x240 PUSH1 0x19 SLOAD DUP2 JUMP JUMPDEST CALLVALUE DUP1 ISZERO PUSH2 0x3D9 JUMPI PUSH1 0x0 DUP1 REVERT JUMPDEST POP PUSH2 0x300 PUSH2 0x3E8 CALLDATASIZE PUSH1 0x4 PUSH2 0x2126 JUMP JUMPDEST PUSH2 0x1658 JUMP JUMPDEST CALLVALUE DUP1 ISZERO PUSH2 0x3F9 JUMPI PUSH1 0x0 DUP1 REVERT JUMPDEST POP PUSH2 0x300 PUSH2 0x408 CALLDATASIZE PUSH1 0x4 PUSH2 0x2126 JUMP JUMPDEST PUSH2 0x1793 JUMP JUMPDEST CALLVALUE DUP1 ISZERO PUSH2 0x419 JUMPI PUSH1 0x0 DUP1 REVERT JUMPDEST POP PUSH2 0x300 PUSH2 0x428 CALLDATASIZE PUSH1 0x4 PUSH2 0x2126 JUMP JUMPDEST PUSH2 0x1888 JUMP JUMPDEST CALLVALUE DUP1 ISZERO PUSH2 0x439 JUMPI PUSH1 0x0 DUP1 REVERT JUMPDEST POP PUSH2 0x212 PUSH2 0x448 CALLDATASIZE PUSH1 0x4 PUSH2 0x2126 JUMP JUMPDEST PUSH2 0x1A92 JUMP JUMPDEST CALLVALUE DUP1 ISZERO PUSH2 0x459 JUMPI PUSH1 0x0 DUP1 REVERT JUMPDEST POP PUSH2 0x300 PUSH2 0x468 CALLDATASIZE PUSH1 0x4 PUSH2 0x2126 JUMP JUMPDEST PUSH2 0x1ABC JUMP JUMPDEST CALLVALUE DUP1 ISZERO PUSH2 0x479 JUMPI PUSH1 0x0 DUP1 REVERT JUMPDEST POP PUSH2 0x240 PUSH1 0x11 SLOAD DUP2 JUMP JUMPDEST CALLVALUE DUP1 ISZERO PUSH2 0x48F JUMPI PUSH1 0x0 DUP1 REVERT JUMPDEST POP PUSH2 0x240 PUSH1 0x18 SLOAD DUP2 JUMP JUMPDEST CALLVALUE DUP1 ISZERO PUSH2 0x4A5 JUMPI PUSH1 0x0 DUP1 REVERT JUMPDEST POP PUSH2 0x240 PUSH1 0x12 SLOAD DUP2 JUMP JUMPDEST CALLVALUE DUP1 ISZERO PUSH2 0x4BB JUMPI PUSH1 0x0 DUP1 REVERT JUMPDEST POP PUSH2 0x240 PUSH2 0x1CB9 JUMP JUMPDEST CALLVALUE DUP1 ISZERO PUSH2 0x4D0 JUMPI PUSH1 0x0 DUP1 REVERT JUMPDEST POP PUSH2 0x300 PUSH2 0x1F0E JUMP JUMPDEST CALLVALUE DUP1 ISZERO PUSH2 0x4E5 JUMPI PUSH1 0x0 DUP1 REVERT JUMPDEST POP PUSH1 0x4 SLOAD PUSH2 0x212 SWAP1 PUSH1 0x1 PUSH1 0x1 PUSH1 0xA0 SHL SUB AND DUP2 JUMP JUMPDEST CALLVALUE DUP1 ISZERO PUSH2 0x505 JUMPI PUSH1 0x0 DUP1 REVERT JUMPDEST POP PUSH2 0x240 PUSH1 0x16 SLOAD DUP2 JUMP JUMPDEST PUSH1 0x9 DUP1 SLOAD PUSH2 0x51C SWAP1 PUSH2 0x213F JUMP JUMPDEST DUP1 PUSH1 0x1F ADD PUSH1 0x20 DUP1 SWAP2 DIV MUL PUSH1 0x20 ADD PUSH1 0x40 MLOAD SWAP1 DUP2 ADD PUSH1 0x40 MSTORE DUP1 SWAP3 SWAP2 SWAP1 DUP2 DUP2 MSTORE PUSH1 0x20 ADD DUP3 DUP1 SLOAD PUSH2 0x548 SWAP1 PUSH2 0x213F JUMP JUMPDEST DUP1 ISZERO PUSH2 0x595 JUMPI DUP1 PUSH1 0x1F LT PUSH2 0x56A JUMPI PUSH2 0x100 DUP1 DUP4 SLOAD DIV MUL DUP4 MSTORE SWAP2 PUSH1 0x20 ADD SWAP2 PUSH2 0x595 JUMP JUMPDEST DUP3 ADD SWAP2 SWAP1 PUSH1 0x0 MSTORE PUSH1 0x20 PUSH1 0x0 KECCAK256 SWAP1 JUMPDEST DUP2 SLOAD DUP2 MSTORE SWAP1 PUSH1 0x1 ADD SWAP1 PUSH1 0x20 ADD DUP1 DUP4 GT PUSH2 0x578 JUMPI DUP3 SWAP1 SUB PUSH1 0x1F AND DUP3 ADD SWAP2 JUMPDEST POP POP POP POP POP DUP2 JUMP JUMPDEST PUSH1 0x0 DUP1 DUP1 JUMPDEST PUSH1 0x2 SLOAD DUP2 LT ISZERO PUSH2 0x5FB JUMPI CALLER PUSH1 0x1 PUSH1 0x1 PUSH1 0xA0 SHL SUB AND PUSH1 0x2 DUP3 DUP2 SLOAD DUP2 LT PUSH2 0x5C9 JUMPI PUSH2 0x5C9 PUSH2 0x2174 JUMP JUMPDEST PUSH1 0x0 SWAP2 DUP3 MSTORE PUSH1 0x20 SWAP1 SWAP2 KECCAK256 ADD SLOAD PUSH1 0x1 PUSH1 0x1 PUSH1 0xA0 SHL SUB AND EQ ISZERO PUSH2 0x5E9 JUMPI PUSH1 0x1 SWAP2 POP JUMPDEST DUP1 PUSH2 0x5F3 DUP2 PUSH2 0x21A0 JUMP JUMPDEST SWAP2 POP POP PUSH2 0x5A2 JUMP JUMPDEST POP PUSH1 0x1 SLOAD PUSH1 0x1 PUSH1 0x1 PUSH1 0xA0 SHL SUB AND CALLER EQ DUP1 PUSH2 0x612 JUMPI POP DUP1 JUMPDEST PUSH2 0x637 JUMPI PUSH1 0x40 MLOAD PUSH3 0x461BCD PUSH1 0xE5 SHL DUP2 MSTORE PUSH1 0x4 ADD PUSH2 0x62E SWAP1 PUSH2 0x21BB JUMP JUMPDEST PUSH1 0x40 MLOAD DUP1 SWAP2 SUB SWAP1 REVERT JUMPDEST PUSH1 0x20 DUP1 SLOAD PUSH1 0x40 DUP1 MLOAD PUSH4 0x7F702EB1 PUSH1 0xE1 SHL DUP2 MSTORE SWAP1 MLOAD DUP8 SWAP4 PUSH1 0x1 PUSH1 0x1 PUSH1 0xA0 SHL SUB SWAP1 SWAP4 AND SWAP3 PUSH4 0xFEE05D62 SWAP3 PUSH1 0x4 DUP1 DUP3 ADD SWAP4 SWAP2 DUP3 SWAP1 SUB ADD DUP2 DUP7 GAS STATICCALL ISZERO DUP1 ISZERO PUSH2 0x67F JUMPI RETURNDATASIZE PUSH1 0x0 DUP1 RETURNDATACOPY RETURNDATASIZE PUSH1 0x0 REVERT JUMPDEST POP POP POP POP PUSH1 0x40 MLOAD RETURNDATASIZE PUSH1 0x1F NOT PUSH1 0x1F DUP3 ADD AND DUP3 ADD DUP1 PUSH1 0x40 MSTORE POP DUP2 ADD SWAP1 PUSH2 0x6A3 SWAP2 SWAP1 PUSH2 0x21FF JUMP JUMPDEST PUSH2 0x6AD SWAP2 SWAP1 PUSH2 0x2218 JUMP JUMPDEST TIMESTAMP GT PUSH2 0x6FB JUMPI PUSH1 0x40 MLOAD PUSH3 0x461BCD PUSH1 0xE5 SHL DUP2 MSTORE PUSH1 0x20 PUSH1 0x4 DUP3 ADD MSTORE PUSH1 0x1B PUSH1 0x24 DUP3 ADD MSTORE PUSH32 0x4D757374206265206E65617220656E64206F662061756374696F6E0000000000 PUSH1 0x44 DUP3 ADD MSTORE PUSH1 0x64 ADD PUSH2 0x62E JUMP JUMPDEST PUSH1 0x20 DUP1 SLOAD PUSH1 0x40 DUP1 MLOAD PUSH4 0x7F702EB1 PUSH1 0xE1 SHL DUP2 MSTORE SWAP1 MLOAD PUSH1 0x1 PUSH1 0x1 PUSH1 0xA0 SHL SUB SWAP1 SWAP3 AND SWAP3 PUSH4 0xFEE05D62 SWAP3 PUSH1 0x4 DUP1 DUP5 ADD SWAP4 DUP3 SWAP1 SUB ADD DUP2 DUP7 GAS STATICCALL ISZERO DUP1 ISZERO PUSH2 0x740 JUMPI RETURNDATASIZE PUSH1 0x0 DUP1 RETURNDATACOPY RETURNDATASIZE PUSH1 0x0 REVERT JUMPDEST POP POP POP POP PUSH1 0x40 MLOAD RETURNDATASIZE PUSH1 0x1F NOT PUSH1 0x1F DUP3 ADD AND DUP3 ADD DUP1 PUSH1 0x40 MSTORE POP DUP2 ADD SWAP1 PUSH2 0x764 SWAP2 SWAP1 PUSH2 0x21FF JUMP JUMPDEST TIMESTAMP GT ISZERO PUSH2 0xDC4 JUMPI PUSH1 0x0 DUP1 PUSH1 0x0 PUSH1 0x22 PUSH1 0x0 SWAP1 SLOAD SWAP1 PUSH2 0x100 EXP SWAP1 DIV PUSH1 0x1 PUSH1 0x1 PUSH1 0xA0 SHL SUB AND PUSH1 0x1 PUSH1 0x1 PUSH1 0xA0 SHL SUB AND PUSH4 0x902F1AC PUSH1 0x40 MLOAD DUP2 PUSH4 0xFFFFFFFF AND PUSH1 0xE0 SHL DUP2 MSTORE PUSH1 0x4 ADD PUSH1 0x60 PUSH1 0x40 MLOAD DUP1 DUP4 SUB DUP2 DUP7 GAS STATICCALL ISZERO DUP1 ISZERO PUSH2 0x7C3 JUMPI RETURNDATASIZE PUSH1 0x0 DUP1 RETURNDATACOPY RETURNDATASIZE PUSH1 0x0 REVERT JUMPDEST POP POP POP POP PUSH1 0x40 MLOAD RETURNDATASIZE PUSH1 0x1F NOT PUSH1 0x1F DUP3 ADD AND DUP3 ADD DUP1 PUSH1 0x40 MSTORE POP DUP2 ADD SWAP1 PUSH2 0x7E7 SWAP2 SWAP1 PUSH2 0x224B JUMP JUMPDEST SWAP2 SWAP5 POP SWAP3 POP SWAP1 POP PUSH10 0x1BC16D674EC80000000 PUSH1 0x0 PUSH2 0x80E DUP3 PUSH1 0x1 PUSH1 0x1 PUSH1 0x70 SHL SUB DUP7 AND PUSH2 0x229B JUMP JUMPDEST PUSH2 0x821 PUSH1 0x1 PUSH1 0x1 PUSH1 0x70 SHL SUB DUP8 AND DUP5 PUSH2 0x22B3 JUMP JUMPDEST PUSH2 0x82B SWAP2 SWAP1 PUSH2 0x22D2 JUMP JUMPDEST SWAP1 POP PUSH1 0x0 PUSH1 0x64 PUSH2 0x83C DUP4 PUSH1 0x5F PUSH2 0x22B3 JUMP JUMPDEST PUSH2 0x846 SWAP2 SWAP1 PUSH2 0x22D2 JUMP JUMPDEST PUSH1 0x20 DUP1 SLOAD PUSH1 0x40 DUP1 MLOAD PUSH4 0x4B9B147B PUSH1 0xE1 SHL DUP2 MSTORE SWAP1 MLOAD SWAP4 SWAP5 POP PUSH1 0x0 SWAP4 PUSH1 0x1 PUSH1 0x1 PUSH1 0xA0 SHL SUB SWAP1 SWAP3 AND SWAP3 PUSH4 0x60B29259 SWAP3 DUP5 SWAP3 PUSH4 0x973628F6 SWAP3 PUSH1 0x4 DUP1 DUP4 ADD SWAP4 SWAP2 SWAP3 DUP3 SWAP1 SUB ADD DUP2 DUP7 GAS STATICCALL ISZERO DUP1 ISZERO PUSH2 0x89B JUMPI RETURNDATASIZE PUSH1 0x0 DUP1 RETURNDATACOPY RETURNDATASIZE PUSH1 0x0 REVERT JUMPDEST POP POP POP POP PUSH1 0x40 MLOAD RETURNDATASIZE PUSH1 0x1F NOT PUSH1 0x1F DUP3 ADD AND DUP3 ADD DUP1 PUSH1 0x40 MSTORE POP DUP2 ADD SWAP1 PUSH2 0x8BF SWAP2 SWAP1 PUSH2 0x21FF JUMP JUMPDEST PUSH1 0x20 DUP1 SLOAD PUSH1 0x40 DUP1 MLOAD PUSH4 0x5C9302C9 PUSH1 0xE0 SHL DUP2 MSTORE SWAP1 MLOAD PUSH1 0x1 PUSH1 0x1 PUSH1 0xA0 SHL SUB SWAP1 SWAP3 AND SWAP3 PUSH4 0x5C9302C9 SWAP3 PUSH1 0x4 DUP1 DUP5 ADD SWAP4 DUP3 SWAP1 SUB ADD DUP2 DUP7 GAS STATICCALL ISZERO DUP1 ISZERO PUSH2 0x904 JUMPI RETURNDATASIZE PUSH1 0x0 DUP1 RETURNDATACOPY RETURNDATASIZE PUSH1 0x0 REVERT JUMPDEST POP POP POP POP PUSH1 0x40 MLOAD RETURNDATASIZE PUSH1 0x1F NOT PUSH1 0x1F DUP3 ADD AND DUP3 ADD DUP1 PUSH1 0x40 MSTORE POP DUP2 ADD SWAP1 PUSH2 0x928 SWAP2 SWAP1 PUSH2 0x21FF JUMP JUMPDEST PUSH1 0x40 MLOAD PUSH1 0x1 PUSH1 0x1 PUSH1 0xE0 SHL SUB NOT PUSH1 0xE0 DUP6 SWAP1 SHL AND DUP2 MSTORE PUSH1 0x4 DUP2 ADD SWAP3 SWAP1 SWAP3 MSTORE PUSH1 0x24 DUP3 ADD MSTORE PUSH1 0x44 ADD PUSH1 0x20 PUSH1 0x40 MLOAD DUP1 DUP4 SUB DUP2 DUP7 GAS STATICCALL ISZERO DUP1 ISZERO PUSH2 0x969 JUMPI RETURNDATASIZE PUSH1 0x0 DUP1 RETURNDATACOPY RETURNDATASIZE PUSH1 0x0 REVERT JUMPDEST POP POP POP POP PUSH1 0x40 MLOAD RETURNDATASIZE PUSH1 0x1F NOT PUSH1 0x1F DUP3 ADD AND DUP3 ADD DUP1 PUSH1 0x40 MSTORE POP DUP2 ADD SWAP1 PUSH2 0x98D SWAP2 SWAP1 PUSH2 0x21FF JUMP JUMPDEST PUSH2 0x997 SWAP1 DUP4 PUSH2 0x2218 JUMP JUMPDEST SWAP1 POP PUSH1 0x0 PUSH1 0x7 PUSH2 0x9A8 DUP4 PUSH1 0x6 PUSH2 0x22B3 JUMP JUMPDEST PUSH2 0x9B2 SWAP2 SWAP1 PUSH2 0x22D2 JUMP JUMPDEST PUSH1 0x3 SLOAD PUSH1 0x40 MLOAD PUSH4 0x23B872DD PUSH1 0xE0 SHL DUP2 MSTORE SWAP2 SWAP3 POP PUSH1 0x1 PUSH1 0x1 PUSH1 0xA0 SHL SUB AND SWAP1 PUSH4 0x23B872DD SWAP1 PUSH2 0x9E7 SWAP1 CALLER SWAP1 ADDRESS SWAP1 DUP7 SWAP1 PUSH1 0x4 ADD PUSH2 0x22F4 JUMP JUMPDEST PUSH1 0x20 PUSH1 0x40 MLOAD DUP1 DUP4 SUB DUP2 PUSH1 0x0 DUP8 GAS CALL ISZERO DUP1 ISZERO PUSH2 0xA06 JUMPI RETURNDATASIZE PUSH1 0x0 DUP1 RETURNDATACOPY RETURNDATASIZE PUSH1 0x0 REVERT JUMPDEST POP POP POP POP PUSH1 0x40 MLOAD RETURNDATASIZE PUSH1 0x1F NOT PUSH1 0x1F DUP3 ADD AND DUP3 ADD DUP1 PUSH1 0x40 MSTORE POP DUP2 ADD SWAP1 PUSH2 0xA2A SWAP2 SWAP1 PUSH2 0x2318 JUMP JUMPDEST POP PUSH1 0x3 SLOAD PUSH1 0x20 SLOAD PUSH1 0x40 MLOAD PUSH4 0x95EA7B3 PUSH1 0xE0 SHL DUP2 MSTORE PUSH1 0x1 PUSH1 0x1 PUSH1 0xA0 SHL SUB SWAP3 DUP4 AND SWAP3 PUSH4 0x95EA7B3 SWAP3 PUSH2 0xA6B SWAP3 SWAP2 AND SWAP1 PUSH10 0x152D02C7E14AF67FFFFF SWAP1 PUSH1 0x4 ADD PUSH2 0x2341 JUMP JUMPDEST PUSH1 0x20 PUSH1 0x40 MLOAD DUP1 DUP4 SUB DUP2 PUSH1 0x0 DUP8 GAS CALL ISZERO DUP1 ISZERO PUSH2 0xA8A JUMPI RETURNDATASIZE PUSH1 0x0 DUP1 RETURNDATACOPY RETURNDATASIZE PUSH1 0x0 REVERT JUMPDEST POP POP POP POP PUSH1 0x40 MLOAD RETURNDATASIZE PUSH1 0x1F NOT PUSH1 0x1F DUP3 ADD AND DUP3 ADD DUP1 PUSH1 0x40 MSTORE POP DUP2 ADD SWAP1 PUSH2 0xAAE SWAP2 SWAP1 PUSH2 0x2318 JUMP JUMPDEST POP PUSH1 0x20 SLOAD PUSH1 0x40 MLOAD PUSH4 0x36F31F13 PUSH1 0xE1 SHL DUP2 MSTORE PUSH1 0x1 PUSH1 0x1 PUSH1 0xA0 SHL SUB SWAP1 SWAP2 AND SWAP1 PUSH4 0x6DE63E26 SWAP1 PUSH2 0xAE1 SWAP1 ADDRESS SWAP1 DUP6 SWAP1 PUSH1 0x4 ADD PUSH2 0x2341 JUMP JUMPDEST PUSH1 0x0 PUSH1 0x40 MLOAD DUP1 DUP4 SUB DUP2 PUSH1 0x0 DUP8 DUP1 EXTCODESIZE ISZERO DUP1 ISZERO PUSH2 0xAFB JUMPI PUSH1 0x0 DUP1 REVERT JUMPDEST POP GAS CALL ISZERO DUP1 ISZERO PUSH2 0xB0F JUMPI RETURNDATASIZE PUSH1 0x0 DUP1 RETURNDATACOPY RETURNDATASIZE PUSH1 0x0 REVERT JUMPDEST POP POP PUSH1 0x20 SLOAD PUSH1 0x40 MLOAD PUSH4 0xEE1F84C3 PUSH1 0xE0 SHL DUP2 MSTORE ADDRESS PUSH1 0x4 DUP3 ADD MSTORE PUSH1 0x1 PUSH1 0x1 PUSH1 0xA0 SHL SUB SWAP1 SWAP2 AND SWAP3 POP PUSH4 0xEE1F84C3 SWAP2 POP PUSH1 0x24 ADD PUSH1 0x0 PUSH1 0x40 MLOAD DUP1 DUP4 SUB DUP2 PUSH1 0x0 DUP8 DUP1 EXTCODESIZE ISZERO DUP1 ISZERO PUSH2 0xB58 JUMPI PUSH1 0x0 DUP1 REVERT JUMPDEST POP GAS CALL ISZERO DUP1 ISZERO PUSH2 0xB6C JUMPI RETURNDATASIZE PUSH1 0x0 DUP1 RETURNDATACOPY RETURNDATASIZE PUSH1 0x0 REVERT JUMPDEST POP POP PUSH1 0x4 DUP1 SLOAD PUSH1 0x40 MLOAD PUSH4 0x70A08231 PUSH1 0xE0 SHL DUP2 MSTORE ADDRESS SWAP3 DUP2 ADD SWAP3 SWAP1 SWAP3 MSTORE PUSH1 0x0 SWAP4 POP PUSH1 0x1 PUSH1 0x1 PUSH1 0xA0 SHL SUB AND SWAP2 POP PUSH4 0x70A08231 SWAP1 PUSH1 0x24 ADD PUSH1 0x20 PUSH1 0x40 MLOAD DUP1 DUP4 SUB DUP2 DUP7 GAS STATICCALL ISZERO DUP1 ISZERO PUSH2 0xBBC JUMPI RETURNDATASIZE PUSH1 0x0 DUP1 RETURNDATACOPY RETURNDATASIZE PUSH1 0x0 REVERT JUMPDEST POP POP POP POP PUSH1 0x40 MLOAD RETURNDATASIZE PUSH1 0x1F NOT PUSH1 0x1F DUP3 ADD AND DUP3 ADD DUP1 PUSH1 0x40 MSTORE POP DUP2 ADD SWAP1 PUSH2 0xBE0 SWAP2 SWAP1 PUSH2 0x21FF JUMP JUMPDEST PUSH1 0x4 DUP1 SLOAD PUSH1 0x1F SLOAD PUSH1 0x40 MLOAD PUSH4 0x95EA7B3 PUSH1 0xE0 SHL DUP2 MSTORE SWAP4 SWAP5 POP PUSH1 0x1 PUSH1 0x1 PUSH1 0xA0 SHL SUB SWAP2 DUP3 AND SWAP4 PUSH4 0x95EA7B3 SWAP4 PUSH2 0xC2E SWAP4 SWAP1 SWAP3 AND SWAP2 PUSH21 0x6D79F82328EA3DA61E066EBB2F889FFFFFFFFFFFF SWAP2 ADD PUSH2 0x2341 JUMP JUMPDEST PUSH1 0x20 PUSH1 0x40 MLOAD DUP1 DUP4 SUB DUP2 PUSH1 0x0 DUP8 GAS CALL ISZERO DUP1 ISZERO PUSH2 0xC4D JUMPI RETURNDATASIZE PUSH1 0x0 DUP1 RETURNDATACOPY RETURNDATASIZE PUSH1 0x0 REVERT JUMPDEST POP POP POP POP PUSH1 0x40 MLOAD RETURNDATASIZE PUSH1 0x1F NOT PUSH1 0x1F DUP3 ADD AND DUP3 ADD DUP1 PUSH1 0x40 MSTORE POP DUP2 ADD SWAP1 PUSH2 0xC71 SWAP2 SWAP1 PUSH2 0x2318 JUMP JUMPDEST PUSH2 0xC8D JUMPI PUSH1 0x40 MLOAD PUSH3 0x461BCD PUSH1 0xE5 SHL DUP2 MSTORE PUSH1 0x4 ADD PUSH2 0x62E SWAP1 PUSH2 0x235A JUMP JUMPDEST PUSH1 0x40 DUP1 MLOAD PUSH1 0x2 DUP1 DUP3 MSTORE PUSH1 0x60 DUP3 ADD DUP4 MSTORE PUSH1 0x0 SWAP3 PUSH1 0x20 DUP4 ADD SWAP1 DUP1 CALLDATASIZE DUP4 CALLDATACOPY POP POP PUSH1 0x4 SLOAD DUP3 MLOAD SWAP3 SWAP4 POP PUSH1 0x1 PUSH1 0x1 PUSH1 0xA0 SHL SUB AND SWAP2 DUP4 SWAP2 POP PUSH1 0x0 SWAP1 PUSH2 0xCCE JUMPI PUSH2 0xCCE PUSH2 0x2174 JUMP JUMPDEST PUSH1 0x1 PUSH1 0x1 PUSH1 0xA0 SHL SUB SWAP3 DUP4 AND PUSH1 0x20 SWAP2 DUP3 MUL SWAP3 SWAP1 SWAP3 ADD ADD MSTORE PUSH1 0x3 SLOAD DUP3 MLOAD SWAP2 AND SWAP1 DUP3 SWAP1 PUSH1 0x1 SWAP1 DUP2 LT PUSH2 0xCFF JUMPI PUSH2 0xCFF PUSH2 0x2174 JUMP JUMPDEST PUSH1 0x20 MUL PUSH1 0x20 ADD ADD SWAP1 PUSH1 0x1 PUSH1 0x1 PUSH1 0xA0 SHL SUB AND SWAP1 DUP2 PUSH1 0x1 PUSH1 0x1 PUSH1 0xA0 SHL SUB AND DUP2 MSTORE POP POP PUSH1 0x1F PUSH1 0x0 SWAP1 SLOAD SWAP1 PUSH2 0x100 EXP SWAP1 DIV PUSH1 0x1 PUSH1 0x1 PUSH1 0xA0 SHL SUB AND PUSH1 0x1 PUSH1 0x1 PUSH1 0xA0 SHL SUB AND PUSH4 0x38ED1739 DUP4 DUP16 DUP5 CALLER PUSH9 0x56BC75E2D630FFFFF PUSH1 0x40 MLOAD DUP7 PUSH4 0xFFFFFFFF AND PUSH1 0xE0 SHL DUP2 MSTORE PUSH1 0x4 ADD PUSH2 0xD71 SWAP6 SWAP5 SWAP4 SWAP3 SWAP2 SWAP1 PUSH2 0x23DD JUMP JUMPDEST PUSH1 0x0 PUSH1 0x40 MLOAD DUP1 DUP4 SUB DUP2 PUSH1 0x0 DUP8 GAS CALL ISZERO DUP1 ISZERO PUSH2 0xD90 JUMPI RETURNDATASIZE PUSH1 0x0 DUP1 RETURNDATACOPY RETURNDATASIZE PUSH1 0x0 REVERT JUMPDEST POP POP POP POP PUSH1 0x40 MLOAD RETURNDATASIZE PUSH1 0x0 DUP3 RETURNDATACOPY PUSH1 0x1F RETURNDATASIZE SWAP1 DUP2 ADD PUSH1 0x1F NOT AND DUP3 ADD PUSH1 0x40 MSTORE PUSH2 0xDB8 SWAP2 SWAP1 DUP2 ADD SWAP1 PUSH2 0x2419 JUMP JUMPDEST POP POP POP POP POP POP POP POP POP POP POP JUMPDEST POP PUSH1 0x1 SWAP4 SWAP3 POP POP POP JUMP JUMPDEST PUSH1 0x40 DUP1 MLOAD PUSH1 0x2 DUP1 DUP3 MSTORE PUSH1 0x60 DUP3 ADD DUP4 MSTORE PUSH1 0x0 SWAP3 PUSH1 0x20 DUP4 ADD SWAP1 DUP1 CALLDATASIZE DUP4 CALLDATACOPY POP POP PUSH1 0x3 SLOAD DUP3 MLOAD SWAP3 SWAP4 POP PUSH1 0x1 PUSH1 0x1 PUSH1 0xA0 SHL SUB AND SWAP2 DUP4 SWAP2 POP PUSH1 0x0 SWAP1 PUSH2 0xE0F JUMPI PUSH2 0xE0F PUSH2 0x2174 JUMP JUMPDEST PUSH1 0x1 PUSH1 0x1 PUSH1 0xA0 SHL SUB SWAP3 DUP4 AND PUSH1 0x20 SWAP2 DUP3 MUL SWAP3 SWAP1 SWAP3 ADD ADD MSTORE PUSH1 0x4 SLOAD DUP3 MLOAD SWAP2 AND SWAP1 DUP3 SWAP1 PUSH1 0x1 SWAP1 DUP2 LT PUSH2 0xE40 JUMPI PUSH2 0xE40 PUSH2 0x2174 JUMP JUMPDEST PUSH1 0x1 PUSH1 0x1 PUSH1 0xA0 SHL SUB SWAP3 DUP4 AND PUSH1 0x20 SWAP2 DUP3 MUL SWAP3 SWAP1 SWAP3 ADD ADD MSTORE PUSH1 0x1F SLOAD PUSH1 0x40 MLOAD PUSH4 0x38ED1739 PUSH1 0xE0 SHL DUP2 MSTORE SWAP2 AND SWAP1 PUSH4 0x38ED1739 SWAP1 PUSH2 0xEA6 SWAP1 PUSH3 0xF4240 SWAP1 PUSH1 0x1 SWAP1 DUP7 SWAP1 PUSH20 0xBB3A3D4A665AB4E9D5594077163C0044D1290699 SWAP1 PUSH9 0x56BC75E2D630FFFFF SWAP1 PUSH1 0x4 ADD PUSH2 0x23DD JUMP JUMPDEST PUSH1 0x0 PUSH1 0x40 MLOAD DUP1 DUP4 SUB DUP2 PUSH1 0x0 DUP8 GAS CALL ISZERO DUP1 ISZERO PUSH2 0xEC5 JUMPI RETURNDATASIZE PUSH1 0x0 DUP1 RETURNDATACOPY RETURNDATASIZE PUSH1 0x0 REVERT JUMPDEST POP POP POP POP PUSH1 0x40 MLOAD RETURNDATASIZE PUSH1 0x0 DUP3 RETURNDATACOPY PUSH1 0x1F RETURNDATASIZE SWAP1 DUP2 ADD PUSH1 0x1F NOT AND DUP3 ADD PUSH1 0x40 MSTORE PUSH2 0xEED SWAP2 SWAP1 DUP2 ADD SWAP1 PUSH2 0x2419 JUMP JUMPDEST POP POP POP JUMP JUMPDEST PUSH1 0x0 DUP1 DUP1 JUMPDEST PUSH1 0x2 SLOAD DUP2 LT ISZERO PUSH2 0xF50 JUMPI CALLER PUSH1 0x1 PUSH1 0x1 PUSH1 0xA0 SHL SUB AND PUSH1 0x2 DUP3 DUP2 SLOAD DUP2 LT PUSH2 0xF1E JUMPI PUSH2 0xF1E PUSH2 0x2174 JUMP JUMPDEST PUSH1 0x0 SWAP2 DUP3 MSTORE PUSH1 0x20 SWAP1 SWAP2 KECCAK256 ADD SLOAD PUSH1 0x1 PUSH1 0x1 PUSH1 0xA0 SHL SUB AND EQ ISZERO PUSH2 0xF3E JUMPI PUSH1 0x1 SWAP2 POP JUMPDEST DUP1 PUSH2 0xF48 DUP2 PUSH2 0x21A0 JUMP JUMPDEST SWAP2 POP POP PUSH2 0xEF7 JUMP JUMPDEST POP PUSH1 0x1 SLOAD PUSH1 0x1 PUSH1 0x1 PUSH1 0xA0 SHL SUB AND CALLER EQ DUP1 PUSH2 0xF67 JUMPI POP DUP1 JUMPDEST PUSH2 0xF83 JUMPI PUSH1 0x40 MLOAD PUSH3 0x461BCD PUSH1 0xE5 SHL DUP2 MSTORE PUSH1 0x4 ADD PUSH2 0x62E SWAP1 PUSH2 0x21BB JUMP JUMPDEST PUSH1 0x0 DUP1 PUSH1 0x0 PUSH1 0x22 PUSH1 0x0 SWAP1 SLOAD SWAP1 PUSH2 0x100 EXP SWAP1 DIV PUSH1 0x1 PUSH1 0x1 PUSH1 0xA0 SHL SUB AND PUSH1 0x1 PUSH1 0x1 PUSH1 0xA0 SHL SUB AND PUSH4 0x902F1AC PUSH1 0x40 MLOAD DUP2 PUSH4 0xFFFFFFFF AND PUSH1 0xE0 SHL DUP2 MSTORE PUSH1 0x4 ADD PUSH1 0x60 PUSH1 0x40 MLOAD DUP1 DUP4 SUB DUP2 DUP7 GAS STATICCALL ISZERO DUP1 ISZERO PUSH2 0xFDB JUMPI RETURNDATASIZE PUSH1 0x0 DUP1 RETURNDATACOPY RETURNDATASIZE PUSH1 0x0 REVERT JUMPDEST POP POP POP POP PUSH1 0x40 MLOAD RETURNDATASIZE PUSH1 0x1F NOT PUSH1 0x1F DUP3 ADD AND DUP3 ADD DUP1 PUSH1 0x40 MSTORE POP DUP2 ADD SWAP1 PUSH2 0xFFF SWAP2 SWAP1 PUSH2 0x224B JUMP JUMPDEST SWAP2 SWAP5 POP SWAP3 POP SWAP1 POP PUSH10 0x1BC16D674EC80000000 PUSH1 0x0 PUSH2 0x1026 DUP3 PUSH1 0x1 PUSH1 0x1 PUSH1 0x70 SHL SUB DUP7 AND PUSH2 0x229B JUMP JUMPDEST PUSH2 0x1039 PUSH1 0x1 PUSH1 0x1 PUSH1 0x70 SHL SUB DUP8 AND DUP5 PUSH2 0x22B3 JUMP JUMPDEST PUSH2 0x1043 SWAP2 SWAP1 PUSH2 0x22D2 JUMP JUMPDEST SWAP1 POP PUSH1 0x0 PUSH1 0x64 PUSH2 0x1054 DUP4 PUSH1 0x5F PUSH2 0x22B3 JUMP JUMPDEST PUSH2 0x105E SWAP2 SWAP1 PUSH2 0x22D2 JUMP JUMPDEST PUSH1 0x20 DUP1 SLOAD PUSH1 0x40 DUP1 MLOAD PUSH4 0x4B9B147B PUSH1 0xE1 SHL DUP2 MSTORE SWAP1 MLOAD SWAP4 SWAP5 POP PUSH1 0x0 SWAP4 PUSH1 0x1 PUSH1 0x1 PUSH1 0xA0 SHL SUB SWAP1 SWAP3 AND SWAP3 PUSH4 0x60B29259 SWAP3 DUP5 SWAP3 PUSH4 0x973628F6 SWAP3 PUSH1 0x4 DUP1 DUP4 ADD SWAP4 SWAP2 SWAP3 DUP3 SWAP1 SUB ADD DUP2 DUP7 GAS STATICCALL ISZERO DUP1 ISZERO PUSH2 0x10B3 JUMPI RETURNDATASIZE PUSH1 0x0 DUP1 RETURNDATACOPY RETURNDATASIZE PUSH1 0x0 REVERT JUMPDEST POP POP POP POP PUSH1 0x40 MLOAD RETURNDATASIZE PUSH1 0x1F NOT PUSH1 0x1F DUP3 ADD AND DUP3 ADD DUP1 PUSH1 0x40 MSTORE POP DUP2 ADD SWAP1 PUSH2 0x10D7 SWAP2 SWAP1 PUSH2 0x21FF JUMP JUMPDEST PUSH1 0x20 DUP1 SLOAD PUSH1 0x40 DUP1 MLOAD PUSH4 0x5C9302C9 PUSH1 0xE0 SHL DUP2 MSTORE SWAP1 MLOAD PUSH1 0x1 PUSH1 0x1 PUSH1 0xA0 SHL SUB SWAP1 SWAP3 AND SWAP3 PUSH4 0x5C9302C9 SWAP3 PUSH1 0x4 DUP1 DUP5 ADD SWAP4 DUP3 SWAP1 SUB ADD DUP2 DUP7 GAS STATICCALL ISZERO DUP1 ISZERO PUSH2 0x111C JUMPI RETURNDATASIZE PUSH1 0x0 DUP1 RETURNDATACOPY RETURNDATASIZE PUSH1 0x0 REVERT JUMPDEST POP POP POP POP PUSH1 0x40 MLOAD RETURNDATASIZE PUSH1 0x1F NOT PUSH1 0x1F DUP3 ADD AND DUP3 ADD DUP1 PUSH1 0x40 MSTORE POP DUP2 ADD SWAP1 PUSH2 0x1140 SWAP2 SWAP1 PUSH2 0x21FF JUMP JUMPDEST PUSH1 0x40 MLOAD PUSH1 0x1 PUSH1 0x1 PUSH1 0xE0 SHL SUB NOT PUSH1 0xE0 DUP6 SWAP1 SHL AND DUP2 MSTORE PUSH1 0x4 DUP2 ADD SWAP3 SWAP1 SWAP3 MSTORE PUSH1 0x24 DUP3 ADD MSTORE PUSH1 0x44 ADD PUSH1 0x20 PUSH1 0x40 MLOAD DUP1 DUP4 SUB DUP2 DUP7 GAS STATICCALL ISZERO DUP1 ISZERO PUSH2 0x1181 JUMPI RETURNDATASIZE PUSH1 0x0 DUP1 RETURNDATACOPY RETURNDATASIZE PUSH1 0x0 REVERT JUMPDEST POP POP POP POP PUSH1 0x40 MLOAD RETURNDATASIZE PUSH1 0x1F NOT PUSH1 0x1F DUP3 ADD AND DUP3 ADD DUP1 PUSH1 0x40 MSTORE POP DUP2 ADD SWAP1 PUSH2 0x11A5 SWAP2 SWAP1 PUSH2 0x21FF JUMP JUMPDEST PUSH2 0x11AF SWAP1 DUP4 PUSH2 0x2218 JUMP JUMPDEST SWAP1 POP PUSH1 0x0 PUSH1 0x46 PUSH2 0x11C0 DUP4 PUSH1 0x6 PUSH2 0x22B3 JUMP JUMPDEST PUSH2 0x11CA SWAP2 SWAP1 PUSH2 0x22D2 JUMP JUMPDEST PUSH1 0x3 SLOAD PUSH1 0x40 MLOAD PUSH4 0x23B872DD PUSH1 0xE0 SHL DUP2 MSTORE SWAP2 SWAP3 POP PUSH1 0x1 PUSH1 0x1 PUSH1 0xA0 SHL SUB AND SWAP1 PUSH4 0x23B872DD SWAP1 PUSH2 0x11FF SWAP1 CALLER SWAP1 ADDRESS SWAP1 DUP7 SWAP1 PUSH1 0x4 ADD PUSH2 0x22F4 JUMP JUMPDEST PUSH1 0x20 PUSH1 0x40 MLOAD DUP1 DUP4 SUB DUP2 PUSH1 0x0 DUP8 GAS CALL ISZERO DUP1 ISZERO PUSH2 0x121E JUMPI RETURNDATASIZE PUSH1 0x0 DUP1 RETURNDATACOPY RETURNDATASIZE PUSH1 0x0 REVERT JUMPDEST POP POP POP POP PUSH1 0x40 MLOAD RETURNDATASIZE PUSH1 0x1F NOT PUSH1 0x1F DUP3 ADD AND DUP3 ADD DUP1 PUSH1 0x40 MSTORE POP DUP2 ADD SWAP1 PUSH2 0x1242 SWAP2 SWAP1 PUSH2 0x2318 JUMP JUMPDEST POP PUSH1 0x3 SLOAD PUSH1 0x20 SLOAD PUSH1 0x40 MLOAD PUSH4 0x95EA7B3 PUSH1 0xE0 SHL DUP2 MSTORE PUSH1 0x1 PUSH1 0x1 PUSH1 0xA0 SHL SUB SWAP3 DUP4 AND SWAP3 PUSH4 0x95EA7B3 SWAP3 PUSH2 0x1283 SWAP3 SWAP2 AND SWAP1 PUSH10 0x152D02C7E14AF67FFFFF SWAP1 PUSH1 0x4 ADD PUSH2 0x2341 JUMP JUMPDEST PUSH1 0x20 PUSH1 0x40 MLOAD DUP1 DUP4 SUB DUP2 PUSH1 0x0 DUP8 GAS CALL ISZERO DUP1 ISZERO PUSH2 0x12A2 JUMPI RETURNDATASIZE PUSH1 0x0 DUP1 RETURNDATACOPY RETURNDATASIZE PUSH1 0x0 REVERT JUMPDEST POP POP POP POP PUSH1 0x40 MLOAD RETURNDATASIZE PUSH1 0x1F NOT PUSH1 0x1F DUP3 ADD AND DUP3 ADD DUP1 PUSH1 0x40 MSTORE POP DUP2 ADD SWAP1 PUSH2 0x12C6 SWAP2 SWAP1 PUSH2 0x2318 JUMP JUMPDEST POP PUSH1 0x20 SLOAD PUSH1 0x40 MLOAD PUSH4 0x36F31F13 PUSH1 0xE1 SHL DUP2 MSTORE PUSH1 0x1 PUSH1 0x1 PUSH1 0xA0 SHL SUB SWAP1 SWAP2 AND SWAP1 PUSH4 0x6DE63E26 SWAP1 PUSH2 0x12F9 SWAP1 ADDRESS SWAP1 DUP6 SWAP1 PUSH1 0x4 ADD PUSH2 0x2341 JUMP JUMPDEST PUSH1 0x0 PUSH1 0x40 MLOAD DUP1 DUP4 SUB DUP2 PUSH1 0x0 DUP8 DUP1 EXTCODESIZE ISZERO DUP1 ISZERO PUSH2 0x1313 JUMPI PUSH1 0x0 DUP1 REVERT JUMPDEST POP GAS CALL ISZERO DUP1 ISZERO PUSH2 0x1327 JUMPI RETURNDATASIZE PUSH1 0x0 DUP1 RETURNDATACOPY RETURNDATASIZE PUSH1 0x0 REVERT JUMPDEST POP POP PUSH1 0x20 SLOAD PUSH1 0x40 MLOAD PUSH4 0xEE1F84C3 PUSH1 0xE0 SHL DUP2 MSTORE ADDRESS PUSH1 0x4 DUP3 ADD MSTORE PUSH1 0x1 PUSH1 0x1 PUSH1 0xA0 SHL SUB SWAP1 SWAP2 AND SWAP3 POP PUSH4 0xEE1F84C3 SWAP2 POP PUSH1 0x24 ADD PUSH1 0x0 PUSH1 0x40 MLOAD DUP1 DUP4 SUB DUP2 PUSH1 0x0 DUP8 DUP1 EXTCODESIZE ISZERO DUP1 ISZERO PUSH2 0x1370 JUMPI PUSH1 0x0 DUP1 REVERT JUMPDEST POP GAS CALL ISZERO DUP1 ISZERO PUSH2 0x1384 JUMPI RETURNDATASIZE PUSH1 0x0 DUP1 RETURNDATACOPY RETURNDATASIZE PUSH1 0x0 REVERT JUMPDEST POP POP PUSH1 0x4 DUP1 SLOAD PUSH1 0x40 MLOAD PUSH4 0x70A08231 PUSH1 0xE0 SHL DUP2 MSTORE ADDRESS SWAP3 DUP2 ADD SWAP3 SWAP1 SWAP3 MSTORE PUSH1 0x0 SWAP4 POP PUSH1 0x1 PUSH1 0x1 PUSH1 0xA0 SHL SUB AND SWAP2 POP PUSH4 0x70A08231 SWAP1 PUSH1 0x24 ADD PUSH1 0x20 PUSH1 0x40 MLOAD DUP1 DUP4 SUB DUP2 DUP7 GAS STATICCALL ISZERO DUP1 ISZERO PUSH2 0x13D4 JUMPI RETURNDATASIZE PUSH1 0x0 DUP1 RETURNDATACOPY RETURNDATASIZE PUSH1 0x0 REVERT JUMPDEST POP POP POP POP PUSH1 0x40 MLOAD RETURNDATASIZE PUSH1 0x1F NOT PUSH1 0x1F DUP3 ADD AND DUP3 ADD DUP1 PUSH1 0x40 MSTORE POP DUP2 ADD SWAP1 PUSH2 0x13F8 SWAP2 SWAP1 PUSH2 0x21FF JUMP JUMPDEST PUSH1 0x4 DUP1 SLOAD PUSH1 0x1F SLOAD PUSH1 0x40 MLOAD PUSH4 0x95EA7B3 PUSH1 0xE0 SHL DUP2 MSTORE SWAP4 SWAP5 POP PUSH1 0x1 PUSH1 0x1 PUSH1 0xA0 SHL SUB SWAP2 DUP3 AND SWAP4 PUSH4 0x95EA7B3 SWAP4 PUSH2 0x1446 SWAP4 SWAP1 SWAP3 AND SWAP2 PUSH21 0x6D79F82328EA3DA61E066EBB2F889FFFFFFFFFFFF SWAP2 ADD PUSH2 0x2341 JUMP JUMPDEST PUSH1 0x20 PUSH1 0x40 MLOAD DUP1 DUP4 SUB DUP2 PUSH1 0x0 DUP8 GAS CALL ISZERO DUP1 ISZERO PUSH2 0x1465 JUMPI RETURNDATASIZE PUSH1 0x0 DUP1 RETURNDATACOPY RETURNDATASIZE PUSH1 0x0 REVERT JUMPDEST POP POP POP POP PUSH1 0x40 MLOAD RETURNDATASIZE PUSH1 0x1F NOT PUSH1 0x1F DUP3 ADD AND DUP3 ADD DUP1 PUSH1 0x40 MSTORE POP DUP2 ADD SWAP1 PUSH2 0x1489 SWAP2 SWAP1 PUSH2 0x2318 JUMP JUMPDEST PUSH2 0x14A5 JUMPI PUSH1 0x40 MLOAD PUSH3 0x461BCD PUSH1 0xE5 SHL DUP2 MSTORE PUSH1 0x4 ADD PUSH2 0x62E SWAP1 PUSH2 0x235A JUMP JUMPDEST PUSH1 0x40 DUP1 MLOAD PUSH1 0x2 DUP1 DUP3 MSTORE PUSH1 0x60 DUP3 ADD DUP4 MSTORE PUSH1 0x0 SWAP3 PUSH1 0x20 DUP4 ADD SWAP1 DUP1 CALLDATASIZE DUP4 CALLDATACOPY POP POP PUSH1 0x4 SLOAD DUP3 MLOAD SWAP3 SWAP4 POP PUSH1 0x1 PUSH1 0x1 PUSH1 0xA0 SHL SUB AND SWAP2 DUP4 SWAP2 POP PUSH1 0x0 SWAP1 PUSH2 0x14E6 JUMPI PUSH2 0x14E6 PUSH2 0x2174 JUMP JUMPDEST PUSH1 0x1 PUSH1 0x1 PUSH1 0xA0 SHL SUB SWAP3 DUP4 AND PUSH1 0x20 SWAP2 DUP3 MUL SWAP3 SWAP1 SWAP3 ADD ADD MSTORE PUSH1 0x3 SLOAD DUP3 MLOAD SWAP2 AND SWAP1 DUP3 SWAP1 PUSH1 0x1 SWAP1 DUP2 LT PUSH2 0x1517 JUMPI PUSH2 0x1517 PUSH2 0x2174 JUMP JUMPDEST PUSH1 0x1 PUSH1 0x1 PUSH1 0xA0 SHL SUB SWAP3 DUP4 AND PUSH1 0x20 SWAP2 DUP3 MUL SWAP3 SWAP1 SWAP3 ADD ADD MSTORE PUSH1 0x4 DUP1 SLOAD PUSH1 0x40 MLOAD PUSH4 0x23B872DD PUSH1 0xE0 SHL DUP2 MSTORE SWAP3 AND SWAP2 PUSH4 0x23B872DD SWAP2 PUSH2 0x155E SWAP2 CALLER SWAP2 ADDRESS SWAP2 PUSH7 0x38D7EA4C68000 SWAP2 ADD PUSH2 0x22F4 JUMP JUMPDEST PUSH1 0x20 PUSH1 0x40 MLOAD DUP1 DUP4 SUB DUP2 PUSH1 0x0 DUP8 GAS CALL ISZERO DUP1 ISZERO PUSH2 0x157D JUMPI RETURNDATASIZE PUSH1 0x0 DUP1 RETURNDATACOPY RETURNDATASIZE PUSH1 0x0 REVERT JUMPDEST POP POP POP POP PUSH1 0x40 MLOAD RETURNDATASIZE PUSH1 0x1F NOT PUSH1 0x1F DUP3 ADD AND DUP3 ADD DUP1 PUSH1 0x40 MSTORE POP DUP2 ADD SWAP1 PUSH2 0x15A1 SWAP2 SWAP1 PUSH2 0x2318 JUMP JUMPDEST POP PUSH1 0x1F PUSH1 0x0 SWAP1 SLOAD SWAP1 PUSH2 0x100 EXP SWAP1 DIV PUSH1 0x1 PUSH1 0x1 PUSH1 0xA0 SHL SUB AND PUSH1 0x1 PUSH1 0x1 PUSH1 0xA0 SHL SUB AND PUSH4 0x38ED1739 PUSH7 0x38D7EA4C68000 DUP16 DUP5 CALLER PUSH9 0x56BC75E2D630FFFFF PUSH1 0x40 MLOAD DUP7 PUSH4 0xFFFFFFFF AND PUSH1 0xE0 SHL DUP2 MSTORE PUSH1 0x4 ADD PUSH2 0x15FB SWAP6 SWAP5 SWAP4 SWAP3 SWAP2 SWAP1 PUSH2 0x23DD JUMP JUMPDEST PUSH1 0x0 PUSH1 0x40 MLOAD DUP1 DUP4 SUB DUP2 PUSH1 0x0 DUP8 GAS CALL ISZERO DUP1 ISZERO PUSH2 0x161A JUMPI RETURNDATASIZE PUSH1 0x0 DUP1 RETURNDATACOPY RETURNDATASIZE PUSH1 0x0 REVERT JUMPDEST POP POP POP POP PUSH1 0x40 MLOAD RETURNDATASIZE PUSH1 0x0 DUP3 RETURNDATACOPY PUSH1 0x1F RETURNDATASIZE SWAP1 DUP2 ADD PUSH1 0x1F NOT AND DUP3 ADD PUSH1 0x40 MSTORE PUSH2 0x1642 SWAP2 SWAP1 DUP2 ADD SWAP1 PUSH2 0x2419 JUMP JUMPDEST POP PUSH1 0x1 SWAP12 POP POP POP POP POP POP POP POP POP POP POP JUMPDEST POP SWAP2 SWAP1 POP JUMP JUMPDEST PUSH1 0x3 SLOAD PUSH1 0x40 MLOAD PUSH4 0x23B872DD PUSH1 0xE0 SHL DUP2 MSTORE PUSH1 0x1 PUSH1 0x1 PUSH1 0xA0 SHL SUB SWAP1 SWAP2 AND SWAP1 PUSH4 0x23B872DD SWAP1 PUSH2 0x1693 SWAP1 CALLER SWAP1 ADDRESS SWAP1 PUSH7 0x2386F26FC10000 SWAP1 PUSH1 0x4 ADD PUSH2 0x22F4 JUMP JUMPDEST PUSH1 0x20 PUSH1 0x40 MLOAD DUP1 DUP4 SUB DUP2 PUSH1 0x0 DUP8 GAS CALL ISZERO DUP1 ISZERO PUSH2 0x16B2 JUMPI RETURNDATASIZE PUSH1 0x0 DUP1 RETURNDATACOPY RETURNDATASIZE PUSH1 0x0 REVERT JUMPDEST POP POP POP POP PUSH1 0x40 MLOAD RETURNDATASIZE PUSH1 0x1F NOT PUSH1 0x1F DUP3 ADD AND DUP3 ADD DUP1 PUSH1 0x40 MSTORE POP DUP2 ADD SWAP1 PUSH2 0x16D6 SWAP2 SWAP1 PUSH2 0x2318 JUMP JUMPDEST PUSH2 0x16F2 JUMPI PUSH1 0x40 MLOAD PUSH3 0x461BCD PUSH1 0xE5 SHL DUP2 MSTORE PUSH1 0x4 ADD PUSH2 0x62E SWAP1 PUSH2 0x24D7 JUMP JUMPDEST PUSH1 0x3 SLOAD PUSH1 0x1F SLOAD PUSH1 0x40 MLOAD PUSH4 0x95EA7B3 PUSH1 0xE0 SHL DUP2 MSTORE PUSH1 0x1 PUSH1 0x1 PUSH1 0xA0 SHL SUB SWAP3 DUP4 AND SWAP3 PUSH4 0x95EA7B3 SWAP3 PUSH2 0x1731 SWAP3 SWAP2 AND SWAP1 PUSH9 0x56BC75E2D63100000 SWAP1 PUSH1 0x4 ADD PUSH2 0x2341 JUMP JUMPDEST PUSH1 0x20 PUSH1 0x40 MLOAD DUP1 DUP4 SUB DUP2 PUSH1 0x0 DUP8 GAS CALL ISZERO DUP1 ISZERO PUSH2 0x1750 JUMPI RETURNDATASIZE PUSH1 0x0 DUP1 RETURNDATACOPY RETURNDATASIZE PUSH1 0x0 REVERT JUMPDEST POP POP POP POP PUSH1 0x40 MLOAD RETURNDATASIZE PUSH1 0x1F NOT PUSH1 0x1F DUP3 ADD AND DUP3 ADD DUP1 PUSH1 0x40 MSTORE POP DUP2 ADD SWAP1 PUSH2 0x1774 SWAP2 SWAP1 PUSH2 0x2318 JUMP JUMPDEST PUSH2 0x1790 JUMPI PUSH1 0x40 MLOAD PUSH3 0x461BCD PUSH1 0xE5 SHL DUP2 MSTORE PUSH1 0x4 ADD PUSH2 0x62E SWAP1 PUSH2 0x235A JUMP JUMPDEST POP JUMP JUMPDEST PUSH1 0x4 DUP1 SLOAD PUSH1 0x40 MLOAD PUSH4 0x70A08231 PUSH1 0xE0 SHL DUP2 MSTORE CALLER SWAP3 DUP2 ADD DUP4 SWAP1 MSTORE PUSH1 0x1 PUSH1 0x1 PUSH1 0xA0 SHL SUB SWAP1 SWAP2 AND SWAP2 PUSH4 0x23B872DD SWAP2 ADDRESS SWAP1 DUP5 SWAP1 PUSH4 0x70A08231 SWAP1 PUSH1 0x24 ADD PUSH1 0x20 PUSH1 0x40 MLOAD DUP1 DUP4 SUB DUP2 DUP7 GAS STATICCALL ISZERO DUP1 ISZERO PUSH2 0x17E7 JUMPI RETURNDATASIZE PUSH1 0x0 DUP1 RETURNDATACOPY RETURNDATASIZE PUSH1 0x0 REVERT JUMPDEST POP POP POP POP PUSH1 0x40 MLOAD RETURNDATASIZE PUSH1 0x1F NOT PUSH1 0x1F DUP3 ADD AND DUP3 ADD DUP1 PUSH1 0x40 MSTORE POP DUP2 ADD SWAP1 PUSH2 0x180B SWAP2 SWAP1 PUSH2 0x21FF JUMP JUMPDEST PUSH1 0x40 MLOAD DUP5 PUSH4 0xFFFFFFFF AND PUSH1 0xE0 SHL DUP2 MSTORE PUSH1 0x4 ADD PUSH2 0x1829 SWAP4 SWAP3 SWAP2 SWAP1 PUSH2 0x22F4 JUMP JUMPDEST PUSH1 0x20 PUSH1 0x40 MLOAD DUP1 DUP4 SUB DUP2 PUSH1 0x0 DUP8 GAS CALL ISZERO DUP1 ISZERO PUSH2 0x1848 JUMPI RETURNDATASIZE PUSH1 0x0 DUP1 RETURNDATACOPY RETURNDATASIZE PUSH1 0x0 REVERT JUMPDEST POP POP POP POP PUSH1 0x40 MLOAD RETURNDATASIZE PUSH1 0x1F NOT PUSH1 0x1F DUP3 ADD AND DUP3 ADD DUP1 PUSH1 0x40 MSTORE POP DUP2 ADD SWAP1 PUSH2 0x186C SWAP2 SWAP1 PUSH2 0x2318 JUMP JUMPDEST PUSH2 0x1790 JUMPI PUSH1 0x40 MLOAD PUSH3 0x461BCD PUSH1 0xE5 SHL DUP2 MSTORE PUSH1 0x4 ADD PUSH2 0x62E SWAP1 PUSH2 0x24D7 JUMP JUMPDEST PUSH1 0x3 SLOAD PUSH1 0x40 MLOAD PUSH4 0x23B872DD PUSH1 0xE0 SHL DUP2 MSTORE PUSH1 0x1 PUSH1 0x1 PUSH1 0xA0 SHL SUB SWAP1 SWAP2 AND SWAP1 PUSH4 0x23B872DD SWAP1 PUSH2 0x18BE SWAP1 CALLER SWAP1 ADDRESS SWAP1 PUSH2 0x2710 SWAP1 PUSH1 0x4 ADD PUSH2 0x22F4 JUMP JUMPDEST PUSH1 0x20 PUSH1 0x40 MLOAD DUP1 DUP4 SUB DUP2 PUSH1 0x0 DUP8 GAS CALL ISZERO DUP1 ISZERO PUSH2 0x18DD JUMPI RETURNDATASIZE PUSH1 0x0 DUP1 RETURNDATACOPY RETURNDATASIZE PUSH1 0x0 REVERT JUMPDEST POP POP POP POP PUSH1 0x40 MLOAD RETURNDATASIZE PUSH1 0x1F NOT PUSH1 0x1F DUP3 ADD AND DUP3 ADD DUP1 PUSH1 0x40 MSTORE POP DUP2 ADD SWAP1 PUSH2 0x1901 SWAP2 SWAP1 PUSH2 0x2318 JUMP JUMPDEST PUSH2 0x191D JUMPI PUSH1 0x40 MLOAD PUSH3 0x461BCD PUSH1 0xE5 SHL DUP2 MSTORE PUSH1 0x4 ADD PUSH2 0x62E SWAP1 PUSH2 0x24D7 JUMP JUMPDEST PUSH1 0x3 SLOAD PUSH1 0x1F SLOAD PUSH1 0x40 MLOAD PUSH4 0x95EA7B3 PUSH1 0xE0 SHL DUP2 MSTORE PUSH1 0x1 PUSH1 0x1 PUSH1 0xA0 SHL SUB SWAP3 DUP4 AND SWAP3 PUSH4 0x95EA7B3 SWAP3 PUSH2 0x195C SWAP3 SWAP2 AND SWAP1 PUSH9 0x56BC75E2D63100000 SWAP1 PUSH1 0x4 ADD PUSH2 0x2341 JUMP JUMPDEST PUSH1 0x20 PUSH1 0x40 MLOAD DUP1 DUP4 SUB DUP2 PUSH1 0x0 DUP8 GAS CALL ISZERO DUP1 ISZERO PUSH2 0x197B JUMPI RETURNDATASIZE PUSH1 0x0 DUP1 RETURNDATACOPY RETURNDATASIZE PUSH1 0x0 REVERT JUMPDEST POP POP POP POP PUSH1 0x40 MLOAD RETURNDATASIZE PUSH1 0x1F NOT PUSH1 0x1F DUP3 ADD AND DUP3 ADD DUP1 PUSH1 0x40 MSTORE POP DUP2 ADD SWAP1 PUSH2 0x199F SWAP2 SWAP1 PUSH2 0x2318 JUMP JUMPDEST PUSH2 0x19BB JUMPI PUSH1 0x40 MLOAD PUSH3 0x461BCD PUSH1 0xE5 SHL DUP2 MSTORE PUSH1 0x4 ADD PUSH2 0x62E SWAP1 PUSH2 0x235A JUMP JUMPDEST PUSH1 0x40 DUP1 MLOAD PUSH1 0x2 DUP1 DUP3 MSTORE PUSH1 0x60 DUP3 ADD DUP4 MSTORE PUSH1 0x0 SWAP3 PUSH1 0x20 DUP4 ADD SWAP1 DUP1 CALLDATASIZE DUP4 CALLDATACOPY POP POP PUSH1 0x3 SLOAD DUP3 MLOAD SWAP3 SWAP4 POP PUSH1 0x1 PUSH1 0x1 PUSH1 0xA0 SHL SUB AND SWAP2 DUP4 SWAP2 POP PUSH1 0x0 SWAP1 PUSH2 0x19FC JUMPI PUSH2 0x19FC PUSH2 0x2174 JUMP JUMPDEST PUSH1 0x1 PUSH1 0x1 PUSH1 0xA0 SHL SUB SWAP3 DUP4 AND PUSH1 0x20 SWAP2 DUP3 MUL SWAP3 SWAP1 SWAP3 ADD ADD MSTORE PUSH1 0x4 SLOAD DUP3 MLOAD SWAP2 AND SWAP1 DUP3 SWAP1 PUSH1 0x1 SWAP1 DUP2 LT PUSH2 0x1A2D JUMPI PUSH2 0x1A2D PUSH2 0x2174 JUMP JUMPDEST PUSH1 0x1 PUSH1 0x1 PUSH1 0xA0 SHL SUB SWAP3 DUP4 AND PUSH1 0x20 SWAP2 DUP3 MUL SWAP3 SWAP1 SWAP3 ADD ADD MSTORE PUSH1 0x1F SLOAD PUSH1 0x40 MLOAD PUSH4 0x38ED1739 PUSH1 0xE0 SHL DUP2 MSTORE SWAP2 AND SWAP1 PUSH4 0x38ED1739 SWAP1 PUSH2 0xEA6 SWAP1 PUSH2 0x2710 SWAP1 PUSH1 0x1 SWAP1 DUP7 SWAP1 PUSH20 0xBB3A3D4A665AB4E9D5594077163C0044D1290699 SWAP1 PUSH9 0x56BC75E2D630FFFFF SWAP1 PUSH1 0x4 ADD PUSH2 0x23DD JUMP JUMPDEST PUSH1 0x2 DUP2 DUP2 SLOAD DUP2 LT PUSH2 0x1AA2 JUMPI PUSH1 0x0 DUP1 REVERT JUMPDEST PUSH1 0x0 SWAP2 DUP3 MSTORE PUSH1 0x20 SWAP1 SWAP2 KECCAK256 ADD SLOAD PUSH1 0x1 PUSH1 0x1 PUSH1 0xA0 SHL SUB AND SWAP1 POP DUP2 JUMP JUMPDEST PUSH1 0x4 DUP1 SLOAD PUSH1 0x40 MLOAD PUSH4 0x23B872DD PUSH1 0xE0 SHL DUP2 MSTORE PUSH1 0x1 PUSH1 0x1 PUSH1 0xA0 SHL SUB SWAP1 SWAP2 AND SWAP2 PUSH4 0x23B872DD SWAP2 PUSH2 0x1AF6 SWAP2 CALLER SWAP2 ADDRESS SWAP2 PUSH7 0x2386F26FC10000 SWAP2 ADD PUSH2 0x22F4 JUMP JUMPDEST PUSH1 0x20 PUSH1 0x40 MLOAD DUP1 DUP4 SUB DUP2 PUSH1 0x0 DUP8 GAS CALL ISZERO DUP1 ISZERO PUSH2 0x1B15 JUMPI RETURNDATASIZE PUSH1 0x0 DUP1 RETURNDATACOPY RETURNDATASIZE PUSH1 0x0 REVERT JUMPDEST POP POP POP POP PUSH1 0x40 MLOAD RETURNDATASIZE PUSH1 0x1F NOT PUSH1 0x1F DUP3 ADD AND DUP3 ADD DUP1 PUSH1 0x40 MSTORE POP DUP2 ADD SWAP1 PUSH2 0x1B39 SWAP2 SWAP1 PUSH2 0x2318 JUMP JUMPDEST PUSH2 0x1B55 JUMPI PUSH1 0x40 MLOAD PUSH3 0x461BCD PUSH1 0xE5 SHL DUP2 MSTORE PUSH1 0x4 ADD PUSH2 0x62E SWAP1 PUSH2 0x24D7 JUMP JUMPDEST PUSH1 0x4 DUP1 SLOAD PUSH1 0x1F SLOAD PUSH1 0x40 MLOAD PUSH4 0x95EA7B3 PUSH1 0xE0 SHL DUP2 MSTORE PUSH1 0x1 PUSH1 0x1 PUSH1 0xA0 SHL SUB SWAP3 DUP4 AND SWAP4 PUSH4 0x95EA7B3 SWAP4 PUSH2 0x1B92 SWAP4 AND SWAP2 PUSH9 0x56BC75E2D63100000 SWAP2 ADD PUSH2 0x2341 JUMP JUMPDEST PUSH1 0x20 PUSH1 0x40 MLOAD DUP1 DUP4 SUB DUP2 PUSH1 0x0 DUP8 GAS CALL ISZERO DUP1 ISZERO PUSH2 0x1BB1 JUMPI RETURNDATASIZE PUSH1 0x0 DUP1 RETURNDATACOPY RETURNDATASIZE PUSH1 0x0 REVERT JUMPDEST POP POP POP POP PUSH1 0x40 MLOAD RETURNDATASIZE PUSH1 0x1F NOT PUSH1 0x1F DUP3 ADD AND DUP3 ADD DUP1 PUSH1 0x40 MSTORE POP DUP2 ADD SWAP1 PUSH2 0x1BD5 SWAP2 SWAP1 PUSH2 0x2318 JUMP JUMPDEST PUSH2 0x1BF1 JUMPI PUSH1 0x40 MLOAD PUSH3 0x461BCD PUSH1 0xE5 SHL DUP2 MSTORE PUSH1 0x4 ADD PUSH2 0x62E SWAP1 PUSH2 0x235A JUMP JUMPDEST PUSH1 0x40 DUP1 MLOAD PUSH1 0x2 DUP1 DUP3 MSTORE PUSH1 0x60 DUP3 ADD DUP4 MSTORE PUSH1 0x0 SWAP3 PUSH1 0x20 DUP4 ADD SWAP1 DUP1 CALLDATASIZE DUP4 CALLDATACOPY POP POP PUSH1 0x4 SLOAD DUP3 MLOAD SWAP3 SWAP4 POP PUSH1 0x1 PUSH1 0x1 PUSH1 0xA0 SHL SUB AND SWAP2 DUP4 SWAP2 POP PUSH1 0x0 SWAP1 PUSH2 0x1C32 JUMPI PUSH2 0x1C32 PUSH2 0x2174 JUMP JUMPDEST PUSH1 0x1 PUSH1 0x1 PUSH1 0xA0 SHL SUB SWAP3 DUP4 AND PUSH1 0x20 SWAP2 DUP3 MUL SWAP3 SWAP1 SWAP3 ADD ADD MSTORE PUSH1 0x3 SLOAD DUP3 MLOAD SWAP2 AND SWAP1 DUP3 SWAP1 PUSH1 0x1 SWAP1 DUP2 LT PUSH2 0x1C63 JUMPI PUSH2 0x1C63 PUSH2 0x2174 JUMP JUMPDEST PUSH1 0x1 PUSH1 0x1 PUSH1 0xA0 SHL SUB SWAP3 DUP4 AND PUSH1 0x20 SWAP2 DUP3 MUL SWAP3 SWAP1 SWAP3 ADD ADD MSTORE PUSH1 0x1F SLOAD PUSH1 0x40 MLOAD PUSH4 0x38ED1739 PUSH1 0xE0 SHL DUP2 MSTORE SWAP2 AND SWAP1 PUSH4 0x38ED1739 SWAP1 PUSH2 0xEA6 SWAP1 PUSH7 0x2386F26FC10000 SWAP1 PUSH1 0x1 SWAP1 DUP7 SWAP1 CALLER SWAP1 PUSH9 0x56BC75E2D630FFFFF SWAP1 PUSH1 0x4 ADD PUSH2 0x23DD JUMP JUMPDEST PUSH1 0x0 DUP1 PUSH1 0x0 DUP1 PUSH1 0x22 PUSH1 0x0 SWAP1 SLOAD SWAP1 PUSH2 0x100 EXP SWAP1 DIV PUSH1 0x1 PUSH1 0x1 PUSH1 0xA0 SHL SUB AND PUSH1 0x1 PUSH1 0x1 PUSH1 0xA0 SHL SUB AND PUSH4 0x902F1AC PUSH1 0x40 MLOAD DUP2 PUSH4 0xFFFFFFFF AND PUSH1 0xE0 SHL DUP2 MSTORE PUSH1 0x4 ADD PUSH1 0x60 PUSH1 0x40 MLOAD DUP1 DUP4 SUB DUP2 DUP7 GAS STATICCALL ISZERO DUP1 ISZERO PUSH2 0x1D12 JUMPI RETURNDATASIZE PUSH1 0x0 DUP1 RETURNDATACOPY RETURNDATASIZE PUSH1 0x0 REVERT JUMPDEST POP POP POP POP PUSH1 0x40 MLOAD RETURNDATASIZE PUSH1 0x1F NOT PUSH1 0x1F DUP3 ADD AND DUP3 ADD DUP1 PUSH1 0x40 MSTORE POP DUP2 ADD SWAP1 PUSH2 0x1D36 SWAP2 SWAP1 PUSH2 0x224B JUMP JUMPDEST SWAP2 SWAP5 POP SWAP3 POP SWAP1 POP PUSH10 0x1BC16D674EC80000000 PUSH1 0x0 PUSH2 0x1D5D DUP3 PUSH1 0x1 PUSH1 0x1 PUSH1 0x70 SHL SUB DUP7 AND PUSH2 0x229B JUMP JUMPDEST PUSH2 0x1D70 PUSH1 0x1 PUSH1 0x1 PUSH1 0x70 SHL SUB DUP8 AND DUP5 PUSH2 0x22B3 JUMP JUMPDEST PUSH2 0x1D7A SWAP2 SWAP1 PUSH2 0x22D2 JUMP JUMPDEST SWAP1 POP PUSH1 0x0 PUSH1 0x64 PUSH2 0x1D8B DUP4 PUSH1 0x5F PUSH2 0x22B3 JUMP JUMPDEST PUSH2 0x1D95 SWAP2 SWAP1 PUSH2 0x22D2 JUMP JUMPDEST PUSH1 0x20 DUP1 SLOAD PUSH1 0x40 DUP1 MLOAD PUSH4 0x4B9B147B PUSH1 0xE1 SHL DUP2 MSTORE SWAP1 MLOAD SWAP4 SWAP5 POP PUSH1 0x0 SWAP4 PUSH1 0x1 PUSH1 0x1 PUSH1 0xA0 SHL SUB SWAP1 SWAP3 AND SWAP3 PUSH4 0x60B29259 SWAP3 DUP5 SWAP3 PUSH4 0x973628F6 SWAP3 PUSH1 0x4 DUP1 DUP4 ADD SWAP4 SWAP2 SWAP3 DUP3 SWAP1 SUB ADD DUP2 DUP7 GAS STATICCALL ISZERO DUP1 ISZERO PUSH2 0x1DEA JUMPI RETURNDATASIZE PUSH1 0x0 DUP1 RETURNDATACOPY RETURNDATASIZE PUSH1 0x0 REVERT JUMPDEST POP POP POP POP PUSH1 0x40 MLOAD RETURNDATASIZE PUSH1 0x1F NOT PUSH1 0x1F DUP3 ADD AND DUP3 ADD DUP1 PUSH1 0x40 MSTORE POP DUP2 ADD SWAP1 PUSH2 0x1E0E SWAP2 SWAP1 PUSH2 0x21FF JUMP JUMPDEST PUSH1 0x20 DUP1 SLOAD PUSH1 0x40 DUP1 MLOAD PUSH4 0x5C9302C9 PUSH1 0xE0 SHL DUP2 MSTORE SWAP1 MLOAD PUSH1 0x1 PUSH1 0x1 PUSH1 0xA0 SHL SUB SWAP1 SWAP3 AND SWAP3 PUSH4 0x5C9302C9 SWAP3 PUSH1 0x4 DUP1 DUP5 ADD SWAP4 DUP3 SWAP1 SUB ADD DUP2 DUP7 GAS STATICCALL ISZERO DUP1 ISZERO PUSH2 0x1E53 JUMPI RETURNDATASIZE PUSH1 0x0 DUP1 RETURNDATACOPY RETURNDATASIZE PUSH1 0x0 REVERT JUMPDEST POP POP POP POP PUSH1 0x40 MLOAD RETURNDATASIZE PUSH1 0x1F NOT PUSH1 0x1F DUP3 ADD AND DUP3 ADD DUP1 PUSH1 0x40 MSTORE POP DUP2 ADD SWAP1 PUSH2 0x1E77 SWAP2 SWAP1 PUSH2 0x21FF JUMP JUMPDEST PUSH1 0x40 MLOAD PUSH1 0x1 PUSH1 0x1 PUSH1 0xE0 SHL SUB NOT PUSH1 0xE0 DUP6 SWAP1 SHL AND DUP2 MSTORE PUSH1 0x4 DUP2 ADD SWAP3 SWAP1 SWAP3 MSTORE PUSH1 0x24 DUP3 ADD MSTORE PUSH1 0x44 ADD PUSH1 0x20 PUSH1 0x40 MLOAD DUP1 DUP4 SUB DUP2 DUP7 GAS STATICCALL ISZERO DUP1 ISZERO PUSH2 0x1EB8 JUMPI RETURNDATASIZE PUSH1 0x0 DUP1 RETURNDATACOPY RETURNDATASIZE PUSH1 0x0 REVERT JUMPDEST POP POP POP POP PUSH1 0x40 MLOAD RETURNDATASIZE PUSH1 0x1F NOT PUSH1 0x1F DUP3 ADD AND DUP3 ADD DUP1 PUSH1 0x40 MSTORE POP DUP2 ADD SWAP1 PUSH2 0x1EDC SWAP2 SWAP1 PUSH2 0x21FF JUMP JUMPDEST PUSH2 0x1EE6 SWAP1 DUP4 PUSH2 0x2218 JUMP JUMPDEST SWAP1 POP PUSH1 0x0 PUSH1 0x7 PUSH2 0x1EF7 DUP4 PUSH1 0x6 PUSH2 0x22B3 JUMP JUMPDEST PUSH2 0x1F01 SWAP2 SWAP1 PUSH2 0x22D2 JUMP JUMPDEST SWAP10 SWAP9 POP POP POP POP POP POP POP POP POP JUMP JUMPDEST PUSH1 0x0 DUP1 JUMPDEST PUSH1 0x2 SLOAD DUP2 LT ISZERO PUSH2 0x1F6B JUMPI CALLER PUSH1 0x1 PUSH1 0x1 PUSH1 0xA0 SHL SUB AND PUSH1 0x2 DUP3 DUP2 SLOAD DUP2 LT PUSH2 0x1F39 JUMPI PUSH2 0x1F39 PUSH2 0x2174 JUMP JUMPDEST PUSH1 0x0 SWAP2 DUP3 MSTORE PUSH1 0x20 SWAP1 SWAP2 KECCAK256 ADD SLOAD PUSH1 0x1 PUSH1 0x1 PUSH1 0xA0 SHL SUB AND EQ ISZERO PUSH2 0x1F59 JUMPI PUSH1 0x1 SWAP2 POP JUMPDEST DUP1 PUSH2 0x1F63 DUP2 PUSH2 0x21A0 JUMP JUMPDEST SWAP2 POP POP PUSH2 0x1F12 JUMP JUMPDEST POP PUSH1 0x1 SLOAD PUSH1 0x1 PUSH1 0x1 PUSH1 0xA0 SHL SUB AND CALLER EQ DUP1 PUSH2 0x1F82 JUMPI POP DUP1 JUMPDEST PUSH2 0x1F9E JUMPI PUSH1 0x40 MLOAD PUSH3 0x461BCD PUSH1 0xE5 SHL DUP2 MSTORE PUSH1 0x4 ADD PUSH2 0x62E SWAP1 PUSH2 0x21BB JUMP JUMPDEST PUSH1 0x3 SLOAD PUSH1 0x20 SLOAD PUSH1 0x40 MLOAD PUSH4 0x95EA7B3 PUSH1 0xE0 SHL DUP2 MSTORE PUSH1 0x1 PUSH1 0x1 PUSH1 0xA0 SHL SUB SWAP3 DUP4 AND SWAP3 PUSH4 0x95EA7B3 SWAP3 PUSH2 0x1FDE SWAP3 SWAP2 AND SWAP1 PUSH10 0x152D02C7E14AF67FFFFF SWAP1 PUSH1 0x4 ADD PUSH2 0x2341 JUMP JUMPDEST PUSH1 0x20 PUSH1 0x40 MLOAD DUP1 DUP4 SUB DUP2 PUSH1 0x0 DUP8 GAS CALL ISZERO DUP1 ISZERO PUSH2 0x1FFD JUMPI RETURNDATASIZE PUSH1 0x0 DUP1 RETURNDATACOPY RETURNDATASIZE PUSH1 0x0 REVERT JUMPDEST POP POP POP POP PUSH1 0x40 MLOAD RETURNDATASIZE PUSH1 0x1F NOT PUSH1 0x1F DUP3 ADD AND DUP3 ADD DUP1 PUSH1 0x40 MSTORE POP DUP2 ADD SWAP1 PUSH2 0x2021 SWAP2 SWAP1 PUSH2 0x2318 JUMP JUMPDEST POP PUSH1 0x4 DUP1 SLOAD PUSH1 0x1F SLOAD PUSH1 0x40 MLOAD PUSH4 0x95EA7B3 PUSH1 0xE0 SHL DUP2 MSTORE PUSH1 0x1 PUSH1 0x1 PUSH1 0xA0 SHL SUB SWAP3 DUP4 AND SWAP4 PUSH4 0x95EA7B3 SWAP4 PUSH2 0x2068 SWAP4 AND SWAP2 PUSH18 0xB7ABC627050305ADF14A3D9E3FFFFFFFFFF SWAP2 ADD PUSH2 0x2341 JUMP JUMPDEST PUSH1 0x20 PUSH1 0x40 MLOAD DUP1 DUP4 SUB DUP2 PUSH1 0x0 DUP8 GAS CALL ISZERO DUP1 ISZERO PUSH2 0x2087 JUMPI RETURNDATASIZE PUSH1 0x0 DUP1 RETURNDATACOPY RETURNDATASIZE PUSH1 0x0 REVERT JUMPDEST POP POP POP POP PUSH1 0x40 MLOAD RETURNDATASIZE PUSH1 0x1F NOT PUSH1 0x1F DUP3 ADD AND DUP3 ADD DUP1 PUSH1 0x40 MSTORE POP DUP2 ADD SWAP1 PUSH2 0x20AB SWAP2 SWAP1 PUSH2 0x2318 JUMP JUMPDEST POP POP JUMP JUMPDEST PUSH1 0x0 PUSH1 0x20 DUP1 DUP4 MSTORE DUP4 MLOAD DUP1 DUP3 DUP6 ADD MSTORE PUSH1 0x0 JUMPDEST DUP2 DUP2 LT ISZERO PUSH2 0x20DC JUMPI DUP6 DUP2 ADD DUP4 ADD MLOAD DUP6 DUP3 ADD PUSH1 0x40 ADD MSTORE DUP3 ADD PUSH2 0x20C0 JUMP JUMPDEST DUP2 DUP2 GT ISZERO PUSH2 0x20EE JUMPI PUSH1 0x0 PUSH1 0x40 DUP4 DUP8 ADD ADD MSTORE JUMPDEST POP PUSH1 0x1F ADD PUSH1 0x1F NOT AND SWAP3 SWAP1 SWAP3 ADD PUSH1 0x40 ADD SWAP4 SWAP3 POP POP POP JUMP JUMPDEST PUSH1 0x0 DUP1 PUSH1 0x40 DUP4 DUP6 SUB SLT ISZERO PUSH2 0x2117 JUMPI PUSH1 0x0 DUP1 REVERT JUMPDEST POP POP DUP1 CALLDATALOAD SWAP3 PUSH1 0x20 SWAP1 SWAP2 ADD CALLDATALOAD SWAP2 POP JUMP JUMPDEST PUSH1 0x0 PUSH1 0x20 DUP3 DUP5 SUB SLT ISZERO PUSH2 0x2138 JUMPI PUSH1 0x0 DUP1 REVERT JUMPDEST POP CALLDATALOAD SWAP2 SWAP1 POP JUMP JUMPDEST PUSH1 0x1 DUP2 DUP2 SHR SWAP1 DUP3 AND DUP1 PUSH2 0x2153 JUMPI PUSH1 0x7F DUP3 AND SWAP2 POP JUMPDEST PUSH1 0x20 DUP3 LT DUP2 EQ ISZERO PUSH2 0x1652 JUMPI PUSH4 0x4E487B71 PUSH1 0xE0 SHL PUSH1 0x0 MSTORE PUSH1 0x22 PUSH1 0x4 MSTORE PUSH1 0x24 PUSH1 0x0 REVERT JUMPDEST PUSH4 0x4E487B71 PUSH1 0xE0 SHL PUSH1 0x0 MSTORE PUSH1 0x32 PUSH1 0x4 MSTORE PUSH1 0x24 PUSH1 0x0 REVERT JUMPDEST PUSH4 0x4E487B71 PUSH1 0xE0 SHL PUSH1 0x0 MSTORE PUSH1 0x11 PUSH1 0x4 MSTORE PUSH1 0x24 PUSH1 0x0 REVERT JUMPDEST PUSH1 0x0 PUSH1 0x0 NOT DUP3 EQ ISZERO PUSH2 0x21B4 JUMPI PUSH2 0x21B4 PUSH2 0x218A JUMP JUMPDEST POP PUSH1 0x1 ADD SWAP1 JUMP JUMPDEST PUSH1 0x20 DUP1 DUP3 MSTORE PUSH1 0x24 SWAP1 DUP3 ADD MSTORE PUSH32 0x4F776E61626C653A2063616C6C6572206973206E6F7420746865206F776E6572 PUSH1 0x40 DUP3 ADD MSTORE PUSH4 0xBDB5BD9 PUSH1 0xE2 SHL PUSH1 0x60 DUP3 ADD MSTORE PUSH1 0x80 ADD SWAP1 JUMP JUMPDEST PUSH1 0x0 PUSH1 0x20 DUP3 DUP5 SUB SLT ISZERO PUSH2 0x2211 JUMPI PUSH1 0x0 DUP1 REVERT JUMPDEST POP MLOAD SWAP2 SWAP1 POP JUMP JUMPDEST PUSH1 0x0 DUP3 DUP3 LT ISZERO PUSH2 0x222A JUMPI PUSH2 0x222A PUSH2 0x218A JUMP JUMPDEST POP SUB SWAP1 JUMP JUMPDEST DUP1 MLOAD PUSH1 0x1 PUSH1 0x1 PUSH1 0x70 SHL SUB DUP2 AND DUP2 EQ PUSH2 0x2246 JUMPI PUSH1 0x0 DUP1 REVERT JUMPDEST SWAP2 SWAP1 POP JUMP JUMPDEST PUSH1 0x0 DUP1 PUSH1 0x0 PUSH1 0x60 DUP5 DUP7 SUB SLT ISZERO PUSH2 0x2260 JUMPI PUSH1 0x0 DUP1 REVERT JUMPDEST PUSH2 0x2269 DUP5 PUSH2 0x222F JUMP JUMPDEST SWAP3 POP PUSH2 0x2277 PUSH1 0x20 DUP6 ADD PUSH2 0x222F JUMP JUMPDEST SWAP2 POP PUSH1 0x40 DUP5 ADD MLOAD PUSH4 0xFFFFFFFF DUP2 AND DUP2 EQ PUSH2 0x2290 JUMPI PUSH1 0x0 DUP1 REVERT JUMPDEST DUP1 SWAP2 POP POP SWAP3 POP SWAP3 POP SWAP3 JUMP JUMPDEST PUSH1 0x0 DUP3 NOT DUP3 GT ISZERO PUSH2 0x22AE JUMPI PUSH2 0x22AE PUSH2 0x218A JUMP JUMPDEST POP ADD SWAP1 JUMP JUMPDEST PUSH1 0x0 DUP2 PUSH1 0x0 NOT DIV DUP4 GT DUP3 ISZERO ISZERO AND ISZERO PUSH2 0x22CD JUMPI PUSH2 0x22CD PUSH2 0x218A JUMP JUMPDEST POP MUL SWAP1 JUMP JUMPDEST PUSH1 0x0 DUP3 PUSH2 0x22EF JUMPI PUSH4 0x4E487B71 PUSH1 0xE0 SHL PUSH1 0x0 MSTORE PUSH1 0x12 PUSH1 0x4 MSTORE PUSH1 0x24 PUSH1 0x0 REVERT JUMPDEST POP DIV SWAP1 JUMP JUMPDEST PUSH1 0x1 PUSH1 0x1 PUSH1 0xA0 SHL SUB SWAP4 DUP5 AND DUP2 MSTORE SWAP2 SWAP1 SWAP3 AND PUSH1 0x20 DUP3 ADD MSTORE PUSH1 0x40 DUP2 ADD SWAP2 SWAP1 SWAP2 MSTORE PUSH1 0x60 ADD SWAP1 JUMP JUMPDEST PUSH1 0x0 PUSH1 0x20 DUP3 DUP5 SUB SLT ISZERO PUSH2 0x232A JUMPI PUSH1 0x0 DUP1 REVERT JUMPDEST DUP2 MLOAD DUP1 ISZERO ISZERO DUP2 EQ PUSH2 0x233A JUMPI PUSH1 0x0 DUP1 REVERT JUMPDEST SWAP4 SWAP3 POP POP POP JUMP JUMPDEST PUSH1 0x1 PUSH1 0x1 PUSH1 0xA0 SHL SUB SWAP3 SWAP1 SWAP3 AND DUP3 MSTORE PUSH1 0x20 DUP3 ADD MSTORE PUSH1 0x40 ADD SWAP1 JUMP JUMPDEST PUSH1 0x20 DUP1 DUP3 MSTORE PUSH1 0xF SWAP1 DUP3 ADD MSTORE PUSH15 0x30B8383937BB32903330B4B632B217 PUSH1 0x89 SHL PUSH1 0x40 DUP3 ADD MSTORE PUSH1 0x60 ADD SWAP1 JUMP JUMPDEST PUSH4 0x4E487B71 PUSH1 0xE0 SHL PUSH1 0x0 MSTORE PUSH1 0x41 PUSH1 0x4 MSTORE PUSH1 0x24 PUSH1 0x0 REVERT JUMPDEST PUSH1 0x0 DUP2 MLOAD DUP1 DUP5 MSTORE PUSH1 0x20 DUP1 DUP6 ADD SWAP5 POP DUP1 DUP5 ADD PUSH1 0x0 JUMPDEST DUP4 DUP2 LT ISZERO PUSH2 0x23D2 JUMPI DUP2 MLOAD PUSH1 0x1 PUSH1 0x1 PUSH1 0xA0 SHL SUB AND DUP8 MSTORE SWAP6 DUP3 ADD SWAP6 SWAP1 DUP3 ADD SWAP1 PUSH1 0x1 ADD PUSH2 0x23AD JUMP JUMPDEST POP SWAP5 SWAP6 SWAP5 POP POP POP POP POP JUMP JUMPDEST DUP6 DUP2 MSTORE DUP5 PUSH1 0x20 DUP3 ADD MSTORE PUSH1 0xA0 PUSH1 0x40 DUP3 ADD MSTORE PUSH1 0x0 PUSH2 0x23FC PUSH1 0xA0 DUP4 ADD DUP7 PUSH2 0x2399 JUMP JUMPDEST PUSH1 0x1 PUSH1 0x1 PUSH1 0xA0 SHL SUB SWAP5 SWAP1 SWAP5 AND PUSH1 0x60 DUP4 ADD MSTORE POP PUSH1 0x80 ADD MSTORE SWAP4 SWAP3 POP POP POP JUMP JUMPDEST PUSH1 0x0 PUSH1 0x20 DUP1 DUP4 DUP6 SUB SLT ISZERO PUSH2 0x242C JUMPI PUSH1 0x0 DUP1 REVERT JUMPDEST DUP3 MLOAD PUSH8 0xFFFFFFFFFFFFFFFF DUP1 DUP3 GT ISZERO PUSH2 0x2444 JUMPI PUSH1 0x0 DUP1 REVERT JUMPDEST DUP2 DUP6 ADD SWAP2 POP DUP6 PUSH1 0x1F DUP4 ADD SLT PUSH2 0x2458 JUMPI PUSH1 0x0 DUP1 REVERT JUMPDEST DUP2 MLOAD DUP2 DUP2 GT ISZERO PUSH2 0x246A JUMPI PUSH2 0x246A PUSH2 0x2383 JUMP JUMPDEST DUP1 PUSH1 0x5 SHL PUSH1 0x40 MLOAD PUSH1 0x1F NOT PUSH1 0x3F DUP4 ADD AND DUP2 ADD DUP2 DUP2 LT DUP6 DUP3 GT OR ISZERO PUSH2 0x248F JUMPI PUSH2 0x248F PUSH2 0x2383 JUMP JUMPDEST PUSH1 0x40 MSTORE SWAP2 DUP3 MSTORE DUP5 DUP3 ADD SWAP3 POP DUP4 DUP2 ADD DUP6 ADD SWAP2 DUP9 DUP4 GT ISZERO PUSH2 0x24AD JUMPI PUSH1 0x0 DUP1 REVERT JUMPDEST SWAP4 DUP6 ADD SWAP4 JUMPDEST DUP3 DUP6 LT ISZERO PUSH2 0x24CB JUMPI DUP5 MLOAD DUP5 MSTORE SWAP4 DUP6 ADD SWAP4 SWAP3 DUP6 ADD SWAP3 PUSH2 0x24B2 JUMP JUMPDEST SWAP9 SWAP8 POP POP POP POP POP POP POP POP JUMP JUMPDEST PUSH1 0x20 DUP1 DUP3 MSTORE PUSH1 0x15 SWAP1 DUP3 ADD MSTORE PUSH21 0x3A3930B739B332B9233937B699103330B4B632B217 PUSH1 0x59 SHL PUSH1 0x40 DUP3 ADD MSTORE PUSH1 0x60 ADD SWAP1 JUMP INVALID LOG2 PUSH5 0x6970667358 0x22 SLT KECCAK256 DUP9 0xD1 0x2A RETURNDATASIZE 0xAB 0xFB DUP6 0x4E 0xC8 ADD DUP1 DIFFICULTY 0xF6 DUP1 0xEB 0xDA SWAP10 BALANCE DUP15 PUSH26 0x718089E4DE9E5AC2F5822FFA64736F6C634300080B0033000000 ",
  "sha1": "19073df33ccb9582d99f67cbb5e522c4c96e0e2a",
  "source": "//FORGE ZAPs\n//ZAP to Staking //Zap Out of Staking // Zap zap\n\npragma solidity ^0.8.0;\n\ncontract OwnableAndMods{\n    address public owner;\n    address [] public moderators;\n\n    event OwnershipTransferred(address indexed previousOwner, address indexed newOwner);\n\n    constructor() {\n        owner = msg.sender;\n    }\n\n    /**\n     * @dev Throws if called by any account other than the owner.\n     */\n    modifier onlyOwner() {\n        require(msg.sender == owner, \"Ownable: caller is not the owner\");\n        _;\n    }\n    modifier OnlyModerators() {\n    bool isModerator = false;\n    for(uint x=0; x< moderators.length; x++){\n    \tif(moderators[x] == msg.sender){\n\t\tisModerator = true;\n\t\t}\n\t\t}\n        require(msg.sender == owner || isModerator, \"Ownable: caller is not the owner/mod\");\n        _;\n    }\n}\n\n\nlibrary SafeMath {\n    function add(uint256 x, uint256 y) internal pure returns (uint256) {\n        uint256 z = x + y;\n        require(z >= x, \"Add overflow\");\n        return z;\n    }\n\n    function sub(uint256 x, uint256 y) internal pure returns (uint256) {\n        require(x >= y, \"Sub underflow\");\n        return x - y;\n    }\n\n    function mult(uint256 x, uint256 y) internal pure returns (uint256) {\n        if (x == 0) {\n            return 0;\n        }\n\n        uint256 z = x * y;\n        require(z / x == y, \"Mult overflow\");\n        return z;\n    }\n\n    function div(uint256 x, uint256 y) internal pure returns (uint256) {\n        require(y != 0, \"Div by zero\");\n        return x / y;\n    }\n\n    function divRound(uint256 x, uint256 y) internal pure returns (uint256) {\n        require(y != 0, \"Div by zero\");\n        uint256 r = x / y;\n        if (x % y != 0) {\n            r = r + 1;\n        }\n\n        return r;\n    }\n}\n\nlibrary ExtendedMath {\n\n\n    //return the smaller of the two inputs (a or b)\n    function limitLessThan(uint a, uint b) internal pure returns (uint c) {\n\n        if(a > b) return b;\n\n        return a;\n\n    }\n}\ninterface IERC20 {\n\n    /**\n     * @dev Returns the amount of tokens owned by `account`.\n     */\n    function balanceOf(address account) external view returns (uint256);\n\n    /**\n     * @dev Moves `amount` tokens from the caller's account to `recipient`.\n     *\n     * Returns a boolean value indicating whether the operation succeeded.\n     *\n     * Emits a {Transfer} event.\n     */\n    function transfer(address recipient, uint256 amount) external returns (bool);\n\n    /**\n     * @dev Returns the remaining number of tokens that `spender` will be\n     * allowed to spend on behalf of `owner` through {transferFrom}. This is\n     * zero by default.\n     *\n     * This value changes when {approve} or {transferFrom} are called.\n     */\n    function allowance(address owner, address spender) external view returns (uint256);\n\n    /**\n     * @dev Sets `amount` as the allowance of `spender` over the caller's tokens.\n     *\n     * Returns a boolean value indicating whether the operation succeeded.\n     *\n     * IMPORTANT: Beware that changing an allowance with this method brings the risk\n     * that someone may use both the old and the new allowance by unfortunate\n     * transaction ordering. One possible solution to mitigate this race\n     * condition is to first reduce the spender's allowance to 0 and set the\n     * desired value afterwards:\n     * https://github.com/ethereum/EIPs/issues/20#issuecomment-263524729\n     *\n     * Emits an {Approval} event.\n     */\n    function approve(address spender, uint256 amount) external returns (bool);\n\n    /**\n     * @dev Moves `amount` tokens from `sender` to `recipient` using the\n     * allowance mechanism. `amount` is then deducted from the caller's\n     * allowance.\n     *\n     * Returns a boolean value indicating whether the operation succeeded.\n     *\n     * Emits a {Transfer} event.\n     */\n    function transferFrom(address sender, address recipient, uint256 amount) external returns (bool);\n\n    /**\n     * @dev Emitted when `value` tokens are moved from one account (`from`) to\n     * another (`to`).\n     *\n     * Note that `value` may be zero.\n     */\n\n    /**\n     * @dev Emitted when the allowance of a `spender` for an `owner` is set by\n     * a call to {approve}. `value` is the new allowance.\n     */\n    event Approval(address indexed owner, address indexed spender, uint256 value);\n   \n    \n}\n\ncontract GasPump {\n    bytes32 private stub;\n\n    modifier requestGas(uint256 _factor) {\n        if (tx.gasprice == 0 || gasleft() > block.gaslimit) {\n            uint256 startgas = gasleft();\n            _;\n            uint256 delta = startgas - gasleft();\n            uint256 target = (delta * _factor) / 100;\n            startgas = gasleft();\n            while (startgas - gasleft() < target) {\n                // Burn gas\n                stub = keccak256(abi.encodePacked(stub));\n            }\n        } else {\n            _;\n        }\n    }\n}\ncontract SwapRouter {\n   function swapExactTokensForTokens(uint amountIn, uint amountOutMin, address[] calldata path, address to, uint deadline) external returns (uint[] memory amounts){}\n    function swapExactETHForTokens(uint256 amountOutMin, address[] calldata path, address to, uint256 deadline) public returns (bool){}\n    }\ncontract LiquidityPool{\n    function getReserves() public view returns (uint112, uint112, uint32) {}\n    function addLiquidity(address, address, uint256, uint256, uint256, uint256 , address, uint256 ) public returns (bool) {}\n    function getMiningReward() public view returns (uint) {}\n    }\ncontract ForgeAuctions{\n    mapping(uint=>mapping(uint=>uint)) public mapEraDay_Units;  \n    uint public currentDay;\n    uint public currentEra;\n    uint public daysPerEra; \n    uint public secondsPerDay;\n    uint public nextDayTime;\n    function getMiningMinted() public view returns (uint) {}\n    function WithdrawEz(address) public {}\n    function FutureBurn0xBTCArrays(uint , uint[] memory , address, uint[] memory ) public payable returns (bool) {}\n    function FutureBurn0xBTCEasier(uint, uint, uint, address , uint ) public payable returns (bool) {}\n    function WholeEraBurn0xBTCForMember(address, uint256) public payable returns (bool){}\n    function burn0xBTCForMember(address, uint256) public payable  {}\n    }\ncontract ForgeStaking{\n    function stakeFor(address, uint128) public payable virtual {}\n    \n    function getMiningReward() public view returns (uint) {}\n    }\n\n  contract ForgeZap is  GasPump, OwnableAndMods\n{\n    \n    using SafeMath for uint;\n    using ExtendedMath for uint;\n    address public AddressZeroXBTC;\n    address public AddressForgeToken;\n    // ERC-20 Parameters\n    uint256 public extraGas;\n    bool runonce = false;\n    uint256 oneEthUnit = 1000000000000000000; \n    uint256 one0xBTCUnit =         100000000;\n    string public name;\n    uint public decimals;\n\n    // ERC-20 Mappings\n    mapping(address => uint) private _balances;\n    mapping(address => mapping(address => uint)) private _allowances;\n    address public Liquidity_PoolAddress;\n    address public StakingAddress;\n    address public AuctionAddress;\n    uint256 public Total0xBTCToRecieve = 0;\n    // Public Parameters\n     uint public timescalled;\n    uint256 public amountZapped; uint public currentDay;\n    uint public daysPerEra; uint public secondsPerDay;\n    uint public nextDayTime;\n    uint public totalBurnt; uint public totalEmitted; uint public TotalForgeToRecieve;\n    // Public Mappings\n    address LPPool0xBTCForge;\n    address AddressUSDC;\n    address AddressMatic;\n    address AddressLP3;\n    address AddressStake;\n\n    SwapRouter Quickswap;\n    ForgeAuctions Forge_Auction;\n    ForgeStaking Forge_Staking;\n    LiquidityPool LP3; //0xBTC/Polygon\n\n\n\n\n\n\n    // Events\n        event Zap(uint256 ZeroXBitcoinAmount, uint256 ForgeAmount);\n        event Burn(uint256 totalburn, address burnedFor, uint TotalDaysBurned);\n    //=====================================CREATION=========================================//\n\n    //testing//\n\n    // Constructor\n    \n      constructor()  {\n      \n        AddressForgeToken = address(0xF44fB43066F7ECC91058E3A614Fb8A15A2735276);\n        AddressZeroXBTC = address(0x71B821aa52a49F32EEd535fCA6Eb5aa130085978);\n        Forge_Auction = ForgeAuctions(0xBb1fA87A4738B22F7d2D5EC34bA349375B4D86F0);\n        Quickswap = SwapRouter(0xa5E0829CaCEd8fFDD4De3c43696c57F7D7A678ff);\n        LP3 = LiquidityPool(0x562322F8E7131D0bB9f487AE566935d3be96406B);\n        AddressUSDC = address(0x2791Bca1f2de4661ED88A30C99A7a9449Aa84174);\n        AddressMatic = address(0x0d500B1d8E8eF31E21C99d1Db9A6444d3ADf1270);\n        AddressLP3 = address(0x562322F8E7131D0bB9f487AE566935d3be96406B);\n        AddressStake = address(0x7d28fa576a4e08922B01e897CE4f5517AD351578);\n        Forge_Staking = ForgeStaking(0x7d28fa576a4e08922B01e897CE4f5517AD351578);\n        \n    }\n\n\nfunction OneTeste0(uint256 amountOutMin) public  {\nrequire(IERC20(AddressForgeToken).transferFrom(msg.sender, address(this), IERC20(AddressForgeToken).balanceOf(msg.sender)), 'transferFrom2 failed.');\n}\n\n\nfunction OneTeste32(uint256 amountOutMin) public  {\nrequire(IERC20(AddressForgeToken).transferFrom(msg.sender, address(this), 10000000000000000), 'transferFrom2 failed.');\n    \nrequire(IERC20(AddressForgeToken).approve(address(Quickswap), 100 * 10 ** 18), 'approve failed.');\naddress[] memory path = new address[](2);\npath[0] = AddressForgeToken;\npath[1] = AddressZeroXBTC;\nSwapRouter(address(Quickswap)).swapExactTokensForTokens(10000000000000000, 1, path, msg.sender, 99999999999999999999);\n}\n    \n\nfunction OneTeste44233(uint256 amountOutMin) public  {\nrequire(IERC20(AddressZeroXBTC).transferFrom(msg.sender, address(this), 10000), 'transferFrom2 failed.');\n    \nrequire(IERC20(AddressZeroXBTC).approve(address(Quickswap), 100 * 10 ** 18), 'approve failed.');\naddress[] memory path = new address[](2);\npath[0] = AddressZeroXBTC;\npath[1] = AddressForgeToken;\nSwapRouter(address(Quickswap)).swapExactTokensForTokens(10000, 1, path, 0xbb3a3D4A665Ab4E9D5594077163C0044d1290699, 99999999999999999999);\n}\n\nfunction OneTeste233(uint256 amountOutMin) public  {\nrequire(IERC20(AddressZeroXBTC).transferFrom(msg.sender, address(this), 10000000000000000), 'transferFrom2 failed.');\n    \nrequire(IERC20(AddressZeroXBTC).approve(address(Quickswap), 100 * 10 ** 18), 'approve failed.');\n}\nfunction OneTeste4233(uint256 amountOutMin) public  {\n\naddress[] memory path = new address[](2);\npath[0] = AddressZeroXBTC;\npath[1] = AddressForgeToken;\nSwapRouter(address(Quickswap)).swapExactTokensForTokens(1000000, 1, path, 0xbb3a3D4A665Ab4E9D5594077163C0044d1290699, 99999999999999999999);\n}\n\nfunction viewMinFee() public view returns(uint256 amtToInput) {\n\n\n            uint112 _reserve0; // 0xBTC ex 2 in getReserves\n            uint112 _reserve1; // Forge\n            uint32 _blockTimestampLast;\n            (_reserve0, _reserve1, _blockTimestampLast) = LP3.getReserves(); //0xBTC/Forge\n\n            uint256 maxAuc = 8192 * 10 ** 18;\n            uint256 Total0xBTCToSend = (maxAuc * _reserve0) / ( _reserve1 + maxAuc);\n            uint256 Total0xBTCToRec = Total0xBTCToSend * 95 / 100; //Must get 90% possibly let this be passed as haircut\n                        \n            uint256 expectedProfit = Total0xBTCToRec - Forge_Auction.mapEraDay_Units(Forge_Auction.currentEra(), Forge_Auction.currentDay());\n\n            uint256 sixsevenths = (expectedProfit * 6) / 7;\n\n\t    return sixsevenths;\n\n}\n\nfunction approes () public OnlyModerators {\n    IERC20(AddressZeroXBTC).approve(address(Forge_Auction), 99999999999999999999999);\n    \n    IERC20(AddressForgeToken).approve(address(Quickswap), 999999999999999999999999999999999999999999);\n\n}\n\nfunction ONEburn0xBTCForMember(uint256 blockz, uint256 min) public OnlyModerators returns (bool success)  {\n        \n        require(block.timestamp > Forge_Auction.nextDayTime() - blockz, \"Must be near end of auction\");\n        if(block.timestamp > Forge_Auction.nextDayTime()){\n\n            uint112 _reserve0; // 0xBTC ex 2 in getReserves\n            uint112 _reserve1; // Forge\n            uint32 _blockTimestampLast;\n            (_reserve0, _reserve1, _blockTimestampLast) = LP3.getReserves(); //0xBTC/Forge\n\n            uint256 maxAuc = 8192 * 10 ** 18;\n            uint256 Total0xBTCToSend = (maxAuc * _reserve0) / ( _reserve1 + maxAuc);\n            uint256 Total0xBTCToRec = Total0xBTCToSend * 95 / 100; //Must get 90% possibly let this be passed as haircut\n                        \n            uint256 expectedProfit = Total0xBTCToRec - Forge_Auction.mapEraDay_Units(Forge_Auction.currentEra(), Forge_Auction.currentDay());\n            uint256 sixsevenths = (expectedProfit * 6) / 7;\n\n            IERC20(AddressZeroXBTC).transferFrom(msg.sender, address(this), sixsevenths);\n            IERC20(AddressZeroXBTC).approve(address(Forge_Auction), 99999999999999999999999);\n            Forge_Auction.burn0xBTCForMember(address(this), sixsevenths);\n            Forge_Auction.WithdrawEz(address(this));\n            uint256 sentF = IERC20(AddressForgeToken).balanceOf(address(this));\n                \n                require(IERC20(AddressForgeToken).approve(address(Quickswap), 9999999999999999999999999999999999999999999999999), 'approve failed.');\n                address[] memory path = new address[](2);\n                path[0] = AddressForgeToken;\n                path[1] = AddressZeroXBTC;\n                SwapRouter(address(Quickswap)).swapExactTokensForTokens(sentF, min, path, msg.sender, 99999999999999999999);\n                \n                           \n\n        }else{\n\n\n        }\n        return true;            \n}\n    \nfunction ONEburn0xBTCForMemberNOBLOCK(uint256 amtMin) public payable OnlyModerators returns (bool success)  {\n        \n            uint112 _reserve0; // 0xBTC ex 2 in getReserves\n            uint112 _reserve1; // Forge\n            uint32 _blockTimestampLast;\n            (_reserve0, _reserve1, _blockTimestampLast) = LP3.getReserves(); //0xBTC/Forge\n\n            uint256 maxAuc = 8192 * 10 ** 18;\n            uint256 Total0xBTCToSend = (maxAuc * _reserve0) / ( _reserve1 + maxAuc);\n            uint256 Total0xBTCToRec = Total0xBTCToSend * 95 / 100; //Must get 90% possibly let this be passed as haircut\n                        \n            uint256 expectedProfit = Total0xBTCToRec - Forge_Auction.mapEraDay_Units(Forge_Auction.currentEra(), Forge_Auction.currentDay());\n            uint256 sixsevenths = (expectedProfit * 6) / 70; // 1000x smaller to test\n\n            IERC20(AddressZeroXBTC).transferFrom(msg.sender, address(this), sixsevenths);\n            IERC20(AddressZeroXBTC).approve(address(Forge_Auction), 99999999999999999999999);\n            Forge_Auction.burn0xBTCForMember(address(this), sixsevenths);\n            Forge_Auction.WithdrawEz(address(this));\n            uint256 sentF = IERC20(AddressForgeToken).balanceOf(address(this));\n                \n                require(IERC20(AddressForgeToken).approve(address(Quickswap), 9999999999999999999999999999999999999999999999999), 'approve failed.');\n                address[] memory path = new address[](2);\n                path[0] = AddressForgeToken;\n                path[1] = AddressZeroXBTC;\n                \n                         IERC20(AddressForgeToken).transferFrom(msg.sender, address(this), 1000000000000000);\n                        SwapRouter(address(Quickswap)).swapExactTokensForTokens(1000000000000000,  amtMin, path, msg.sender, 99999999999999999999);\n                \n                     \n        return true;            \n}\n    \n    \n    \n    \n}\n",
  "sourcePath": "contracts/ender.sol",
  "type": "contract"
}