{
  "abi": [
    {
      "inputs": [],
      "stateMutability": "nonpayable",
      "type": "constructor"
    },
    {
      "anonymous": false,
      "inputs": [
        {
          "indexed": true,
          "internalType": "address",
          "name": "_owner",
          "type": "address"
        },
        {
          "indexed": true,
          "internalType": "address",
          "name": "_spender",
          "type": "address"
        },
        {
          "indexed": false,
          "internalType": "uint256",
          "name": "_value",
          "type": "uint256"
        }
      ],
      "name": "Approval",
      "type": "event"
    },
    {
      "anonymous": false,
      "inputs": [
        {
          "indexed": true,
          "internalType": "address",
          "name": "from",
          "type": "address"
        },
        {
          "indexed": false,
          "internalType": "uint256",
          "name": "epochCount",
          "type": "uint256"
        },
        {
          "indexed": false,
          "internalType": "bytes32",
          "name": "newChallengeNumber",
          "type": "bytes32"
        },
        {
          "indexed": false,
          "internalType": "uint256",
          "name": "NumberOfTokensMinted",
          "type": "uint256"
        },
        {
          "indexed": false,
          "internalType": "uint256",
          "name": "TokenMultipler",
          "type": "uint256"
        }
      ],
      "name": "MegaMint",
      "type": "event"
    },
    {
      "anonymous": false,
      "inputs": [
        {
          "indexed": true,
          "internalType": "address",
          "name": "from",
          "type": "address"
        },
        {
          "indexed": false,
          "internalType": "uint256",
          "name": "reward_amount",
          "type": "uint256"
        },
        {
          "indexed": false,
          "internalType": "uint256",
          "name": "epochCount",
          "type": "uint256"
        },
        {
          "indexed": false,
          "internalType": "bytes32",
          "name": "newChallengeNumber",
          "type": "bytes32"
        }
      ],
      "name": "Mint",
      "type": "event"
    },
    {
      "anonymous": false,
      "inputs": [
        {
          "indexed": true,
          "internalType": "address",
          "name": "_from",
          "type": "address"
        },
        {
          "indexed": true,
          "internalType": "address",
          "name": "_to",
          "type": "address"
        },
        {
          "indexed": false,
          "internalType": "uint256",
          "name": "_value",
          "type": "uint256"
        }
      ],
      "name": "Transfer",
      "type": "event"
    },
    {
      "anonymous": false,
      "inputs": [
        {
          "indexed": false,
          "internalType": "address",
          "name": "_from",
          "type": "address"
        },
        {
          "indexed": false,
          "internalType": "address",
          "name": "_to",
          "type": "address"
        }
      ],
      "name": "TransferOwnership",
      "type": "event"
    },
    {
      "stateMutability": "payable",
      "type": "fallback"
    },
    {
      "inputs": [],
      "name": "ARewardSender",
      "outputs": [],
      "stateMutability": "nonpayable",
      "type": "function"
    },
    {
      "inputs": [],
      "name": "AddressAuction",
      "outputs": [
        {
          "internalType": "address",
          "name": "",
          "type": "address"
        }
      ],
      "stateMutability": "view",
      "type": "function"
    },
    {
      "inputs": [],
      "name": "AddressLPReward",
      "outputs": [
        {
          "internalType": "address",
          "name": "",
          "type": "address"
        }
      ],
      "stateMutability": "view",
      "type": "function"
    },
    {
      "inputs": [],
      "name": "AddressLPReward2",
      "outputs": [
        {
          "internalType": "address",
          "name": "",
          "type": "address"
        }
      ],
      "stateMutability": "view",
      "type": "function"
    },
    {
      "inputs": [],
      "name": "AuctionsCT",
      "outputs": [
        {
          "internalType": "contract ABASAuctionsCT",
          "name": "",
          "type": "address"
        }
      ],
      "stateMutability": "view",
      "type": "function"
    },
    {
      "inputs": [],
      "name": "Token2Per",
      "outputs": [
        {
          "internalType": "uint256",
          "name": "",
          "type": "uint256"
        }
      ],
      "stateMutability": "view",
      "type": "function"
    },
    {
      "inputs": [],
      "name": "_BLOCKS_PER_READJUSTMENT",
      "outputs": [
        {
          "internalType": "uint256",
          "name": "",
          "type": "uint256"
        }
      ],
      "stateMutability": "view",
      "type": "function"
    },
    {
      "inputs": [],
      "name": "_MAXIMUM_TARGET",
      "outputs": [
        {
          "internalType": "uint256",
          "name": "",
          "type": "uint256"
        }
      ],
      "stateMutability": "view",
      "type": "function"
    },
    {
      "inputs": [],
      "name": "_MINIMUM_TARGET",
      "outputs": [
        {
          "internalType": "uint256",
          "name": "",
          "type": "uint256"
        }
      ],
      "stateMutability": "view",
      "type": "function"
    },
    {
      "inputs": [
        {
          "internalType": "address",
          "name": "tokenOwner",
          "type": "address"
        },
        {
          "internalType": "address",
          "name": "spender",
          "type": "address"
        }
      ],
      "name": "allowance",
      "outputs": [
        {
          "internalType": "uint256",
          "name": "remaining",
          "type": "uint256"
        }
      ],
      "stateMutability": "view",
      "type": "function"
    },
    {
      "inputs": [
        {
          "internalType": "address",
          "name": "spender",
          "type": "address"
        },
        {
          "internalType": "uint256",
          "name": "tokens",
          "type": "uint256"
        }
      ],
      "name": "approve",
      "outputs": [
        {
          "internalType": "bool",
          "name": "success",
          "type": "bool"
        }
      ],
      "stateMutability": "nonpayable",
      "type": "function"
    },
    {
      "inputs": [
        {
          "internalType": "address",
          "name": "tokenOwner",
          "type": "address"
        }
      ],
      "name": "balanceOf",
      "outputs": [
        {
          "internalType": "uint256",
          "name": "balance",
          "type": "uint256"
        }
      ],
      "stateMutability": "view",
      "type": "function"
    },
    {
      "inputs": [],
      "name": "challengeNumber",
      "outputs": [
        {
          "internalType": "bytes32",
          "name": "",
          "type": "bytes32"
        }
      ],
      "stateMutability": "view",
      "type": "function"
    },
    {
      "inputs": [
        {
          "internalType": "uint256",
          "name": "nonce",
          "type": "uint256"
        },
        {
          "internalType": "bytes32",
          "name": "challenge_digest",
          "type": "bytes32"
        },
        {
          "internalType": "bytes32",
          "name": "challenge_number",
          "type": "bytes32"
        },
        {
          "internalType": "uint256",
          "name": "testTarget",
          "type": "uint256"
        }
      ],
      "name": "checkMintSolution",
      "outputs": [
        {
          "internalType": "bool",
          "name": "success",
          "type": "bool"
        }
      ],
      "stateMutability": "view",
      "type": "function"
    },
    {
      "inputs": [],
      "name": "decimals",
      "outputs": [
        {
          "internalType": "uint8",
          "name": "",
          "type": "uint8"
        }
      ],
      "stateMutability": "view",
      "type": "function"
    },
    {
      "inputs": [
        {
          "internalType": "uint256",
          "name": "nonce",
          "type": "uint256"
        },
        {
          "internalType": "bytes32",
          "name": "challenge_digest",
          "type": "bytes32"
        },
        {
          "internalType": "address[]",
          "name": "ExtraFunds",
          "type": "address[]"
        },
        {
          "internalType": "address[]",
          "name": "MintTo",
          "type": "address[]"
        }
      ],
      "name": "empty_mintTo",
      "outputs": [
        {
          "internalType": "uint256",
          "name": "owed",
          "type": "uint256"
        }
      ],
      "stateMutability": "nonpayable",
      "type": "function"
    },
    {
      "inputs": [],
      "name": "epochCount",
      "outputs": [
        {
          "internalType": "uint256",
          "name": "",
          "type": "uint256"
        }
      ],
      "stateMutability": "view",
      "type": "function"
    },
    {
      "inputs": [],
      "name": "epochOld",
      "outputs": [
        {
          "internalType": "uint256",
          "name": "",
          "type": "uint256"
        }
      ],
      "stateMutability": "view",
      "type": "function"
    },
    {
      "inputs": [],
      "name": "getChallengeNumber",
      "outputs": [
        {
          "internalType": "bytes32",
          "name": "",
          "type": "bytes32"
        }
      ],
      "stateMutability": "view",
      "type": "function"
    },
    {
      "inputs": [],
      "name": "getCirculatingSupply",
      "outputs": [
        {
          "internalType": "uint256",
          "name": "",
          "type": "uint256"
        }
      ],
      "stateMutability": "view",
      "type": "function"
    },
    {
      "inputs": [],
      "name": "getEpoch",
      "outputs": [
        {
          "internalType": "uint256",
          "name": "",
          "type": "uint256"
        }
      ],
      "stateMutability": "view",
      "type": "function"
    },
    {
      "inputs": [],
      "name": "getMiningDifficulty",
      "outputs": [
        {
          "internalType": "uint256",
          "name": "",
          "type": "uint256"
        }
      ],
      "stateMutability": "view",
      "type": "function"
    },
    {
      "inputs": [],
      "name": "getMiningMinted",
      "outputs": [
        {
          "internalType": "uint256",
          "name": "",
          "type": "uint256"
        }
      ],
      "stateMutability": "view",
      "type": "function"
    },
    {
      "inputs": [],
      "name": "getMiningReward",
      "outputs": [
        {
          "internalType": "uint256",
          "name": "",
          "type": "uint256"
        }
      ],
      "stateMutability": "view",
      "type": "function"
    },
    {
      "inputs": [],
      "name": "getMiningTarget",
      "outputs": [
        {
          "internalType": "uint256",
          "name": "",
          "type": "uint256"
        }
      ],
      "stateMutability": "view",
      "type": "function"
    },
    {
      "inputs": [
        {
          "internalType": "uint256",
          "name": "nonce",
          "type": "uint256"
        },
        {
          "internalType": "bytes32",
          "name": "challenge_digest",
          "type": "bytes32"
        },
        {
          "internalType": "bytes32",
          "name": "challenge_number",
          "type": "bytes32"
        }
      ],
      "name": "getMintDigest",
      "outputs": [
        {
          "internalType": "bytes32",
          "name": "digesttest",
          "type": "bytes32"
        }
      ],
      "stateMutability": "view",
      "type": "function"
    },
    {
      "inputs": [],
      "name": "give",
      "outputs": [
        {
          "internalType": "uint256",
          "name": "",
          "type": "uint256"
        }
      ],
      "stateMutability": "view",
      "type": "function"
    },
    {
      "inputs": [],
      "name": "give0x",
      "outputs": [
        {
          "internalType": "uint256",
          "name": "",
          "type": "uint256"
        }
      ],
      "stateMutability": "view",
      "type": "function"
    },
    {
      "inputs": [],
      "name": "latestDifficultyPeriodStarted",
      "outputs": [
        {
          "internalType": "uint256",
          "name": "",
          "type": "uint256"
        }
      ],
      "stateMutability": "view",
      "type": "function"
    },
    {
      "inputs": [],
      "name": "latestDifficultyPeriodStarted2",
      "outputs": [
        {
          "internalType": "uint256",
          "name": "",
          "type": "uint256"
        }
      ],
      "stateMutability": "view",
      "type": "function"
    },
    {
      "inputs": [],
      "name": "latestreAdjustStarted",
      "outputs": [
        {
          "internalType": "uint256",
          "name": "",
          "type": "uint256"
        }
      ],
      "stateMutability": "view",
      "type": "function"
    },
    {
      "inputs": [],
      "name": "maxSupplyForEra",
      "outputs": [
        {
          "internalType": "uint256",
          "name": "",
          "type": "uint256"
        }
      ],
      "stateMutability": "view",
      "type": "function"
    },
    {
      "inputs": [],
      "name": "miningTarget",
      "outputs": [
        {
          "internalType": "uint256",
          "name": "",
          "type": "uint256"
        }
      ],
      "stateMutability": "view",
      "type": "function"
    },
    {
      "inputs": [
        {
          "internalType": "uint256",
          "name": "nonce",
          "type": "uint256"
        },
        {
          "internalType": "bytes32",
          "name": "challenge_digest",
          "type": "bytes32"
        }
      ],
      "name": "mint",
      "outputs": [
        {
          "internalType": "bool",
          "name": "success",
          "type": "bool"
        }
      ],
      "stateMutability": "nonpayable",
      "type": "function"
    },
    {
      "inputs": [
        {
          "internalType": "address",
          "name": "nftaddy",
          "type": "address"
        },
        {
          "internalType": "uint256",
          "name": "nftNumber",
          "type": "uint256"
        },
        {
          "internalType": "uint256",
          "name": "nonce",
          "type": "uint256"
        },
        {
          "internalType": "bytes32",
          "name": "challenge_digest",
          "type": "bytes32"
        }
      ],
      "name": "mintNFT1155",
      "outputs": [
        {
          "internalType": "bool",
          "name": "success",
          "type": "bool"
        }
      ],
      "stateMutability": "nonpayable",
      "type": "function"
    },
    {
      "inputs": [
        {
          "internalType": "address",
          "name": "nftaddy",
          "type": "address"
        },
        {
          "internalType": "uint256",
          "name": "nftNumber",
          "type": "uint256"
        },
        {
          "internalType": "uint256",
          "name": "nonce",
          "type": "uint256"
        },
        {
          "internalType": "bytes32",
          "name": "challenge_digest",
          "type": "bytes32"
        }
      ],
      "name": "mintNFT721",
      "outputs": [
        {
          "internalType": "bool",
          "name": "success",
          "type": "bool"
        }
      ],
      "stateMutability": "nonpayable",
      "type": "function"
    },
    {
      "inputs": [],
      "name": "mintNFTGO",
      "outputs": [
        {
          "internalType": "uint256",
          "name": "num",
          "type": "uint256"
        }
      ],
      "stateMutability": "view",
      "type": "function"
    },
    {
      "inputs": [],
      "name": "mintNFTGOBlocksUntil",
      "outputs": [
        {
          "internalType": "uint256",
          "name": "num",
          "type": "uint256"
        }
      ],
      "stateMutability": "view",
      "type": "function"
    },
    {
      "inputs": [
        {
          "internalType": "uint256",
          "name": "nonce",
          "type": "uint256"
        },
        {
          "internalType": "bytes32",
          "name": "challenge_digest",
          "type": "bytes32"
        },
        {
          "internalType": "address",
          "name": "mintTo",
          "type": "address"
        }
      ],
      "name": "mintTo",
      "outputs": [
        {
          "internalType": "uint256",
          "name": "owed",
          "type": "uint256"
        }
      ],
      "stateMutability": "nonpayable",
      "type": "function"
    },
    {
      "inputs": [
        {
          "internalType": "bool",
          "name": "nonce",
          "type": "bool"
        },
        {
          "internalType": "bool",
          "name": "challenge_digest",
          "type": "bool"
        },
        {
          "internalType": "address",
          "name": "mintTo",
          "type": "address"
        }
      ],
      "name": "mintToFREE",
      "outputs": [
        {
          "internalType": "uint256",
          "name": "owed",
          "type": "uint256"
        }
      ],
      "stateMutability": "nonpayable",
      "type": "function"
    },
    {
      "inputs": [
        {
          "internalType": "uint256",
          "name": "nonce",
          "type": "uint256"
        },
        {
          "internalType": "bytes32",
          "name": "challenge_digest",
          "type": "bytes32"
        },
        {
          "internalType": "address",
          "name": "mintTo",
          "type": "address"
        }
      ],
      "name": "mintToJustABAS",
      "outputs": [
        {
          "internalType": "uint256",
          "name": "owed",
          "type": "uint256"
        }
      ],
      "stateMutability": "nonpayable",
      "type": "function"
    },
    {
      "inputs": [
        {
          "internalType": "uint256",
          "name": "nonce",
          "type": "uint256"
        },
        {
          "internalType": "bytes32",
          "name": "challenge_digest",
          "type": "bytes32"
        },
        {
          "internalType": "address[]",
          "name": "ExtraFunds",
          "type": "address[]"
        },
        {
          "internalType": "address[]",
          "name": "MintTo",
          "type": "address[]"
        }
      ],
      "name": "mintTokensArrayTo",
      "outputs": [
        {
          "internalType": "uint256",
          "name": "owed",
          "type": "uint256"
        }
      ],
      "stateMutability": "nonpayable",
      "type": "function"
    },
    {
      "inputs": [
        {
          "internalType": "bool",
          "name": "nonce",
          "type": "bool"
        },
        {
          "internalType": "bool",
          "name": "challenge_digest",
          "type": "bool"
        },
        {
          "internalType": "address[]",
          "name": "ExtraFunds",
          "type": "address[]"
        },
        {
          "internalType": "address[]",
          "name": "MintTo",
          "type": "address[]"
        }
      ],
      "name": "mintTokensArrayToFREE",
      "outputs": [
        {
          "internalType": "uint256",
          "name": "owed",
          "type": "uint256"
        }
      ],
      "stateMutability": "nonpayable",
      "type": "function"
    },
    {
      "inputs": [
        {
          "internalType": "uint256",
          "name": "nonce",
          "type": "uint256"
        },
        {
          "internalType": "bytes32",
          "name": "challenge_digest",
          "type": "bytes32"
        },
        {
          "internalType": "address[]",
          "name": "ExtraFunds",
          "type": "address[]"
        },
        {
          "internalType": "address",
          "name": "MintTo",
          "type": "address"
        }
      ],
      "name": "mintTokensSameAddress",
      "outputs": [
        {
          "internalType": "bool",
          "name": "success",
          "type": "bool"
        }
      ],
      "stateMutability": "nonpayable",
      "type": "function"
    },
    {
      "inputs": [
        {
          "internalType": "bool",
          "name": "nonce",
          "type": "bool"
        },
        {
          "internalType": "bool",
          "name": "challenge_digest",
          "type": "bool"
        },
        {
          "internalType": "address[]",
          "name": "ExtraFunds",
          "type": "address[]"
        },
        {
          "internalType": "address",
          "name": "MintTo",
          "type": "address"
        }
      ],
      "name": "mintTokensSameAddressFREE",
      "outputs": [
        {
          "internalType": "bool",
          "name": "success",
          "type": "bool"
        }
      ],
      "stateMutability": "nonpayable",
      "type": "function"
    },
    {
      "inputs": [],
      "name": "multipler",
      "outputs": [
        {
          "internalType": "uint256",
          "name": "",
          "type": "uint256"
        }
      ],
      "stateMutability": "view",
      "type": "function"
    },
    {
      "inputs": [],
      "name": "name",
      "outputs": [
        {
          "internalType": "string",
          "name": "",
          "type": "string"
        }
      ],
      "stateMutability": "view",
      "type": "function"
    },
    {
      "inputs": [
        {
          "internalType": "address",
          "name": "",
          "type": "address"
        },
        {
          "internalType": "address",
          "name": "",
          "type": "address"
        },
        {
          "internalType": "uint256",
          "name": "",
          "type": "uint256"
        },
        {
          "internalType": "uint256",
          "name": "",
          "type": "uint256"
        },
        {
          "internalType": "bytes",
          "name": "",
          "type": "bytes"
        }
      ],
      "name": "onERC1155BatchReceived",
      "outputs": [
        {
          "internalType": "bytes4",
          "name": "",
          "type": "bytes4"
        }
      ],
      "stateMutability": "pure",
      "type": "function"
    },
    {
      "inputs": [
        {
          "internalType": "address",
          "name": "",
          "type": "address"
        },
        {
          "internalType": "address",
          "name": "",
          "type": "address"
        },
        {
          "internalType": "uint256",
          "name": "",
          "type": "uint256"
        },
        {
          "internalType": "uint256",
          "name": "",
          "type": "uint256"
        },
        {
          "internalType": "bytes",
          "name": "",
          "type": "bytes"
        }
      ],
      "name": "onERC1155Received",
      "outputs": [
        {
          "internalType": "bytes4",
          "name": "",
          "type": "bytes4"
        }
      ],
      "stateMutability": "pure",
      "type": "function"
    },
    {
      "inputs": [
        {
          "internalType": "address",
          "name": "",
          "type": "address"
        },
        {
          "internalType": "address",
          "name": "",
          "type": "address"
        },
        {
          "internalType": "uint256",
          "name": "",
          "type": "uint256"
        },
        {
          "internalType": "bytes",
          "name": "",
          "type": "bytes"
        }
      ],
      "name": "onERC721Received",
      "outputs": [
        {
          "internalType": "bytes4",
          "name": "",
          "type": "bytes4"
        }
      ],
      "stateMutability": "pure",
      "type": "function"
    },
    {
      "inputs": [],
      "name": "owner",
      "outputs": [
        {
          "internalType": "address",
          "name": "",
          "type": "address"
        }
      ],
      "stateMutability": "view",
      "type": "function"
    },
    {
      "inputs": [],
      "name": "previousBlockTime",
      "outputs": [
        {
          "internalType": "uint256",
          "name": "",
          "type": "uint256"
        }
      ],
      "stateMutability": "view",
      "type": "function"
    },
    {
      "inputs": [],
      "name": "rewardEra",
      "outputs": [
        {
          "internalType": "uint256",
          "name": "",
          "type": "uint256"
        }
      ],
      "stateMutability": "view",
      "type": "function"
    },
    {
      "inputs": [],
      "name": "reward_amount",
      "outputs": [
        {
          "internalType": "uint256",
          "name": "",
          "type": "uint256"
        }
      ],
      "stateMutability": "view",
      "type": "function"
    },
    {
      "inputs": [],
      "name": "symbol",
      "outputs": [
        {
          "internalType": "string",
          "name": "",
          "type": "string"
        }
      ],
      "stateMutability": "view",
      "type": "function"
    },
    {
      "inputs": [],
      "name": "targetTime",
      "outputs": [
        {
          "internalType": "uint256",
          "name": "",
          "type": "uint256"
        }
      ],
      "stateMutability": "view",
      "type": "function"
    },
    {
      "inputs": [],
      "name": "tokensMinted",
      "outputs": [
        {
          "internalType": "uint256",
          "name": "",
          "type": "uint256"
        }
      ],
      "stateMutability": "view",
      "type": "function"
    },
    {
      "inputs": [],
      "name": "totalSupply",
      "outputs": [
        {
          "internalType": "uint256",
          "name": "",
          "type": "uint256"
        }
      ],
      "stateMutability": "view",
      "type": "function"
    },
    {
      "inputs": [
        {
          "internalType": "address",
          "name": "to",
          "type": "address"
        },
        {
          "internalType": "uint256",
          "name": "tokens",
          "type": "uint256"
        }
      ],
      "name": "transfer",
      "outputs": [
        {
          "internalType": "bool",
          "name": "success",
          "type": "bool"
        }
      ],
      "stateMutability": "nonpayable",
      "type": "function"
    },
    {
      "inputs": [
        {
          "internalType": "address",
          "name": "from",
          "type": "address"
        },
        {
          "internalType": "address",
          "name": "to",
          "type": "address"
        },
        {
          "internalType": "uint256",
          "name": "tokens",
          "type": "uint256"
        }
      ],
      "name": "transferFrom",
      "outputs": [
        {
          "internalType": "bool",
          "name": "success",
          "type": "bool"
        }
      ],
      "stateMutability": "nonpayable",
      "type": "function"
    },
    {
      "inputs": [
        {
          "internalType": "address",
          "name": "AuctionAddress2",
          "type": "address"
        },
        {
          "internalType": "address",
          "name": "LPGuild2",
          "type": "address"
        },
        {
          "internalType": "address",
          "name": "LPGuild3",
          "type": "address"
        }
      ],
      "name": "zinit",
      "outputs": [],
      "stateMutability": "nonpayable",
      "type": "function"
    },
    {
      "stateMutability": "payable",
      "type": "receive"
    }
  ],
  "bytecode": "60806040526102d060015560006002556a3ccc3b09c08ced60e400006007556a115eec47f6cf7e35000000600855426009556000600a5542600b55610404600c5562010000600d55600160ea1b600e556200007165048c27395000600e54620001ed60201b62002be51790919060201c565b600f556200008160014362000303565b406010556000601155620000c360115460016200009f91906200031d565b620000ac90600262000435565b600854620001ed60201b62002be51790919060201c565b600854620000d2919062000303565b6012556000601355600060145542601555620f42406016556000601b556000601c556001601d556040518060600160405280602281526020016200408a6022913980516200012991601e9160209091019062000247565b5042601f55436020556021805460ff191690553480156200014957600080fd5b50600080546001600160a01b0319163390811782556040805192835260208301919091527f5c486528ec3e3f0ea91181cff8116f02bfa350e03b8b6f12e00765adbb5af85c910160405180910390a1336000818152601860209081526040808320670de0b6b3a76400009081905590519081527fddf252ad1be2c89b69c2b068fc378daa952ba7f163c4a11628f55a4df523b3ef910160405180910390a3620004a2565b600081600003620002325760405162461bcd60e51b815260206004820152600b60248201526a446976206279207a65726f60a81b604482015260640160405180910390fd5b6200023e828462000443565b90505b92915050565b828054620002559062000466565b90600052602060002090601f016020900481019282620002795760008555620002c4565b82601f106200029457805160ff1916838001178555620002c4565b82800160010185558215620002c4579182015b82811115620002c4578251825591602001919060010190620002a7565b50620002d2929150620002d6565b5090565b5b80821115620002d25760008155600101620002d7565b634e487b7160e01b600052601160045260246000fd5b600082821015620003185762000318620002ed565b500390565b60008219821115620003335762000333620002ed565b500190565b600181815b80851115620003795781600019048211156200035d576200035d620002ed565b808516156200036b57918102915b93841c93908002906200033d565b509250929050565b600082620003925750600162000241565b81620003a15750600062000241565b8160018114620003ba5760028114620003c557620003e5565b600191505062000241565b60ff841115620003d957620003d9620002ed565b50506001821b62000241565b5060208310610133831016604e8410600b84101617156200040a575081810a62000241565b62000416838362000338565b80600019048211156200042d576200042d620002ed565b029392505050565b60006200023e838362000381565b6000826200046157634e487b7160e01b600052601260045260246000fd5b500490565b600181811c908216806200047b57607f821691505b6020821081036200049c57634e487b7160e01b600052602260045260246000fd5b50919050565b613bd880620004b26000396000f3fe6080604052600436106103765760003560e01c806377ed6b14116101cf578063a7ef6b8f11610101578063cdcf630b1161009a578063ddfbd8dd1161006c578063ddfbd8dd14610a2b578063e932012b14610a4b578063f23a6e61146103fa578063f7a5f15514610a6157005b8063cdcf630b1461099a578063d0856d16146109ba578063dc6e9cf9146109cf578063dd62ed3e146109e557005b8063c0abebe0116100d3578063c0abebe01461092f578063c6ecc69814610944578063c8a1465c14610964578063cb9ae7071461098457005b8063a7ef6b8f146108b9578063a9059cbb146108d9578063b5ade81b146108f9578063c01b191f1461090f57005b80638c0838ab1161017357806397566aa01161014557806397566aa01461085757806399f584b3146108775780639e96a23a1461088d578063a68eb88e146108a357005b80638c0838ab146107c75780638da5cb5b146107e757806394b939ef1461080757806395d89b411461082757005b8063829965cc116101ac578063829965cc1461076f57806387a2a9d6146107855780638a769d351461079b5780638ae0368b146107b157005b806377ed6b141461071a57806381269a561461073a578063819c9d9e1461075a57005b80632d38bf7a116102a857806347353b691161024c57806364e467261161021e57806364e46726146106995780636de9f32b146106b957806370a08231146106cf578063757991a81461070557005b806347353b6914610639578063490203a7146106595780634ef376281461066e5780634fa972e11461068357005b806332e997081161028557806332e99708146105d857806334909e4d146105ed5780633c9536151461060d57806345d8a2321461062357005b80632d38bf7a146105635780632f104e0c14610579578063313ce567146105b157005b806317da485f1161031a578063237ef7db116102ec578063237ef7db146105025780632381a60e1461051857806323b872dd1461052e5780632b112e491461054e57005b806317da485f146104975780631801fbe5146104ac57806318160ddd146104cc5780631fccb33c146104e257005b80630c97e564116103535780630c97e564146103fa5780631029431714610440578063150b7a02146104565780631763a0891461048257005b8063012d3edf1461037f57806306fdde03146103a8578063095ea7b3146103ca57005b3661037d57005b005b34801561038b57600080fd5b50610395601b5481565b6040519081526020015b60405180910390f35b3480156103b457600080fd5b506103bd610a81565b60405161039f9190613185565b3480156103d657600080fd5b506103ea6103e53660046131f6565b610b0f565b604051901515815260200161039f565b34801561040657600080fd5b50610427610415366004613269565b63f23a6e6160e01b9695505050505050565b6040516001600160e01b0319909116815260200161039f565b34801561044c57600080fd5b5061039560155481565b34801561046257600080fd5b506104276104713660046132e1565b630a85bd0160e11b95945050505050565b34801561048e57600080fd5b50610395610b7c565b3480156104a357600080fd5b50610395610bb8565b3480156104b857600080fd5b506103ea6104c7366004613350565b610bd1565b3480156104d857600080fd5b5061039560075481565b3480156104ee57600080fd5b506103ea6104fd36600461342a565b610be8565b34801561050e57600080fd5b50610395600b5481565b34801561052457600080fd5b5061039560135481565b34801561053a57600080fd5b506103ea61054936600461348b565b610cab565b34801561055a57600080fd5b50610395610da9565b34801561056f57600080fd5b5061039560115481565b34801561058557600080fd5b50600554610599906001600160a01b031681565b6040516001600160a01b03909116815260200161039f565b3480156105bd57600080fd5b506105c6601281565b60405160ff909116815260200161039f565b3480156105e457600080fd5b50600f54610395565b3480156105f957600080fd5b50600654610599906001600160a01b031681565b34801561061957600080fd5b50610395601c5481565b34801561062f57600080fd5b5061039560015481565b34801561064557600080fd5b506103ea6106543660046134c7565b610e3a565b34801561066557600080fd5b50610395610ef6565b34801561067a57600080fd5b50601054610395565b34801561068f57600080fd5b5061039560125481565b3480156106a557600080fd5b5061037d6106b4366004613500565b610f54565b3480156106c557600080fd5b5061039560175481565b3480156106db57600080fd5b506103956106ea366004613543565b6001600160a01b031660009081526018602052604090205490565b34801561071157600080fd5b50600a54610395565b34801561072657600080fd5b506103ea6107353660046134c7565b611139565b34801561074657600080fd5b506103ea61075536600461355e565b6111ba565b34801561076657600080fd5b50610395611205565b34801561077b57600080fd5b50610395600a5481565b34801561079157600080fd5b50610395600e5481565b3480156107a757600080fd5b50610395600f5481565b3480156107bd57600080fd5b5061039560105481565b3480156107d357600080fd5b506103956107e2366004613590565b611223565b3480156107f357600080fd5b50600054610599906001600160a01b031681565b34801561081357600080fd5b50600354610599906001600160a01b031681565b34801561083357600080fd5b506103bd604051806040016040528060048152602001634142415360e01b81525081565b34801561086357600080fd5b506103956108723660046135bc565b611562565b34801561088357600080fd5b5061039560025481565b34801561089957600080fd5b50610395601d5481565b3480156108af57600080fd5b5061039560165481565b3480156108c557600080fd5b50600454610599906001600160a01b031681565b3480156108e557600080fd5b506103ea6108f43660046131f6565b61159d565b34801561090557600080fd5b50610395600c5481565b34801561091b57600080fd5b5061039561092a3660046135f9565b611634565b34801561093b57600080fd5b50601754610395565b34801561095057600080fd5b5061039561095f366004613629565b611941565b34801561097057600080fd5b5061039561097f3660046136b2565b611d43565b34801561099057600080fd5b5061039560205481565b3480156109a657600080fd5b506103ea6109b53660046136ee565b6120c3565b3480156109c657600080fd5b5061037d612179565b3480156109db57600080fd5b50610395600d5481565b3480156109f157600080fd5b50610395610a0036600461373b565b6001600160a01b03918216600090815260196020908152604080832093909416825291909152205490565b348015610a3757600080fd5b50610395610a46366004613590565b6123d4565b348015610a5757600080fd5b5061039560095481565b348015610a6d57600080fd5b50610395610a7c3660046136b2565b6126fa565b601e8054610a8e9061376e565b80601f0160208091040260200160405190810160405280929190818152602001828054610aba9061376e565b8015610b075780601f10610adc57610100808354040283529160200191610b07565b820191906000526020600020905b815481529060010190602001808311610aea57829003601f168201915b505050505081565b3360008181526019602090815260408083206001600160a01b038716808552925280832085905551919290917f8c5be1e5ebec7d5bd14f71427d1e84f3dd0314c0f7b2291e5b200ac8c7c3b92590610b6a9086815260200190565b60405180910390a35060015b92915050565b60006008600c54610b8d91906137d4565b601a54610b9a91906137e8565b6008600c54610ba991906137d4565b610bb391906137fc565b905090565b6000610bb3600f54600e54612be590919063ffffffff16565b6000610bde8383336123d4565b5060019392505050565b60008083516001610bf99190613813565b67ffffffffffffffff811115610c1157610c11613372565b604051908082528060200260200182016040528015610c3a578160200160208202803683370190505b50905060005b8451610c4d906001613813565b811015610c915783828281518110610c6757610c6761382b565b6001600160a01b039092166020928302919091019091015280610c8981613841565b915050610c40565b50610c9e86868684611d43565b5060019695505050505050565b6001600160a01b038316600090815260186020526040812054610cce9083612c36565b6001600160a01b0385166000908152601860209081526040808320939093556019815282822033835290522054610d059083612c36565b6001600160a01b038086166000908152601960209081526040808320338452825280832094909455918616815260189091522054610d439083612c82565b6001600160a01b0380851660008181526018602052604090819020939093559151908616907fddf252ad1be2c89b69c2b068fc378daa952ba7f163c4a11628f55a4df523b3ef90610d979086815260200190565b60405180910390a35060019392505050565b6000600460009054906101000a90046001600160a01b03166001600160a01b031663ffb671866040518163ffffffff1660e01b8152600401602060405180830381865afa158015610dfe573d6000803e3d6000fd5b505050506040513d601f19601f82011682018060405250810190610e22919061385a565b601754610e30906003613873565b610bb39190613813565b6000610e44611205565b15610e6a5760405162461bcd60e51b8152600401610e6190613892565b60405180910390fd5b610e758383336123d4565b50604051635c46a7ef60e11b81523060048201523360248201526044810185905260806064820152600060848201526001600160a01b0386169063b88d4fde9060a4015b600060405180830381600087803b158015610ed357600080fd5b505af1158015610ee7573d6000803e3d6000fd5b50600198975050505050505050565b600060086011541015610f1a57610f0f6012600a6139d3565b610bb3906014613873565b610bb36007601154610f2c91906137fc565b610f379060026139d3565b610f436012600a6139d3565b610f4e906014613873565b90612be5565b6000546001600160a01b03163314610f9b5760405162461bcd60e51b815260206004820152600a60248201526937b7363c9037bbb732b960b11b6044820152606401610e61565b6021546a115eec47f6cf7e350000009060ff1615610fbb57610fbb6139df565b6021805460ff1916600117905542601555610fd86012600a6139d3565b610fe3906014613873565b601355600060118190556017819055600a819055601b5561100c670de0b6b3a7640000476137d4565b600281905561101e90620927c0613873565b61102b90620927c0613813565b47601154600261103b91906139d3565b6110459190613873565b61104f91906137d4565b601655600e54611061906103e8612be5565b600f5542600955611070612cd0565b61107b6002826137d4565b6001600160a01b038516600081815260186020526040812092909255907fddf252ad1be2c89b69c2b068fc378daa952ba7f163c4a11628f55a4df523b3ef6110c46002856137d4565b60405190815260200160405180910390a3600380546001600160a01b03199081166001600160a01b038781169182179093556004805483169091179055600580548216868416179055600680549091169184169190911790556000601a819055600a5460145561113390612ea4565b50505050565b6000611143611205565b156111605760405162461bcd60e51b8152600401610e6190613892565b61116b8383336123d4565b50604051637921219560e11b8152306004820152336024820152604481018590526001606482015260a06084820152600060a48201526001600160a01b0386169063f242432a9060c401610eb9565b6000808333876040516020016111d2939291906139f5565b604051602081830303815290604052805190602001209050828160001c11156111fa57600080fd5b909314949350505050565b60006008600c5461121691906137d4565b601a54610bb391906137e8565b600080601054338660405160200161123d939291906139f5565b6040516020818303038152906040528051906020012090508381146112745760405162461bcd60e51b8152600401610e6190613a1d565b600f5481106112955760405162461bcd60e51b8152600401610e6190613a6b565b61129d612cd0565b60155442116112be5760405162461bcd60e51b8152600401610e6190613ab3565b600f5481106112df5760405162461bcd60e51b8152600401610e6190613a6b565b6000600154601554426112f291906137fc565b6112fe90610378613873565b61130891906137d4565b9050600061037861131a836064613873565b61132491906137d4565b90506000606482111561134357601a5461133f906001612c82565b601a555b610bb882101561139b57611360610378610f4e856297bb70613873565b61138a620c0840611372600287613ae2565b61137d90600f613873565b610f4e906207c2be613873565b6113949190613813565b90506113ca565b6113b96103786113ac856018613873565b610f4e90624d9b6c613873565b6113c79063ce09d1b0613813565b90505b6114026113e36305f5e10083601354610f4e9190613873565b6001600160a01b03881660009081526018602052604090205490612c82565b6001600160a01b03871660009081526018602052604090205560135461145890611437906305f5e10090610f4e908590613873565b6005546001600160a01b031660009081526018602052604090205490612c82565b6005546001600160a01b03166000908152601860205260409020556013546114b09061148f906305f5e10090610f4e908590613873565b6006546001600160a01b031660009081526018602052604090205490612c82565b6006546001600160a01b03166000908152601860205260409020556013546114f0906114e7906305f5e10090610f4e908590613873565b60175490612c82565b6017554260155560135433907fcf6fbb9dcea7d07263ab4f5c3a92f53af33dffc421d9d121e1c74b307e68189d90611533906305f5e10090610f4e908690613873565b600a546010546040805193845260208401929092529082015260600160405180910390a2979650505050505050565b600080601054338660405160200161157c939291906139f5565b60408051808303601f19018152919052805160209091012095945050505050565b336000908152601860205260408120546115b79083612c36565b33600090815260186020526040808220929092556001600160a01b038516815220546115e39083612c82565b6001600160a01b0384166000818152601860205260409081902092909255905133907fddf252ad1be2c89b69c2b068fc378daa952ba7f163c4a11628f55a4df523b3ef90610b6a9086815260200190565b600061163e612cd0565b601554421161165f5760405162461bcd60e51b8152600401610e6190613ab3565b60006001546015544261167291906137fc565b61167e90610378613873565b61168891906137d4565b9050600061037861169a836064613873565b6116a491906137d4565b9050600060648211156116c357601a546116bf906001612c82565b601a555b610bb8821015611703576116e0610378610f4e856297bb70613873565b6116f2620c0840611372600287613ae2565b6116fc9190613813565b9050611725565b6117146103786113ac856018613873565b6117229063ce09d1b0613813565b90505b61175d61173e6305f5e10083601354610f4e9190613873565b6001600160a01b03871660009081526018602052604090205490612c82565b6001600160a01b03861660009081526018602052604090205560135461179290611437906305f5e10090610f4e908590613873565b6005546001600160a01b03166000908152601860205260409020556013546117c99061148f906305f5e10090610f4e908590613873565b6006546001600160a01b0316600090815260186020526040902055601354611800906114e7906305f5e10090610f4e908590613873565b60175542601555601c54156118d2576107d082101561187d576000859050806001600160a01b03166108fc61184e6305f5e100601c54601654876118449190613873565b610f4e9190613873565b6040518115909202916000818181858888f19350505050158015611876573d6000803e3d6000fd5b50506118d2565b6000859050806001600160a01b03166108fc6118a7600a601c546016546102586118449190613873565b6040518115909202916000818181858888f193505050501580156118cf573d6000803e3d6000fd5b50505b336001600160a01b03167fcf6fbb9dcea7d07263ab4f5c3a92f53af33dffc421d9d121e1c74b307e68189d6119136305f5e10084601354610f4e9190613873565b600a546010546040805193845260208401929092529082015260600160405180910390a29695505050505050565b60008061196986868560008151811061195c5761195c61382b565b6020026020010151611634565b9050600081116119a85760405162461bcd60e51b815260206004820152600a6024820152696d696e7420697373756560b01b6044820152606401610e61565b83516119b5906001613813565b8351146119d45760405162461bcd60e51b8152600401610e6190613af1565b60005b8451811015611aab576119eb816001613813565b6119f69060026139d3565b600a54611a0391906137e8565b600003611aab576000611a17826001613813565b90505b8551811015611a9857858281518110611a3557611a3561382b565b60200260200101516001600160a01b0316868281518110611a5857611a5861382b565b60200260200101516001600160a01b031603611a865760405162461bcd60e51b8152600401610e6190613b4e565b80611a9081613841565b915050611a1a565b5080611aa381613841565b9150506119d7565b60008060005b83811015611ce557611ac4816001613813565b611acf9060026139d3565b600a54611adc91906137e8565b600003611cd357878181518110611af557611af561382b565b60209081029190910101516040516370a0823160e01b81523060048201526001600160a01b03909116906370a0823190602401602060405180830381865afa158015611b45573d6000803e3d6000fd5b505050506040513d601f19601f82011682018060405250810190611b69919061385a565b91508115611c0e57611b7c6003826137e8565b158015611b8857508015155b8015611b97575063010c8e0085115b8015611ba55750601d546002145b15611be657611bdf6501d1a94a200086846011546002611bc591906139d3565b611bcf9190613873565b611bd99190613873565b90612f54565b9250611c0e565b611c0b6501d1a94a200086846011546002611c0191906139d3565b6118449190613873565b92505b878181518110611c2057611c2061382b565b60200260200101516001600160a01b031663a9059cbb88836001611c449190613813565b81518110611c5457611c5461382b565b6020026020010151856040518363ffffffff1660e01b8152600401611c8e9291906001600160a01b03929092168252602082015260400190565b6020604051808303816000875af1158015611cad573d6000803e3d6000fd5b505050506040513d601f19601f82011682018060405250810190611cd19190613b85565b505b80611cdd81613841565b915050611ab1565b50600a5460105460408051928352602083019190915281018490526060810185905233907f87e5a7775b8ac2ead741e32752431bffeff76ec5f347cc202a6bad454653930b9060800160405180910390a25091979650505050505050565b600080611d6b868685600081518110611d5e57611d5e61382b565b60200260200101516123d4565b905060008111611daa5760405162461bcd60e51b815260206004820152600a6024820152696d696e7420697373756560b01b6044820152606401610e61565b8351611db7906001613813565b835114611dd65760405162461bcd60e51b8152600401610e6190613af1565b60005b8451811015611ead57611ded816001613813565b611df89060026139d3565b600a54611e0591906137e8565b600003611ead576000611e19826001613813565b90505b8551811015611e9a57858281518110611e3757611e3761382b565b60200260200101516001600160a01b0316868281518110611e5a57611e5a61382b565b60200260200101516001600160a01b031603611e885760405162461bcd60e51b8152600401610e6190613b4e565b80611e9281613841565b915050611e1c565b5080611ea581613841565b915050611dd9565b60008060005b83811015611ce557611ec6816001613813565b611ed19060026139d3565b600a54611ede91906137e8565b6000036120b157878181518110611ef757611ef761382b565b60209081029190910101516040516370a0823160e01b81523060048201526001600160a01b03909116906370a0823190602401602060405180830381865afa158015611f47573d6000803e3d6000fd5b505050506040513d601f19601f82011682018060405250810190611f6b919061385a565b91508115611fec57611f7e6003826137e8565b158015611f8a57508015155b8015611f99575063010c8e0085115b8015611fa75750601d546002145b15611fce57611fc76501d1a94a200086846011546002611bc591906139d3565b9250611fec565b611fe96501d1a94a200086846011546002611c0191906139d3565b92505b878181518110611ffe57611ffe61382b565b60200260200101516001600160a01b031663a9059cbb888360016120229190613813565b815181106120325761203261382b565b6020026020010151856040518363ffffffff1660e01b815260040161206c9291906001600160a01b03929092168252602082015260400190565b6020604051808303816000875af115801561208b573d6000803e3d6000fd5b505050506040513d601f19601f820116820180604052508101906120af9190613b85565b505b806120bb81613841565b915050611eb3565b600080835160016120d49190613813565b67ffffffffffffffff8111156120ec576120ec613372565b604051908082528060200260200182016040528015612115578160200160208202803683370190505b50905060005b8451612128906001613813565b81101561216c57838282815181106121425761214261382b565b6001600160a01b03909216602092830291909101909101528061216481613841565b91505061211b565b50610c9e86868684611941565b61218b670de0b6b3a7640000476137d4565b600281905561219d906203d090613873565b6121aa906203d090613813565b4760115460026121ba91906139d3565b6121c49190613873565b6121ce91906137d4565b601655601f546000906121e190426137fc565b90506000601454600a546121f591906137fc565b9050600061220382846137d4565b9050600860115410156122325760115461221e9060026139d3565b61222a906102d0613873565b600155612248565b6122446007601154610f2c91906137fc565b6013555b600061225e60015483610378611bd99190613873565b90506000610378612270836064613873565b61227a91906137d4565b905060006107d08210156122be5761229b610378610f4e856297bb70613873565b6122ad620c0840611372600287613ae2565b6122b79190613813565b90506122c6565b50640165a0bc005b6004600c546016546122d89190613873565b6122e39060c8613873565b6122ed91906137d4565b4711156123bc57600554600654601c546016546001600160a01b03938416939092169183916108fc9161232a916305f5e10091611c01898e613873565b6040518115909202916000818181858888f19350505050158015612352573d6000803e3d6000fd5b50806001600160a01b03166108fc61237a6305f5e100601c54601654888d611c019190613873565b6040518115909202916000818181858888f193505050501580156123a2573d6000803e3d6000fd5b50601d546123b1906001613873565b601c55506123c29050565b6000601c555b5050600a54601455505042601f555050565b60008060105433866040516020016123ee939291906139f5565b6040516020818303038152906040528051906020012090508381146124255760405162461bcd60e51b8152600401610e6190613a1d565b600f5481106124465760405162461bcd60e51b8152600401610e6190613a6b565b61244e612cd0565b601554421161246f5760405162461bcd60e51b8152600401610e6190613ab3565b60006001546015544261248291906137fc565b61248e90610378613873565b61249891906137d4565b905060006103786124aa836064613873565b6124b491906137d4565b9050600060648211156124d357601a546124cf906001612c82565b601a555b610bb8821015612513576124f0610378610f4e856297bb70613873565b612502620c0840611372600287613ae2565b61250c9190613813565b9050612535565b6125246103786113ac856018613873565b6125329063ce09d1b0613813565b90505b61254e6113e36305f5e10083601354610f4e9190613873565b6001600160a01b03871660009081526018602052604090205560135461258390611437906305f5e10090610f4e908590613873565b6005546001600160a01b03166000908152601860205260409020556013546125ba9061148f906305f5e10090610f4e908590613873565b6006546001600160a01b03166000908152601860205260409020556013546125f1906114e7906305f5e10090610f4e908590613873565b60175542601555601c54156126b9576107d0821015612664576000869050806001600160a01b03166108fc6126356305f5e100601c54601654876118449190613873565b6040518115909202916000818181858888f1935050505015801561265d573d6000803e3d6000fd5b50506126b9565b6000869050806001600160a01b03166108fc61268e600a601c546016546102586118449190613873565b6040518115909202916000818181858888f193505050501580156126b6573d6000803e3d6000fd5b50505b336001600160a01b03167fcf6fbb9dcea7d07263ab4f5c3a92f53af33dffc421d9d121e1c74b307e68189d6115336305f5e10084601354610f4e9190613873565b6000806010543387604051602001612714939291906139f5565b60405160208183030381529060405280519060200120905084811461274b5760405162461bcd60e51b8152600401610e6190613a1d565b600f54811061276c5760405162461bcd60e51b8152600401610e6190613a6b565b612774612cd0565b60155442116127955760405162461bcd60e51b8152600401610e6190613ab3565b835183511461280c5760405162461bcd60e51b815260206004820152603a60248201527f4d696e74546f2068617320746f20686176652073616d65206e756d626572206f60448201527f66206164647265737373657320617320457874726146756e64730000000000006064820152608401610e61565b600f54811061282d5760405162461bcd60e51b8152600401610e6190613a6b565b60005b845181101561290457612844816001613813565b61284f9060026139d3565b600a5461285c91906137e8565b600003612904576000612870826001613813565b90505b85518110156128f15785828151811061288e5761288e61382b565b60200260200101516001600160a01b03168682815181106128b1576128b161382b565b60200260200101516001600160a01b0316036128df5760405162461bcd60e51b8152600401610e6190613b4e565b806128e981613841565b915050612873565b50806128fc81613841565b915050612830565b60006001546015544261291791906137fc565b61292390610378613873565b61292d91906137d4565b9050600061037861293f836064613873565b61294991906137d4565b90506000606482111561296857601a54612964906001612c82565b601a555b610bb88210156129a857612985610378610f4e856297bb70613873565b612997620c0840611372600287613ae2565b6129a19190613813565b90506129ca565b6129b96103786113ac856018613873565b6129c79063ce09d1b0613813565b90505b6000805b85811015612bd2576129e1856001613813565b6129ec9060026139d3565b600a546129f991906137e8565b600003612bc057898581518110612a1257612a1261382b565b60209081029190910101516040516370a0823160e01b81523060048201526001600160a01b03909116906370a0823190602401602060405180830381865afa158015612a62573d6000803e3d6000fd5b505050506040513d601f19601f82011682018060405250810190612a86919061385a565b91508115612bc057612a996003866137e8565b158015612aa557508415155b8015612ab4575063010c8e0083115b8015612ac25750601d546002145b15612ae957612ae26501d1a94a200084846011546002611bc591906139d3565b9250612b07565b612b046501d1a94a200084846011546002611c0191906139d3565b92505b898581518110612b1957612b1961382b565b60200260200101516001600160a01b031663a9059cbb8a8781518110612b4157612b4161382b565b6020026020010151856040518363ffffffff1660e01b8152600401612b7b9291906001600160a01b03929092168252602082015260400190565b6020604051808303816000875af1158015612b9a573d6000803e3d6000fd5b505050506040513d601f19601f82011682018060405250810190612bbe9190613b85565b505b80612bca81613841565b9150506129ce565b5050426015559998505050505050505050565b600081600003612c255760405162461bcd60e51b815260206004820152600b60248201526a446976206279207a65726f60a81b6044820152606401610e61565b612c2f82846137d4565b9392505050565b600081831015612c785760405162461bcd60e51b815260206004820152600d60248201526c53756220756e646572666c6f7760981b6044820152606401610e61565b612c2f82846137fc565b600080612c8f8385613813565b905083811015612c2f5760405162461bcd60e51b815260206004820152600c60248201526b416464206f766572666c6f7760a01b6044820152606401610e61565b601254601354601754612ce291612c82565b118015612cf15750600f601154105b15612db157601154612d04906001613813565b6011819055612d2c90612d18906001613813565b612d239060026139d3565b60085490612be5565b600854612d3991906137fc565b60125560115460081115612d9b57601154612d559060026139d3565b612d61906102d0613873565b60015560115460061115612d96576010600c5411612d83576008600c55612db1565b6002600c54612d9291906137d4565b600c555b612db1565b612dad6007601154610f2c91906137fc565b6013555b600a54612dbf906001612c82565b600a55600c54612dd1906008906137d4565b600a54612dde91906137e8565b600003612e5f57612ded612179565b612dff6011546001612d189190613813565b600854612e0c91906137fc565b601255600b544290600090612e2190836137fc565b905060006008600c54612e3491906137d4565b600154612e419190613873565b42600b55905080821115612e5757612e57612fc4565b505050612e93565b600c54601b54600a54612e7291906137fc565b612e7c91906137e8565b600003612e9357612e8b612fc4565b612e93612179565b612e9e6001436137fc565b40601055565b6000546001600160a01b03163314612eeb5760405162461bcd60e51b815260206004820152600a60248201526937b7363c9037bbb732b960b11b6044820152606401610e61565b600054604080516001600160a01b03928316815291831660208301527f5c486528ec3e3f0ea91181cff8116f02bfa350e03b8b6f12e00765adbb5af85c910160405180910390a1600080546001600160a01b0319166001600160a01b0392909216919091179055565b600081600003612f945760405162461bcd60e51b815260206004820152600b60248201526a446976206279207a65726f60a81b6044820152606401610e61565b6000612fa083856137d4565b9050612fac83856137e8565b15612c2f57612fbc816001613813565b949350505050565b6009544290600090612fd690836137fc565b90506000601b54600a54612fea91906137fc565b9050600081600154612ffc9190613873565b600a54601b5590508083101561307757600061301d84610f4e846064613105565b6001601d559050600061303d6103e8613037846064612c36565b9061316d565b905061306c6130638261305d6107d0600f54612be590919063ffffffff16565b90613105565b600f5490612c36565b600f55506130d19050565b600061308882610f4e866064613105565b6002601d55905060006130a26103e8613037846064612c36565b90506130cb6130c28261305d6101f4600f54612be590919063ffffffff16565b600f5490612c82565b600f5550505b600984905543602055600d54600f5410156130ed57600d54600f555b600e54600f54111561113357600e54600f5550505050565b60008260000361311757506000610b76565b60006131238385613873565b90508261313085836137d4565b14612c2f5760405162461bcd60e51b815260206004820152600d60248201526c4d756c74206f766572666c6f7760981b6044820152606401610e61565b60008183111561317e575080610b76565b5090919050565b600060208083528351808285015260005b818110156131b257858101830151858201604001528201613196565b818111156131c4576000604083870101525b50601f01601f1916929092016040019392505050565b80356001600160a01b03811681146131f157600080fd5b919050565b6000806040838503121561320957600080fd5b613212836131da565b946020939093013593505050565b60008083601f84011261323257600080fd5b50813567ffffffffffffffff81111561324a57600080fd5b60208301915083602082850101111561326257600080fd5b9250929050565b60008060008060008060a0878903121561328257600080fd5b61328b876131da565b9550613299602088016131da565b94506040870135935060608701359250608087013567ffffffffffffffff8111156132c357600080fd5b6132cf89828a01613220565b979a9699509497509295939492505050565b6000806000806000608086880312156132f957600080fd5b613302866131da565b9450613310602087016131da565b935060408601359250606086013567ffffffffffffffff81111561333357600080fd5b61333f88828901613220565b969995985093965092949392505050565b6000806040838503121561336357600080fd5b50508035926020909101359150565b634e487b7160e01b600052604160045260246000fd5b600082601f83011261339957600080fd5b8135602067ffffffffffffffff808311156133b6576133b6613372565b8260051b604051601f19603f830116810181811084821117156133db576133db613372565b6040529384528581018301938381019250878511156133f957600080fd5b83870191505b8482101561341f57613410826131da565b835291830191908301906133ff565b979650505050505050565b6000806000806080858703121561344057600080fd5b8435935060208501359250604085013567ffffffffffffffff81111561346557600080fd5b61347187828801613388565b925050613480606086016131da565b905092959194509250565b6000806000606084860312156134a057600080fd5b6134a9846131da565b92506134b7602085016131da565b9150604084013590509250925092565b600080600080608085870312156134dd57600080fd5b6134e6856131da565b966020860135965060408601359560600135945092505050565b60008060006060848603121561351557600080fd5b61351e846131da565b925061352c602085016131da565b915061353a604085016131da565b90509250925092565b60006020828403121561355557600080fd5b612c2f826131da565b6000806000806080858703121561357457600080fd5b5050823594602084013594506040840135936060013592509050565b6000806000606084860312156135a557600080fd5b833592506020840135915061353a604085016131da565b6000806000606084860312156135d157600080fd5b505081359360208301359350604090920135919050565b80151581146135f657600080fd5b50565b60008060006060848603121561360e57600080fd5b8335613619816135e8565b9250602084013561352c816135e8565b6000806000806080858703121561363f57600080fd5b843561364a816135e8565b9350602085013561365a816135e8565b9250604085013567ffffffffffffffff8082111561367757600080fd5b61368388838901613388565b9350606087013591508082111561369957600080fd5b506136a687828801613388565b91505092959194509250565b600080600080608085870312156136c857600080fd5b8435935060208501359250604085013567ffffffffffffffff8082111561367757600080fd5b6000806000806080858703121561370457600080fd5b843561370f816135e8565b9350602085013561371f816135e8565b9250604085013567ffffffffffffffff81111561346557600080fd5b6000806040838503121561374e57600080fd5b613757836131da565b9150613765602084016131da565b90509250929050565b600181811c9082168061378257607f821691505b6020821081036137a257634e487b7160e01b600052602260045260246000fd5b50919050565b634e487b7160e01b600052601260045260246000fd5b634e487b7160e01b600052601160045260246000fd5b6000826137e3576137e36137a8565b500490565b6000826137f7576137f76137a8565b500690565b60008282101561380e5761380e6137be565b500390565b60008219821115613826576138266137be565b500190565b634e487b7160e01b600052603260045260246000fd5b600060018201613853576138536137be565b5060010190565b60006020828403121561386c57600080fd5b5051919050565b600081600019048311821515161561388d5761388d6137be565b500290565b60208082526039908201527f4f6e6c79206d696e74206f6e20736c6f77426c6f636b732025205f424c4f434b60408201527f535f5045525f524541444a5553544d454e542f38203d3d203000000000000000606082015260800190565b600181815b8085111561392a578160001904821115613910576139106137be565b8085161561391d57918102915b93841c93908002906138f4565b509250929050565b60008261394157506001610b76565b8161394e57506000610b76565b8160018114613964576002811461396e5761398a565b6001915050610b76565b60ff84111561397f5761397f6137be565b50506001821b610b76565b5060208310610133831016604e8410600b84101617156139ad575081810a610b76565b6139b783836138ef565b80600019048211156139cb576139cb6137be565b029392505050565b6000612c2f8383613932565b634e487b7160e01b600052600160045260246000fd5b92835260609190911b6bffffffffffffffffffffffff19166020830152603482015260540190565b6020808252602e908201527f4f6c64206368616c6c656e67655f646967657374206f722077726f6e6720636860408201526d185b1b195b99d957d91a59d95cdd60921b606082015260800190565b60208082526028908201527f446967657374206d75737420626520736d616c6c6572207468616e206d696e696040820152671b99d5185c99d95d60c21b606082015260800190565b6020808252601590820152744e6f2073616d65207365636f6e6420736f6c76657360581b604082015260600190565b6000612c2f60ff841683613932565b6020808252603a908201527f4d696e74546f2068617320746f206861766520616e206578747261206164647260408201527f65737320636f6d706172656420746f20457874726146756e6473000000000000606082015260800190565b6020808252601b908201527f4e6f207072696e74696e67205468652073616d6520746f6b656e730000000000604082015260600190565b600060208284031215613b9757600080fd5b8151612c2f816135e856fea264697066735822122020fc87d9cdc82904407ffa9304df5dde3ff4b7aacf3b6137ee73d093b716ea4664736f6c634300080e0033417262697472756d20426974636f696e20616e64205374616b696e6720546f6b656e",
  "bytecodeSha1": "da39a3ee5e6b4b0d3255bfef95601890afd80709",
  "compiler": {
    "evm_version": "istanbul",
    "optimizer": {
      "enabled": true,
      "runs": 200
    },
    "version": "0.8.14+commit.80d49f37"
  },
  "contractName": "ArbitrumBitcoinAndStaking",
  "language": "Solidity",
  "natspec": {
    "kind": "dev",
    "methods": {},
    "version": 1
  },
  "opcodes": "PUSH1 0x80 PUSH1 0x40 MSTORE PUSH1 0x4 CALLDATASIZE LT PUSH2 0x376 JUMPI PUSH1 0x0 CALLDATALOAD PUSH1 0xE0 SHR DUP1 PUSH4 0x77ED6B14 GT PUSH2 0x1CF JUMPI DUP1 PUSH4 0xA7EF6B8F GT PUSH2 0x101 JUMPI DUP1 PUSH4 0xCDCF630B GT PUSH2 0x9A JUMPI DUP1 PUSH4 0xDDFBD8DD GT PUSH2 0x6C JUMPI DUP1 PUSH4 0xDDFBD8DD EQ PUSH2 0xA2B JUMPI DUP1 PUSH4 0xE932012B EQ PUSH2 0xA4B JUMPI DUP1 PUSH4 0xF23A6E61 EQ PUSH2 0x3FA JUMPI DUP1 PUSH4 0xF7A5F155 EQ PUSH2 0xA61 JUMPI STOP JUMPDEST DUP1 PUSH4 0xCDCF630B EQ PUSH2 0x99A JUMPI DUP1 PUSH4 0xD0856D16 EQ PUSH2 0x9BA JUMPI DUP1 PUSH4 0xDC6E9CF9 EQ PUSH2 0x9CF JUMPI DUP1 PUSH4 0xDD62ED3E EQ PUSH2 0x9E5 JUMPI STOP JUMPDEST DUP1 PUSH4 0xC0ABEBE0 GT PUSH2 0xD3 JUMPI DUP1 PUSH4 0xC0ABEBE0 EQ PUSH2 0x92F JUMPI DUP1 PUSH4 0xC6ECC698 EQ PUSH2 0x944 JUMPI DUP1 PUSH4 0xC8A1465C EQ PUSH2 0x964 JUMPI DUP1 PUSH4 0xCB9AE707 EQ PUSH2 0x984 JUMPI STOP JUMPDEST DUP1 PUSH4 0xA7EF6B8F EQ PUSH2 0x8B9 JUMPI DUP1 PUSH4 0xA9059CBB EQ PUSH2 0x8D9 JUMPI DUP1 PUSH4 0xB5ADE81B EQ PUSH2 0x8F9 JUMPI DUP1 PUSH4 0xC01B191F EQ PUSH2 0x90F JUMPI STOP JUMPDEST DUP1 PUSH4 0x8C0838AB GT PUSH2 0x173 JUMPI DUP1 PUSH4 0x97566AA0 GT PUSH2 0x145 JUMPI DUP1 PUSH4 0x97566AA0 EQ PUSH2 0x857 JUMPI DUP1 PUSH4 0x99F584B3 EQ PUSH2 0x877 JUMPI DUP1 PUSH4 0x9E96A23A EQ PUSH2 0x88D JUMPI DUP1 PUSH4 0xA68EB88E EQ PUSH2 0x8A3 JUMPI STOP JUMPDEST DUP1 PUSH4 0x8C0838AB EQ PUSH2 0x7C7 JUMPI DUP1 PUSH4 0x8DA5CB5B EQ PUSH2 0x7E7 JUMPI DUP1 PUSH4 0x94B939EF EQ PUSH2 0x807 JUMPI DUP1 PUSH4 0x95D89B41 EQ PUSH2 0x827 JUMPI STOP JUMPDEST DUP1 PUSH4 0x829965CC GT PUSH2 0x1AC JUMPI DUP1 PUSH4 0x829965CC EQ PUSH2 0x76F JUMPI DUP1 PUSH4 0x87A2A9D6 EQ PUSH2 0x785 JUMPI DUP1 PUSH4 0x8A769D35 EQ PUSH2 0x79B JUMPI DUP1 PUSH4 0x8AE0368B EQ PUSH2 0x7B1 JUMPI STOP JUMPDEST DUP1 PUSH4 0x77ED6B14 EQ PUSH2 0x71A JUMPI DUP1 PUSH4 0x81269A56 EQ PUSH2 0x73A JUMPI DUP1 PUSH4 0x819C9D9E EQ PUSH2 0x75A JUMPI STOP JUMPDEST DUP1 PUSH4 0x2D38BF7A GT PUSH2 0x2A8 JUMPI DUP1 PUSH4 0x47353B69 GT PUSH2 0x24C JUMPI DUP1 PUSH4 0x64E46726 GT PUSH2 0x21E JUMPI DUP1 PUSH4 0x64E46726 EQ PUSH2 0x699 JUMPI DUP1 PUSH4 0x6DE9F32B EQ PUSH2 0x6B9 JUMPI DUP1 PUSH4 0x70A08231 EQ PUSH2 0x6CF JUMPI DUP1 PUSH4 0x757991A8 EQ PUSH2 0x705 JUMPI STOP JUMPDEST DUP1 PUSH4 0x47353B69 EQ PUSH2 0x639 JUMPI DUP1 PUSH4 0x490203A7 EQ PUSH2 0x659 JUMPI DUP1 PUSH4 0x4EF37628 EQ PUSH2 0x66E JUMPI DUP1 PUSH4 0x4FA972E1 EQ PUSH2 0x683 JUMPI STOP JUMPDEST DUP1 PUSH4 0x32E99708 GT PUSH2 0x285 JUMPI DUP1 PUSH4 0x32E99708 EQ PUSH2 0x5D8 JUMPI DUP1 PUSH4 0x34909E4D EQ PUSH2 0x5ED JUMPI DUP1 PUSH4 0x3C953615 EQ PUSH2 0x60D JUMPI DUP1 PUSH4 0x45D8A232 EQ PUSH2 0x623 JUMPI STOP JUMPDEST DUP1 PUSH4 0x2D38BF7A EQ PUSH2 0x563 JUMPI DUP1 PUSH4 0x2F104E0C EQ PUSH2 0x579 JUMPI DUP1 PUSH4 0x313CE567 EQ PUSH2 0x5B1 JUMPI STOP JUMPDEST DUP1 PUSH4 0x17DA485F GT PUSH2 0x31A JUMPI DUP1 PUSH4 0x237EF7DB GT PUSH2 0x2EC JUMPI DUP1 PUSH4 0x237EF7DB EQ PUSH2 0x502 JUMPI DUP1 PUSH4 0x2381A60E EQ PUSH2 0x518 JUMPI DUP1 PUSH4 0x23B872DD EQ PUSH2 0x52E JUMPI DUP1 PUSH4 0x2B112E49 EQ PUSH2 0x54E JUMPI STOP JUMPDEST DUP1 PUSH4 0x17DA485F EQ PUSH2 0x497 JUMPI DUP1 PUSH4 0x1801FBE5 EQ PUSH2 0x4AC JUMPI DUP1 PUSH4 0x18160DDD EQ PUSH2 0x4CC JUMPI DUP1 PUSH4 0x1FCCB33C EQ PUSH2 0x4E2 JUMPI STOP JUMPDEST DUP1 PUSH4 0xC97E564 GT PUSH2 0x353 JUMPI DUP1 PUSH4 0xC97E564 EQ PUSH2 0x3FA JUMPI DUP1 PUSH4 0x10294317 EQ PUSH2 0x440 JUMPI DUP1 PUSH4 0x150B7A02 EQ PUSH2 0x456 JUMPI DUP1 PUSH4 0x1763A089 EQ PUSH2 0x482 JUMPI STOP JUMPDEST DUP1 PUSH4 0x12D3EDF EQ PUSH2 0x37F JUMPI DUP1 PUSH4 0x6FDDE03 EQ PUSH2 0x3A8 JUMPI DUP1 PUSH4 0x95EA7B3 EQ PUSH2 0x3CA JUMPI STOP JUMPDEST CALLDATASIZE PUSH2 0x37D JUMPI STOP JUMPDEST STOP JUMPDEST CALLVALUE DUP1 ISZERO PUSH2 0x38B JUMPI PUSH1 0x0 DUP1 REVERT JUMPDEST POP PUSH2 0x395 PUSH1 0x1B SLOAD DUP2 JUMP JUMPDEST PUSH1 0x40 MLOAD SWAP1 DUP2 MSTORE PUSH1 0x20 ADD JUMPDEST PUSH1 0x40 MLOAD DUP1 SWAP2 SUB SWAP1 RETURN JUMPDEST CALLVALUE DUP1 ISZERO PUSH2 0x3B4 JUMPI PUSH1 0x0 DUP1 REVERT JUMPDEST POP PUSH2 0x3BD PUSH2 0xA81 JUMP JUMPDEST PUSH1 0x40 MLOAD PUSH2 0x39F SWAP2 SWAP1 PUSH2 0x3185 JUMP JUMPDEST CALLVALUE DUP1 ISZERO PUSH2 0x3D6 JUMPI PUSH1 0x0 DUP1 REVERT JUMPDEST POP PUSH2 0x3EA PUSH2 0x3E5 CALLDATASIZE PUSH1 0x4 PUSH2 0x31F6 JUMP JUMPDEST PUSH2 0xB0F JUMP JUMPDEST PUSH1 0x40 MLOAD SWAP1 ISZERO ISZERO DUP2 MSTORE PUSH1 0x20 ADD PUSH2 0x39F JUMP JUMPDEST CALLVALUE DUP1 ISZERO PUSH2 0x406 JUMPI PUSH1 0x0 DUP1 REVERT JUMPDEST POP PUSH2 0x427 PUSH2 0x415 CALLDATASIZE PUSH1 0x4 PUSH2 0x3269 JUMP JUMPDEST PUSH4 0xF23A6E61 PUSH1 0xE0 SHL SWAP7 SWAP6 POP POP POP POP POP POP JUMP JUMPDEST PUSH1 0x40 MLOAD PUSH1 0x1 PUSH1 0x1 PUSH1 0xE0 SHL SUB NOT SWAP1 SWAP2 AND DUP2 MSTORE PUSH1 0x20 ADD PUSH2 0x39F JUMP JUMPDEST CALLVALUE DUP1 ISZERO PUSH2 0x44C JUMPI PUSH1 0x0 DUP1 REVERT JUMPDEST POP PUSH2 0x395 PUSH1 0x15 SLOAD DUP2 JUMP JUMPDEST CALLVALUE DUP1 ISZERO PUSH2 0x462 JUMPI PUSH1 0x0 DUP1 REVERT JUMPDEST POP PUSH2 0x427 PUSH2 0x471 CALLDATASIZE PUSH1 0x4 PUSH2 0x32E1 JUMP JUMPDEST PUSH4 0xA85BD01 PUSH1 0xE1 SHL SWAP6 SWAP5 POP POP POP POP POP JUMP JUMPDEST CALLVALUE DUP1 ISZERO PUSH2 0x48E JUMPI PUSH1 0x0 DUP1 REVERT JUMPDEST POP PUSH2 0x395 PUSH2 0xB7C JUMP JUMPDEST CALLVALUE DUP1 ISZERO PUSH2 0x4A3 JUMPI PUSH1 0x0 DUP1 REVERT JUMPDEST POP PUSH2 0x395 PUSH2 0xBB8 JUMP JUMPDEST CALLVALUE DUP1 ISZERO PUSH2 0x4B8 JUMPI PUSH1 0x0 DUP1 REVERT JUMPDEST POP PUSH2 0x3EA PUSH2 0x4C7 CALLDATASIZE PUSH1 0x4 PUSH2 0x3350 JUMP JUMPDEST PUSH2 0xBD1 JUMP JUMPDEST CALLVALUE DUP1 ISZERO PUSH2 0x4D8 JUMPI PUSH1 0x0 DUP1 REVERT JUMPDEST POP PUSH2 0x395 PUSH1 0x7 SLOAD DUP2 JUMP JUMPDEST CALLVALUE DUP1 ISZERO PUSH2 0x4EE JUMPI PUSH1 0x0 DUP1 REVERT JUMPDEST POP PUSH2 0x3EA PUSH2 0x4FD CALLDATASIZE PUSH1 0x4 PUSH2 0x342A JUMP JUMPDEST PUSH2 0xBE8 JUMP JUMPDEST CALLVALUE DUP1 ISZERO PUSH2 0x50E JUMPI PUSH1 0x0 DUP1 REVERT JUMPDEST POP PUSH2 0x395 PUSH1 0xB SLOAD DUP2 JUMP JUMPDEST CALLVALUE DUP1 ISZERO PUSH2 0x524 JUMPI PUSH1 0x0 DUP1 REVERT JUMPDEST POP PUSH2 0x395 PUSH1 0x13 SLOAD DUP2 JUMP JUMPDEST CALLVALUE DUP1 ISZERO PUSH2 0x53A JUMPI PUSH1 0x0 DUP1 REVERT JUMPDEST POP PUSH2 0x3EA PUSH2 0x549 CALLDATASIZE PUSH1 0x4 PUSH2 0x348B JUMP JUMPDEST PUSH2 0xCAB JUMP JUMPDEST CALLVALUE DUP1 ISZERO PUSH2 0x55A JUMPI PUSH1 0x0 DUP1 REVERT JUMPDEST POP PUSH2 0x395 PUSH2 0xDA9 JUMP JUMPDEST CALLVALUE DUP1 ISZERO PUSH2 0x56F JUMPI PUSH1 0x0 DUP1 REVERT JUMPDEST POP PUSH2 0x395 PUSH1 0x11 SLOAD DUP2 JUMP JUMPDEST CALLVALUE DUP1 ISZERO PUSH2 0x585 JUMPI PUSH1 0x0 DUP1 REVERT JUMPDEST POP PUSH1 0x5 SLOAD PUSH2 0x599 SWAP1 PUSH1 0x1 PUSH1 0x1 PUSH1 0xA0 SHL SUB AND DUP2 JUMP JUMPDEST PUSH1 0x40 MLOAD PUSH1 0x1 PUSH1 0x1 PUSH1 0xA0 SHL SUB SWAP1 SWAP2 AND DUP2 MSTORE PUSH1 0x20 ADD PUSH2 0x39F JUMP JUMPDEST CALLVALUE DUP1 ISZERO PUSH2 0x5BD JUMPI PUSH1 0x0 DUP1 REVERT JUMPDEST POP PUSH2 0x5C6 PUSH1 0x12 DUP2 JUMP JUMPDEST PUSH1 0x40 MLOAD PUSH1 0xFF SWAP1 SWAP2 AND DUP2 MSTORE PUSH1 0x20 ADD PUSH2 0x39F JUMP JUMPDEST CALLVALUE DUP1 ISZERO PUSH2 0x5E4 JUMPI PUSH1 0x0 DUP1 REVERT JUMPDEST POP PUSH1 0xF SLOAD PUSH2 0x395 JUMP JUMPDEST CALLVALUE DUP1 ISZERO PUSH2 0x5F9 JUMPI PUSH1 0x0 DUP1 REVERT JUMPDEST POP PUSH1 0x6 SLOAD PUSH2 0x599 SWAP1 PUSH1 0x1 PUSH1 0x1 PUSH1 0xA0 SHL SUB AND DUP2 JUMP JUMPDEST CALLVALUE DUP1 ISZERO PUSH2 0x619 JUMPI PUSH1 0x0 DUP1 REVERT JUMPDEST POP PUSH2 0x395 PUSH1 0x1C SLOAD DUP2 JUMP JUMPDEST CALLVALUE DUP1 ISZERO PUSH2 0x62F JUMPI PUSH1 0x0 DUP1 REVERT JUMPDEST POP PUSH2 0x395 PUSH1 0x1 SLOAD DUP2 JUMP JUMPDEST CALLVALUE DUP1 ISZERO PUSH2 0x645 JUMPI PUSH1 0x0 DUP1 REVERT JUMPDEST POP PUSH2 0x3EA PUSH2 0x654 CALLDATASIZE PUSH1 0x4 PUSH2 0x34C7 JUMP JUMPDEST PUSH2 0xE3A JUMP JUMPDEST CALLVALUE DUP1 ISZERO PUSH2 0x665 JUMPI PUSH1 0x0 DUP1 REVERT JUMPDEST POP PUSH2 0x395 PUSH2 0xEF6 JUMP JUMPDEST CALLVALUE DUP1 ISZERO PUSH2 0x67A JUMPI PUSH1 0x0 DUP1 REVERT JUMPDEST POP PUSH1 0x10 SLOAD PUSH2 0x395 JUMP JUMPDEST CALLVALUE DUP1 ISZERO PUSH2 0x68F JUMPI PUSH1 0x0 DUP1 REVERT JUMPDEST POP PUSH2 0x395 PUSH1 0x12 SLOAD DUP2 JUMP JUMPDEST CALLVALUE DUP1 ISZERO PUSH2 0x6A5 JUMPI PUSH1 0x0 DUP1 REVERT JUMPDEST POP PUSH2 0x37D PUSH2 0x6B4 CALLDATASIZE PUSH1 0x4 PUSH2 0x3500 JUMP JUMPDEST PUSH2 0xF54 JUMP JUMPDEST CALLVALUE DUP1 ISZERO PUSH2 0x6C5 JUMPI PUSH1 0x0 DUP1 REVERT JUMPDEST POP PUSH2 0x395 PUSH1 0x17 SLOAD DUP2 JUMP JUMPDEST CALLVALUE DUP1 ISZERO PUSH2 0x6DB JUMPI PUSH1 0x0 DUP1 REVERT JUMPDEST POP PUSH2 0x395 PUSH2 0x6EA CALLDATASIZE PUSH1 0x4 PUSH2 0x3543 JUMP JUMPDEST PUSH1 0x1 PUSH1 0x1 PUSH1 0xA0 SHL SUB AND PUSH1 0x0 SWAP1 DUP2 MSTORE PUSH1 0x18 PUSH1 0x20 MSTORE PUSH1 0x40 SWAP1 KECCAK256 SLOAD SWAP1 JUMP JUMPDEST CALLVALUE DUP1 ISZERO PUSH2 0x711 JUMPI PUSH1 0x0 DUP1 REVERT JUMPDEST POP PUSH1 0xA SLOAD PUSH2 0x395 JUMP JUMPDEST CALLVALUE DUP1 ISZERO PUSH2 0x726 JUMPI PUSH1 0x0 DUP1 REVERT JUMPDEST POP PUSH2 0x3EA PUSH2 0x735 CALLDATASIZE PUSH1 0x4 PUSH2 0x34C7 JUMP JUMPDEST PUSH2 0x1139 JUMP JUMPDEST CALLVALUE DUP1 ISZERO PUSH2 0x746 JUMPI PUSH1 0x0 DUP1 REVERT JUMPDEST POP PUSH2 0x3EA PUSH2 0x755 CALLDATASIZE PUSH1 0x4 PUSH2 0x355E JUMP JUMPDEST PUSH2 0x11BA JUMP JUMPDEST CALLVALUE DUP1 ISZERO PUSH2 0x766 JUMPI PUSH1 0x0 DUP1 REVERT JUMPDEST POP PUSH2 0x395 PUSH2 0x1205 JUMP JUMPDEST CALLVALUE DUP1 ISZERO PUSH2 0x77B JUMPI PUSH1 0x0 DUP1 REVERT JUMPDEST POP PUSH2 0x395 PUSH1 0xA SLOAD DUP2 JUMP JUMPDEST CALLVALUE DUP1 ISZERO PUSH2 0x791 JUMPI PUSH1 0x0 DUP1 REVERT JUMPDEST POP PUSH2 0x395 PUSH1 0xE SLOAD DUP2 JUMP JUMPDEST CALLVALUE DUP1 ISZERO PUSH2 0x7A7 JUMPI PUSH1 0x0 DUP1 REVERT JUMPDEST POP PUSH2 0x395 PUSH1 0xF SLOAD DUP2 JUMP JUMPDEST CALLVALUE DUP1 ISZERO PUSH2 0x7BD JUMPI PUSH1 0x0 DUP1 REVERT JUMPDEST POP PUSH2 0x395 PUSH1 0x10 SLOAD DUP2 JUMP JUMPDEST CALLVALUE DUP1 ISZERO PUSH2 0x7D3 JUMPI PUSH1 0x0 DUP1 REVERT JUMPDEST POP PUSH2 0x395 PUSH2 0x7E2 CALLDATASIZE PUSH1 0x4 PUSH2 0x3590 JUMP JUMPDEST PUSH2 0x1223 JUMP JUMPDEST CALLVALUE DUP1 ISZERO PUSH2 0x7F3 JUMPI PUSH1 0x0 DUP1 REVERT JUMPDEST POP PUSH1 0x0 SLOAD PUSH2 0x599 SWAP1 PUSH1 0x1 PUSH1 0x1 PUSH1 0xA0 SHL SUB AND DUP2 JUMP JUMPDEST CALLVALUE DUP1 ISZERO PUSH2 0x813 JUMPI PUSH1 0x0 DUP1 REVERT JUMPDEST POP PUSH1 0x3 SLOAD PUSH2 0x599 SWAP1 PUSH1 0x1 PUSH1 0x1 PUSH1 0xA0 SHL SUB AND DUP2 JUMP JUMPDEST CALLVALUE DUP1 ISZERO PUSH2 0x833 JUMPI PUSH1 0x0 DUP1 REVERT JUMPDEST POP PUSH2 0x3BD PUSH1 0x40 MLOAD DUP1 PUSH1 0x40 ADD PUSH1 0x40 MSTORE DUP1 PUSH1 0x4 DUP2 MSTORE PUSH1 0x20 ADD PUSH4 0x41424153 PUSH1 0xE0 SHL DUP2 MSTORE POP DUP2 JUMP JUMPDEST CALLVALUE DUP1 ISZERO PUSH2 0x863 JUMPI PUSH1 0x0 DUP1 REVERT JUMPDEST POP PUSH2 0x395 PUSH2 0x872 CALLDATASIZE PUSH1 0x4 PUSH2 0x35BC JUMP JUMPDEST PUSH2 0x1562 JUMP JUMPDEST CALLVALUE DUP1 ISZERO PUSH2 0x883 JUMPI PUSH1 0x0 DUP1 REVERT JUMPDEST POP PUSH2 0x395 PUSH1 0x2 SLOAD DUP2 JUMP JUMPDEST CALLVALUE DUP1 ISZERO PUSH2 0x899 JUMPI PUSH1 0x0 DUP1 REVERT JUMPDEST POP PUSH2 0x395 PUSH1 0x1D SLOAD DUP2 JUMP JUMPDEST CALLVALUE DUP1 ISZERO PUSH2 0x8AF JUMPI PUSH1 0x0 DUP1 REVERT JUMPDEST POP PUSH2 0x395 PUSH1 0x16 SLOAD DUP2 JUMP JUMPDEST CALLVALUE DUP1 ISZERO PUSH2 0x8C5 JUMPI PUSH1 0x0 DUP1 REVERT JUMPDEST POP PUSH1 0x4 SLOAD PUSH2 0x599 SWAP1 PUSH1 0x1 PUSH1 0x1 PUSH1 0xA0 SHL SUB AND DUP2 JUMP JUMPDEST CALLVALUE DUP1 ISZERO PUSH2 0x8E5 JUMPI PUSH1 0x0 DUP1 REVERT JUMPDEST POP PUSH2 0x3EA PUSH2 0x8F4 CALLDATASIZE PUSH1 0x4 PUSH2 0x31F6 JUMP JUMPDEST PUSH2 0x159D JUMP JUMPDEST CALLVALUE DUP1 ISZERO PUSH2 0x905 JUMPI PUSH1 0x0 DUP1 REVERT JUMPDEST POP PUSH2 0x395 PUSH1 0xC SLOAD DUP2 JUMP JUMPDEST CALLVALUE DUP1 ISZERO PUSH2 0x91B JUMPI PUSH1 0x0 DUP1 REVERT JUMPDEST POP PUSH2 0x395 PUSH2 0x92A CALLDATASIZE PUSH1 0x4 PUSH2 0x35F9 JUMP JUMPDEST PUSH2 0x1634 JUMP JUMPDEST CALLVALUE DUP1 ISZERO PUSH2 0x93B JUMPI PUSH1 0x0 DUP1 REVERT JUMPDEST POP PUSH1 0x17 SLOAD PUSH2 0x395 JUMP JUMPDEST CALLVALUE DUP1 ISZERO PUSH2 0x950 JUMPI PUSH1 0x0 DUP1 REVERT JUMPDEST POP PUSH2 0x395 PUSH2 0x95F CALLDATASIZE PUSH1 0x4 PUSH2 0x3629 JUMP JUMPDEST PUSH2 0x1941 JUMP JUMPDEST CALLVALUE DUP1 ISZERO PUSH2 0x970 JUMPI PUSH1 0x0 DUP1 REVERT JUMPDEST POP PUSH2 0x395 PUSH2 0x97F CALLDATASIZE PUSH1 0x4 PUSH2 0x36B2 JUMP JUMPDEST PUSH2 0x1D43 JUMP JUMPDEST CALLVALUE DUP1 ISZERO PUSH2 0x990 JUMPI PUSH1 0x0 DUP1 REVERT JUMPDEST POP PUSH2 0x395 PUSH1 0x20 SLOAD DUP2 JUMP JUMPDEST CALLVALUE DUP1 ISZERO PUSH2 0x9A6 JUMPI PUSH1 0x0 DUP1 REVERT JUMPDEST POP PUSH2 0x3EA PUSH2 0x9B5 CALLDATASIZE PUSH1 0x4 PUSH2 0x36EE JUMP JUMPDEST PUSH2 0x20C3 JUMP JUMPDEST CALLVALUE DUP1 ISZERO PUSH2 0x9C6 JUMPI PUSH1 0x0 DUP1 REVERT JUMPDEST POP PUSH2 0x37D PUSH2 0x2179 JUMP JUMPDEST CALLVALUE DUP1 ISZERO PUSH2 0x9DB JUMPI PUSH1 0x0 DUP1 REVERT JUMPDEST POP PUSH2 0x395 PUSH1 0xD SLOAD DUP2 JUMP JUMPDEST CALLVALUE DUP1 ISZERO PUSH2 0x9F1 JUMPI PUSH1 0x0 DUP1 REVERT JUMPDEST POP PUSH2 0x395 PUSH2 0xA00 CALLDATASIZE PUSH1 0x4 PUSH2 0x373B JUMP JUMPDEST PUSH1 0x1 PUSH1 0x1 PUSH1 0xA0 SHL SUB SWAP2 DUP3 AND PUSH1 0x0 SWAP1 DUP2 MSTORE PUSH1 0x19 PUSH1 0x20 SWAP1 DUP2 MSTORE PUSH1 0x40 DUP1 DUP4 KECCAK256 SWAP4 SWAP1 SWAP5 AND DUP3 MSTORE SWAP2 SWAP1 SWAP2 MSTORE KECCAK256 SLOAD SWAP1 JUMP JUMPDEST CALLVALUE DUP1 ISZERO PUSH2 0xA37 JUMPI PUSH1 0x0 DUP1 REVERT JUMPDEST POP PUSH2 0x395 PUSH2 0xA46 CALLDATASIZE PUSH1 0x4 PUSH2 0x3590 JUMP JUMPDEST PUSH2 0x23D4 JUMP JUMPDEST CALLVALUE DUP1 ISZERO PUSH2 0xA57 JUMPI PUSH1 0x0 DUP1 REVERT JUMPDEST POP PUSH2 0x395 PUSH1 0x9 SLOAD DUP2 JUMP JUMPDEST CALLVALUE DUP1 ISZERO PUSH2 0xA6D JUMPI PUSH1 0x0 DUP1 REVERT JUMPDEST POP PUSH2 0x395 PUSH2 0xA7C CALLDATASIZE PUSH1 0x4 PUSH2 0x36B2 JUMP JUMPDEST PUSH2 0x26FA JUMP JUMPDEST PUSH1 0x1E DUP1 SLOAD PUSH2 0xA8E SWAP1 PUSH2 0x376E JUMP JUMPDEST DUP1 PUSH1 0x1F ADD PUSH1 0x20 DUP1 SWAP2 DIV MUL PUSH1 0x20 ADD PUSH1 0x40 MLOAD SWAP1 DUP2 ADD PUSH1 0x40 MSTORE DUP1 SWAP3 SWAP2 SWAP1 DUP2 DUP2 MSTORE PUSH1 0x20 ADD DUP3 DUP1 SLOAD PUSH2 0xABA SWAP1 PUSH2 0x376E JUMP JUMPDEST DUP1 ISZERO PUSH2 0xB07 JUMPI DUP1 PUSH1 0x1F LT PUSH2 0xADC JUMPI PUSH2 0x100 DUP1 DUP4 SLOAD DIV MUL DUP4 MSTORE SWAP2 PUSH1 0x20 ADD SWAP2 PUSH2 0xB07 JUMP JUMPDEST DUP3 ADD SWAP2 SWAP1 PUSH1 0x0 MSTORE PUSH1 0x20 PUSH1 0x0 KECCAK256 SWAP1 JUMPDEST DUP2 SLOAD DUP2 MSTORE SWAP1 PUSH1 0x1 ADD SWAP1 PUSH1 0x20 ADD DUP1 DUP4 GT PUSH2 0xAEA JUMPI DUP3 SWAP1 SUB PUSH1 0x1F AND DUP3 ADD SWAP2 JUMPDEST POP POP POP POP POP DUP2 JUMP JUMPDEST CALLER PUSH1 0x0 DUP2 DUP2 MSTORE PUSH1 0x19 PUSH1 0x20 SWAP1 DUP2 MSTORE PUSH1 0x40 DUP1 DUP4 KECCAK256 PUSH1 0x1 PUSH1 0x1 PUSH1 0xA0 SHL SUB DUP8 AND DUP1 DUP6 MSTORE SWAP3 MSTORE DUP1 DUP4 KECCAK256 DUP6 SWAP1 SSTORE MLOAD SWAP2 SWAP3 SWAP1 SWAP2 PUSH32 0x8C5BE1E5EBEC7D5BD14F71427D1E84F3DD0314C0F7B2291E5B200AC8C7C3B925 SWAP1 PUSH2 0xB6A SWAP1 DUP7 DUP2 MSTORE PUSH1 0x20 ADD SWAP1 JUMP JUMPDEST PUSH1 0x40 MLOAD DUP1 SWAP2 SUB SWAP1 LOG3 POP PUSH1 0x1 JUMPDEST SWAP3 SWAP2 POP POP JUMP JUMPDEST PUSH1 0x0 PUSH1 0x8 PUSH1 0xC SLOAD PUSH2 0xB8D SWAP2 SWAP1 PUSH2 0x37D4 JUMP JUMPDEST PUSH1 0x1A SLOAD PUSH2 0xB9A SWAP2 SWAP1 PUSH2 0x37E8 JUMP JUMPDEST PUSH1 0x8 PUSH1 0xC SLOAD PUSH2 0xBA9 SWAP2 SWAP1 PUSH2 0x37D4 JUMP JUMPDEST PUSH2 0xBB3 SWAP2 SWAP1 PUSH2 0x37FC JUMP JUMPDEST SWAP1 POP SWAP1 JUMP JUMPDEST PUSH1 0x0 PUSH2 0xBB3 PUSH1 0xF SLOAD PUSH1 0xE SLOAD PUSH2 0x2BE5 SWAP1 SWAP2 SWAP1 PUSH4 0xFFFFFFFF AND JUMP JUMPDEST PUSH1 0x0 PUSH2 0xBDE DUP4 DUP4 CALLER PUSH2 0x23D4 JUMP JUMPDEST POP PUSH1 0x1 SWAP4 SWAP3 POP POP POP JUMP JUMPDEST PUSH1 0x0 DUP1 DUP4 MLOAD PUSH1 0x1 PUSH2 0xBF9 SWAP2 SWAP1 PUSH2 0x3813 JUMP JUMPDEST PUSH8 0xFFFFFFFFFFFFFFFF DUP2 GT ISZERO PUSH2 0xC11 JUMPI PUSH2 0xC11 PUSH2 0x3372 JUMP JUMPDEST PUSH1 0x40 MLOAD SWAP1 DUP1 DUP3 MSTORE DUP1 PUSH1 0x20 MUL PUSH1 0x20 ADD DUP3 ADD PUSH1 0x40 MSTORE DUP1 ISZERO PUSH2 0xC3A JUMPI DUP2 PUSH1 0x20 ADD PUSH1 0x20 DUP3 MUL DUP1 CALLDATASIZE DUP4 CALLDATACOPY ADD SWAP1 POP JUMPDEST POP SWAP1 POP PUSH1 0x0 JUMPDEST DUP5 MLOAD PUSH2 0xC4D SWAP1 PUSH1 0x1 PUSH2 0x3813 JUMP JUMPDEST DUP2 LT ISZERO PUSH2 0xC91 JUMPI DUP4 DUP3 DUP3 DUP2 MLOAD DUP2 LT PUSH2 0xC67 JUMPI PUSH2 0xC67 PUSH2 0x382B JUMP JUMPDEST PUSH1 0x1 PUSH1 0x1 PUSH1 0xA0 SHL SUB SWAP1 SWAP3 AND PUSH1 0x20 SWAP3 DUP4 MUL SWAP2 SWAP1 SWAP2 ADD SWAP1 SWAP2 ADD MSTORE DUP1 PUSH2 0xC89 DUP2 PUSH2 0x3841 JUMP JUMPDEST SWAP2 POP POP PUSH2 0xC40 JUMP JUMPDEST POP PUSH2 0xC9E DUP7 DUP7 DUP7 DUP5 PUSH2 0x1D43 JUMP JUMPDEST POP PUSH1 0x1 SWAP7 SWAP6 POP POP POP POP POP POP JUMP JUMPDEST PUSH1 0x1 PUSH1 0x1 PUSH1 0xA0 SHL SUB DUP4 AND PUSH1 0x0 SWAP1 DUP2 MSTORE PUSH1 0x18 PUSH1 0x20 MSTORE PUSH1 0x40 DUP2 KECCAK256 SLOAD PUSH2 0xCCE SWAP1 DUP4 PUSH2 0x2C36 JUMP JUMPDEST PUSH1 0x1 PUSH1 0x1 PUSH1 0xA0 SHL SUB DUP6 AND PUSH1 0x0 SWAP1 DUP2 MSTORE PUSH1 0x18 PUSH1 0x20 SWAP1 DUP2 MSTORE PUSH1 0x40 DUP1 DUP4 KECCAK256 SWAP4 SWAP1 SWAP4 SSTORE PUSH1 0x19 DUP2 MSTORE DUP3 DUP3 KECCAK256 CALLER DUP4 MSTORE SWAP1 MSTORE KECCAK256 SLOAD PUSH2 0xD05 SWAP1 DUP4 PUSH2 0x2C36 JUMP JUMPDEST PUSH1 0x1 PUSH1 0x1 PUSH1 0xA0 SHL SUB DUP1 DUP7 AND PUSH1 0x0 SWAP1 DUP2 MSTORE PUSH1 0x19 PUSH1 0x20 SWAP1 DUP2 MSTORE PUSH1 0x40 DUP1 DUP4 KECCAK256 CALLER DUP5 MSTORE DUP3 MSTORE DUP1 DUP4 KECCAK256 SWAP5 SWAP1 SWAP5 SSTORE SWAP2 DUP7 AND DUP2 MSTORE PUSH1 0x18 SWAP1 SWAP2 MSTORE KECCAK256 SLOAD PUSH2 0xD43 SWAP1 DUP4 PUSH2 0x2C82 JUMP JUMPDEST PUSH1 0x1 PUSH1 0x1 PUSH1 0xA0 SHL SUB DUP1 DUP6 AND PUSH1 0x0 DUP2 DUP2 MSTORE PUSH1 0x18 PUSH1 0x20 MSTORE PUSH1 0x40 SWAP1 DUP2 SWAP1 KECCAK256 SWAP4 SWAP1 SWAP4 SSTORE SWAP2 MLOAD SWAP1 DUP7 AND SWAP1 PUSH32 0xDDF252AD1BE2C89B69C2B068FC378DAA952BA7F163C4A11628F55A4DF523B3EF SWAP1 PUSH2 0xD97 SWAP1 DUP7 DUP2 MSTORE PUSH1 0x20 ADD SWAP1 JUMP JUMPDEST PUSH1 0x40 MLOAD DUP1 SWAP2 SUB SWAP1 LOG3 POP PUSH1 0x1 SWAP4 SWAP3 POP POP POP JUMP JUMPDEST PUSH1 0x0 PUSH1 0x4 PUSH1 0x0 SWAP1 SLOAD SWAP1 PUSH2 0x100 EXP SWAP1 DIV PUSH1 0x1 PUSH1 0x1 PUSH1 0xA0 SHL SUB AND PUSH1 0x1 PUSH1 0x1 PUSH1 0xA0 SHL SUB AND PUSH4 0xFFB67186 PUSH1 0x40 MLOAD DUP2 PUSH4 0xFFFFFFFF AND PUSH1 0xE0 SHL DUP2 MSTORE PUSH1 0x4 ADD PUSH1 0x20 PUSH1 0x40 MLOAD DUP1 DUP4 SUB DUP2 DUP7 GAS STATICCALL ISZERO DUP1 ISZERO PUSH2 0xDFE JUMPI RETURNDATASIZE PUSH1 0x0 DUP1 RETURNDATACOPY RETURNDATASIZE PUSH1 0x0 REVERT JUMPDEST POP POP POP POP PUSH1 0x40 MLOAD RETURNDATASIZE PUSH1 0x1F NOT PUSH1 0x1F DUP3 ADD AND DUP3 ADD DUP1 PUSH1 0x40 MSTORE POP DUP2 ADD SWAP1 PUSH2 0xE22 SWAP2 SWAP1 PUSH2 0x385A JUMP JUMPDEST PUSH1 0x17 SLOAD PUSH2 0xE30 SWAP1 PUSH1 0x3 PUSH2 0x3873 JUMP JUMPDEST PUSH2 0xBB3 SWAP2 SWAP1 PUSH2 0x3813 JUMP JUMPDEST PUSH1 0x0 PUSH2 0xE44 PUSH2 0x1205 JUMP JUMPDEST ISZERO PUSH2 0xE6A JUMPI PUSH1 0x40 MLOAD PUSH3 0x461BCD PUSH1 0xE5 SHL DUP2 MSTORE PUSH1 0x4 ADD PUSH2 0xE61 SWAP1 PUSH2 0x3892 JUMP JUMPDEST PUSH1 0x40 MLOAD DUP1 SWAP2 SUB SWAP1 REVERT JUMPDEST PUSH2 0xE75 DUP4 DUP4 CALLER PUSH2 0x23D4 JUMP JUMPDEST POP PUSH1 0x40 MLOAD PUSH4 0x5C46A7EF PUSH1 0xE1 SHL DUP2 MSTORE ADDRESS PUSH1 0x4 DUP3 ADD MSTORE CALLER PUSH1 0x24 DUP3 ADD MSTORE PUSH1 0x44 DUP2 ADD DUP6 SWAP1 MSTORE PUSH1 0x80 PUSH1 0x64 DUP3 ADD MSTORE PUSH1 0x0 PUSH1 0x84 DUP3 ADD MSTORE PUSH1 0x1 PUSH1 0x1 PUSH1 0xA0 SHL SUB DUP7 AND SWAP1 PUSH4 0xB88D4FDE SWAP1 PUSH1 0xA4 ADD JUMPDEST PUSH1 0x0 PUSH1 0x40 MLOAD DUP1 DUP4 SUB DUP2 PUSH1 0x0 DUP8 DUP1 EXTCODESIZE ISZERO DUP1 ISZERO PUSH2 0xED3 JUMPI PUSH1 0x0 DUP1 REVERT JUMPDEST POP GAS CALL ISZERO DUP1 ISZERO PUSH2 0xEE7 JUMPI RETURNDATASIZE PUSH1 0x0 DUP1 RETURNDATACOPY RETURNDATASIZE PUSH1 0x0 REVERT JUMPDEST POP PUSH1 0x1 SWAP9 SWAP8 POP POP POP POP POP POP POP POP JUMP JUMPDEST PUSH1 0x0 PUSH1 0x8 PUSH1 0x11 SLOAD LT ISZERO PUSH2 0xF1A JUMPI PUSH2 0xF0F PUSH1 0x12 PUSH1 0xA PUSH2 0x39D3 JUMP JUMPDEST PUSH2 0xBB3 SWAP1 PUSH1 0x14 PUSH2 0x3873 JUMP JUMPDEST PUSH2 0xBB3 PUSH1 0x7 PUSH1 0x11 SLOAD PUSH2 0xF2C SWAP2 SWAP1 PUSH2 0x37FC JUMP JUMPDEST PUSH2 0xF37 SWAP1 PUSH1 0x2 PUSH2 0x39D3 JUMP JUMPDEST PUSH2 0xF43 PUSH1 0x12 PUSH1 0xA PUSH2 0x39D3 JUMP JUMPDEST PUSH2 0xF4E SWAP1 PUSH1 0x14 PUSH2 0x3873 JUMP JUMPDEST SWAP1 PUSH2 0x2BE5 JUMP JUMPDEST PUSH1 0x0 SLOAD PUSH1 0x1 PUSH1 0x1 PUSH1 0xA0 SHL SUB AND CALLER EQ PUSH2 0xF9B JUMPI PUSH1 0x40 MLOAD PUSH3 0x461BCD PUSH1 0xE5 SHL DUP2 MSTORE PUSH1 0x20 PUSH1 0x4 DUP3 ADD MSTORE PUSH1 0xA PUSH1 0x24 DUP3 ADD MSTORE PUSH10 0x37B7363C9037BBB732B9 PUSH1 0xB1 SHL PUSH1 0x44 DUP3 ADD MSTORE PUSH1 0x64 ADD PUSH2 0xE61 JUMP JUMPDEST PUSH1 0x21 SLOAD PUSH11 0x115EEC47F6CF7E35000000 SWAP1 PUSH1 0xFF AND ISZERO PUSH2 0xFBB JUMPI PUSH2 0xFBB PUSH2 0x39DF JUMP JUMPDEST PUSH1 0x21 DUP1 SLOAD PUSH1 0xFF NOT AND PUSH1 0x1 OR SWAP1 SSTORE TIMESTAMP PUSH1 0x15 SSTORE PUSH2 0xFD8 PUSH1 0x12 PUSH1 0xA PUSH2 0x39D3 JUMP JUMPDEST PUSH2 0xFE3 SWAP1 PUSH1 0x14 PUSH2 0x3873 JUMP JUMPDEST PUSH1 0x13 SSTORE PUSH1 0x0 PUSH1 0x11 DUP2 SWAP1 SSTORE PUSH1 0x17 DUP2 SWAP1 SSTORE PUSH1 0xA DUP2 SWAP1 SSTORE PUSH1 0x1B SSTORE PUSH2 0x100C PUSH8 0xDE0B6B3A7640000 SELFBALANCE PUSH2 0x37D4 JUMP JUMPDEST PUSH1 0x2 DUP2 SWAP1 SSTORE PUSH2 0x101E SWAP1 PUSH3 0x927C0 PUSH2 0x3873 JUMP JUMPDEST PUSH2 0x102B SWAP1 PUSH3 0x927C0 PUSH2 0x3813 JUMP JUMPDEST SELFBALANCE PUSH1 0x11 SLOAD PUSH1 0x2 PUSH2 0x103B SWAP2 SWAP1 PUSH2 0x39D3 JUMP JUMPDEST PUSH2 0x1045 SWAP2 SWAP1 PUSH2 0x3873 JUMP JUMPDEST PUSH2 0x104F SWAP2 SWAP1 PUSH2 0x37D4 JUMP JUMPDEST PUSH1 0x16 SSTORE PUSH1 0xE SLOAD PUSH2 0x1061 SWAP1 PUSH2 0x3E8 PUSH2 0x2BE5 JUMP JUMPDEST PUSH1 0xF SSTORE TIMESTAMP PUSH1 0x9 SSTORE PUSH2 0x1070 PUSH2 0x2CD0 JUMP JUMPDEST PUSH2 0x107B PUSH1 0x2 DUP3 PUSH2 0x37D4 JUMP JUMPDEST PUSH1 0x1 PUSH1 0x1 PUSH1 0xA0 SHL SUB DUP6 AND PUSH1 0x0 DUP2 DUP2 MSTORE PUSH1 0x18 PUSH1 0x20 MSTORE PUSH1 0x40 DUP2 KECCAK256 SWAP3 SWAP1 SWAP3 SSTORE SWAP1 PUSH32 0xDDF252AD1BE2C89B69C2B068FC378DAA952BA7F163C4A11628F55A4DF523B3EF PUSH2 0x10C4 PUSH1 0x2 DUP6 PUSH2 0x37D4 JUMP JUMPDEST PUSH1 0x40 MLOAD SWAP1 DUP2 MSTORE PUSH1 0x20 ADD PUSH1 0x40 MLOAD DUP1 SWAP2 SUB SWAP1 LOG3 PUSH1 0x3 DUP1 SLOAD PUSH1 0x1 PUSH1 0x1 PUSH1 0xA0 SHL SUB NOT SWAP1 DUP2 AND PUSH1 0x1 PUSH1 0x1 PUSH1 0xA0 SHL SUB DUP8 DUP2 AND SWAP2 DUP3 OR SWAP1 SWAP4 SSTORE PUSH1 0x4 DUP1 SLOAD DUP4 AND SWAP1 SWAP2 OR SWAP1 SSTORE PUSH1 0x5 DUP1 SLOAD DUP3 AND DUP7 DUP5 AND OR SWAP1 SSTORE PUSH1 0x6 DUP1 SLOAD SWAP1 SWAP2 AND SWAP2 DUP5 AND SWAP2 SWAP1 SWAP2 OR SWAP1 SSTORE PUSH1 0x0 PUSH1 0x1A DUP2 SWAP1 SSTORE PUSH1 0xA SLOAD PUSH1 0x14 SSTORE PUSH2 0x1133 SWAP1 PUSH2 0x2EA4 JUMP JUMPDEST POP POP POP POP JUMP JUMPDEST PUSH1 0x0 PUSH2 0x1143 PUSH2 0x1205 JUMP JUMPDEST ISZERO PUSH2 0x1160 JUMPI PUSH1 0x40 MLOAD PUSH3 0x461BCD PUSH1 0xE5 SHL DUP2 MSTORE PUSH1 0x4 ADD PUSH2 0xE61 SWAP1 PUSH2 0x3892 JUMP JUMPDEST PUSH2 0x116B DUP4 DUP4 CALLER PUSH2 0x23D4 JUMP JUMPDEST POP PUSH1 0x40 MLOAD PUSH4 0x79212195 PUSH1 0xE1 SHL DUP2 MSTORE ADDRESS PUSH1 0x4 DUP3 ADD MSTORE CALLER PUSH1 0x24 DUP3 ADD MSTORE PUSH1 0x44 DUP2 ADD DUP6 SWAP1 MSTORE PUSH1 0x1 PUSH1 0x64 DUP3 ADD MSTORE PUSH1 0xA0 PUSH1 0x84 DUP3 ADD MSTORE PUSH1 0x0 PUSH1 0xA4 DUP3 ADD MSTORE PUSH1 0x1 PUSH1 0x1 PUSH1 0xA0 SHL SUB DUP7 AND SWAP1 PUSH4 0xF242432A SWAP1 PUSH1 0xC4 ADD PUSH2 0xEB9 JUMP JUMPDEST PUSH1 0x0 DUP1 DUP4 CALLER DUP8 PUSH1 0x40 MLOAD PUSH1 0x20 ADD PUSH2 0x11D2 SWAP4 SWAP3 SWAP2 SWAP1 PUSH2 0x39F5 JUMP JUMPDEST PUSH1 0x40 MLOAD PUSH1 0x20 DUP2 DUP4 SUB SUB DUP2 MSTORE SWAP1 PUSH1 0x40 MSTORE DUP1 MLOAD SWAP1 PUSH1 0x20 ADD KECCAK256 SWAP1 POP DUP3 DUP2 PUSH1 0x0 SHR GT ISZERO PUSH2 0x11FA JUMPI PUSH1 0x0 DUP1 REVERT JUMPDEST SWAP1 SWAP4 EQ SWAP5 SWAP4 POP POP POP POP JUMP JUMPDEST PUSH1 0x0 PUSH1 0x8 PUSH1 0xC SLOAD PUSH2 0x1216 SWAP2 SWAP1 PUSH2 0x37D4 JUMP JUMPDEST PUSH1 0x1A SLOAD PUSH2 0xBB3 SWAP2 SWAP1 PUSH2 0x37E8 JUMP JUMPDEST PUSH1 0x0 DUP1 PUSH1 0x10 SLOAD CALLER DUP7 PUSH1 0x40 MLOAD PUSH1 0x20 ADD PUSH2 0x123D SWAP4 SWAP3 SWAP2 SWAP1 PUSH2 0x39F5 JUMP JUMPDEST PUSH1 0x40 MLOAD PUSH1 0x20 DUP2 DUP4 SUB SUB DUP2 MSTORE SWAP1 PUSH1 0x40 MSTORE DUP1 MLOAD SWAP1 PUSH1 0x20 ADD KECCAK256 SWAP1 POP DUP4 DUP2 EQ PUSH2 0x1274 JUMPI PUSH1 0x40 MLOAD PUSH3 0x461BCD PUSH1 0xE5 SHL DUP2 MSTORE PUSH1 0x4 ADD PUSH2 0xE61 SWAP1 PUSH2 0x3A1D JUMP JUMPDEST PUSH1 0xF SLOAD DUP2 LT PUSH2 0x1295 JUMPI PUSH1 0x40 MLOAD PUSH3 0x461BCD PUSH1 0xE5 SHL DUP2 MSTORE PUSH1 0x4 ADD PUSH2 0xE61 SWAP1 PUSH2 0x3A6B JUMP JUMPDEST PUSH2 0x129D PUSH2 0x2CD0 JUMP JUMPDEST PUSH1 0x15 SLOAD TIMESTAMP GT PUSH2 0x12BE JUMPI PUSH1 0x40 MLOAD PUSH3 0x461BCD PUSH1 0xE5 SHL DUP2 MSTORE PUSH1 0x4 ADD PUSH2 0xE61 SWAP1 PUSH2 0x3AB3 JUMP JUMPDEST PUSH1 0xF SLOAD DUP2 LT PUSH2 0x12DF JUMPI PUSH1 0x40 MLOAD PUSH3 0x461BCD PUSH1 0xE5 SHL DUP2 MSTORE PUSH1 0x4 ADD PUSH2 0xE61 SWAP1 PUSH2 0x3A6B JUMP JUMPDEST PUSH1 0x0 PUSH1 0x1 SLOAD PUSH1 0x15 SLOAD TIMESTAMP PUSH2 0x12F2 SWAP2 SWAP1 PUSH2 0x37FC JUMP JUMPDEST PUSH2 0x12FE SWAP1 PUSH2 0x378 PUSH2 0x3873 JUMP JUMPDEST PUSH2 0x1308 SWAP2 SWAP1 PUSH2 0x37D4 JUMP JUMPDEST SWAP1 POP PUSH1 0x0 PUSH2 0x378 PUSH2 0x131A DUP4 PUSH1 0x64 PUSH2 0x3873 JUMP JUMPDEST PUSH2 0x1324 SWAP2 SWAP1 PUSH2 0x37D4 JUMP JUMPDEST SWAP1 POP PUSH1 0x0 PUSH1 0x64 DUP3 GT ISZERO PUSH2 0x1343 JUMPI PUSH1 0x1A SLOAD PUSH2 0x133F SWAP1 PUSH1 0x1 PUSH2 0x2C82 JUMP JUMPDEST PUSH1 0x1A SSTORE JUMPDEST PUSH2 0xBB8 DUP3 LT ISZERO PUSH2 0x139B JUMPI PUSH2 0x1360 PUSH2 0x378 PUSH2 0xF4E DUP6 PUSH3 0x97BB70 PUSH2 0x3873 JUMP JUMPDEST PUSH2 0x138A PUSH3 0xC0840 PUSH2 0x1372 PUSH1 0x2 DUP8 PUSH2 0x3AE2 JUMP JUMPDEST PUSH2 0x137D SWAP1 PUSH1 0xF PUSH2 0x3873 JUMP JUMPDEST PUSH2 0xF4E SWAP1 PUSH3 0x7C2BE PUSH2 0x3873 JUMP JUMPDEST PUSH2 0x1394 SWAP2 SWAP1 PUSH2 0x3813 JUMP JUMPDEST SWAP1 POP PUSH2 0x13CA JUMP JUMPDEST PUSH2 0x13B9 PUSH2 0x378 PUSH2 0x13AC DUP6 PUSH1 0x18 PUSH2 0x3873 JUMP JUMPDEST PUSH2 0xF4E SWAP1 PUSH3 0x4D9B6C PUSH2 0x3873 JUMP JUMPDEST PUSH2 0x13C7 SWAP1 PUSH4 0xCE09D1B0 PUSH2 0x3813 JUMP JUMPDEST SWAP1 POP JUMPDEST PUSH2 0x1402 PUSH2 0x13E3 PUSH4 0x5F5E100 DUP4 PUSH1 0x13 SLOAD PUSH2 0xF4E SWAP2 SWAP1 PUSH2 0x3873 JUMP JUMPDEST PUSH1 0x1 PUSH1 0x1 PUSH1 0xA0 SHL SUB DUP9 AND PUSH1 0x0 SWAP1 DUP2 MSTORE PUSH1 0x18 PUSH1 0x20 MSTORE PUSH1 0x40 SWAP1 KECCAK256 SLOAD SWAP1 PUSH2 0x2C82 JUMP JUMPDEST PUSH1 0x1 PUSH1 0x1 PUSH1 0xA0 SHL SUB DUP8 AND PUSH1 0x0 SWAP1 DUP2 MSTORE PUSH1 0x18 PUSH1 0x20 MSTORE PUSH1 0x40 SWAP1 KECCAK256 SSTORE PUSH1 0x13 SLOAD PUSH2 0x1458 SWAP1 PUSH2 0x1437 SWAP1 PUSH4 0x5F5E100 SWAP1 PUSH2 0xF4E SWAP1 DUP6 SWAP1 PUSH2 0x3873 JUMP JUMPDEST PUSH1 0x5 SLOAD PUSH1 0x1 PUSH1 0x1 PUSH1 0xA0 SHL SUB AND PUSH1 0x0 SWAP1 DUP2 MSTORE PUSH1 0x18 PUSH1 0x20 MSTORE PUSH1 0x40 SWAP1 KECCAK256 SLOAD SWAP1 PUSH2 0x2C82 JUMP JUMPDEST PUSH1 0x5 SLOAD PUSH1 0x1 PUSH1 0x1 PUSH1 0xA0 SHL SUB AND PUSH1 0x0 SWAP1 DUP2 MSTORE PUSH1 0x18 PUSH1 0x20 MSTORE PUSH1 0x40 SWAP1 KECCAK256 SSTORE PUSH1 0x13 SLOAD PUSH2 0x14B0 SWAP1 PUSH2 0x148F SWAP1 PUSH4 0x5F5E100 SWAP1 PUSH2 0xF4E SWAP1 DUP6 SWAP1 PUSH2 0x3873 JUMP JUMPDEST PUSH1 0x6 SLOAD PUSH1 0x1 PUSH1 0x1 PUSH1 0xA0 SHL SUB AND PUSH1 0x0 SWAP1 DUP2 MSTORE PUSH1 0x18 PUSH1 0x20 MSTORE PUSH1 0x40 SWAP1 KECCAK256 SLOAD SWAP1 PUSH2 0x2C82 JUMP JUMPDEST PUSH1 0x6 SLOAD PUSH1 0x1 PUSH1 0x1 PUSH1 0xA0 SHL SUB AND PUSH1 0x0 SWAP1 DUP2 MSTORE PUSH1 0x18 PUSH1 0x20 MSTORE PUSH1 0x40 SWAP1 KECCAK256 SSTORE PUSH1 0x13 SLOAD PUSH2 0x14F0 SWAP1 PUSH2 0x14E7 SWAP1 PUSH4 0x5F5E100 SWAP1 PUSH2 0xF4E SWAP1 DUP6 SWAP1 PUSH2 0x3873 JUMP JUMPDEST PUSH1 0x17 SLOAD SWAP1 PUSH2 0x2C82 JUMP JUMPDEST PUSH1 0x17 SSTORE TIMESTAMP PUSH1 0x15 SSTORE PUSH1 0x13 SLOAD CALLER SWAP1 PUSH32 0xCF6FBB9DCEA7D07263AB4F5C3A92F53AF33DFFC421D9D121E1C74B307E68189D SWAP1 PUSH2 0x1533 SWAP1 PUSH4 0x5F5E100 SWAP1 PUSH2 0xF4E SWAP1 DUP7 SWAP1 PUSH2 0x3873 JUMP JUMPDEST PUSH1 0xA SLOAD PUSH1 0x10 SLOAD PUSH1 0x40 DUP1 MLOAD SWAP4 DUP5 MSTORE PUSH1 0x20 DUP5 ADD SWAP3 SWAP1 SWAP3 MSTORE SWAP1 DUP3 ADD MSTORE PUSH1 0x60 ADD PUSH1 0x40 MLOAD DUP1 SWAP2 SUB SWAP1 LOG2 SWAP8 SWAP7 POP POP POP POP POP POP POP JUMP JUMPDEST PUSH1 0x0 DUP1 PUSH1 0x10 SLOAD CALLER DUP7 PUSH1 0x40 MLOAD PUSH1 0x20 ADD PUSH2 0x157C SWAP4 SWAP3 SWAP2 SWAP1 PUSH2 0x39F5 JUMP JUMPDEST PUSH1 0x40 DUP1 MLOAD DUP1 DUP4 SUB PUSH1 0x1F NOT ADD DUP2 MSTORE SWAP2 SWAP1 MSTORE DUP1 MLOAD PUSH1 0x20 SWAP1 SWAP2 ADD KECCAK256 SWAP6 SWAP5 POP POP POP POP POP JUMP JUMPDEST CALLER PUSH1 0x0 SWAP1 DUP2 MSTORE PUSH1 0x18 PUSH1 0x20 MSTORE PUSH1 0x40 DUP2 KECCAK256 SLOAD PUSH2 0x15B7 SWAP1 DUP4 PUSH2 0x2C36 JUMP JUMPDEST CALLER PUSH1 0x0 SWAP1 DUP2 MSTORE PUSH1 0x18 PUSH1 0x20 MSTORE PUSH1 0x40 DUP1 DUP3 KECCAK256 SWAP3 SWAP1 SWAP3 SSTORE PUSH1 0x1 PUSH1 0x1 PUSH1 0xA0 SHL SUB DUP6 AND DUP2 MSTORE KECCAK256 SLOAD PUSH2 0x15E3 SWAP1 DUP4 PUSH2 0x2C82 JUMP JUMPDEST PUSH1 0x1 PUSH1 0x1 PUSH1 0xA0 SHL SUB DUP5 AND PUSH1 0x0 DUP2 DUP2 MSTORE PUSH1 0x18 PUSH1 0x20 MSTORE PUSH1 0x40 SWAP1 DUP2 SWAP1 KECCAK256 SWAP3 SWAP1 SWAP3 SSTORE SWAP1 MLOAD CALLER SWAP1 PUSH32 0xDDF252AD1BE2C89B69C2B068FC378DAA952BA7F163C4A11628F55A4DF523B3EF SWAP1 PUSH2 0xB6A SWAP1 DUP7 DUP2 MSTORE PUSH1 0x20 ADD SWAP1 JUMP JUMPDEST PUSH1 0x0 PUSH2 0x163E PUSH2 0x2CD0 JUMP JUMPDEST PUSH1 0x15 SLOAD TIMESTAMP GT PUSH2 0x165F JUMPI PUSH1 0x40 MLOAD PUSH3 0x461BCD PUSH1 0xE5 SHL DUP2 MSTORE PUSH1 0x4 ADD PUSH2 0xE61 SWAP1 PUSH2 0x3AB3 JUMP JUMPDEST PUSH1 0x0 PUSH1 0x1 SLOAD PUSH1 0x15 SLOAD TIMESTAMP PUSH2 0x1672 SWAP2 SWAP1 PUSH2 0x37FC JUMP JUMPDEST PUSH2 0x167E SWAP1 PUSH2 0x378 PUSH2 0x3873 JUMP JUMPDEST PUSH2 0x1688 SWAP2 SWAP1 PUSH2 0x37D4 JUMP JUMPDEST SWAP1 POP PUSH1 0x0 PUSH2 0x378 PUSH2 0x169A DUP4 PUSH1 0x64 PUSH2 0x3873 JUMP JUMPDEST PUSH2 0x16A4 SWAP2 SWAP1 PUSH2 0x37D4 JUMP JUMPDEST SWAP1 POP PUSH1 0x0 PUSH1 0x64 DUP3 GT ISZERO PUSH2 0x16C3 JUMPI PUSH1 0x1A SLOAD PUSH2 0x16BF SWAP1 PUSH1 0x1 PUSH2 0x2C82 JUMP JUMPDEST PUSH1 0x1A SSTORE JUMPDEST PUSH2 0xBB8 DUP3 LT ISZERO PUSH2 0x1703 JUMPI PUSH2 0x16E0 PUSH2 0x378 PUSH2 0xF4E DUP6 PUSH3 0x97BB70 PUSH2 0x3873 JUMP JUMPDEST PUSH2 0x16F2 PUSH3 0xC0840 PUSH2 0x1372 PUSH1 0x2 DUP8 PUSH2 0x3AE2 JUMP JUMPDEST PUSH2 0x16FC SWAP2 SWAP1 PUSH2 0x3813 JUMP JUMPDEST SWAP1 POP PUSH2 0x1725 JUMP JUMPDEST PUSH2 0x1714 PUSH2 0x378 PUSH2 0x13AC DUP6 PUSH1 0x18 PUSH2 0x3873 JUMP JUMPDEST PUSH2 0x1722 SWAP1 PUSH4 0xCE09D1B0 PUSH2 0x3813 JUMP JUMPDEST SWAP1 POP JUMPDEST PUSH2 0x175D PUSH2 0x173E PUSH4 0x5F5E100 DUP4 PUSH1 0x13 SLOAD PUSH2 0xF4E SWAP2 SWAP1 PUSH2 0x3873 JUMP JUMPDEST PUSH1 0x1 PUSH1 0x1 PUSH1 0xA0 SHL SUB DUP8 AND PUSH1 0x0 SWAP1 DUP2 MSTORE PUSH1 0x18 PUSH1 0x20 MSTORE PUSH1 0x40 SWAP1 KECCAK256 SLOAD SWAP1 PUSH2 0x2C82 JUMP JUMPDEST PUSH1 0x1 PUSH1 0x1 PUSH1 0xA0 SHL SUB DUP7 AND PUSH1 0x0 SWAP1 DUP2 MSTORE PUSH1 0x18 PUSH1 0x20 MSTORE PUSH1 0x40 SWAP1 KECCAK256 SSTORE PUSH1 0x13 SLOAD PUSH2 0x1792 SWAP1 PUSH2 0x1437 SWAP1 PUSH4 0x5F5E100 SWAP1 PUSH2 0xF4E SWAP1 DUP6 SWAP1 PUSH2 0x3873 JUMP JUMPDEST PUSH1 0x5 SLOAD PUSH1 0x1 PUSH1 0x1 PUSH1 0xA0 SHL SUB AND PUSH1 0x0 SWAP1 DUP2 MSTORE PUSH1 0x18 PUSH1 0x20 MSTORE PUSH1 0x40 SWAP1 KECCAK256 SSTORE PUSH1 0x13 SLOAD PUSH2 0x17C9 SWAP1 PUSH2 0x148F SWAP1 PUSH4 0x5F5E100 SWAP1 PUSH2 0xF4E SWAP1 DUP6 SWAP1 PUSH2 0x3873 JUMP JUMPDEST PUSH1 0x6 SLOAD PUSH1 0x1 PUSH1 0x1 PUSH1 0xA0 SHL SUB AND PUSH1 0x0 SWAP1 DUP2 MSTORE PUSH1 0x18 PUSH1 0x20 MSTORE PUSH1 0x40 SWAP1 KECCAK256 SSTORE PUSH1 0x13 SLOAD PUSH2 0x1800 SWAP1 PUSH2 0x14E7 SWAP1 PUSH4 0x5F5E100 SWAP1 PUSH2 0xF4E SWAP1 DUP6 SWAP1 PUSH2 0x3873 JUMP JUMPDEST PUSH1 0x17 SSTORE TIMESTAMP PUSH1 0x15 SSTORE PUSH1 0x1C SLOAD ISZERO PUSH2 0x18D2 JUMPI PUSH2 0x7D0 DUP3 LT ISZERO PUSH2 0x187D JUMPI PUSH1 0x0 DUP6 SWAP1 POP DUP1 PUSH1 0x1 PUSH1 0x1 PUSH1 0xA0 SHL SUB AND PUSH2 0x8FC PUSH2 0x184E PUSH4 0x5F5E100 PUSH1 0x1C SLOAD PUSH1 0x16 SLOAD DUP8 PUSH2 0x1844 SWAP2 SWAP1 PUSH2 0x3873 JUMP JUMPDEST PUSH2 0xF4E SWAP2 SWAP1 PUSH2 0x3873 JUMP JUMPDEST PUSH1 0x40 MLOAD DUP2 ISZERO SWAP1 SWAP3 MUL SWAP2 PUSH1 0x0 DUP2 DUP2 DUP2 DUP6 DUP9 DUP9 CALL SWAP4 POP POP POP POP ISZERO DUP1 ISZERO PUSH2 0x1876 JUMPI RETURNDATASIZE PUSH1 0x0 DUP1 RETURNDATACOPY RETURNDATASIZE PUSH1 0x0 REVERT JUMPDEST POP POP PUSH2 0x18D2 JUMP JUMPDEST PUSH1 0x0 DUP6 SWAP1 POP DUP1 PUSH1 0x1 PUSH1 0x1 PUSH1 0xA0 SHL SUB AND PUSH2 0x8FC PUSH2 0x18A7 PUSH1 0xA PUSH1 0x1C SLOAD PUSH1 0x16 SLOAD PUSH2 0x258 PUSH2 0x1844 SWAP2 SWAP1 PUSH2 0x3873 JUMP JUMPDEST PUSH1 0x40 MLOAD DUP2 ISZERO SWAP1 SWAP3 MUL SWAP2 PUSH1 0x0 DUP2 DUP2 DUP2 DUP6 DUP9 DUP9 CALL SWAP4 POP POP POP POP ISZERO DUP1 ISZERO PUSH2 0x18CF JUMPI RETURNDATASIZE PUSH1 0x0 DUP1 RETURNDATACOPY RETURNDATASIZE PUSH1 0x0 REVERT JUMPDEST POP POP JUMPDEST CALLER PUSH1 0x1 PUSH1 0x1 PUSH1 0xA0 SHL SUB AND PUSH32 0xCF6FBB9DCEA7D07263AB4F5C3A92F53AF33DFFC421D9D121E1C74B307E68189D PUSH2 0x1913 PUSH4 0x5F5E100 DUP5 PUSH1 0x13 SLOAD PUSH2 0xF4E SWAP2 SWAP1 PUSH2 0x3873 JUMP JUMPDEST PUSH1 0xA SLOAD PUSH1 0x10 SLOAD PUSH1 0x40 DUP1 MLOAD SWAP4 DUP5 MSTORE PUSH1 0x20 DUP5 ADD SWAP3 SWAP1 SWAP3 MSTORE SWAP1 DUP3 ADD MSTORE PUSH1 0x60 ADD PUSH1 0x40 MLOAD DUP1 SWAP2 SUB SWAP1 LOG2 SWAP7 SWAP6 POP POP POP POP POP POP JUMP JUMPDEST PUSH1 0x0 DUP1 PUSH2 0x1969 DUP7 DUP7 DUP6 PUSH1 0x0 DUP2 MLOAD DUP2 LT PUSH2 0x195C JUMPI PUSH2 0x195C PUSH2 0x382B JUMP JUMPDEST PUSH1 0x20 MUL PUSH1 0x20 ADD ADD MLOAD PUSH2 0x1634 JUMP JUMPDEST SWAP1 POP PUSH1 0x0 DUP2 GT PUSH2 0x19A8 JUMPI PUSH1 0x40 MLOAD PUSH3 0x461BCD PUSH1 0xE5 SHL DUP2 MSTORE PUSH1 0x20 PUSH1 0x4 DUP3 ADD MSTORE PUSH1 0xA PUSH1 0x24 DUP3 ADD MSTORE PUSH10 0x6D696E74206973737565 PUSH1 0xB0 SHL PUSH1 0x44 DUP3 ADD MSTORE PUSH1 0x64 ADD PUSH2 0xE61 JUMP JUMPDEST DUP4 MLOAD PUSH2 0x19B5 SWAP1 PUSH1 0x1 PUSH2 0x3813 JUMP JUMPDEST DUP4 MLOAD EQ PUSH2 0x19D4 JUMPI PUSH1 0x40 MLOAD PUSH3 0x461BCD PUSH1 0xE5 SHL DUP2 MSTORE PUSH1 0x4 ADD PUSH2 0xE61 SWAP1 PUSH2 0x3AF1 JUMP JUMPDEST PUSH1 0x0 JUMPDEST DUP5 MLOAD DUP2 LT ISZERO PUSH2 0x1AAB JUMPI PUSH2 0x19EB DUP2 PUSH1 0x1 PUSH2 0x3813 JUMP JUMPDEST PUSH2 0x19F6 SWAP1 PUSH1 0x2 PUSH2 0x39D3 JUMP JUMPDEST PUSH1 0xA SLOAD PUSH2 0x1A03 SWAP2 SWAP1 PUSH2 0x37E8 JUMP JUMPDEST PUSH1 0x0 SUB PUSH2 0x1AAB JUMPI PUSH1 0x0 PUSH2 0x1A17 DUP3 PUSH1 0x1 PUSH2 0x3813 JUMP JUMPDEST SWAP1 POP JUMPDEST DUP6 MLOAD DUP2 LT ISZERO PUSH2 0x1A98 JUMPI DUP6 DUP3 DUP2 MLOAD DUP2 LT PUSH2 0x1A35 JUMPI PUSH2 0x1A35 PUSH2 0x382B JUMP JUMPDEST PUSH1 0x20 MUL PUSH1 0x20 ADD ADD MLOAD PUSH1 0x1 PUSH1 0x1 PUSH1 0xA0 SHL SUB AND DUP7 DUP3 DUP2 MLOAD DUP2 LT PUSH2 0x1A58 JUMPI PUSH2 0x1A58 PUSH2 0x382B JUMP JUMPDEST PUSH1 0x20 MUL PUSH1 0x20 ADD ADD MLOAD PUSH1 0x1 PUSH1 0x1 PUSH1 0xA0 SHL SUB AND SUB PUSH2 0x1A86 JUMPI PUSH1 0x40 MLOAD PUSH3 0x461BCD PUSH1 0xE5 SHL DUP2 MSTORE PUSH1 0x4 ADD PUSH2 0xE61 SWAP1 PUSH2 0x3B4E JUMP JUMPDEST DUP1 PUSH2 0x1A90 DUP2 PUSH2 0x3841 JUMP JUMPDEST SWAP2 POP POP PUSH2 0x1A1A JUMP JUMPDEST POP DUP1 PUSH2 0x1AA3 DUP2 PUSH2 0x3841 JUMP JUMPDEST SWAP2 POP POP PUSH2 0x19D7 JUMP JUMPDEST PUSH1 0x0 DUP1 PUSH1 0x0 JUMPDEST DUP4 DUP2 LT ISZERO PUSH2 0x1CE5 JUMPI PUSH2 0x1AC4 DUP2 PUSH1 0x1 PUSH2 0x3813 JUMP JUMPDEST PUSH2 0x1ACF SWAP1 PUSH1 0x2 PUSH2 0x39D3 JUMP JUMPDEST PUSH1 0xA SLOAD PUSH2 0x1ADC SWAP2 SWAP1 PUSH2 0x37E8 JUMP JUMPDEST PUSH1 0x0 SUB PUSH2 0x1CD3 JUMPI DUP8 DUP2 DUP2 MLOAD DUP2 LT PUSH2 0x1AF5 JUMPI PUSH2 0x1AF5 PUSH2 0x382B JUMP JUMPDEST PUSH1 0x20 SWAP1 DUP2 MUL SWAP2 SWAP1 SWAP2 ADD ADD MLOAD PUSH1 0x40 MLOAD PUSH4 0x70A08231 PUSH1 0xE0 SHL DUP2 MSTORE ADDRESS PUSH1 0x4 DUP3 ADD MSTORE PUSH1 0x1 PUSH1 0x1 PUSH1 0xA0 SHL SUB SWAP1 SWAP2 AND SWAP1 PUSH4 0x70A08231 SWAP1 PUSH1 0x24 ADD PUSH1 0x20 PUSH1 0x40 MLOAD DUP1 DUP4 SUB DUP2 DUP7 GAS STATICCALL ISZERO DUP1 ISZERO PUSH2 0x1B45 JUMPI RETURNDATASIZE PUSH1 0x0 DUP1 RETURNDATACOPY RETURNDATASIZE PUSH1 0x0 REVERT JUMPDEST POP POP POP POP PUSH1 0x40 MLOAD RETURNDATASIZE PUSH1 0x1F NOT PUSH1 0x1F DUP3 ADD AND DUP3 ADD DUP1 PUSH1 0x40 MSTORE POP DUP2 ADD SWAP1 PUSH2 0x1B69 SWAP2 SWAP1 PUSH2 0x385A JUMP JUMPDEST SWAP2 POP DUP2 ISZERO PUSH2 0x1C0E JUMPI PUSH2 0x1B7C PUSH1 0x3 DUP3 PUSH2 0x37E8 JUMP JUMPDEST ISZERO DUP1 ISZERO PUSH2 0x1B88 JUMPI POP DUP1 ISZERO ISZERO JUMPDEST DUP1 ISZERO PUSH2 0x1B97 JUMPI POP PUSH4 0x10C8E00 DUP6 GT JUMPDEST DUP1 ISZERO PUSH2 0x1BA5 JUMPI POP PUSH1 0x1D SLOAD PUSH1 0x2 EQ JUMPDEST ISZERO PUSH2 0x1BE6 JUMPI PUSH2 0x1BDF PUSH6 0x1D1A94A2000 DUP7 DUP5 PUSH1 0x11 SLOAD PUSH1 0x2 PUSH2 0x1BC5 SWAP2 SWAP1 PUSH2 0x39D3 JUMP JUMPDEST PUSH2 0x1BCF SWAP2 SWAP1 PUSH2 0x3873 JUMP JUMPDEST PUSH2 0x1BD9 SWAP2 SWAP1 PUSH2 0x3873 JUMP JUMPDEST SWAP1 PUSH2 0x2F54 JUMP JUMPDEST SWAP3 POP PUSH2 0x1C0E JUMP JUMPDEST PUSH2 0x1C0B PUSH6 0x1D1A94A2000 DUP7 DUP5 PUSH1 0x11 SLOAD PUSH1 0x2 PUSH2 0x1C01 SWAP2 SWAP1 PUSH2 0x39D3 JUMP JUMPDEST PUSH2 0x1844 SWAP2 SWAP1 PUSH2 0x3873 JUMP JUMPDEST SWAP3 POP JUMPDEST DUP8 DUP2 DUP2 MLOAD DUP2 LT PUSH2 0x1C20 JUMPI PUSH2 0x1C20 PUSH2 0x382B JUMP JUMPDEST PUSH1 0x20 MUL PUSH1 0x20 ADD ADD MLOAD PUSH1 0x1 PUSH1 0x1 PUSH1 0xA0 SHL SUB AND PUSH4 0xA9059CBB DUP9 DUP4 PUSH1 0x1 PUSH2 0x1C44 SWAP2 SWAP1 PUSH2 0x3813 JUMP JUMPDEST DUP2 MLOAD DUP2 LT PUSH2 0x1C54 JUMPI PUSH2 0x1C54 PUSH2 0x382B JUMP JUMPDEST PUSH1 0x20 MUL PUSH1 0x20 ADD ADD MLOAD DUP6 PUSH1 0x40 MLOAD DUP4 PUSH4 0xFFFFFFFF AND PUSH1 0xE0 SHL DUP2 MSTORE PUSH1 0x4 ADD PUSH2 0x1C8E SWAP3 SWAP2 SWAP1 PUSH1 0x1 PUSH1 0x1 PUSH1 0xA0 SHL SUB SWAP3 SWAP1 SWAP3 AND DUP3 MSTORE PUSH1 0x20 DUP3 ADD MSTORE PUSH1 0x40 ADD SWAP1 JUMP JUMPDEST PUSH1 0x20 PUSH1 0x40 MLOAD DUP1 DUP4 SUB DUP2 PUSH1 0x0 DUP8 GAS CALL ISZERO DUP1 ISZERO PUSH2 0x1CAD JUMPI RETURNDATASIZE PUSH1 0x0 DUP1 RETURNDATACOPY RETURNDATASIZE PUSH1 0x0 REVERT JUMPDEST POP POP POP POP PUSH1 0x40 MLOAD RETURNDATASIZE PUSH1 0x1F NOT PUSH1 0x1F DUP3 ADD AND DUP3 ADD DUP1 PUSH1 0x40 MSTORE POP DUP2 ADD SWAP1 PUSH2 0x1CD1 SWAP2 SWAP1 PUSH2 0x3B85 JUMP JUMPDEST POP JUMPDEST DUP1 PUSH2 0x1CDD DUP2 PUSH2 0x3841 JUMP JUMPDEST SWAP2 POP POP PUSH2 0x1AB1 JUMP JUMPDEST POP PUSH1 0xA SLOAD PUSH1 0x10 SLOAD PUSH1 0x40 DUP1 MLOAD SWAP3 DUP4 MSTORE PUSH1 0x20 DUP4 ADD SWAP2 SWAP1 SWAP2 MSTORE DUP2 ADD DUP5 SWAP1 MSTORE PUSH1 0x60 DUP2 ADD DUP6 SWAP1 MSTORE CALLER SWAP1 PUSH32 0x87E5A7775B8AC2EAD741E32752431BFFEFF76EC5F347CC202A6BAD454653930B SWAP1 PUSH1 0x80 ADD PUSH1 0x40 MLOAD DUP1 SWAP2 SUB SWAP1 LOG2 POP SWAP2 SWAP8 SWAP7 POP POP POP POP POP POP POP JUMP JUMPDEST PUSH1 0x0 DUP1 PUSH2 0x1D6B DUP7 DUP7 DUP6 PUSH1 0x0 DUP2 MLOAD DUP2 LT PUSH2 0x1D5E JUMPI PUSH2 0x1D5E PUSH2 0x382B JUMP JUMPDEST PUSH1 0x20 MUL PUSH1 0x20 ADD ADD MLOAD PUSH2 0x23D4 JUMP JUMPDEST SWAP1 POP PUSH1 0x0 DUP2 GT PUSH2 0x1DAA JUMPI PUSH1 0x40 MLOAD PUSH3 0x461BCD PUSH1 0xE5 SHL DUP2 MSTORE PUSH1 0x20 PUSH1 0x4 DUP3 ADD MSTORE PUSH1 0xA PUSH1 0x24 DUP3 ADD MSTORE PUSH10 0x6D696E74206973737565 PUSH1 0xB0 SHL PUSH1 0x44 DUP3 ADD MSTORE PUSH1 0x64 ADD PUSH2 0xE61 JUMP JUMPDEST DUP4 MLOAD PUSH2 0x1DB7 SWAP1 PUSH1 0x1 PUSH2 0x3813 JUMP JUMPDEST DUP4 MLOAD EQ PUSH2 0x1DD6 JUMPI PUSH1 0x40 MLOAD PUSH3 0x461BCD PUSH1 0xE5 SHL DUP2 MSTORE PUSH1 0x4 ADD PUSH2 0xE61 SWAP1 PUSH2 0x3AF1 JUMP JUMPDEST PUSH1 0x0 JUMPDEST DUP5 MLOAD DUP2 LT ISZERO PUSH2 0x1EAD JUMPI PUSH2 0x1DED DUP2 PUSH1 0x1 PUSH2 0x3813 JUMP JUMPDEST PUSH2 0x1DF8 SWAP1 PUSH1 0x2 PUSH2 0x39D3 JUMP JUMPDEST PUSH1 0xA SLOAD PUSH2 0x1E05 SWAP2 SWAP1 PUSH2 0x37E8 JUMP JUMPDEST PUSH1 0x0 SUB PUSH2 0x1EAD JUMPI PUSH1 0x0 PUSH2 0x1E19 DUP3 PUSH1 0x1 PUSH2 0x3813 JUMP JUMPDEST SWAP1 POP JUMPDEST DUP6 MLOAD DUP2 LT ISZERO PUSH2 0x1E9A JUMPI DUP6 DUP3 DUP2 MLOAD DUP2 LT PUSH2 0x1E37 JUMPI PUSH2 0x1E37 PUSH2 0x382B JUMP JUMPDEST PUSH1 0x20 MUL PUSH1 0x20 ADD ADD MLOAD PUSH1 0x1 PUSH1 0x1 PUSH1 0xA0 SHL SUB AND DUP7 DUP3 DUP2 MLOAD DUP2 LT PUSH2 0x1E5A JUMPI PUSH2 0x1E5A PUSH2 0x382B JUMP JUMPDEST PUSH1 0x20 MUL PUSH1 0x20 ADD ADD MLOAD PUSH1 0x1 PUSH1 0x1 PUSH1 0xA0 SHL SUB AND SUB PUSH2 0x1E88 JUMPI PUSH1 0x40 MLOAD PUSH3 0x461BCD PUSH1 0xE5 SHL DUP2 MSTORE PUSH1 0x4 ADD PUSH2 0xE61 SWAP1 PUSH2 0x3B4E JUMP JUMPDEST DUP1 PUSH2 0x1E92 DUP2 PUSH2 0x3841 JUMP JUMPDEST SWAP2 POP POP PUSH2 0x1E1C JUMP JUMPDEST POP DUP1 PUSH2 0x1EA5 DUP2 PUSH2 0x3841 JUMP JUMPDEST SWAP2 POP POP PUSH2 0x1DD9 JUMP JUMPDEST PUSH1 0x0 DUP1 PUSH1 0x0 JUMPDEST DUP4 DUP2 LT ISZERO PUSH2 0x1CE5 JUMPI PUSH2 0x1EC6 DUP2 PUSH1 0x1 PUSH2 0x3813 JUMP JUMPDEST PUSH2 0x1ED1 SWAP1 PUSH1 0x2 PUSH2 0x39D3 JUMP JUMPDEST PUSH1 0xA SLOAD PUSH2 0x1EDE SWAP2 SWAP1 PUSH2 0x37E8 JUMP JUMPDEST PUSH1 0x0 SUB PUSH2 0x20B1 JUMPI DUP8 DUP2 DUP2 MLOAD DUP2 LT PUSH2 0x1EF7 JUMPI PUSH2 0x1EF7 PUSH2 0x382B JUMP JUMPDEST PUSH1 0x20 SWAP1 DUP2 MUL SWAP2 SWAP1 SWAP2 ADD ADD MLOAD PUSH1 0x40 MLOAD PUSH4 0x70A08231 PUSH1 0xE0 SHL DUP2 MSTORE ADDRESS PUSH1 0x4 DUP3 ADD MSTORE PUSH1 0x1 PUSH1 0x1 PUSH1 0xA0 SHL SUB SWAP1 SWAP2 AND SWAP1 PUSH4 0x70A08231 SWAP1 PUSH1 0x24 ADD PUSH1 0x20 PUSH1 0x40 MLOAD DUP1 DUP4 SUB DUP2 DUP7 GAS STATICCALL ISZERO DUP1 ISZERO PUSH2 0x1F47 JUMPI RETURNDATASIZE PUSH1 0x0 DUP1 RETURNDATACOPY RETURNDATASIZE PUSH1 0x0 REVERT JUMPDEST POP POP POP POP PUSH1 0x40 MLOAD RETURNDATASIZE PUSH1 0x1F NOT PUSH1 0x1F DUP3 ADD AND DUP3 ADD DUP1 PUSH1 0x40 MSTORE POP DUP2 ADD SWAP1 PUSH2 0x1F6B SWAP2 SWAP1 PUSH2 0x385A JUMP JUMPDEST SWAP2 POP DUP2 ISZERO PUSH2 0x1FEC JUMPI PUSH2 0x1F7E PUSH1 0x3 DUP3 PUSH2 0x37E8 JUMP JUMPDEST ISZERO DUP1 ISZERO PUSH2 0x1F8A JUMPI POP DUP1 ISZERO ISZERO JUMPDEST DUP1 ISZERO PUSH2 0x1F99 JUMPI POP PUSH4 0x10C8E00 DUP6 GT JUMPDEST DUP1 ISZERO PUSH2 0x1FA7 JUMPI POP PUSH1 0x1D SLOAD PUSH1 0x2 EQ JUMPDEST ISZERO PUSH2 0x1FCE JUMPI PUSH2 0x1FC7 PUSH6 0x1D1A94A2000 DUP7 DUP5 PUSH1 0x11 SLOAD PUSH1 0x2 PUSH2 0x1BC5 SWAP2 SWAP1 PUSH2 0x39D3 JUMP JUMPDEST SWAP3 POP PUSH2 0x1FEC JUMP JUMPDEST PUSH2 0x1FE9 PUSH6 0x1D1A94A2000 DUP7 DUP5 PUSH1 0x11 SLOAD PUSH1 0x2 PUSH2 0x1C01 SWAP2 SWAP1 PUSH2 0x39D3 JUMP JUMPDEST SWAP3 POP JUMPDEST DUP8 DUP2 DUP2 MLOAD DUP2 LT PUSH2 0x1FFE JUMPI PUSH2 0x1FFE PUSH2 0x382B JUMP JUMPDEST PUSH1 0x20 MUL PUSH1 0x20 ADD ADD MLOAD PUSH1 0x1 PUSH1 0x1 PUSH1 0xA0 SHL SUB AND PUSH4 0xA9059CBB DUP9 DUP4 PUSH1 0x1 PUSH2 0x2022 SWAP2 SWAP1 PUSH2 0x3813 JUMP JUMPDEST DUP2 MLOAD DUP2 LT PUSH2 0x2032 JUMPI PUSH2 0x2032 PUSH2 0x382B JUMP JUMPDEST PUSH1 0x20 MUL PUSH1 0x20 ADD ADD MLOAD DUP6 PUSH1 0x40 MLOAD DUP4 PUSH4 0xFFFFFFFF AND PUSH1 0xE0 SHL DUP2 MSTORE PUSH1 0x4 ADD PUSH2 0x206C SWAP3 SWAP2 SWAP1 PUSH1 0x1 PUSH1 0x1 PUSH1 0xA0 SHL SUB SWAP3 SWAP1 SWAP3 AND DUP3 MSTORE PUSH1 0x20 DUP3 ADD MSTORE PUSH1 0x40 ADD SWAP1 JUMP JUMPDEST PUSH1 0x20 PUSH1 0x40 MLOAD DUP1 DUP4 SUB DUP2 PUSH1 0x0 DUP8 GAS CALL ISZERO DUP1 ISZERO PUSH2 0x208B JUMPI RETURNDATASIZE PUSH1 0x0 DUP1 RETURNDATACOPY RETURNDATASIZE PUSH1 0x0 REVERT JUMPDEST POP POP POP POP PUSH1 0x40 MLOAD RETURNDATASIZE PUSH1 0x1F NOT PUSH1 0x1F DUP3 ADD AND DUP3 ADD DUP1 PUSH1 0x40 MSTORE POP DUP2 ADD SWAP1 PUSH2 0x20AF SWAP2 SWAP1 PUSH2 0x3B85 JUMP JUMPDEST POP JUMPDEST DUP1 PUSH2 0x20BB DUP2 PUSH2 0x3841 JUMP JUMPDEST SWAP2 POP POP PUSH2 0x1EB3 JUMP JUMPDEST PUSH1 0x0 DUP1 DUP4 MLOAD PUSH1 0x1 PUSH2 0x20D4 SWAP2 SWAP1 PUSH2 0x3813 JUMP JUMPDEST PUSH8 0xFFFFFFFFFFFFFFFF DUP2 GT ISZERO PUSH2 0x20EC JUMPI PUSH2 0x20EC PUSH2 0x3372 JUMP JUMPDEST PUSH1 0x40 MLOAD SWAP1 DUP1 DUP3 MSTORE DUP1 PUSH1 0x20 MUL PUSH1 0x20 ADD DUP3 ADD PUSH1 0x40 MSTORE DUP1 ISZERO PUSH2 0x2115 JUMPI DUP2 PUSH1 0x20 ADD PUSH1 0x20 DUP3 MUL DUP1 CALLDATASIZE DUP4 CALLDATACOPY ADD SWAP1 POP JUMPDEST POP SWAP1 POP PUSH1 0x0 JUMPDEST DUP5 MLOAD PUSH2 0x2128 SWAP1 PUSH1 0x1 PUSH2 0x3813 JUMP JUMPDEST DUP2 LT ISZERO PUSH2 0x216C JUMPI DUP4 DUP3 DUP3 DUP2 MLOAD DUP2 LT PUSH2 0x2142 JUMPI PUSH2 0x2142 PUSH2 0x382B JUMP JUMPDEST PUSH1 0x1 PUSH1 0x1 PUSH1 0xA0 SHL SUB SWAP1 SWAP3 AND PUSH1 0x20 SWAP3 DUP4 MUL SWAP2 SWAP1 SWAP2 ADD SWAP1 SWAP2 ADD MSTORE DUP1 PUSH2 0x2164 DUP2 PUSH2 0x3841 JUMP JUMPDEST SWAP2 POP POP PUSH2 0x211B JUMP JUMPDEST POP PUSH2 0xC9E DUP7 DUP7 DUP7 DUP5 PUSH2 0x1941 JUMP JUMPDEST PUSH2 0x218B PUSH8 0xDE0B6B3A7640000 SELFBALANCE PUSH2 0x37D4 JUMP JUMPDEST PUSH1 0x2 DUP2 SWAP1 SSTORE PUSH2 0x219D SWAP1 PUSH3 0x3D090 PUSH2 0x3873 JUMP JUMPDEST PUSH2 0x21AA SWAP1 PUSH3 0x3D090 PUSH2 0x3813 JUMP JUMPDEST SELFBALANCE PUSH1 0x11 SLOAD PUSH1 0x2 PUSH2 0x21BA SWAP2 SWAP1 PUSH2 0x39D3 JUMP JUMPDEST PUSH2 0x21C4 SWAP2 SWAP1 PUSH2 0x3873 JUMP JUMPDEST PUSH2 0x21CE SWAP2 SWAP1 PUSH2 0x37D4 JUMP JUMPDEST PUSH1 0x16 SSTORE PUSH1 0x1F SLOAD PUSH1 0x0 SWAP1 PUSH2 0x21E1 SWAP1 TIMESTAMP PUSH2 0x37FC JUMP JUMPDEST SWAP1 POP PUSH1 0x0 PUSH1 0x14 SLOAD PUSH1 0xA SLOAD PUSH2 0x21F5 SWAP2 SWAP1 PUSH2 0x37FC JUMP JUMPDEST SWAP1 POP PUSH1 0x0 PUSH2 0x2203 DUP3 DUP5 PUSH2 0x37D4 JUMP JUMPDEST SWAP1 POP PUSH1 0x8 PUSH1 0x11 SLOAD LT ISZERO PUSH2 0x2232 JUMPI PUSH1 0x11 SLOAD PUSH2 0x221E SWAP1 PUSH1 0x2 PUSH2 0x39D3 JUMP JUMPDEST PUSH2 0x222A SWAP1 PUSH2 0x2D0 PUSH2 0x3873 JUMP JUMPDEST PUSH1 0x1 SSTORE PUSH2 0x2248 JUMP JUMPDEST PUSH2 0x2244 PUSH1 0x7 PUSH1 0x11 SLOAD PUSH2 0xF2C SWAP2 SWAP1 PUSH2 0x37FC JUMP JUMPDEST PUSH1 0x13 SSTORE JUMPDEST PUSH1 0x0 PUSH2 0x225E PUSH1 0x1 SLOAD DUP4 PUSH2 0x378 PUSH2 0x1BD9 SWAP2 SWAP1 PUSH2 0x3873 JUMP JUMPDEST SWAP1 POP PUSH1 0x0 PUSH2 0x378 PUSH2 0x2270 DUP4 PUSH1 0x64 PUSH2 0x3873 JUMP JUMPDEST PUSH2 0x227A SWAP2 SWAP1 PUSH2 0x37D4 JUMP JUMPDEST SWAP1 POP PUSH1 0x0 PUSH2 0x7D0 DUP3 LT ISZERO PUSH2 0x22BE JUMPI PUSH2 0x229B PUSH2 0x378 PUSH2 0xF4E DUP6 PUSH3 0x97BB70 PUSH2 0x3873 JUMP JUMPDEST PUSH2 0x22AD PUSH3 0xC0840 PUSH2 0x1372 PUSH1 0x2 DUP8 PUSH2 0x3AE2 JUMP JUMPDEST PUSH2 0x22B7 SWAP2 SWAP1 PUSH2 0x3813 JUMP JUMPDEST SWAP1 POP PUSH2 0x22C6 JUMP JUMPDEST POP PUSH5 0x165A0BC00 JUMPDEST PUSH1 0x4 PUSH1 0xC SLOAD PUSH1 0x16 SLOAD PUSH2 0x22D8 SWAP2 SWAP1 PUSH2 0x3873 JUMP JUMPDEST PUSH2 0x22E3 SWAP1 PUSH1 0xC8 PUSH2 0x3873 JUMP JUMPDEST PUSH2 0x22ED SWAP2 SWAP1 PUSH2 0x37D4 JUMP JUMPDEST SELFBALANCE GT ISZERO PUSH2 0x23BC JUMPI PUSH1 0x5 SLOAD PUSH1 0x6 SLOAD PUSH1 0x1C SLOAD PUSH1 0x16 SLOAD PUSH1 0x1 PUSH1 0x1 PUSH1 0xA0 SHL SUB SWAP4 DUP5 AND SWAP4 SWAP1 SWAP3 AND SWAP2 DUP4 SWAP2 PUSH2 0x8FC SWAP2 PUSH2 0x232A SWAP2 PUSH4 0x5F5E100 SWAP2 PUSH2 0x1C01 DUP10 DUP15 PUSH2 0x3873 JUMP JUMPDEST PUSH1 0x40 MLOAD DUP2 ISZERO SWAP1 SWAP3 MUL SWAP2 PUSH1 0x0 DUP2 DUP2 DUP2 DUP6 DUP9 DUP9 CALL SWAP4 POP POP POP POP ISZERO DUP1 ISZERO PUSH2 0x2352 JUMPI RETURNDATASIZE PUSH1 0x0 DUP1 RETURNDATACOPY RETURNDATASIZE PUSH1 0x0 REVERT JUMPDEST POP DUP1 PUSH1 0x1 PUSH1 0x1 PUSH1 0xA0 SHL SUB AND PUSH2 0x8FC PUSH2 0x237A PUSH4 0x5F5E100 PUSH1 0x1C SLOAD PUSH1 0x16 SLOAD DUP9 DUP14 PUSH2 0x1C01 SWAP2 SWAP1 PUSH2 0x3873 JUMP JUMPDEST PUSH1 0x40 MLOAD DUP2 ISZERO SWAP1 SWAP3 MUL SWAP2 PUSH1 0x0 DUP2 DUP2 DUP2 DUP6 DUP9 DUP9 CALL SWAP4 POP POP POP POP ISZERO DUP1 ISZERO PUSH2 0x23A2 JUMPI RETURNDATASIZE PUSH1 0x0 DUP1 RETURNDATACOPY RETURNDATASIZE PUSH1 0x0 REVERT JUMPDEST POP PUSH1 0x1D SLOAD PUSH2 0x23B1 SWAP1 PUSH1 0x1 PUSH2 0x3873 JUMP JUMPDEST PUSH1 0x1C SSTORE POP PUSH2 0x23C2 SWAP1 POP JUMP JUMPDEST PUSH1 0x0 PUSH1 0x1C SSTORE JUMPDEST POP POP PUSH1 0xA SLOAD PUSH1 0x14 SSTORE POP POP TIMESTAMP PUSH1 0x1F SSTORE POP POP JUMP JUMPDEST PUSH1 0x0 DUP1 PUSH1 0x10 SLOAD CALLER DUP7 PUSH1 0x40 MLOAD PUSH1 0x20 ADD PUSH2 0x23EE SWAP4 SWAP3 SWAP2 SWAP1 PUSH2 0x39F5 JUMP JUMPDEST PUSH1 0x40 MLOAD PUSH1 0x20 DUP2 DUP4 SUB SUB DUP2 MSTORE SWAP1 PUSH1 0x40 MSTORE DUP1 MLOAD SWAP1 PUSH1 0x20 ADD KECCAK256 SWAP1 POP DUP4 DUP2 EQ PUSH2 0x2425 JUMPI PUSH1 0x40 MLOAD PUSH3 0x461BCD PUSH1 0xE5 SHL DUP2 MSTORE PUSH1 0x4 ADD PUSH2 0xE61 SWAP1 PUSH2 0x3A1D JUMP JUMPDEST PUSH1 0xF SLOAD DUP2 LT PUSH2 0x2446 JUMPI PUSH1 0x40 MLOAD PUSH3 0x461BCD PUSH1 0xE5 SHL DUP2 MSTORE PUSH1 0x4 ADD PUSH2 0xE61 SWAP1 PUSH2 0x3A6B JUMP JUMPDEST PUSH2 0x244E PUSH2 0x2CD0 JUMP JUMPDEST PUSH1 0x15 SLOAD TIMESTAMP GT PUSH2 0x246F JUMPI PUSH1 0x40 MLOAD PUSH3 0x461BCD PUSH1 0xE5 SHL DUP2 MSTORE PUSH1 0x4 ADD PUSH2 0xE61 SWAP1 PUSH2 0x3AB3 JUMP JUMPDEST PUSH1 0x0 PUSH1 0x1 SLOAD PUSH1 0x15 SLOAD TIMESTAMP PUSH2 0x2482 SWAP2 SWAP1 PUSH2 0x37FC JUMP JUMPDEST PUSH2 0x248E SWAP1 PUSH2 0x378 PUSH2 0x3873 JUMP JUMPDEST PUSH2 0x2498 SWAP2 SWAP1 PUSH2 0x37D4 JUMP JUMPDEST SWAP1 POP PUSH1 0x0 PUSH2 0x378 PUSH2 0x24AA DUP4 PUSH1 0x64 PUSH2 0x3873 JUMP JUMPDEST PUSH2 0x24B4 SWAP2 SWAP1 PUSH2 0x37D4 JUMP JUMPDEST SWAP1 POP PUSH1 0x0 PUSH1 0x64 DUP3 GT ISZERO PUSH2 0x24D3 JUMPI PUSH1 0x1A SLOAD PUSH2 0x24CF SWAP1 PUSH1 0x1 PUSH2 0x2C82 JUMP JUMPDEST PUSH1 0x1A SSTORE JUMPDEST PUSH2 0xBB8 DUP3 LT ISZERO PUSH2 0x2513 JUMPI PUSH2 0x24F0 PUSH2 0x378 PUSH2 0xF4E DUP6 PUSH3 0x97BB70 PUSH2 0x3873 JUMP JUMPDEST PUSH2 0x2502 PUSH3 0xC0840 PUSH2 0x1372 PUSH1 0x2 DUP8 PUSH2 0x3AE2 JUMP JUMPDEST PUSH2 0x250C SWAP2 SWAP1 PUSH2 0x3813 JUMP JUMPDEST SWAP1 POP PUSH2 0x2535 JUMP JUMPDEST PUSH2 0x2524 PUSH2 0x378 PUSH2 0x13AC DUP6 PUSH1 0x18 PUSH2 0x3873 JUMP JUMPDEST PUSH2 0x2532 SWAP1 PUSH4 0xCE09D1B0 PUSH2 0x3813 JUMP JUMPDEST SWAP1 POP JUMPDEST PUSH2 0x254E PUSH2 0x13E3 PUSH4 0x5F5E100 DUP4 PUSH1 0x13 SLOAD PUSH2 0xF4E SWAP2 SWAP1 PUSH2 0x3873 JUMP JUMPDEST PUSH1 0x1 PUSH1 0x1 PUSH1 0xA0 SHL SUB DUP8 AND PUSH1 0x0 SWAP1 DUP2 MSTORE PUSH1 0x18 PUSH1 0x20 MSTORE PUSH1 0x40 SWAP1 KECCAK256 SSTORE PUSH1 0x13 SLOAD PUSH2 0x2583 SWAP1 PUSH2 0x1437 SWAP1 PUSH4 0x5F5E100 SWAP1 PUSH2 0xF4E SWAP1 DUP6 SWAP1 PUSH2 0x3873 JUMP JUMPDEST PUSH1 0x5 SLOAD PUSH1 0x1 PUSH1 0x1 PUSH1 0xA0 SHL SUB AND PUSH1 0x0 SWAP1 DUP2 MSTORE PUSH1 0x18 PUSH1 0x20 MSTORE PUSH1 0x40 SWAP1 KECCAK256 SSTORE PUSH1 0x13 SLOAD PUSH2 0x25BA SWAP1 PUSH2 0x148F SWAP1 PUSH4 0x5F5E100 SWAP1 PUSH2 0xF4E SWAP1 DUP6 SWAP1 PUSH2 0x3873 JUMP JUMPDEST PUSH1 0x6 SLOAD PUSH1 0x1 PUSH1 0x1 PUSH1 0xA0 SHL SUB AND PUSH1 0x0 SWAP1 DUP2 MSTORE PUSH1 0x18 PUSH1 0x20 MSTORE PUSH1 0x40 SWAP1 KECCAK256 SSTORE PUSH1 0x13 SLOAD PUSH2 0x25F1 SWAP1 PUSH2 0x14E7 SWAP1 PUSH4 0x5F5E100 SWAP1 PUSH2 0xF4E SWAP1 DUP6 SWAP1 PUSH2 0x3873 JUMP JUMPDEST PUSH1 0x17 SSTORE TIMESTAMP PUSH1 0x15 SSTORE PUSH1 0x1C SLOAD ISZERO PUSH2 0x26B9 JUMPI PUSH2 0x7D0 DUP3 LT ISZERO PUSH2 0x2664 JUMPI PUSH1 0x0 DUP7 SWAP1 POP DUP1 PUSH1 0x1 PUSH1 0x1 PUSH1 0xA0 SHL SUB AND PUSH2 0x8FC PUSH2 0x2635 PUSH4 0x5F5E100 PUSH1 0x1C SLOAD PUSH1 0x16 SLOAD DUP8 PUSH2 0x1844 SWAP2 SWAP1 PUSH2 0x3873 JUMP JUMPDEST PUSH1 0x40 MLOAD DUP2 ISZERO SWAP1 SWAP3 MUL SWAP2 PUSH1 0x0 DUP2 DUP2 DUP2 DUP6 DUP9 DUP9 CALL SWAP4 POP POP POP POP ISZERO DUP1 ISZERO PUSH2 0x265D JUMPI RETURNDATASIZE PUSH1 0x0 DUP1 RETURNDATACOPY RETURNDATASIZE PUSH1 0x0 REVERT JUMPDEST POP POP PUSH2 0x26B9 JUMP JUMPDEST PUSH1 0x0 DUP7 SWAP1 POP DUP1 PUSH1 0x1 PUSH1 0x1 PUSH1 0xA0 SHL SUB AND PUSH2 0x8FC PUSH2 0x268E PUSH1 0xA PUSH1 0x1C SLOAD PUSH1 0x16 SLOAD PUSH2 0x258 PUSH2 0x1844 SWAP2 SWAP1 PUSH2 0x3873 JUMP JUMPDEST PUSH1 0x40 MLOAD DUP2 ISZERO SWAP1 SWAP3 MUL SWAP2 PUSH1 0x0 DUP2 DUP2 DUP2 DUP6 DUP9 DUP9 CALL SWAP4 POP POP POP POP ISZERO DUP1 ISZERO PUSH2 0x26B6 JUMPI RETURNDATASIZE PUSH1 0x0 DUP1 RETURNDATACOPY RETURNDATASIZE PUSH1 0x0 REVERT JUMPDEST POP POP JUMPDEST CALLER PUSH1 0x1 PUSH1 0x1 PUSH1 0xA0 SHL SUB AND PUSH32 0xCF6FBB9DCEA7D07263AB4F5C3A92F53AF33DFFC421D9D121E1C74B307E68189D PUSH2 0x1533 PUSH4 0x5F5E100 DUP5 PUSH1 0x13 SLOAD PUSH2 0xF4E SWAP2 SWAP1 PUSH2 0x3873 JUMP JUMPDEST PUSH1 0x0 DUP1 PUSH1 0x10 SLOAD CALLER DUP8 PUSH1 0x40 MLOAD PUSH1 0x20 ADD PUSH2 0x2714 SWAP4 SWAP3 SWAP2 SWAP1 PUSH2 0x39F5 JUMP JUMPDEST PUSH1 0x40 MLOAD PUSH1 0x20 DUP2 DUP4 SUB SUB DUP2 MSTORE SWAP1 PUSH1 0x40 MSTORE DUP1 MLOAD SWAP1 PUSH1 0x20 ADD KECCAK256 SWAP1 POP DUP5 DUP2 EQ PUSH2 0x274B JUMPI PUSH1 0x40 MLOAD PUSH3 0x461BCD PUSH1 0xE5 SHL DUP2 MSTORE PUSH1 0x4 ADD PUSH2 0xE61 SWAP1 PUSH2 0x3A1D JUMP JUMPDEST PUSH1 0xF SLOAD DUP2 LT PUSH2 0x276C JUMPI PUSH1 0x40 MLOAD PUSH3 0x461BCD PUSH1 0xE5 SHL DUP2 MSTORE PUSH1 0x4 ADD PUSH2 0xE61 SWAP1 PUSH2 0x3A6B JUMP JUMPDEST PUSH2 0x2774 PUSH2 0x2CD0 JUMP JUMPDEST PUSH1 0x15 SLOAD TIMESTAMP GT PUSH2 0x2795 JUMPI PUSH1 0x40 MLOAD PUSH3 0x461BCD PUSH1 0xE5 SHL DUP2 MSTORE PUSH1 0x4 ADD PUSH2 0xE61 SWAP1 PUSH2 0x3AB3 JUMP JUMPDEST DUP4 MLOAD DUP4 MLOAD EQ PUSH2 0x280C JUMPI PUSH1 0x40 MLOAD PUSH3 0x461BCD PUSH1 0xE5 SHL DUP2 MSTORE PUSH1 0x20 PUSH1 0x4 DUP3 ADD MSTORE PUSH1 0x3A PUSH1 0x24 DUP3 ADD MSTORE PUSH32 0x4D696E74546F2068617320746F20686176652073616D65206E756D626572206F PUSH1 0x44 DUP3 ADD MSTORE PUSH32 0x66206164647265737373657320617320457874726146756E6473000000000000 PUSH1 0x64 DUP3 ADD MSTORE PUSH1 0x84 ADD PUSH2 0xE61 JUMP JUMPDEST PUSH1 0xF SLOAD DUP2 LT PUSH2 0x282D JUMPI PUSH1 0x40 MLOAD PUSH3 0x461BCD PUSH1 0xE5 SHL DUP2 MSTORE PUSH1 0x4 ADD PUSH2 0xE61 SWAP1 PUSH2 0x3A6B JUMP JUMPDEST PUSH1 0x0 JUMPDEST DUP5 MLOAD DUP2 LT ISZERO PUSH2 0x2904 JUMPI PUSH2 0x2844 DUP2 PUSH1 0x1 PUSH2 0x3813 JUMP JUMPDEST PUSH2 0x284F SWAP1 PUSH1 0x2 PUSH2 0x39D3 JUMP JUMPDEST PUSH1 0xA SLOAD PUSH2 0x285C SWAP2 SWAP1 PUSH2 0x37E8 JUMP JUMPDEST PUSH1 0x0 SUB PUSH2 0x2904 JUMPI PUSH1 0x0 PUSH2 0x2870 DUP3 PUSH1 0x1 PUSH2 0x3813 JUMP JUMPDEST SWAP1 POP JUMPDEST DUP6 MLOAD DUP2 LT ISZERO PUSH2 0x28F1 JUMPI DUP6 DUP3 DUP2 MLOAD DUP2 LT PUSH2 0x288E JUMPI PUSH2 0x288E PUSH2 0x382B JUMP JUMPDEST PUSH1 0x20 MUL PUSH1 0x20 ADD ADD MLOAD PUSH1 0x1 PUSH1 0x1 PUSH1 0xA0 SHL SUB AND DUP7 DUP3 DUP2 MLOAD DUP2 LT PUSH2 0x28B1 JUMPI PUSH2 0x28B1 PUSH2 0x382B JUMP JUMPDEST PUSH1 0x20 MUL PUSH1 0x20 ADD ADD MLOAD PUSH1 0x1 PUSH1 0x1 PUSH1 0xA0 SHL SUB AND SUB PUSH2 0x28DF JUMPI PUSH1 0x40 MLOAD PUSH3 0x461BCD PUSH1 0xE5 SHL DUP2 MSTORE PUSH1 0x4 ADD PUSH2 0xE61 SWAP1 PUSH2 0x3B4E JUMP JUMPDEST DUP1 PUSH2 0x28E9 DUP2 PUSH2 0x3841 JUMP JUMPDEST SWAP2 POP POP PUSH2 0x2873 JUMP JUMPDEST POP DUP1 PUSH2 0x28FC DUP2 PUSH2 0x3841 JUMP JUMPDEST SWAP2 POP POP PUSH2 0x2830 JUMP JUMPDEST PUSH1 0x0 PUSH1 0x1 SLOAD PUSH1 0x15 SLOAD TIMESTAMP PUSH2 0x2917 SWAP2 SWAP1 PUSH2 0x37FC JUMP JUMPDEST PUSH2 0x2923 SWAP1 PUSH2 0x378 PUSH2 0x3873 JUMP JUMPDEST PUSH2 0x292D SWAP2 SWAP1 PUSH2 0x37D4 JUMP JUMPDEST SWAP1 POP PUSH1 0x0 PUSH2 0x378 PUSH2 0x293F DUP4 PUSH1 0x64 PUSH2 0x3873 JUMP JUMPDEST PUSH2 0x2949 SWAP2 SWAP1 PUSH2 0x37D4 JUMP JUMPDEST SWAP1 POP PUSH1 0x0 PUSH1 0x64 DUP3 GT ISZERO PUSH2 0x2968 JUMPI PUSH1 0x1A SLOAD PUSH2 0x2964 SWAP1 PUSH1 0x1 PUSH2 0x2C82 JUMP JUMPDEST PUSH1 0x1A SSTORE JUMPDEST PUSH2 0xBB8 DUP3 LT ISZERO PUSH2 0x29A8 JUMPI PUSH2 0x2985 PUSH2 0x378 PUSH2 0xF4E DUP6 PUSH3 0x97BB70 PUSH2 0x3873 JUMP JUMPDEST PUSH2 0x2997 PUSH3 0xC0840 PUSH2 0x1372 PUSH1 0x2 DUP8 PUSH2 0x3AE2 JUMP JUMPDEST PUSH2 0x29A1 SWAP2 SWAP1 PUSH2 0x3813 JUMP JUMPDEST SWAP1 POP PUSH2 0x29CA JUMP JUMPDEST PUSH2 0x29B9 PUSH2 0x378 PUSH2 0x13AC DUP6 PUSH1 0x18 PUSH2 0x3873 JUMP JUMPDEST PUSH2 0x29C7 SWAP1 PUSH4 0xCE09D1B0 PUSH2 0x3813 JUMP JUMPDEST SWAP1 POP JUMPDEST PUSH1 0x0 DUP1 JUMPDEST DUP6 DUP2 LT ISZERO PUSH2 0x2BD2 JUMPI PUSH2 0x29E1 DUP6 PUSH1 0x1 PUSH2 0x3813 JUMP JUMPDEST PUSH2 0x29EC SWAP1 PUSH1 0x2 PUSH2 0x39D3 JUMP JUMPDEST PUSH1 0xA SLOAD PUSH2 0x29F9 SWAP2 SWAP1 PUSH2 0x37E8 JUMP JUMPDEST PUSH1 0x0 SUB PUSH2 0x2BC0 JUMPI DUP10 DUP6 DUP2 MLOAD DUP2 LT PUSH2 0x2A12 JUMPI PUSH2 0x2A12 PUSH2 0x382B JUMP JUMPDEST PUSH1 0x20 SWAP1 DUP2 MUL SWAP2 SWAP1 SWAP2 ADD ADD MLOAD PUSH1 0x40 MLOAD PUSH4 0x70A08231 PUSH1 0xE0 SHL DUP2 MSTORE ADDRESS PUSH1 0x4 DUP3 ADD MSTORE PUSH1 0x1 PUSH1 0x1 PUSH1 0xA0 SHL SUB SWAP1 SWAP2 AND SWAP1 PUSH4 0x70A08231 SWAP1 PUSH1 0x24 ADD PUSH1 0x20 PUSH1 0x40 MLOAD DUP1 DUP4 SUB DUP2 DUP7 GAS STATICCALL ISZERO DUP1 ISZERO PUSH2 0x2A62 JUMPI RETURNDATASIZE PUSH1 0x0 DUP1 RETURNDATACOPY RETURNDATASIZE PUSH1 0x0 REVERT JUMPDEST POP POP POP POP PUSH1 0x40 MLOAD RETURNDATASIZE PUSH1 0x1F NOT PUSH1 0x1F DUP3 ADD AND DUP3 ADD DUP1 PUSH1 0x40 MSTORE POP DUP2 ADD SWAP1 PUSH2 0x2A86 SWAP2 SWAP1 PUSH2 0x385A JUMP JUMPDEST SWAP2 POP DUP2 ISZERO PUSH2 0x2BC0 JUMPI PUSH2 0x2A99 PUSH1 0x3 DUP7 PUSH2 0x37E8 JUMP JUMPDEST ISZERO DUP1 ISZERO PUSH2 0x2AA5 JUMPI POP DUP5 ISZERO ISZERO JUMPDEST DUP1 ISZERO PUSH2 0x2AB4 JUMPI POP PUSH4 0x10C8E00 DUP4 GT JUMPDEST DUP1 ISZERO PUSH2 0x2AC2 JUMPI POP PUSH1 0x1D SLOAD PUSH1 0x2 EQ JUMPDEST ISZERO PUSH2 0x2AE9 JUMPI PUSH2 0x2AE2 PUSH6 0x1D1A94A2000 DUP5 DUP5 PUSH1 0x11 SLOAD PUSH1 0x2 PUSH2 0x1BC5 SWAP2 SWAP1 PUSH2 0x39D3 JUMP JUMPDEST SWAP3 POP PUSH2 0x2B07 JUMP JUMPDEST PUSH2 0x2B04 PUSH6 0x1D1A94A2000 DUP5 DUP5 PUSH1 0x11 SLOAD PUSH1 0x2 PUSH2 0x1C01 SWAP2 SWAP1 PUSH2 0x39D3 JUMP JUMPDEST SWAP3 POP JUMPDEST DUP10 DUP6 DUP2 MLOAD DUP2 LT PUSH2 0x2B19 JUMPI PUSH2 0x2B19 PUSH2 0x382B JUMP JUMPDEST PUSH1 0x20 MUL PUSH1 0x20 ADD ADD MLOAD PUSH1 0x1 PUSH1 0x1 PUSH1 0xA0 SHL SUB AND PUSH4 0xA9059CBB DUP11 DUP8 DUP2 MLOAD DUP2 LT PUSH2 0x2B41 JUMPI PUSH2 0x2B41 PUSH2 0x382B JUMP JUMPDEST PUSH1 0x20 MUL PUSH1 0x20 ADD ADD MLOAD DUP6 PUSH1 0x40 MLOAD DUP4 PUSH4 0xFFFFFFFF AND PUSH1 0xE0 SHL DUP2 MSTORE PUSH1 0x4 ADD PUSH2 0x2B7B SWAP3 SWAP2 SWAP1 PUSH1 0x1 PUSH1 0x1 PUSH1 0xA0 SHL SUB SWAP3 SWAP1 SWAP3 AND DUP3 MSTORE PUSH1 0x20 DUP3 ADD MSTORE PUSH1 0x40 ADD SWAP1 JUMP JUMPDEST PUSH1 0x20 PUSH1 0x40 MLOAD DUP1 DUP4 SUB DUP2 PUSH1 0x0 DUP8 GAS CALL ISZERO DUP1 ISZERO PUSH2 0x2B9A JUMPI RETURNDATASIZE PUSH1 0x0 DUP1 RETURNDATACOPY RETURNDATASIZE PUSH1 0x0 REVERT JUMPDEST POP POP POP POP PUSH1 0x40 MLOAD RETURNDATASIZE PUSH1 0x1F NOT PUSH1 0x1F DUP3 ADD AND DUP3 ADD DUP1 PUSH1 0x40 MSTORE POP DUP2 ADD SWAP1 PUSH2 0x2BBE SWAP2 SWAP1 PUSH2 0x3B85 JUMP JUMPDEST POP JUMPDEST DUP1 PUSH2 0x2BCA DUP2 PUSH2 0x3841 JUMP JUMPDEST SWAP2 POP POP PUSH2 0x29CE JUMP JUMPDEST POP POP TIMESTAMP PUSH1 0x15 SSTORE SWAP10 SWAP9 POP POP POP POP POP POP POP POP POP JUMP JUMPDEST PUSH1 0x0 DUP2 PUSH1 0x0 SUB PUSH2 0x2C25 JUMPI PUSH1 0x40 MLOAD PUSH3 0x461BCD PUSH1 0xE5 SHL DUP2 MSTORE PUSH1 0x20 PUSH1 0x4 DUP3 ADD MSTORE PUSH1 0xB PUSH1 0x24 DUP3 ADD MSTORE PUSH11 0x446976206279207A65726F PUSH1 0xA8 SHL PUSH1 0x44 DUP3 ADD MSTORE PUSH1 0x64 ADD PUSH2 0xE61 JUMP JUMPDEST PUSH2 0x2C2F DUP3 DUP5 PUSH2 0x37D4 JUMP JUMPDEST SWAP4 SWAP3 POP POP POP JUMP JUMPDEST PUSH1 0x0 DUP2 DUP4 LT ISZERO PUSH2 0x2C78 JUMPI PUSH1 0x40 MLOAD PUSH3 0x461BCD PUSH1 0xE5 SHL DUP2 MSTORE PUSH1 0x20 PUSH1 0x4 DUP3 ADD MSTORE PUSH1 0xD PUSH1 0x24 DUP3 ADD MSTORE PUSH13 0x53756220756E646572666C6F77 PUSH1 0x98 SHL PUSH1 0x44 DUP3 ADD MSTORE PUSH1 0x64 ADD PUSH2 0xE61 JUMP JUMPDEST PUSH2 0x2C2F DUP3 DUP5 PUSH2 0x37FC JUMP JUMPDEST PUSH1 0x0 DUP1 PUSH2 0x2C8F DUP4 DUP6 PUSH2 0x3813 JUMP JUMPDEST SWAP1 POP DUP4 DUP2 LT ISZERO PUSH2 0x2C2F JUMPI PUSH1 0x40 MLOAD PUSH3 0x461BCD PUSH1 0xE5 SHL DUP2 MSTORE PUSH1 0x20 PUSH1 0x4 DUP3 ADD MSTORE PUSH1 0xC PUSH1 0x24 DUP3 ADD MSTORE PUSH12 0x416464206F766572666C6F77 PUSH1 0xA0 SHL PUSH1 0x44 DUP3 ADD MSTORE PUSH1 0x64 ADD PUSH2 0xE61 JUMP JUMPDEST PUSH1 0x12 SLOAD PUSH1 0x13 SLOAD PUSH1 0x17 SLOAD PUSH2 0x2CE2 SWAP2 PUSH2 0x2C82 JUMP JUMPDEST GT DUP1 ISZERO PUSH2 0x2CF1 JUMPI POP PUSH1 0xF PUSH1 0x11 SLOAD LT JUMPDEST ISZERO PUSH2 0x2DB1 JUMPI PUSH1 0x11 SLOAD PUSH2 0x2D04 SWAP1 PUSH1 0x1 PUSH2 0x3813 JUMP JUMPDEST PUSH1 0x11 DUP2 SWAP1 SSTORE PUSH2 0x2D2C SWAP1 PUSH2 0x2D18 SWAP1 PUSH1 0x1 PUSH2 0x3813 JUMP JUMPDEST PUSH2 0x2D23 SWAP1 PUSH1 0x2 PUSH2 0x39D3 JUMP JUMPDEST PUSH1 0x8 SLOAD SWAP1 PUSH2 0x2BE5 JUMP JUMPDEST PUSH1 0x8 SLOAD PUSH2 0x2D39 SWAP2 SWAP1 PUSH2 0x37FC JUMP JUMPDEST PUSH1 0x12 SSTORE PUSH1 0x11 SLOAD PUSH1 0x8 GT ISZERO PUSH2 0x2D9B JUMPI PUSH1 0x11 SLOAD PUSH2 0x2D55 SWAP1 PUSH1 0x2 PUSH2 0x39D3 JUMP JUMPDEST PUSH2 0x2D61 SWAP1 PUSH2 0x2D0 PUSH2 0x3873 JUMP JUMPDEST PUSH1 0x1 SSTORE PUSH1 0x11 SLOAD PUSH1 0x6 GT ISZERO PUSH2 0x2D96 JUMPI PUSH1 0x10 PUSH1 0xC SLOAD GT PUSH2 0x2D83 JUMPI PUSH1 0x8 PUSH1 0xC SSTORE PUSH2 0x2DB1 JUMP JUMPDEST PUSH1 0x2 PUSH1 0xC SLOAD PUSH2 0x2D92 SWAP2 SWAP1 PUSH2 0x37D4 JUMP JUMPDEST PUSH1 0xC SSTORE JUMPDEST PUSH2 0x2DB1 JUMP JUMPDEST PUSH2 0x2DAD PUSH1 0x7 PUSH1 0x11 SLOAD PUSH2 0xF2C SWAP2 SWAP1 PUSH2 0x37FC JUMP JUMPDEST PUSH1 0x13 SSTORE JUMPDEST PUSH1 0xA SLOAD PUSH2 0x2DBF SWAP1 PUSH1 0x1 PUSH2 0x2C82 JUMP JUMPDEST PUSH1 0xA SSTORE PUSH1 0xC SLOAD PUSH2 0x2DD1 SWAP1 PUSH1 0x8 SWAP1 PUSH2 0x37D4 JUMP JUMPDEST PUSH1 0xA SLOAD PUSH2 0x2DDE SWAP2 SWAP1 PUSH2 0x37E8 JUMP JUMPDEST PUSH1 0x0 SUB PUSH2 0x2E5F JUMPI PUSH2 0x2DED PUSH2 0x2179 JUMP JUMPDEST PUSH2 0x2DFF PUSH1 0x11 SLOAD PUSH1 0x1 PUSH2 0x2D18 SWAP2 SWAP1 PUSH2 0x3813 JUMP JUMPDEST PUSH1 0x8 SLOAD PUSH2 0x2E0C SWAP2 SWAP1 PUSH2 0x37FC JUMP JUMPDEST PUSH1 0x12 SSTORE PUSH1 0xB SLOAD TIMESTAMP SWAP1 PUSH1 0x0 SWAP1 PUSH2 0x2E21 SWAP1 DUP4 PUSH2 0x37FC JUMP JUMPDEST SWAP1 POP PUSH1 0x0 PUSH1 0x8 PUSH1 0xC SLOAD PUSH2 0x2E34 SWAP2 SWAP1 PUSH2 0x37D4 JUMP JUMPDEST PUSH1 0x1 SLOAD PUSH2 0x2E41 SWAP2 SWAP1 PUSH2 0x3873 JUMP JUMPDEST TIMESTAMP PUSH1 0xB SSTORE SWAP1 POP DUP1 DUP3 GT ISZERO PUSH2 0x2E57 JUMPI PUSH2 0x2E57 PUSH2 0x2FC4 JUMP JUMPDEST POP POP POP PUSH2 0x2E93 JUMP JUMPDEST PUSH1 0xC SLOAD PUSH1 0x1B SLOAD PUSH1 0xA SLOAD PUSH2 0x2E72 SWAP2 SWAP1 PUSH2 0x37FC JUMP JUMPDEST PUSH2 0x2E7C SWAP2 SWAP1 PUSH2 0x37E8 JUMP JUMPDEST PUSH1 0x0 SUB PUSH2 0x2E93 JUMPI PUSH2 0x2E8B PUSH2 0x2FC4 JUMP JUMPDEST PUSH2 0x2E93 PUSH2 0x2179 JUMP JUMPDEST PUSH2 0x2E9E PUSH1 0x1 NUMBER PUSH2 0x37FC JUMP JUMPDEST BLOCKHASH PUSH1 0x10 SSTORE JUMP JUMPDEST PUSH1 0x0 SLOAD PUSH1 0x1 PUSH1 0x1 PUSH1 0xA0 SHL SUB AND CALLER EQ PUSH2 0x2EEB JUMPI PUSH1 0x40 MLOAD PUSH3 0x461BCD PUSH1 0xE5 SHL DUP2 MSTORE PUSH1 0x20 PUSH1 0x4 DUP3 ADD MSTORE PUSH1 0xA PUSH1 0x24 DUP3 ADD MSTORE PUSH10 0x37B7363C9037BBB732B9 PUSH1 0xB1 SHL PUSH1 0x44 DUP3 ADD MSTORE PUSH1 0x64 ADD PUSH2 0xE61 JUMP JUMPDEST PUSH1 0x0 SLOAD PUSH1 0x40 DUP1 MLOAD PUSH1 0x1 PUSH1 0x1 PUSH1 0xA0 SHL SUB SWAP3 DUP4 AND DUP2 MSTORE SWAP2 DUP4 AND PUSH1 0x20 DUP4 ADD MSTORE PUSH32 0x5C486528EC3E3F0EA91181CFF8116F02BFA350E03B8B6F12E00765ADBB5AF85C SWAP2 ADD PUSH1 0x40 MLOAD DUP1 SWAP2 SUB SWAP1 LOG1 PUSH1 0x0 DUP1 SLOAD PUSH1 0x1 PUSH1 0x1 PUSH1 0xA0 SHL SUB NOT AND PUSH1 0x1 PUSH1 0x1 PUSH1 0xA0 SHL SUB SWAP3 SWAP1 SWAP3 AND SWAP2 SWAP1 SWAP2 OR SWAP1 SSTORE JUMP JUMPDEST PUSH1 0x0 DUP2 PUSH1 0x0 SUB PUSH2 0x2F94 JUMPI PUSH1 0x40 MLOAD PUSH3 0x461BCD PUSH1 0xE5 SHL DUP2 MSTORE PUSH1 0x20 PUSH1 0x4 DUP3 ADD MSTORE PUSH1 0xB PUSH1 0x24 DUP3 ADD MSTORE PUSH11 0x446976206279207A65726F PUSH1 0xA8 SHL PUSH1 0x44 DUP3 ADD MSTORE PUSH1 0x64 ADD PUSH2 0xE61 JUMP JUMPDEST PUSH1 0x0 PUSH2 0x2FA0 DUP4 DUP6 PUSH2 0x37D4 JUMP JUMPDEST SWAP1 POP PUSH2 0x2FAC DUP4 DUP6 PUSH2 0x37E8 JUMP JUMPDEST ISZERO PUSH2 0x2C2F JUMPI PUSH2 0x2FBC DUP2 PUSH1 0x1 PUSH2 0x3813 JUMP JUMPDEST SWAP5 SWAP4 POP POP POP POP JUMP JUMPDEST PUSH1 0x9 SLOAD TIMESTAMP SWAP1 PUSH1 0x0 SWAP1 PUSH2 0x2FD6 SWAP1 DUP4 PUSH2 0x37FC JUMP JUMPDEST SWAP1 POP PUSH1 0x0 PUSH1 0x1B SLOAD PUSH1 0xA SLOAD PUSH2 0x2FEA SWAP2 SWAP1 PUSH2 0x37FC JUMP JUMPDEST SWAP1 POP PUSH1 0x0 DUP2 PUSH1 0x1 SLOAD PUSH2 0x2FFC SWAP2 SWAP1 PUSH2 0x3873 JUMP JUMPDEST PUSH1 0xA SLOAD PUSH1 0x1B SSTORE SWAP1 POP DUP1 DUP4 LT ISZERO PUSH2 0x3077 JUMPI PUSH1 0x0 PUSH2 0x301D DUP5 PUSH2 0xF4E DUP5 PUSH1 0x64 PUSH2 0x3105 JUMP JUMPDEST PUSH1 0x1 PUSH1 0x1D SSTORE SWAP1 POP PUSH1 0x0 PUSH2 0x303D PUSH2 0x3E8 PUSH2 0x3037 DUP5 PUSH1 0x64 PUSH2 0x2C36 JUMP JUMPDEST SWAP1 PUSH2 0x316D JUMP JUMPDEST SWAP1 POP PUSH2 0x306C PUSH2 0x3063 DUP3 PUSH2 0x305D PUSH2 0x7D0 PUSH1 0xF SLOAD PUSH2 0x2BE5 SWAP1 SWAP2 SWAP1 PUSH4 0xFFFFFFFF AND JUMP JUMPDEST SWAP1 PUSH2 0x3105 JUMP JUMPDEST PUSH1 0xF SLOAD SWAP1 PUSH2 0x2C36 JUMP JUMPDEST PUSH1 0xF SSTORE POP PUSH2 0x30D1 SWAP1 POP JUMP JUMPDEST PUSH1 0x0 PUSH2 0x3088 DUP3 PUSH2 0xF4E DUP7 PUSH1 0x64 PUSH2 0x3105 JUMP JUMPDEST PUSH1 0x2 PUSH1 0x1D SSTORE SWAP1 POP PUSH1 0x0 PUSH2 0x30A2 PUSH2 0x3E8 PUSH2 0x3037 DUP5 PUSH1 0x64 PUSH2 0x2C36 JUMP JUMPDEST SWAP1 POP PUSH2 0x30CB PUSH2 0x30C2 DUP3 PUSH2 0x305D PUSH2 0x1F4 PUSH1 0xF SLOAD PUSH2 0x2BE5 SWAP1 SWAP2 SWAP1 PUSH4 0xFFFFFFFF AND JUMP JUMPDEST PUSH1 0xF SLOAD SWAP1 PUSH2 0x2C82 JUMP JUMPDEST PUSH1 0xF SSTORE POP POP JUMPDEST PUSH1 0x9 DUP5 SWAP1 SSTORE NUMBER PUSH1 0x20 SSTORE PUSH1 0xD SLOAD PUSH1 0xF SLOAD LT ISZERO PUSH2 0x30ED JUMPI PUSH1 0xD SLOAD PUSH1 0xF SSTORE JUMPDEST PUSH1 0xE SLOAD PUSH1 0xF SLOAD GT ISZERO PUSH2 0x1133 JUMPI PUSH1 0xE SLOAD PUSH1 0xF SSTORE POP POP POP POP JUMP JUMPDEST PUSH1 0x0 DUP3 PUSH1 0x0 SUB PUSH2 0x3117 JUMPI POP PUSH1 0x0 PUSH2 0xB76 JUMP JUMPDEST PUSH1 0x0 PUSH2 0x3123 DUP4 DUP6 PUSH2 0x3873 JUMP JUMPDEST SWAP1 POP DUP3 PUSH2 0x3130 DUP6 DUP4 PUSH2 0x37D4 JUMP JUMPDEST EQ PUSH2 0x2C2F JUMPI PUSH1 0x40 MLOAD PUSH3 0x461BCD PUSH1 0xE5 SHL DUP2 MSTORE PUSH1 0x20 PUSH1 0x4 DUP3 ADD MSTORE PUSH1 0xD PUSH1 0x24 DUP3 ADD MSTORE PUSH13 0x4D756C74206F766572666C6F77 PUSH1 0x98 SHL PUSH1 0x44 DUP3 ADD MSTORE PUSH1 0x64 ADD PUSH2 0xE61 JUMP JUMPDEST PUSH1 0x0 DUP2 DUP4 GT ISZERO PUSH2 0x317E JUMPI POP DUP1 PUSH2 0xB76 JUMP JUMPDEST POP SWAP1 SWAP2 SWAP1 POP JUMP JUMPDEST PUSH1 0x0 PUSH1 0x20 DUP1 DUP4 MSTORE DUP4 MLOAD DUP1 DUP3 DUP6 ADD MSTORE PUSH1 0x0 JUMPDEST DUP2 DUP2 LT ISZERO PUSH2 0x31B2 JUMPI DUP6 DUP2 ADD DUP4 ADD MLOAD DUP6 DUP3 ADD PUSH1 0x40 ADD MSTORE DUP3 ADD PUSH2 0x3196 JUMP JUMPDEST DUP2 DUP2 GT ISZERO PUSH2 0x31C4 JUMPI PUSH1 0x0 PUSH1 0x40 DUP4 DUP8 ADD ADD MSTORE JUMPDEST POP PUSH1 0x1F ADD PUSH1 0x1F NOT AND SWAP3 SWAP1 SWAP3 ADD PUSH1 0x40 ADD SWAP4 SWAP3 POP POP POP JUMP JUMPDEST DUP1 CALLDATALOAD PUSH1 0x1 PUSH1 0x1 PUSH1 0xA0 SHL SUB DUP2 AND DUP2 EQ PUSH2 0x31F1 JUMPI PUSH1 0x0 DUP1 REVERT JUMPDEST SWAP2 SWAP1 POP JUMP JUMPDEST PUSH1 0x0 DUP1 PUSH1 0x40 DUP4 DUP6 SUB SLT ISZERO PUSH2 0x3209 JUMPI PUSH1 0x0 DUP1 REVERT JUMPDEST PUSH2 0x3212 DUP4 PUSH2 0x31DA JUMP JUMPDEST SWAP5 PUSH1 0x20 SWAP4 SWAP1 SWAP4 ADD CALLDATALOAD SWAP4 POP POP POP JUMP JUMPDEST PUSH1 0x0 DUP1 DUP4 PUSH1 0x1F DUP5 ADD SLT PUSH2 0x3232 JUMPI PUSH1 0x0 DUP1 REVERT JUMPDEST POP DUP2 CALLDATALOAD PUSH8 0xFFFFFFFFFFFFFFFF DUP2 GT ISZERO PUSH2 0x324A JUMPI PUSH1 0x0 DUP1 REVERT JUMPDEST PUSH1 0x20 DUP4 ADD SWAP2 POP DUP4 PUSH1 0x20 DUP3 DUP6 ADD ADD GT ISZERO PUSH2 0x3262 JUMPI PUSH1 0x0 DUP1 REVERT JUMPDEST SWAP3 POP SWAP3 SWAP1 POP JUMP JUMPDEST PUSH1 0x0 DUP1 PUSH1 0x0 DUP1 PUSH1 0x0 DUP1 PUSH1 0xA0 DUP8 DUP10 SUB SLT ISZERO PUSH2 0x3282 JUMPI PUSH1 0x0 DUP1 REVERT JUMPDEST PUSH2 0x328B DUP8 PUSH2 0x31DA JUMP JUMPDEST SWAP6 POP PUSH2 0x3299 PUSH1 0x20 DUP9 ADD PUSH2 0x31DA JUMP JUMPDEST SWAP5 POP PUSH1 0x40 DUP8 ADD CALLDATALOAD SWAP4 POP PUSH1 0x60 DUP8 ADD CALLDATALOAD SWAP3 POP PUSH1 0x80 DUP8 ADD CALLDATALOAD PUSH8 0xFFFFFFFFFFFFFFFF DUP2 GT ISZERO PUSH2 0x32C3 JUMPI PUSH1 0x0 DUP1 REVERT JUMPDEST PUSH2 0x32CF DUP10 DUP3 DUP11 ADD PUSH2 0x3220 JUMP JUMPDEST SWAP8 SWAP11 SWAP7 SWAP10 POP SWAP5 SWAP8 POP SWAP3 SWAP6 SWAP4 SWAP5 SWAP3 POP POP POP JUMP JUMPDEST PUSH1 0x0 DUP1 PUSH1 0x0 DUP1 PUSH1 0x0 PUSH1 0x80 DUP7 DUP9 SUB SLT ISZERO PUSH2 0x32F9 JUMPI PUSH1 0x0 DUP1 REVERT JUMPDEST PUSH2 0x3302 DUP7 PUSH2 0x31DA JUMP JUMPDEST SWAP5 POP PUSH2 0x3310 PUSH1 0x20 DUP8 ADD PUSH2 0x31DA JUMP JUMPDEST SWAP4 POP PUSH1 0x40 DUP7 ADD CALLDATALOAD SWAP3 POP PUSH1 0x60 DUP7 ADD CALLDATALOAD PUSH8 0xFFFFFFFFFFFFFFFF DUP2 GT ISZERO PUSH2 0x3333 JUMPI PUSH1 0x0 DUP1 REVERT JUMPDEST PUSH2 0x333F DUP9 DUP3 DUP10 ADD PUSH2 0x3220 JUMP JUMPDEST SWAP7 SWAP10 SWAP6 SWAP9 POP SWAP4 SWAP7 POP SWAP3 SWAP5 SWAP4 SWAP3 POP POP POP JUMP JUMPDEST PUSH1 0x0 DUP1 PUSH1 0x40 DUP4 DUP6 SUB SLT ISZERO PUSH2 0x3363 JUMPI PUSH1 0x0 DUP1 REVERT JUMPDEST POP POP DUP1 CALLDATALOAD SWAP3 PUSH1 0x20 SWAP1 SWAP2 ADD CALLDATALOAD SWAP2 POP JUMP JUMPDEST PUSH4 0x4E487B71 PUSH1 0xE0 SHL PUSH1 0x0 MSTORE PUSH1 0x41 PUSH1 0x4 MSTORE PUSH1 0x24 PUSH1 0x0 REVERT JUMPDEST PUSH1 0x0 DUP3 PUSH1 0x1F DUP4 ADD SLT PUSH2 0x3399 JUMPI PUSH1 0x0 DUP1 REVERT JUMPDEST DUP2 CALLDATALOAD PUSH1 0x20 PUSH8 0xFFFFFFFFFFFFFFFF DUP1 DUP4 GT ISZERO PUSH2 0x33B6 JUMPI PUSH2 0x33B6 PUSH2 0x3372 JUMP JUMPDEST DUP3 PUSH1 0x5 SHL PUSH1 0x40 MLOAD PUSH1 0x1F NOT PUSH1 0x3F DUP4 ADD AND DUP2 ADD DUP2 DUP2 LT DUP5 DUP3 GT OR ISZERO PUSH2 0x33DB JUMPI PUSH2 0x33DB PUSH2 0x3372 JUMP JUMPDEST PUSH1 0x40 MSTORE SWAP4 DUP5 MSTORE DUP6 DUP2 ADD DUP4 ADD SWAP4 DUP4 DUP2 ADD SWAP3 POP DUP8 DUP6 GT ISZERO PUSH2 0x33F9 JUMPI PUSH1 0x0 DUP1 REVERT JUMPDEST DUP4 DUP8 ADD SWAP2 POP JUMPDEST DUP5 DUP3 LT ISZERO PUSH2 0x341F JUMPI PUSH2 0x3410 DUP3 PUSH2 0x31DA JUMP JUMPDEST DUP4 MSTORE SWAP2 DUP4 ADD SWAP2 SWAP1 DUP4 ADD SWAP1 PUSH2 0x33FF JUMP JUMPDEST SWAP8 SWAP7 POP POP POP POP POP POP POP JUMP JUMPDEST PUSH1 0x0 DUP1 PUSH1 0x0 DUP1 PUSH1 0x80 DUP6 DUP8 SUB SLT ISZERO PUSH2 0x3440 JUMPI PUSH1 0x0 DUP1 REVERT JUMPDEST DUP5 CALLDATALOAD SWAP4 POP PUSH1 0x20 DUP6 ADD CALLDATALOAD SWAP3 POP PUSH1 0x40 DUP6 ADD CALLDATALOAD PUSH8 0xFFFFFFFFFFFFFFFF DUP2 GT ISZERO PUSH2 0x3465 JUMPI PUSH1 0x0 DUP1 REVERT JUMPDEST PUSH2 0x3471 DUP8 DUP3 DUP9 ADD PUSH2 0x3388 JUMP JUMPDEST SWAP3 POP POP PUSH2 0x3480 PUSH1 0x60 DUP7 ADD PUSH2 0x31DA JUMP JUMPDEST SWAP1 POP SWAP3 SWAP6 SWAP2 SWAP5 POP SWAP3 POP JUMP JUMPDEST PUSH1 0x0 DUP1 PUSH1 0x0 PUSH1 0x60 DUP5 DUP7 SUB SLT ISZERO PUSH2 0x34A0 JUMPI PUSH1 0x0 DUP1 REVERT JUMPDEST PUSH2 0x34A9 DUP5 PUSH2 0x31DA JUMP JUMPDEST SWAP3 POP PUSH2 0x34B7 PUSH1 0x20 DUP6 ADD PUSH2 0x31DA JUMP JUMPDEST SWAP2 POP PUSH1 0x40 DUP5 ADD CALLDATALOAD SWAP1 POP SWAP3 POP SWAP3 POP SWAP3 JUMP JUMPDEST PUSH1 0x0 DUP1 PUSH1 0x0 DUP1 PUSH1 0x80 DUP6 DUP8 SUB SLT ISZERO PUSH2 0x34DD JUMPI PUSH1 0x0 DUP1 REVERT JUMPDEST PUSH2 0x34E6 DUP6 PUSH2 0x31DA JUMP JUMPDEST SWAP7 PUSH1 0x20 DUP7 ADD CALLDATALOAD SWAP7 POP PUSH1 0x40 DUP7 ADD CALLDATALOAD SWAP6 PUSH1 0x60 ADD CALLDATALOAD SWAP5 POP SWAP3 POP POP POP JUMP JUMPDEST PUSH1 0x0 DUP1 PUSH1 0x0 PUSH1 0x60 DUP5 DUP7 SUB SLT ISZERO PUSH2 0x3515 JUMPI PUSH1 0x0 DUP1 REVERT JUMPDEST PUSH2 0x351E DUP5 PUSH2 0x31DA JUMP JUMPDEST SWAP3 POP PUSH2 0x352C PUSH1 0x20 DUP6 ADD PUSH2 0x31DA JUMP JUMPDEST SWAP2 POP PUSH2 0x353A PUSH1 0x40 DUP6 ADD PUSH2 0x31DA JUMP JUMPDEST SWAP1 POP SWAP3 POP SWAP3 POP SWAP3 JUMP JUMPDEST PUSH1 0x0 PUSH1 0x20 DUP3 DUP5 SUB SLT ISZERO PUSH2 0x3555 JUMPI PUSH1 0x0 DUP1 REVERT JUMPDEST PUSH2 0x2C2F DUP3 PUSH2 0x31DA JUMP JUMPDEST PUSH1 0x0 DUP1 PUSH1 0x0 DUP1 PUSH1 0x80 DUP6 DUP8 SUB SLT ISZERO PUSH2 0x3574 JUMPI PUSH1 0x0 DUP1 REVERT JUMPDEST POP POP DUP3 CALLDATALOAD SWAP5 PUSH1 0x20 DUP5 ADD CALLDATALOAD SWAP5 POP PUSH1 0x40 DUP5 ADD CALLDATALOAD SWAP4 PUSH1 0x60 ADD CALLDATALOAD SWAP3 POP SWAP1 POP JUMP JUMPDEST PUSH1 0x0 DUP1 PUSH1 0x0 PUSH1 0x60 DUP5 DUP7 SUB SLT ISZERO PUSH2 0x35A5 JUMPI PUSH1 0x0 DUP1 REVERT JUMPDEST DUP4 CALLDATALOAD SWAP3 POP PUSH1 0x20 DUP5 ADD CALLDATALOAD SWAP2 POP PUSH2 0x353A PUSH1 0x40 DUP6 ADD PUSH2 0x31DA JUMP JUMPDEST PUSH1 0x0 DUP1 PUSH1 0x0 PUSH1 0x60 DUP5 DUP7 SUB SLT ISZERO PUSH2 0x35D1 JUMPI PUSH1 0x0 DUP1 REVERT JUMPDEST POP POP DUP2 CALLDATALOAD SWAP4 PUSH1 0x20 DUP4 ADD CALLDATALOAD SWAP4 POP PUSH1 0x40 SWAP1 SWAP3 ADD CALLDATALOAD SWAP2 SWAP1 POP JUMP JUMPDEST DUP1 ISZERO ISZERO DUP2 EQ PUSH2 0x35F6 JUMPI PUSH1 0x0 DUP1 REVERT JUMPDEST POP JUMP JUMPDEST PUSH1 0x0 DUP1 PUSH1 0x0 PUSH1 0x60 DUP5 DUP7 SUB SLT ISZERO PUSH2 0x360E JUMPI PUSH1 0x0 DUP1 REVERT JUMPDEST DUP4 CALLDATALOAD PUSH2 0x3619 DUP2 PUSH2 0x35E8 JUMP JUMPDEST SWAP3 POP PUSH1 0x20 DUP5 ADD CALLDATALOAD PUSH2 0x352C DUP2 PUSH2 0x35E8 JUMP JUMPDEST PUSH1 0x0 DUP1 PUSH1 0x0 DUP1 PUSH1 0x80 DUP6 DUP8 SUB SLT ISZERO PUSH2 0x363F JUMPI PUSH1 0x0 DUP1 REVERT JUMPDEST DUP5 CALLDATALOAD PUSH2 0x364A DUP2 PUSH2 0x35E8 JUMP JUMPDEST SWAP4 POP PUSH1 0x20 DUP6 ADD CALLDATALOAD PUSH2 0x365A DUP2 PUSH2 0x35E8 JUMP JUMPDEST SWAP3 POP PUSH1 0x40 DUP6 ADD CALLDATALOAD PUSH8 0xFFFFFFFFFFFFFFFF DUP1 DUP3 GT ISZERO PUSH2 0x3677 JUMPI PUSH1 0x0 DUP1 REVERT JUMPDEST PUSH2 0x3683 DUP9 DUP4 DUP10 ADD PUSH2 0x3388 JUMP JUMPDEST SWAP4 POP PUSH1 0x60 DUP8 ADD CALLDATALOAD SWAP2 POP DUP1 DUP3 GT ISZERO PUSH2 0x3699 JUMPI PUSH1 0x0 DUP1 REVERT JUMPDEST POP PUSH2 0x36A6 DUP8 DUP3 DUP9 ADD PUSH2 0x3388 JUMP JUMPDEST SWAP2 POP POP SWAP3 SWAP6 SWAP2 SWAP5 POP SWAP3 POP JUMP JUMPDEST PUSH1 0x0 DUP1 PUSH1 0x0 DUP1 PUSH1 0x80 DUP6 DUP8 SUB SLT ISZERO PUSH2 0x36C8 JUMPI PUSH1 0x0 DUP1 REVERT JUMPDEST DUP5 CALLDATALOAD SWAP4 POP PUSH1 0x20 DUP6 ADD CALLDATALOAD SWAP3 POP PUSH1 0x40 DUP6 ADD CALLDATALOAD PUSH8 0xFFFFFFFFFFFFFFFF DUP1 DUP3 GT ISZERO PUSH2 0x3677 JUMPI PUSH1 0x0 DUP1 REVERT JUMPDEST PUSH1 0x0 DUP1 PUSH1 0x0 DUP1 PUSH1 0x80 DUP6 DUP8 SUB SLT ISZERO PUSH2 0x3704 JUMPI PUSH1 0x0 DUP1 REVERT JUMPDEST DUP5 CALLDATALOAD PUSH2 0x370F DUP2 PUSH2 0x35E8 JUMP JUMPDEST SWAP4 POP PUSH1 0x20 DUP6 ADD CALLDATALOAD PUSH2 0x371F DUP2 PUSH2 0x35E8 JUMP JUMPDEST SWAP3 POP PUSH1 0x40 DUP6 ADD CALLDATALOAD PUSH8 0xFFFFFFFFFFFFFFFF DUP2 GT ISZERO PUSH2 0x3465 JUMPI PUSH1 0x0 DUP1 REVERT JUMPDEST PUSH1 0x0 DUP1 PUSH1 0x40 DUP4 DUP6 SUB SLT ISZERO PUSH2 0x374E JUMPI PUSH1 0x0 DUP1 REVERT JUMPDEST PUSH2 0x3757 DUP4 PUSH2 0x31DA JUMP JUMPDEST SWAP2 POP PUSH2 0x3765 PUSH1 0x20 DUP5 ADD PUSH2 0x31DA JUMP JUMPDEST SWAP1 POP SWAP3 POP SWAP3 SWAP1 POP JUMP JUMPDEST PUSH1 0x1 DUP2 DUP2 SHR SWAP1 DUP3 AND DUP1 PUSH2 0x3782 JUMPI PUSH1 0x7F DUP3 AND SWAP2 POP JUMPDEST PUSH1 0x20 DUP3 LT DUP2 SUB PUSH2 0x37A2 JUMPI PUSH4 0x4E487B71 PUSH1 0xE0 SHL PUSH1 0x0 MSTORE PUSH1 0x22 PUSH1 0x4 MSTORE PUSH1 0x24 PUSH1 0x0 REVERT JUMPDEST POP SWAP2 SWAP1 POP JUMP JUMPDEST PUSH4 0x4E487B71 PUSH1 0xE0 SHL PUSH1 0x0 MSTORE PUSH1 0x12 PUSH1 0x4 MSTORE PUSH1 0x24 PUSH1 0x0 REVERT JUMPDEST PUSH4 0x4E487B71 PUSH1 0xE0 SHL PUSH1 0x0 MSTORE PUSH1 0x11 PUSH1 0x4 MSTORE PUSH1 0x24 PUSH1 0x0 REVERT JUMPDEST PUSH1 0x0 DUP3 PUSH2 0x37E3 JUMPI PUSH2 0x37E3 PUSH2 0x37A8 JUMP JUMPDEST POP DIV SWAP1 JUMP JUMPDEST PUSH1 0x0 DUP3 PUSH2 0x37F7 JUMPI PUSH2 0x37F7 PUSH2 0x37A8 JUMP JUMPDEST POP MOD SWAP1 JUMP JUMPDEST PUSH1 0x0 DUP3 DUP3 LT ISZERO PUSH2 0x380E JUMPI PUSH2 0x380E PUSH2 0x37BE JUMP JUMPDEST POP SUB SWAP1 JUMP JUMPDEST PUSH1 0x0 DUP3 NOT DUP3 GT ISZERO PUSH2 0x3826 JUMPI PUSH2 0x3826 PUSH2 0x37BE JUMP JUMPDEST POP ADD SWAP1 JUMP JUMPDEST PUSH4 0x4E487B71 PUSH1 0xE0 SHL PUSH1 0x0 MSTORE PUSH1 0x32 PUSH1 0x4 MSTORE PUSH1 0x24 PUSH1 0x0 REVERT JUMPDEST PUSH1 0x0 PUSH1 0x1 DUP3 ADD PUSH2 0x3853 JUMPI PUSH2 0x3853 PUSH2 0x37BE JUMP JUMPDEST POP PUSH1 0x1 ADD SWAP1 JUMP JUMPDEST PUSH1 0x0 PUSH1 0x20 DUP3 DUP5 SUB SLT ISZERO PUSH2 0x386C JUMPI PUSH1 0x0 DUP1 REVERT JUMPDEST POP MLOAD SWAP2 SWAP1 POP JUMP JUMPDEST PUSH1 0x0 DUP2 PUSH1 0x0 NOT DIV DUP4 GT DUP3 ISZERO ISZERO AND ISZERO PUSH2 0x388D JUMPI PUSH2 0x388D PUSH2 0x37BE JUMP JUMPDEST POP MUL SWAP1 JUMP JUMPDEST PUSH1 0x20 DUP1 DUP3 MSTORE PUSH1 0x39 SWAP1 DUP3 ADD MSTORE PUSH32 0x4F6E6C79206D696E74206F6E20736C6F77426C6F636B732025205F424C4F434B PUSH1 0x40 DUP3 ADD MSTORE PUSH32 0x535F5045525F524541444A5553544D454E542F38203D3D203000000000000000 PUSH1 0x60 DUP3 ADD MSTORE PUSH1 0x80 ADD SWAP1 JUMP JUMPDEST PUSH1 0x1 DUP2 DUP2 JUMPDEST DUP1 DUP6 GT ISZERO PUSH2 0x392A JUMPI DUP2 PUSH1 0x0 NOT DIV DUP3 GT ISZERO PUSH2 0x3910 JUMPI PUSH2 0x3910 PUSH2 0x37BE JUMP JUMPDEST DUP1 DUP6 AND ISZERO PUSH2 0x391D JUMPI SWAP2 DUP2 MUL SWAP2 JUMPDEST SWAP4 DUP5 SHR SWAP4 SWAP1 DUP1 MUL SWAP1 PUSH2 0x38F4 JUMP JUMPDEST POP SWAP3 POP SWAP3 SWAP1 POP JUMP JUMPDEST PUSH1 0x0 DUP3 PUSH2 0x3941 JUMPI POP PUSH1 0x1 PUSH2 0xB76 JUMP JUMPDEST DUP2 PUSH2 0x394E JUMPI POP PUSH1 0x0 PUSH2 0xB76 JUMP JUMPDEST DUP2 PUSH1 0x1 DUP2 EQ PUSH2 0x3964 JUMPI PUSH1 0x2 DUP2 EQ PUSH2 0x396E JUMPI PUSH2 0x398A JUMP JUMPDEST PUSH1 0x1 SWAP2 POP POP PUSH2 0xB76 JUMP JUMPDEST PUSH1 0xFF DUP5 GT ISZERO PUSH2 0x397F JUMPI PUSH2 0x397F PUSH2 0x37BE JUMP JUMPDEST POP POP PUSH1 0x1 DUP3 SHL PUSH2 0xB76 JUMP JUMPDEST POP PUSH1 0x20 DUP4 LT PUSH2 0x133 DUP4 LT AND PUSH1 0x4E DUP5 LT PUSH1 0xB DUP5 LT AND OR ISZERO PUSH2 0x39AD JUMPI POP DUP2 DUP2 EXP PUSH2 0xB76 JUMP JUMPDEST PUSH2 0x39B7 DUP4 DUP4 PUSH2 0x38EF JUMP JUMPDEST DUP1 PUSH1 0x0 NOT DIV DUP3 GT ISZERO PUSH2 0x39CB JUMPI PUSH2 0x39CB PUSH2 0x37BE JUMP JUMPDEST MUL SWAP4 SWAP3 POP POP POP JUMP JUMPDEST PUSH1 0x0 PUSH2 0x2C2F DUP4 DUP4 PUSH2 0x3932 JUMP JUMPDEST PUSH4 0x4E487B71 PUSH1 0xE0 SHL PUSH1 0x0 MSTORE PUSH1 0x1 PUSH1 0x4 MSTORE PUSH1 0x24 PUSH1 0x0 REVERT JUMPDEST SWAP3 DUP4 MSTORE PUSH1 0x60 SWAP2 SWAP1 SWAP2 SHL PUSH12 0xFFFFFFFFFFFFFFFFFFFFFFFF NOT AND PUSH1 0x20 DUP4 ADD MSTORE PUSH1 0x34 DUP3 ADD MSTORE PUSH1 0x54 ADD SWAP1 JUMP JUMPDEST PUSH1 0x20 DUP1 DUP3 MSTORE PUSH1 0x2E SWAP1 DUP3 ADD MSTORE PUSH32 0x4F6C64206368616C6C656E67655F646967657374206F722077726F6E67206368 PUSH1 0x40 DUP3 ADD MSTORE PUSH14 0x185B1B195B99D957D91A59D95CDD PUSH1 0x92 SHL PUSH1 0x60 DUP3 ADD MSTORE PUSH1 0x80 ADD SWAP1 JUMP JUMPDEST PUSH1 0x20 DUP1 DUP3 MSTORE PUSH1 0x28 SWAP1 DUP3 ADD MSTORE PUSH32 0x446967657374206D75737420626520736D616C6C6572207468616E206D696E69 PUSH1 0x40 DUP3 ADD MSTORE PUSH8 0x1B99D5185C99D95D PUSH1 0xC2 SHL PUSH1 0x60 DUP3 ADD MSTORE PUSH1 0x80 ADD SWAP1 JUMP JUMPDEST PUSH1 0x20 DUP1 DUP3 MSTORE PUSH1 0x15 SWAP1 DUP3 ADD MSTORE PUSH21 0x4E6F2073616D65207365636F6E6420736F6C766573 PUSH1 0x58 SHL PUSH1 0x40 DUP3 ADD MSTORE PUSH1 0x60 ADD SWAP1 JUMP JUMPDEST PUSH1 0x0 PUSH2 0x2C2F PUSH1 0xFF DUP5 AND DUP4 PUSH2 0x3932 JUMP JUMPDEST PUSH1 0x20 DUP1 DUP3 MSTORE PUSH1 0x3A SWAP1 DUP3 ADD MSTORE PUSH32 0x4D696E74546F2068617320746F206861766520616E2065787472612061646472 PUSH1 0x40 DUP3 ADD MSTORE PUSH32 0x65737320636F6D706172656420746F20457874726146756E6473000000000000 PUSH1 0x60 DUP3 ADD MSTORE PUSH1 0x80 ADD SWAP1 JUMP JUMPDEST PUSH1 0x20 DUP1 DUP3 MSTORE PUSH1 0x1B SWAP1 DUP3 ADD MSTORE PUSH32 0x4E6F207072696E74696E67205468652073616D6520746F6B656E730000000000 PUSH1 0x40 DUP3 ADD MSTORE PUSH1 0x60 ADD SWAP1 JUMP JUMPDEST PUSH1 0x0 PUSH1 0x20 DUP3 DUP5 SUB SLT ISZERO PUSH2 0x3B97 JUMPI PUSH1 0x0 DUP1 REVERT JUMPDEST DUP2 MLOAD PUSH2 0x2C2F DUP2 PUSH2 0x35E8 JUMP INVALID LOG2 PUSH5 0x6970667358 0x22 SLT KECCAK256 KECCAK256 0xFC DUP8 0xD9 0xCD 0xC8 0x29 DIV BLOCKHASH PUSH32 0xFA9304DF5DDE3FF4B7AACF3B6137EE73D093B716EA4664736F6C634300080E00 CALLER ",
  "sha1": "f1b9813dac4ed270879ce17f1c36b725bae7d131",
  "source": "/**\n *Submitted for verification at Etherscan.io on 2022-11-19\n*/\n\n// File: contracts/ABAS.sol\n\n// Arbitrum Bitcoin and Staking (ABAS) - Token and Mining Contract\n//\n// Distrubtion of Arbitrum Bitcoin and Staking (ABAS) Token is as follows:\n// 29% of ABAS Token is distributed using Forge Contract(this Contract) which distributes tokens to users by using Proof of work. Computers solve a complicated problem to gain tokens!\n// +\n// 15% of ABAS Token is Auctioned in the ForgeAuctions Contract which distributes tokens to users who use Ethereum to buy tokens in fair price. Each auction lasts ~12 days. Using the Auctions contract.\n// +\n// 57% of ABAS Token is distributed as Liquidiy Pools as rewards in the ForgeRewards Contract which distributes tokens to users who deposit the Liquidity Pool tokens into the LPRewards contracts.\n//\n// = 100% Of the Token is distributed to the users! No dev fee or premine!\n//\n\t\n// Symbol: ABAS\n// Decimals: 18 \n//\n// Total supply: 73,500,001.000000000000000000\n//   =\n// 21,000,000 Mined over 100+ years using Bitcoins Distrubtion halvings every 4 years @ 360 min solves. Uses Proof-oF-Work to distribute the tokens. Public Miner is available.  Uses this contract.\n//   +\n// 10,500,000 Auctioned over 100+ years into 4 day auctions split fairly among all buyers. ALL Ethereum proceeds go into THIS contract which it fairly distributes to miners and stakers.  Uses the ForgeAuctions contract\n//   +\n// 42,000,000 tokens goes to Liquidity Providers of the token over 100+ year using Bitcoin distribution!  Helps prevent LP losses!  Uses the ForgeRewards1 & ForgeRewards2 Contract!\n//\n//  =\n//\n// 73,500,001 Tokens is the max Supply\n//      \n// 33% of the Ethereum from this contract goes to the Miner to pay for the transaction cost and if the token grows enough earn Ethereum per mint!\n// 66% of the Ethereum from this contract goes to the Liquidity Providers via ForgeRewards Contract.  Helps prevent Impermant Loss! Larger Liquidity!\n//\n// No premine, dev cut, or advantage taken at launch. Public miner available at launch.  100% of the token is given away fairly over 100+ years using Bitcoins model!\n//\n// Send this contract any ERC20 token and it will become instantly mineable and able to distribute using proof-of-work!\n// Donate this contract any NFT and we will also distribute it via Proof of Work to our miners!  \n//  \n//* 1 token were burned to create the LP pool.\n//\n// Credits: 0xBitcoin, Vether, Synethix\n\n\npragma solidity ^0.8.11;\n\ncontract Ownable {\n    address public owner;\n\n    event TransferOwnership(address _from, address _to);\n\n    constructor() public {\n        owner = msg.sender;\n        emit TransferOwnership(address(0), msg.sender);\n    }\n\n    modifier onlyOwner() {\n        require(msg.sender == owner, \"only owner\");\n        _;\n    }\n\n    function setOwner(address _owner) internal onlyOwner {\n        emit TransferOwnership(owner, _owner);\n        owner = _owner;\n    }\n}\n\n\n\n\nlibrary IsContract {\n    function isContract(address _addr) internal view returns (bool) {\n        bytes32 codehash;\n        /* solium-disable-next-line */\n        assembly { codehash := extcodehash(_addr) }\n        return codehash != bytes32(0) && codehash != bytes32(0xc5d2460186f7233c927e7db2dcc703c0e500b653ca82273b7bfad8045d85a470);\n    }\n}\n\n// File: contracts/utils/SafeMath.sol\n\nlibrary SafeMath2 {\n    function add(uint256 x, uint256 y) internal pure returns (uint256) {\n        uint256 z = x + y;\n        require(z >= x, \"Add overflow\");\n        return z;\n    }\n\n    function sub(uint256 x, uint256 y) internal pure returns (uint256) {\n        require(x >= y, \"Sub underflow\");\n        return x - y;\n    }\n\n    function mult(uint256 x, uint256 y) internal pure returns (uint256) {\n        if (x == 0) {\n            return 0;\n        }\n\n        uint256 z = x * y;\n        require(z / x == y, \"Mult overflow\");\n        return z;\n    }\n\n    function div(uint256 x, uint256 y) internal pure returns (uint256) {\n        require(y != 0, \"Div by zero\");\n        return x / y;\n    }\n\n    function divRound(uint256 x, uint256 y) internal pure returns (uint256) {\n        require(y != 0, \"Div by zero\");\n        uint256 r = x / y;\n        if (x % y != 0) {\n            r = r + 1;\n        }\n\n        return r;\n    }\n}\n\n// File: contracts/utils/Math.sol\n\nlibrary ExtendedMath2 {\n\n\n    //return the smaller of the two inputs (a or b)\n    function limitLessThan(uint a, uint b) internal pure returns (uint c) {\n\n        if(a > b) return b;\n\n        return a;\n\n    }\n}\n\n// File: contracts/interfaces/IERC20.sol\n\ninterface IERC20 {\n\tfunction totalSupply() external view returns (uint256);\n    event Transfer(address indexed _from, address indexed _to, uint256 _value);\n    event Approval(address indexed _owner, address indexed _spender, uint256 _value);\n    function transfer(address _to, uint _value) external returns (bool success);\n    function transferFrom(address _from, address _to, uint256 _value) external returns (bool success);\n    function allowance(address _owner, address _spender) external view returns (uint256 remaining);\n    function approve(address _spender, uint256 _value) external returns (bool success);\n    function balanceOf(address _owner) external view returns (uint256 balance);\n    \n}\n\n\n\ninterface IERC721 {\n    /**\n     * @dev Emitted when `tokenId` token is transferred from `from` to `to`.\n     */\n    event Transfer(address indexed from, address indexed to, uint256 indexed tokenId);\n\n    /**\n     * @dev Emitted when `owner` enables `approved` to manage the `tokenId` token.\n     */\n    event Approval(address indexed owner, address indexed approved, uint256 indexed tokenId);\n\n    /**\n     * @dev Emitted when `owner` enables or disables (`approved`) `operator` to manage all of its assets.\n     */\n    event ApprovalForAll(address indexed owner, address indexed operator, bool approved);\n\n    /**\n     * @dev Returns the number of tokens in ``owner``'s account.\n     */\n    function balanceOf(address owner) external view returns (uint256 balance);\n\n    /**\n     * @dev Returns the owner of the `tokenId` token.\n     *\n     * Requirements:\n     *\n     * - `tokenId` must exist.\n     */\n    function ownerOf(uint256 tokenId) external view returns (address owner);\n\n    /**\n     * @dev Safely transfers `tokenId` token from `from` to `to`.\n     *\n     * Requirements:\n     *\n     * - `from` cannot be the zero address.\n     * - `to` cannot be the zero address.\n     * - `tokenId` token must exist and be owned by `from`.\n     * - If the caller is not `from`, it must be approved to move this token by either {approve} or {setApprovalForAll}.\n     * - If `to` refers to a smart contract, it must implement {IERC721Receiver-onERC721Received}, which is called upon a safe transfer.\n     *\n     * Emits a {Transfer} event.\n     */\n    function safeTransferFrom(\n        address from,\n        address to,\n        uint256 tokenId,\n        bytes calldata data\n    ) external;\n\n    /**\n     * @dev Safely transfers `tokenId` token from `from` to `to`, checking first that contract recipients\n     * are aware of the ERC721 protocol to prevent tokens from being forever locked.\n     *\n     * Requirements:\n     *\n     * - `from` cannot be the zero address.\n     * - `to` cannot be the zero address.\n     * - `tokenId` token must exist and be owned by `from`.\n     * - If the caller is not `from`, it must be have been allowed to move this token by either {approve} or {setApprovalForAll}.\n     * - If `to` refers to a smart contract, it must implement {IERC721Receiver-onERC721Received}, which is called upon a safe transfer.\n     *\n     * Emits a {Transfer} event.\n     */\n    function safeTransferFrom(\n        address from,\n        address to,\n        uint256 tokenId\n    ) external;\n\n    /**\n     * @dev Transfers `tokenId` token from `from` to `to`.\n     *\n     * WARNING: Usage of this method is discouraged, use {safeTransferFrom} whenever possible.\n     *\n     * Requirements:\n     *\n     * - `from` cannot be the zero address.\n     * - `to` cannot be the zero address.\n     * - `tokenId` token must be owned by `from`.\n     * - If the caller is not `from`, it must be approved to move this token by either {approve} or {setApprovalForAll}.\n     *\n     * Emits a {Transfer} event.\n     */\n    function transferFrom(\n        address from,\n        address to,\n        uint256 tokenId\n    ) external;\n\n    /**\n     * @dev Gives permission to `to` to transfer `tokenId` token to another account.\n     * The approval is cleared when the token is transferred.\n     *\n     * Only a single account can be approved at a time, so approving the zero address clears previous approvals.\n     *\n     * Requirements:\n     *\n     * - The caller must own the token or be an approved operator.\n     * - `tokenId` must exist.\n     *\n     * Emits an {Approval} event.\n     */\n    function approve(address to, uint256 tokenId) external;\n\n    /**\n     * @dev Approve or remove `operator` as an operator for the caller.\n     * Operators can call {transferFrom} or {safeTransferFrom} for any token owned by the caller.\n     *\n     * Requirements:\n     *\n     * - The `operator` cannot be the caller.\n     *\n     * Emits an {ApprovalForAll} event.\n     */\n    function setApprovalForAll(address operator, bool _approved) external;\n\n    /**\n     * @dev Returns the account approved for `tokenId` token.\n     *\n     * Requirements:\n     *\n     * - `tokenId` must exist.\n     */\n    function getApproved(uint256 tokenId) external view returns (address operator);\n\n    /**\n     * @dev Returns if the `operator` is allowed to manage all of the assets of `owner`.\n     *\n     * See {setApprovalForAll}\n     */\n    function isApprovedForAll(address owner, address operator) external view returns (bool);\n}\n\n//Recieve NFTs\ninterface IERC721Receiver {\n    /**\n     * @dev Whenever an {IERC721} `tokenId` token is transferred to this contract via {IERC721-safeTransferFrom}\n     * by `operator` from `from`, this function is called.\n     *\n     * It must return its Solidity selector to confirm the token transfer.\n     * If any other value is returned or the interface is not implemented by the recipient, the transfer will be reverted.\n     *\n     * The selector can be obtained in Solidity with `IERC721Receiver.onERC721Received.selector`.\n     */\n    function onERC721Received(\n        address operator,\n        address from,\n        uint256 tokenId,\n        bytes calldata data\n    ) external returns (bytes4);\n}\n//Main contract\n\n\ninterface IERC165 {\n    /**\n     * @dev Returns true if this contract implements the interface defined by\n     * `interfaceId`. See the corresponding\n     * https://eips.ethereum.org/EIPS/eip-165#how-interfaces-are-identified[EIP section]\n     * to learn more about how these ids are created.\n     *\n     * This function call must use less than 30 000 gas.\n     */\n    function supportsInterface(bytes4 interfaceId) external view returns (bool);\n}\n\ninterface IERC1155 is IERC165 {\n    /**\n     * @dev Emitted when `value` tokens of token type `id` are transferred from `from` to `to` by `operator`.\n     */\n    event TransferSingle(address indexed operator, address indexed from, address indexed to, uint256 id, uint256 value);\n\n    /**\n     * @dev Equivalent to multiple {TransferSingle} events, where `operator`, `from` and `to` are the same for all\n     * transfers.\n     */\n    event TransferBatch(\n        address indexed operator,\n        address indexed from,\n        address indexed to,\n        uint256[] ids,\n        uint256[] values\n    );\n\n    /**\n     * @dev Emitted when `account` grants or revokes permission to `operator` to transfer their tokens, according to\n     * `approved`.\n     */\n    event ApprovalForAll(address indexed account, address indexed operator, bool approved);\n\n    /**\n     * @dev Emitted when the URI for token type `id` changes to `value`, if it is a non-programmatic URI.\n     *\n     * If an {URI} event was emitted for `id`, the standard\n     * https://eips.ethereum.org/EIPS/eip-1155#metadata-extensions[guarantees] that `value` will equal the value\n     * returned by {IERC1155MetadataURI-uri}.\n     */\n    event URI(string value, uint256 indexed id);\n\n    /**\n     * @dev Returns the amount of tokens of token type `id` owned by `account`.\n     *\n     * Requirements:\n     *\n     * - `account` cannot be the zero address.\n     */\n    function balanceOf(address account, uint256 id) external view returns (uint256);\n\n    /**\n     * @dev xref:ROOT:erc1155.adoc#batch-operations[Batched] version of {balanceOf}.\n     *\n     * Requirements:\n     *\n     * - `accounts` and `ids` must have the same length.\n     */\n    function balanceOfBatch(address[] calldata accounts, uint256[] calldata ids)\n        external\n        view\n        returns (uint256[] memory);\n\n    /**\n     * @dev Grants or revokes permission to `operator` to transfer the caller's tokens, according to `approved`,\n     *\n     * Emits an {ApprovalForAll} event.\n     *\n     * Requirements:\n     *\n     * - `operator` cannot be the caller.\n     */\n    function setApprovalForAll(address operator, bool approved) external;\n\n    /**\n     * @dev Returns true if `operator` is approved to transfer ``account``'s tokens.\n     *\n     * See {setApprovalForAll}.\n     */\n    function isApprovedForAll(address account, address operator) external view returns (bool);\n\n    /**\n     * @dev Transfers `amount` tokens of token type `id` from `from` to `to`.\n     *\n     * Emits a {TransferSingle} event.\n     *\n     * Requirements:\n     *\n     * - `to` cannot be the zero address.\n     * - If the caller is not `from`, it must have been approved to spend ``from``'s tokens via {setApprovalForAll}.\n     * - `from` must have a balance of tokens of type `id` of at least `amount`.\n     * - If `to` refers to a smart contract, it must implement {IERC1155Receiver-onERC1155Received} and return the\n     * acceptance magic value.\n     */\n    function safeTransferFrom(\n        address from,\n        address to,\n        uint256 id,\n        uint256 amount,\n        bytes calldata data\n    ) external;\n\n    /**\n     * @dev xref:ROOT:erc1155.adoc#batch-operations[Batched] version of {safeTransferFrom}.\n     *\n     * Emits a {TransferBatch} event.\n     *\n     * Requirements:\n     *\n     * - `ids` and `amounts` must have the same length.\n     * - If `to` refers to a smart contract, it must implement {IERC1155Receiver-onERC1155BatchReceived} and return the\n     * acceptance magic value.\n     */\n    function safeBatchTransferFrom(\n        address from,\n        address to,\n        uint256[] calldata ids,\n        uint256[] calldata amounts,\n        bytes calldata data\n    ) external;\n}\ninterface IERC1155Receiver is IERC165 {\n    /**\n     * @dev Handles the receipt of a single ERC1155 token type. This function is\n     * called at the end of a `safeTransferFrom` after the balance has been updated.\n     *\n     * NOTE: To accept the transfer, this must return\n     * `bytes4(keccak256(\"onERC1155Received(address,address,uint256,uint256,bytes)\"))`\n     * (i.e. 0xf23a6e61, or its own function selector).\n     *\n     * @param operator The address which initiated the transfer (i.e. msg.sender)\n     * @param from The address which previously owned the token\n     * @param id The ID of the token being transferred\n     * @param value The amount of tokens being transferred\n     * @param data Additional data with no specified format\n     * @return `bytes4(keccak256(\"onERC1155Received(address,address,uint256,uint256,bytes)\"))` if transfer is allowed\n     */\n    function onERC1155Received(\n        address operator,\n        address from,\n        uint256 id,\n        uint256 value,\n        bytes calldata data\n    ) external returns (bytes4);\n\n    /**\n     * @dev Handles the receipt of a multiple ERC1155 token types. This function\n     * is called at the end of a `safeBatchTransferFrom` after the balances have\n     * been updated.\n     *\n     * NOTE: To accept the transfer(s), this must return\n     * `bytes4(keccak256(\"onERC1155BatchReceived(address,address,uint256[],uint256[],bytes)\"))`\n     * (i.e. 0xbc197c81, or its own function selector).\n     *\n     * @param operator The address which initiated the batch transfer (i.e. msg.sender)\n     * @param from The address which previously owned the token\n     * @param ids An array containing ids of each token being transferred (order and length must match values array)\n     * @param values An array containing amounts of each token being transferred (order and length must match ids array)\n     * @param data Additional data with no specified format\n     * @return `bytes4(keccak256(\"onERC1155BatchReceived(address,address,uint256[],uint256[],bytes)\"))` if transfer is allowed\n     */\n    function onERC1155BatchReceived(\n        address operator,\n        address from,\n        uint256[] calldata ids,\n        uint256[] calldata values,\n        bytes calldata data\n    ) external returns (bytes4);\n}\n\ncontract ABASAuctionsCT{\n    uint256 public totalAuctioned;\n    }\n    \n\ncontract ArbitrumBitcoinAndStaking is Ownable, IERC20 {\n\n    function onERC721Received(address, address, uint256, bytes calldata) external pure returns (bytes4) {\n        return IERC721Receiver.onERC721Received.selector;\n    }\n\tfunction onERC1155Received(address, address, uint256, uint256, bytes calldata) external pure returns (bytes4){\n\t\treturn IERC1155Receiver.onERC1155Received.selector;\n\t\t}\t\n\tfunction onERC1155BatchReceived(address, address, uint256, uint256, bytes calldata) external pure returns (bytes4){\n\t\treturn IERC1155Receiver.onERC1155Received.selector;\n\t\t}\n\t\n\t\n\tuint public targetTime = 12 * 60;\n    uint public multipler = 0;\n// SUPPORTING CONTRACTS\n    address public AddressAuction;\n    ABASAuctionsCT public AuctionsCT;\n    address public AddressLPReward;\n    address public AddressLPReward2;\n//Events\n    using SafeMath2 for uint256;\n    using ExtendedMath2 for uint;\n    event Mint(address indexed from, uint reward_amount, uint epochCount, bytes32 newChallengeNumber);\n    event MegaMint(address indexed from, uint epochCount, bytes32 newChallengeNumber, uint NumberOfTokensMinted, uint256 TokenMultipler);\n\n// Managment events\n    uint256 override public totalSupply = 73500001000000000000000000;\n    bytes32 private constant BALANCE_KEY = keccak256(\"balance\");\n\n    //BITCOIN INITALIZE Start\n\t\n    uint _totalSupply = 21000000000000000000000000;\n    uint public latestDifficultyPeriodStarted2 = block.timestamp;\n    uint public epochCount = 0;//number of 'blocks' mined\n\tuint public latestreAdjustStarted = block.timestamp;\n    uint public _BLOCKS_PER_READJUSTMENT = 1028; // should be 512 or 1028\n    //a little number\n    uint public  _MINIMUM_TARGET = 2**16;\n    \n    uint public  _MAXIMUM_TARGET = 2**234;\n    uint public miningTarget = _MAXIMUM_TARGET.div(200000000000*25);  //1000 million difficulty to start until i enable mining\n    \n    bytes32 public challengeNumber = blockhash(block.number - 1);   //generate a new one when a new reward is minted\n    uint public rewardEra = 0;\n    uint public maxSupplyForEra = (_totalSupply - _totalSupply.div( 2**(rewardEra + 1)));\n    uint public reward_amount = 0;\n    \n    //Stuff for Functions\n    uint oldecount = 0;\n    uint public previousBlockTime  =  block.timestamp;\n    uint public Token2Per=           1000000;\n    uint public tokensMinted;\n    mapping(address => uint) balances;\n    mapping(address => mapping(address => uint)) allowed;\n    uint slowBlocks;\n    uint public epochOld = 0;\n    uint public give0x = 0;\n    uint public give = 1;\n    // metadata\n    string public name = \"Arbitrum Bitcoin and Staking Token\";\n    string public constant symbol = \"ABAS\";\n    uint8 public constant decimals = 18;\n\t\n    uint256 lastrun = block.timestamp;\n    uint public latestDifficultyPeriodStarted = block.number;\n    bool initeds = false;\n    \n    // mint 1 token to setup LPs\n\t    constructor() {\n    balances[msg.sender] = 1000000000000000000;\n    emit Transfer(address(0), msg.sender, 1000000000000000000);\n\t}\n\n\nfunction zinit(address AuctionAddress2, address LPGuild2, address LPGuild3) public onlyOwner{\n        uint x = 21000000000000000000000000; \n        // Only init once\n        assert(!initeds);\n        initeds = true;\n\t    previousBlockTime = block.timestamp;\n\t    reward_amount = 20 * 10**uint(decimals);\n    \trewardEra = 0;\n\t    tokensMinted = 0;\n\t    epochCount = 0;\n\t    epochOld = 0;\n\t    multipler = address(this).balance / (1 * 10 ** 18); \t\n\t    Token2Per = (2** rewardEra) * address(this).balance / (600000 + 600000*(multipler)); //aimed to give about 400 days of reserves\n\n    \tminingTarget = _MAXIMUM_TARGET.div(1000); //5000000 = 31gh/s @ 7 min for FPGA mining\n        latestDifficultyPeriodStarted2 = block.timestamp;\n    \t_startNewMiningEpoch();\n        // Init contract variables and mint\n        balances[AuctionAddress2] = x/2;\n\t\n        emit Transfer(address(0), AuctionAddress2, x/2);\n\t\n    \tAddressAuction = AuctionAddress2;\n        AuctionsCT = ABASAuctionsCT(AddressAuction);\n        AddressLPReward = payable(LPGuild2);\n        AddressLPReward2 = payable(LPGuild3);\n\t    slowBlocks = 0;\n        oldecount = epochCount;\n\t\n\t\tsetOwner(address(0));\n     \n    }\n\n\n\n\t///\n\t// Managment\n\t///\n\n\tfunction ARewardSender() public {\n\t\t//runs every _BLOCKS_PER_READJUSTMENT / 8\n\n\t\tmultipler = address(this).balance / (1 * 10 ** 18); \t\n\t\tToken2Per = (2** rewardEra) * address(this).balance / (250000 + 250000*(multipler)); //aimed to give about 400 days of reserves\n\n\t\tuint256 runs = block.timestamp - lastrun;\n\n\t\tuint256 epochsPast = epochCount - oldecount; //actually epoch\n\t\tuint256 runsperepoch = runs / epochsPast;\n\t\tif(rewardEra < 8){\n\t\t\t\n\t\t\ttargetTime = ((12 * 60) * 2**rewardEra);\n\t\t}else{\n\t\t\treward_amount = ( 20 * 10**uint(decimals)).div( 2**(rewardEra - 7  ) );\n\t\t}\n\t\tuint256 x = (runsperepoch * 888).divRound(targetTime);\n\t\tuint256 ratio = x * 100 / 888;\n\t\tuint256 totalOwed;\n\t\t\n\t\t if(ratio < 2000){\n\t\t\ttotalOwed = (508606*(15*x**2)).div(888 ** 2)+ (9943920 * (x)).div(888);\n\t\t }else {\n\t\t\ttotalOwed = (6000000000);\n\t\t} \n\n\t\tif( address(this).balance > (200 * (Token2Per * _BLOCKS_PER_READJUSTMENT)/4)){  // at least enough blocks to rerun this function for both LPRewards and Users\n\t\t\t//IERC20(AddressZeroXBTC).transfer(AddressLPReward, ((epochsPast) * totalOwed * Token2Per * give0xBTC).div(100000000));\n          \t\t address payable to = payable(AddressLPReward);\n\t\t\t address payable to2 = payable(AddressLPReward2);\n           \t\t to.transfer(((epochsPast) * totalOwed * Token2Per * give0x).div(100000000));\n           \t\t to2.transfer(((epochsPast) * totalOwed * Token2Per * give0x).div(100000000));\n           \t\t give0x = 1 * give;\n\t\t}else{\n\t\t\tgive0x = 0;\n\t\t}\n\t\t\n\t\toldecount = epochCount; //actually epoch\n\n\t\tlastrun = block.timestamp;\n\t}\n\n\n\t//comability function\n\tfunction mint(uint256 nonce, bytes32 challenge_digest) public returns (bool success) {\n\t\tmintTo(nonce, challenge_digest, msg.sender);\n\t\treturn true;\n\t}\n\t\n\n\tfunction mintNFTGOBlocksUntil() public view returns (uint num) {\n\t\treturn _BLOCKS_PER_READJUSTMENT/8 - slowBlocks % (_BLOCKS_PER_READJUSTMENT/8 );\n\t}\n\t\n\tfunction mintNFTGO() public view returns (uint num) {\n\t\treturn slowBlocks % (_BLOCKS_PER_READJUSTMENT/8);\n\t}\n\t\n\tfunction mintNFT721(address nftaddy, uint nftNumber, uint256 nonce, bytes32 challenge_digest) public returns (bool success) {\n\t\trequire(mintNFTGO() == 0, \"Only mint on slowBlocks % _BLOCKS_PER_READJUSTMENT/8 == 0\");\n\t\tmintTo(nonce, challenge_digest, msg.sender);\n\t\tIERC721(nftaddy).safeTransferFrom(address(this), msg.sender, nftNumber, \"\");\n\t\treturn true;\n\t}\n\n\tfunction mintNFT1155(address nftaddy, uint nftNumber, uint256 nonce, bytes32 challenge_digest) public returns (bool success) {\n\t\trequire(mintNFTGO() == 0, \"Only mint on slowBlocks % _BLOCKS_PER_READJUSTMENT/8 == 0\");\n\t\tmintTo(nonce, challenge_digest, msg.sender);\n\t\tIERC1155(nftaddy).safeTransferFrom(address(this), msg.sender, nftNumber, 1, \"\" );\n\t\treturn true;\n\t}\n\n\tfunction mintTo(uint256 nonce, bytes32 challenge_digest, address mintTo) public returns (uint256 owed) {\n\n\t\tbytes32 digest =  keccak256(abi.encodePacked(challengeNumber, msg.sender, nonce));\n\n\t\t//the challenge digest must match the expected\n\t\trequire(digest == challenge_digest, \"Old challenge_digest or wrong challenge_digest\");\n\n\t\t//the digest must be smaller than the target\n\t\trequire(uint256(digest) < miningTarget, \"Digest must be smaller than miningTarget\");\n\t\t_startNewMiningEpoch();\n\n\t\trequire(block.timestamp > previousBlockTime, \"No same second solves\");\n\t\t\n\t\t//uint diff = block.timestamp - previousBlockTime;\n\t\tuint256 x = ((block.timestamp - previousBlockTime) * 888) / targetTime;\n\t\tuint ratio = x * 100 / 888 ;\n\t\tuint totalOwed = 0;\n\t\t\n\t\t\n\t\tif(ratio > 100){\n\t\t\t\n\t\t\tslowBlocks = slowBlocks.add(1);\n\t\t\t\n\t\t}\n\t\t\n\t\t//best @ 3000 ratio totalOwed / 100000000 = 71.6\n\t\tif(ratio < 3000){\n\t\t\ttotalOwed = (508606*(15*x**2)).div(888 ** 2)+ (9943920 * (x)).div(888);\n\t\t}else {\n\t\t\ttotalOwed = (24*x*5086060).div(888)+3456750000;\n\t\t}\n\n\n\t\tbalances[mintTo] = balances[mintTo].add((reward_amount * totalOwed).div(100000000));\n\t\tbalances[AddressLPReward] = balances[AddressLPReward].add((reward_amount * totalOwed).div(100000000));\n\t\tbalances[AddressLPReward2] = balances[AddressLPReward2].add((reward_amount * totalOwed).div(100000000));\n\t\t\t\t\n\t\ttokensMinted = tokensMinted.add((reward_amount * totalOwed).div(100000000));\n\t\tpreviousBlockTime = block.timestamp;\n\t\tif(give0x > 0){\n\t\t\tif(ratio < 2000){\n            \t\t\taddress payable to = payable(mintTo);\n             \t\t\tto.transfer((totalOwed * Token2Per * give0x).div(100000000));\n\t\t\t\t//IERC20(AddressZeroXBTC).transfer(mintTo, (totalOwed * Token2Per * give0xBTC).div(100000000 * 2));\n\t\t\t}else{\n               \t\t\taddress payable to = payable(mintTo);\n               \t\t\tto.transfer((600 * Token2Per * give0x).div(10));\n\t\t\t\t//IERC20(AddressZeroXBTC).transfer(mintTo, (40 * Token2Per * give0xBTC).div(10 * 2));\n\t\t\t}\n\t\t}\n\n\t\temit Mint(msg.sender, (reward_amount * totalOwed).div(100000000), epochCount, challengeNumber );\n\n\t\treturn totalOwed;\n\n\t}\n\n\tfunction mintToFREE(bool nonce, bool challenge_digest, address mintTo) public returns (uint256 owed) {\n        \n        _startNewMiningEpoch();\n\n\t\trequire(block.timestamp > previousBlockTime, \"No same second solves\");\n\t\t\n\t\t//uint diff = block.timestamp - previousBlockTime;\n\t\tuint256 x = ((block.timestamp - previousBlockTime) * 888) / targetTime;\n\t\tuint ratio = x * 100 / 888 ;\n\t\tuint totalOwed = 0;\n\t\t\n\t\t\n\t\tif(ratio > 100){\n\t\t\t\n\t\t\tslowBlocks = slowBlocks.add(1);\n\t\t\t\n\t\t}\n\t\t\n\t\t//best @ 3000 ratio totalOwed / 100000000 = 71.6\n\t\tif(ratio < 3000){\n\t\t\ttotalOwed = (508606*(15*x**2)).div(888 ** 2)+ (9943920 * (x)).div(888);\n\t\t}else {\n\t\t\ttotalOwed = (24*x*5086060).div(888)+3456750000;\n\t\t}\n\n\n\t\tbalances[mintTo] = balances[mintTo].add((reward_amount * totalOwed).div(100000000));\n\t\tbalances[AddressLPReward] = balances[AddressLPReward].add((reward_amount * totalOwed).div(100000000));\n\t\tbalances[AddressLPReward2] = balances[AddressLPReward2].add((reward_amount * totalOwed).div(100000000));\n\t\t\t\t\n\t\ttokensMinted = tokensMinted.add((reward_amount * totalOwed).div(100000000));\n\t\tpreviousBlockTime = block.timestamp;\n\t\tif(give0x > 0){\n\t\t\tif(ratio < 2000){\n            \t\t\taddress payable to = payable(mintTo);\n             \t\t\tto.transfer((totalOwed * Token2Per * give0x).div(100000000));\n\t\t\t\t//IERC20(AddressZeroXBTC).transfer(mintTo, (totalOwed * Token2Per * give0xBTC).div(100000000 * 2));\n\t\t\t}else{\n               \t\t\taddress payable to = payable(mintTo);\n               \t\t\tto.transfer((600 * Token2Per * give0x).div(10));\n\t\t\t\t//IERC20(AddressZeroXBTC).transfer(mintTo, (40 * Token2Per * give0xBTC).div(10 * 2));\n\t\t\t}\n\t\t}\n\n\t\temit Mint(msg.sender, (reward_amount * totalOwed).div(100000000), epochCount, challengeNumber );\n\n\t\treturn totalOwed;\n\n\t}\n\n\n\tfunction mintTokensArrayToFREE(bool nonce, bool challenge_digest, address[] memory ExtraFunds, address[] memory MintTo) public returns (uint256 owed) {\n\t\tuint256 totalOd = mintToFREE(nonce,challenge_digest, MintTo[0]);\n\t\trequire(totalOd > 0, \"mint issue\");\n\n\t\trequire(MintTo.length == ExtraFunds.length + 1,\"MintTo has to have an extra address compared to ExtraFunds\");\n\t\tuint xy=0;\n\t\tfor(xy = 0; xy< ExtraFunds.length; xy++)\n\t\t{\n\t\t\tif(epochCount % (2**(xy+1)) != 0){\n\t\t\t\tbreak;\n\t\t\t}\n\t\t\tfor(uint y=xy+1; y< ExtraFunds.length; y++){\n\t\t\t\trequire(ExtraFunds[y] != ExtraFunds[xy], \"No printing The same tokens\");\n\t\t\t}\n\t\t}\n\t\t\n\t\tuint256 totalOwed = 0;\n\t\tuint256 TotalOwned = 0;\n\t\tfor(uint x=0; x<xy; x++)\n\t\t{\n\t\t\t//epoch count must evenly dividable by 2^n in order to get extra mints. \n\t\t\t//ex. epoch 2 = 1 extramint, epoch 4 = 2 extra, epoch 8 = 3 extra mints, ..., epoch 32 = 5 extra mints w/ a divRound for the 5th mint(allows small balance token minting aka NFTs)\n\t\t\tif(epochCount % (2**(x+1)) == 0){\n\t\t\t\tTotalOwned = IERC20(ExtraFunds[x]).balanceOf(address(this));\n\t\t\t\tif(TotalOwned != 0){\n\t\t\t\t\tif( x % 3 == 0 && x != 0 && totalOd > 17600000 && give == 2){\n\t\t\t\t\t\ttotalOwed = ( (2** rewardEra) *TotalOwned * totalOd).divRound(100000000 * 20000);\n\t\t\t\t\t\t\n\t\t\t\t\t}else{\n\t\t\t\t\t\ttotalOwed = ( (2** rewardEra) * TotalOwned * totalOd).div(100000000 * 20000);\n\t\t\t\t\t}\n\t\t\t\t}\n\t\t\t    IERC20(ExtraFunds[x]).transfer(MintTo[x+1], totalOwed);\n\t\t\t}\n\t\t}\n        \t\n        \t\n\t\temit MegaMint(msg.sender, epochCount, challengeNumber, xy, totalOd );\n\n\t\treturn totalOd;\n\n    }\n\n\tfunction mintTokensSameAddressFREE(bool nonce, bool challenge_digest, address[] memory ExtraFunds, address MintTo) public returns (bool success) {\n\t\taddress[] memory dd = new address[](ExtraFunds.length + 1); \n\n\t\tfor(uint x=0; x< (ExtraFunds.length + 1); x++)\n\t\t{\n\t\t\tdd[x] = MintTo;\n\t\t}\n\t\t\n\t\tmintTokensArrayToFREE(nonce, challenge_digest, ExtraFunds, dd);\n\n\t\treturn true;\n\t}\n\n\n\n\n\n\n\n\n\tfunction mintToJustABAS(uint256 nonce, bytes32 challenge_digest, address mintTo) public returns (uint256 owed) {\n\n\t\tbytes32 digest =  keccak256(abi.encodePacked(challengeNumber, msg.sender, nonce));\n\n\t\t//the challenge digest must match the expected\n\t\trequire(digest == challenge_digest, \"Old challenge_digest or wrong challenge_digest\");\n\n\t\t//the digest must be smaller than the target\n\t\trequire(uint256(digest) < miningTarget, \"Digest must be smaller than miningTarget\");\n\t\t_startNewMiningEpoch();\n\n\t\trequire(block.timestamp > previousBlockTime, \"No same second solves\");\n\n\t\trequire(uint256(digest) < (miningTarget), \"Digest must be smaller than miningTarget\");\n\t\t\n\t\t//uint diff = block.timestamp - previousBlockTime;\n\t\tuint256 x = ((block.timestamp - previousBlockTime) * 888) / targetTime;\n\t\tuint ratio = x * 100 / 888 ;\n\t\tuint totalOwed = 0;\n\t\t\n\t\t\n\t\tif(ratio > 100){\n\t\t\t\n\t\t\tslowBlocks = slowBlocks.add(1);\n\t\t\t\n\t\t}\n\t\t\n\t\t//best @ 3000 ratio totalOwed / 100000000 = 71.6\n\t\tif(ratio < 3000){\n\t\t\ttotalOwed = (508606*(15*x**2)).div(888 ** 2)+ (9943920 * (x)).div(888);\n\t\t}else {\n\t\t\ttotalOwed = (24*x*5086060).div(888)+3456750000;\n\t\t}\n\n\n\t\tbalances[mintTo] = balances[mintTo].add((reward_amount * totalOwed).div(100000000));\n\t\tbalances[AddressLPReward] = balances[AddressLPReward].add((reward_amount * totalOwed).div(100000000));\n\t\tbalances[AddressLPReward2] = balances[AddressLPReward2].add((reward_amount * totalOwed).div(100000000));\n\t\t\t\t\n\t\ttokensMinted = tokensMinted.add((reward_amount * totalOwed).div(100000000));\n\t\tpreviousBlockTime = block.timestamp;\n\t\t\n\n\t\temit Mint(msg.sender, (reward_amount * totalOwed).div(100000000), epochCount, challengeNumber );\n\n\t\treturn totalOwed;\n\n\t}\n\n\n\tfunction mintTokensArrayTo(uint256 nonce, bytes32 challenge_digest, address[] memory ExtraFunds, address[] memory MintTo) public returns (uint256 owed) {\n\t\tuint256 totalOd = mintTo(nonce,challenge_digest, MintTo[0]);\n\t\trequire(totalOd > 0, \"mint issue\");\n\n\t\trequire(MintTo.length == ExtraFunds.length + 1,\"MintTo has to have an extra address compared to ExtraFunds\");\n\t\tuint xy=0;\n\t\tfor(xy = 0; xy< ExtraFunds.length; xy++)\n\t\t{\n\t\t\tif(epochCount % (2**(xy+1)) != 0){\n\t\t\t\tbreak;\n\t\t\t}\n\t\t\tfor(uint y=xy+1; y< ExtraFunds.length; y++){\n\t\t\t\trequire(ExtraFunds[y] != ExtraFunds[xy], \"No printing The same tokens\");\n\t\t\t}\n\t\t}\n\t\t\n\t\tuint256 totalOwed = 0;\n\t\tuint256 TotalOwned = 0;\n\t\tfor(uint x=0; x<xy; x++)\n\t\t{\n\t\t\t//epoch count must evenly dividable by 2^n in order to get extra mints. \n\t\t\t//ex. epoch 2 = 1 extramint, epoch 4 = 2 extra, epoch 8 = 3 extra mints, ..., epoch 32 = 5 extra mints w/ a divRound for the 5th mint(allows small balance token minting aka NFTs)\n\t\t\tif(epochCount % (2**(x+1)) == 0){\n\t\t\t\tTotalOwned = IERC20(ExtraFunds[x]).balanceOf(address(this));\n\t\t\t\tif(TotalOwned != 0){\n\t\t\t\t\tif( x % 3 == 0 && x != 0 && totalOd > 17600000 && give == 2){\n\t\t\t\t\t\ttotalOwed = ( (2** rewardEra) *TotalOwned * totalOd).divRound(100000000 * 20000);\n\t\t\t\t\t\t\n\t\t\t\t\t}else{\n\t\t\t\t\t\ttotalOwed = ( (2** rewardEra) * TotalOwned * totalOd).div(100000000 * 20000);\n\t\t\t\t\t}\n\t\t\t\t}\n\t\t\t    IERC20(ExtraFunds[x]).transfer(MintTo[x+1], totalOwed);\n\t\t\t}\n\t\t}\n        \t\n        \t\n\t\temit MegaMint(msg.sender, epochCount, challengeNumber, xy, totalOd );\n\n\t\treturn totalOd;\n\n    }\n\n\tfunction mintTokensSameAddress(uint256 nonce, bytes32 challenge_digest, address[] memory ExtraFunds, address MintTo) public returns (bool success) {\n\t\taddress[] memory dd = new address[](ExtraFunds.length + 1); \n\n\t\tfor(uint x=0; x< (ExtraFunds.length + 1); x++)\n\t\t{\n\t\t\tdd[x] = MintTo;\n\t\t}\n\t\t\n\t\tmintTokensArrayTo(nonce, challenge_digest, ExtraFunds, dd);\n\n\t\treturn true;\n\t}\n\n\n\tfunction empty_mintTo(uint256 nonce, bytes32 challenge_digest, address[] memory ExtraFunds, address[] memory MintTo) public returns (uint256 owed) {\n\t\tbytes32 digest =  keccak256(abi.encodePacked(challengeNumber, msg.sender, nonce));\n\n\t\t//the challenge digest must match the expected\n\t\trequire(digest == challenge_digest, \"Old challenge_digest or wrong challenge_digest\");\n\n\t\t//the digest must be smaller than the target\n\t\trequire(uint256(digest) < miningTarget, \"Digest must be smaller than miningTarget\");\n\t\t_startNewMiningEpoch();\n\n\t\trequire(block.timestamp > previousBlockTime, \"No same second solves\");\n\t\trequire(MintTo.length == ExtraFunds.length,\"MintTo has to have same number of addressses as ExtraFunds\");\n\t\t\n\t\trequire(uint256(digest) < (miningTarget), \"Digest must be smaller than miningTarget\");\n\t\tuint xy=0;\n\t\tfor(xy = 0; xy< ExtraFunds.length; xy++)\n\t\t{\n\t\t\tif(epochCount % (2**(xy+1)) != 0){\n\t\t\t\tbreak;\n\t\t\t}\n\t\t\tfor(uint y=xy+1; y< ExtraFunds.length; y++){\n\t\t\t\trequire(ExtraFunds[y] != ExtraFunds[xy], \"No printing The same tokens\");\n\t\t\t}\n\t\t}\n\n\t\tuint256 x = ((block.timestamp - previousBlockTime) * 888) / targetTime;\n\t\tuint ratio = x * 100 / 888 ;\n\t\tuint totalOwed = 0;\n\n\t\t\n\t\tif(ratio > 100){\n\t\t\t\n\t\t\tslowBlocks = slowBlocks.add(1);\n\t\t\t\n\t\t}\n\t\tif(ratio < 3000){\n\t\t\ttotalOwed = (508606*(15*x**2)).div(888 ** 2)+ (9943920 * (x)).div(888);\n\t\t}else {\n\t\t\ttotalOwed = (24*x*5086060).div(888)+3456750000;\n\t\t\t\n\t\t}\n\n\t\tuint256 TotalOwned;\n\t\tfor(uint z=0; z<xy; z++)\n\t\t{\n\t\t\t//epoch count must evenly dividable by 2^n in order to get extra mints. \n\t\t\t//ex. epoch 2 = 1 extramint, epoch 4 = 2 extra, epoch 8 = 3 extra mints, epoch 16 = 4 extra mints w/ a divRound for the 4th mint(allows small balance token minting aka NFTs)\n\t\t\tif(epochCount % (2**(x+1)) == 0){\n\t\t\t\tTotalOwned = IERC20(ExtraFunds[x]).balanceOf(address(this));\n\t\t\t\tif(TotalOwned != 0){\n\t\t\t\t\tif( x % 3 == 0 && x != 0 && totalOwed > 17600000 && give == 2 ){\n\t\t\t\t\t\ttotalOwed = ( (2** rewardEra) * TotalOwned * totalOwed).divRound(100000000 * 20000);\n\t\t\t\t\t}else{\n\t\t\t\t\t\ttotalOwed = ( (2** rewardEra) * TotalOwned * totalOwed).div(100000000 * 20000 );\n\t\t\t\t    }\n\t\t\t    \tIERC20(ExtraFunds[x]).transfer(MintTo[x], totalOwed);\n\n           \t\t}\n       \t\t}\n\t\t}\n\t\tpreviousBlockTime = block.timestamp;\n\t\treturn totalOwed;   \n\t}\n\n\n\n\tfunction _startNewMiningEpoch() internal {\n\n\n\t\t//if max supply for the era will be exceeded next reward round then enter the new era before that happens\n\t\t//59 is the final reward era, almost all tokens minted\n\t\tif( tokensMinted.add(reward_amount) > maxSupplyForEra && rewardEra < 15)\n\t\t{\n\t\t\trewardEra = rewardEra + 1;\n\t\t\tmaxSupplyForEra = _totalSupply - _totalSupply.div( 2**(rewardEra + 1));\n\t\t\tif(rewardEra < 8){\n\t\t\t\ttargetTime = ((12 * 60) * 2**rewardEra);\n\t\t\t\tif(rewardEra < 6){\n\t\t\t\t\tif(_BLOCKS_PER_READJUSTMENT <= 16){\n\t\t\t\t\t\t_BLOCKS_PER_READJUSTMENT = 8;\n\t\t\t\t\t}else{\n\t\t\t\t\t\t_BLOCKS_PER_READJUSTMENT = _BLOCKS_PER_READJUSTMENT / 2;\n\t\t\t\t\t}\n\t\t\t\t}\n\t\t\t}else{\n\t\t\t\treward_amount = ( 20 * 10**uint(decimals)).div( 2**(rewardEra - 7  ) );\n\t\t\t}\n\t\t}\n\n\t\t//set the next minted supply at which the era will change\n\t\t// total supply of MINED tokens is 21000000000000000000000000  because of 18 decimal places\n\n\t\tepochCount = epochCount.add(1);\n\n\t\t//every so often, readjust difficulty. Dont readjust when deploying\n\t\tif((epochCount) % (_BLOCKS_PER_READJUSTMENT / 8) == 0)\n\t\t{\n\t\t\tARewardSender();\n\t\t\tmaxSupplyForEra = _totalSupply - _totalSupply.div( 2**(rewardEra + 1));\n\n\t\t\tuint256 blktimestamp = block.timestamp;\n\t\t\tuint TimeSinceLastDifficultyPeriod2 = blktimestamp - latestreAdjustStarted;\n\t\t\tuint adjusDiffTargetTime = targetTime *  (_BLOCKS_PER_READJUSTMENT / 8) ; \n\t\t\tlatestreAdjustStarted = block.timestamp;\n\n\t\t\tif( TimeSinceLastDifficultyPeriod2 > adjusDiffTargetTime)\n\t\t\t{\n\t\t\t\t_reAdjustDifficulty();\n\t\t\t}\n\t\t}else if((epochCount - epochOld) % _BLOCKS_PER_READJUSTMENT == 0){\n\t\t\t_reAdjustDifficulty();\n\t\t\tARewardSender();\n\n\t\t}\n\n\t\tchallengeNumber = blockhash(block.number - 1);\n        \n }\n\n\n\tfunction _reAdjustDifficulty() internal {\n\n\t\tuint256 blktimestamp = block.timestamp;\n\t\tuint TimeSinceLastDifficultyPeriod2 = blktimestamp - latestDifficultyPeriodStarted2;\n\t\tuint epochTotal = epochCount - epochOld;\n\t\tuint adjusDiffTargetTime = targetTime *  epochTotal; \n\t\tepochOld = epochCount;\n\n\t\t//if there were less eth blocks passed in time than expected\n\t\tif( TimeSinceLastDifficultyPeriod2 < adjusDiffTargetTime )\n\t\t{\n\t\t\tuint excess_block_pct = (adjusDiffTargetTime.mult(100)).div( TimeSinceLastDifficultyPeriod2 );\n\t\t\tgive = 1;\n\t\t\tuint excess_block_pct_extra = excess_block_pct.sub(100).limitLessThan(1000);\n\t\t\t//make it harder \n\t\t\tminingTarget = miningTarget.sub(miningTarget.div(2000).mult(excess_block_pct_extra));   //by up to 50 %\n\t\t}else{\n\t\t\tuint shortage_block_pct = (TimeSinceLastDifficultyPeriod2.mult(100)).div( adjusDiffTargetTime );\n\t\t\tgive = 2;\n\t\t\tuint shortage_block_pct_extra = shortage_block_pct.sub(100).limitLessThan(1000); //always between 0 and 1000\n\t\t\t//make it easier\n\t\t\tminingTarget = miningTarget.add(miningTarget.div(500).mult(shortage_block_pct_extra));   //by up to 200 %\n\t\t}\n\n\t\tlatestDifficultyPeriodStarted2 = blktimestamp;\n\t\tlatestDifficultyPeriodStarted = block.number;\n\t\tif(miningTarget < _MINIMUM_TARGET) //very difficult\n\t\t{\n\t\t\tminingTarget = _MINIMUM_TARGET;\n\t\t}\n\t\tif(miningTarget > _MAXIMUM_TARGET) //very easy\n\t\t{\n\t\t\tminingTarget = _MAXIMUM_TARGET;\n\t\t}\n\t\t\n\t}\n\n\n\n\t//help debug mining software\n\tfunction checkMintSolution(uint256 nonce, bytes32 challenge_digest, bytes32 challenge_number, uint testTarget) public view returns (bool success) {\n\t\tbytes32 digest = bytes32(keccak256(abi.encodePacked(challenge_number,msg.sender,nonce)));\n\t\tif(uint256(digest) > testTarget) revert();\n\n\t\treturn (digest == challenge_digest);\n\t}\n\n\n\t//this is a recent ethereum block hash, used to prevent pre-mining future blocks\n\tfunction getChallengeNumber() public view returns (bytes32) {\n\n\t\treturn challengeNumber;\n\n\t}\n\n\n\t//the number of zeroes the digest of the PoW solution requires.  Auto adjusts\n\tfunction getMiningDifficulty() public view returns (uint) {\n\t\t\treturn _MAXIMUM_TARGET.div(miningTarget);\n\t}\n\n\n\tfunction getMiningTarget() public view returns (uint) {\n\t\t\treturn (miningTarget);\n\t}\n\n\n\tfunction getMiningMinted() public view returns (uint) {\n\t\treturn tokensMinted;\n\t}\n\n    function getCirculatingSupply() public view returns (uint) {\n        return tokensMinted * 3 + AuctionsCT.totalAuctioned();\n    }\n\t//21m coins total\n\t//reward begins at 150 and is cut in half every reward era (as tokens are mined)\n\tfunction getMiningReward() public view returns (uint) {\n\t\t//once we get half way thru the coins, only get 25 per block\n\t\t//every reward era, the reward amount halves.\n\n\t\tif(rewardEra < 8){\n\t\t\treturn ( 20 * 10**uint(decimals));\n\t\t}else{\n\t\t\treturn ( 20 * 10**uint(decimals)).div( 2**(rewardEra - 7  ) );\n\t\t}\n\t\t}\n\n\n\tfunction getEpoch() public view returns (uint) {\n\n\t\treturn epochCount ;\n\n\t}\n\n\n\t//help debug mining software\n\tfunction getMintDigest(uint256 nonce, bytes32 challenge_digest, bytes32 challenge_number) public view returns (bytes32 digesttest) {\n\n\t\tbytes32 digest =  keccak256(abi.encodePacked(challengeNumber, msg.sender, nonce));\n\n\t\treturn digest;\n\n\t}\n\n\n\t\t// ------------------------------------------------------------------------\n\n\t\t// Get the token balance for account `tokenOwner`\n\n\t\t// ------------------------------------------------------------------------\n\n\tfunction balanceOf(address tokenOwner) public override view returns (uint balance) {\n\n\t\treturn balances[tokenOwner];\n\n\t}\n\n\n\t\t// ------------------------------------------------------------------------\n\n\t\t// Transfer the balance from token owner's account to `to` account\n\n\t\t// - Owner's account must have sufficient balance to transfer\n\n\t\t// - 0 value transfers are allowed\n\n\t\t// ------------------------------------------------------------------------\n\n\n\tfunction transfer(address to, uint tokens) public override returns (bool success) {\n\n\t\tbalances[msg.sender] = balances[msg.sender].sub(tokens);\n\t\tbalances[to] = balances[to].add(tokens);\n\n\t\temit Transfer(msg.sender, to, tokens);\n\n\t\treturn true;\n\n\t}\n\n\n\t\t// ------------------------------------------------------------------------\n\n\t\t// Token owner can approve for `spender` to transferFrom(...) `tokens`\n\n\t\t// from the token owner's account\n\n\t\t//\n\n\t\t// https://github.com/ethereum/EIPs/blob/master/EIPS/eip-20-token-standard.md\n\n\t\t// recommends that there are no checks for the approval double-spend attack\n\n\t\t// as this should be implemented in user interfaces\n\n\t\t// ------------------------------------------------------------------------\n\n\n\tfunction approve(address spender, uint tokens) public override returns (bool success) {\n\n\t\tallowed[msg.sender][spender] = tokens;\n\n\t\temit Approval(msg.sender, spender, tokens);\n\n\t\treturn true;\n\n\t}\n\n\n\t\t// ------------------------------------------------------------------------\n\n\t\t// Transfer `tokens` from the `from` account to the `to` account\n\n\t\t//\n\n\t\t// The calling account must already have sufficient tokens approve(...)-d\n\n\t\t// for spending from the `from` account and\n\n\t\t// - From account must have sufficient balance to transfer\n\n\t\t// - Spender must have sufficient allowance to transfer\n\n\t\t// - 0 value transfers are allowed\n\n\t\t// ------------------------------------------------------------------------\n\n\n\tfunction transferFrom(address from, address to, uint tokens) public override returns (bool success) {\n\n\t\tbalances[from] = balances[from].sub(tokens);\n\t\tallowed[from][msg.sender] = allowed[from][msg.sender].sub(tokens);\n\t\tbalances[to] = balances[to].add(tokens);\n\n\t\temit Transfer(from, to, tokens);\n\n\t\treturn true;\n\n\t}\n\n\n\t\t// ------------------------------------------------------------------------\n\n\t\t// Returns the amount of tokens approved by the owner that can be\n\n\t\t// transferred to the spender's account\n\n\t\t// ------------------------------------------------------------------------\n\n\n\tfunction allowance(address tokenOwner, address spender) public override view returns (uint remaining) {\n\n\t\treturn allowed[tokenOwner][spender];\n\n\t}\n\n\n\n\n\t  //Allow ETH to enter\n\treceive() external payable {\n\n\t}\n\n\n\tfallback() external payable {\n\n\t}\n}\n\n/*\n*\n* MIT License\n* ===========\n*\n* Copyright (c) 2022 Arbitrum Bitcoin and Staking (ABAS)\n*\n* Permission is hereby granted, free of charge, to any person obtaining a copy\n* of this software and associated documentation files (the \"Software\"), to deal\n* in the Software without restriction, including without limitation the rights\n* to use, copy, modify, merge, publish, distribute, sublicense, and/or sell\n* copies of the Software, and to permit persons to whom the Software is\n* furnished to do so, subject to the following conditions:\n*\n* The above copyright notice and this permission notice shall be included in all\n* copies or substantial portions of the Software.   \n*\n* THE SOFTWARE IS PROVIDED \"AS IS\", WITHOUT WARRANTY OF ANY KIND, EXPRESS OR\n* IMPLIED, INCLUDING BUT NOT LIMITED TO THE WARRANTIES OF MERCHANTABILITY,\n* FITNESS FOR A PARTICULAR PURPOSE AND NONINFRINGEMENT. IN NO EVENT SHALL THE\n* AUTHORS OR COPYRIGHT HOLDERS BE LIABLE FOR ANY CLAIM, DAMAGES OR OTHER\n* LIABILITY, WHETHER IN AN ACTION OF CONTRACT, TORT OR OTHERWISE, ARISING FROM,\n* OUT OF OR IN CONNECTION WITH THE SOFTWARE OR THE USE OR OTHER DEALINGS IN THE\n*/\n",
  "sourcePath": "contracts/ABAS.sol",
  "type": "contract"
}