{
  "abi": [
    {
      "inputs": [],
      "stateMutability": "nonpayable",
      "type": "constructor"
    },
    {
      "anonymous": false,
      "inputs": [
        {
          "indexed": true,
          "internalType": "address",
          "name": "payer",
          "type": "address"
        },
        {
          "indexed": true,
          "internalType": "address",
          "name": "member",
          "type": "address"
        },
        {
          "indexed": false,
          "internalType": "uint256",
          "name": "era",
          "type": "uint256"
        },
        {
          "indexed": false,
          "internalType": "uint256",
          "name": "day",
          "type": "uint256"
        },
        {
          "indexed": false,
          "internalType": "uint256",
          "name": "units",
          "type": "uint256"
        },
        {
          "indexed": false,
          "internalType": "uint256",
          "name": "dailyTotal",
          "type": "uint256"
        }
      ],
      "name": "Burn",
      "type": "event"
    },
    {
      "anonymous": false,
      "inputs": [
        {
          "indexed": true,
          "internalType": "address",
          "name": "payer",
          "type": "address"
        },
        {
          "indexed": true,
          "internalType": "address",
          "name": "member",
          "type": "address"
        },
        {
          "indexed": false,
          "internalType": "uint256",
          "name": "era",
          "type": "uint256"
        },
        {
          "indexed": false,
          "internalType": "uint256",
          "name": "NumberOfDays",
          "type": "uint256"
        },
        {
          "indexed": false,
          "internalType": "uint256",
          "name": "totalUnits",
          "type": "uint256"
        }
      ],
      "name": "BurnMultipleDays",
      "type": "event"
    },
    {
      "anonymous": false,
      "inputs": [
        {
          "indexed": true,
          "internalType": "address",
          "name": "caller",
          "type": "address"
        },
        {
          "indexed": true,
          "internalType": "address",
          "name": "member",
          "type": "address"
        },
        {
          "indexed": false,
          "internalType": "uint256",
          "name": "era",
          "type": "uint256"
        },
        {
          "indexed": false,
          "internalType": "uint256",
          "name": "TotalDays",
          "type": "uint256"
        },
        {
          "indexed": false,
          "internalType": "uint256",
          "name": "stricttotal",
          "type": "uint256"
        }
      ],
      "name": "MegaWithdrawal",
      "type": "event"
    },
    {
      "anonymous": false,
      "inputs": [
        {
          "indexed": false,
          "internalType": "uint256",
          "name": "era",
          "type": "uint256"
        },
        {
          "indexed": false,
          "internalType": "uint256",
          "name": "day",
          "type": "uint256"
        },
        {
          "indexed": false,
          "internalType": "uint256",
          "name": "time",
          "type": "uint256"
        },
        {
          "indexed": false,
          "internalType": "uint256",
          "name": "previousDayTotal",
          "type": "uint256"
        },
        {
          "indexed": false,
          "internalType": "uint256",
          "name": "previousDayMembers",
          "type": "uint256"
        }
      ],
      "name": "NewDay",
      "type": "event"
    },
    {
      "anonymous": false,
      "inputs": [
        {
          "indexed": false,
          "internalType": "uint256",
          "name": "era",
          "type": "uint256"
        },
        {
          "indexed": false,
          "internalType": "uint256",
          "name": "emission",
          "type": "uint256"
        },
        {
          "indexed": false,
          "internalType": "uint256",
          "name": "totalBurnt",
          "type": "uint256"
        }
      ],
      "name": "NewEra",
      "type": "event"
    },
    {
      "anonymous": false,
      "inputs": [
        {
          "indexed": false,
          "internalType": "uint256",
          "name": "_prev",
          "type": "uint256"
        },
        {
          "indexed": false,
          "internalType": "uint256",
          "name": "_new",
          "type": "uint256"
        }
      ],
      "name": "SetExtraGas",
      "type": "event"
    },
    {
      "anonymous": false,
      "inputs": [
        {
          "indexed": false,
          "internalType": "address",
          "name": "_from",
          "type": "address"
        },
        {
          "indexed": false,
          "internalType": "address",
          "name": "_to",
          "type": "address"
        }
      ],
      "name": "TransferOwnership",
      "type": "event"
    },
    {
      "anonymous": false,
      "inputs": [
        {
          "indexed": true,
          "internalType": "address",
          "name": "caller",
          "type": "address"
        },
        {
          "indexed": true,
          "internalType": "address",
          "name": "member",
          "type": "address"
        },
        {
          "indexed": false,
          "internalType": "uint256",
          "name": "era",
          "type": "uint256"
        },
        {
          "indexed": false,
          "internalType": "uint256",
          "name": "day",
          "type": "uint256"
        },
        {
          "indexed": false,
          "internalType": "uint256",
          "name": "value",
          "type": "uint256"
        },
        {
          "indexed": false,
          "internalType": "uint256",
          "name": "vetherRemaining",
          "type": "uint256"
        }
      ],
      "name": "Withdrawal",
      "type": "event"
    },
    {
      "inputs": [],
      "name": "ABASMiningToken",
      "outputs": [
        {
          "internalType": "contract ABASMining",
          "name": "",
          "type": "address"
        }
      ],
      "stateMutability": "view",
      "type": "function"
    },
    {
      "inputs": [],
      "name": "AddressForgeToken",
      "outputs": [
        {
          "internalType": "address",
          "name": "",
          "type": "address"
        }
      ],
      "stateMutability": "view",
      "type": "function"
    },
    {
      "inputs": [],
      "name": "AddressZeroXBTC",
      "outputs": [
        {
          "internalType": "address",
          "name": "",
          "type": "address"
        }
      ],
      "stateMutability": "view",
      "type": "function"
    },
    {
      "inputs": [
        {
          "internalType": "address",
          "name": "_member",
          "type": "address"
        }
      ],
      "name": "Check_Withdraw_Amt",
      "outputs": [
        {
          "internalType": "uint256",
          "name": "amt",
          "type": "uint256"
        }
      ],
      "stateMutability": "view",
      "type": "function"
    },
    {
      "inputs": [
        {
          "internalType": "uint256",
          "name": "_era",
          "type": "uint256"
        },
        {
          "internalType": "uint256[]",
          "name": "fdays",
          "type": "uint256[]"
        },
        {
          "internalType": "address",
          "name": "_member",
          "type": "address"
        }
      ],
      "name": "Check_Withdrawls_Days",
      "outputs": [
        {
          "internalType": "uint256",
          "name": "check",
          "type": "uint256"
        }
      ],
      "stateMutability": "view",
      "type": "function"
    },
    {
      "inputs": [
        {
          "internalType": "uint256",
          "name": "_era",
          "type": "uint256"
        },
        {
          "internalType": "uint256[]",
          "name": "fdays",
          "type": "uint256[]"
        },
        {
          "internalType": "address",
          "name": "_member",
          "type": "address"
        },
        {
          "internalType": "uint256[]",
          "name": "_0xAmount",
          "type": "uint256[]"
        }
      ],
      "name": "FutureBurn0xArrays",
      "outputs": [
        {
          "internalType": "bool",
          "name": "success",
          "type": "bool"
        }
      ],
      "stateMutability": "payable",
      "type": "function"
    },
    {
      "inputs": [
        {
          "internalType": "uint256",
          "name": "_era",
          "type": "uint256"
        },
        {
          "internalType": "uint256",
          "name": "startingday",
          "type": "uint256"
        },
        {
          "internalType": "uint256",
          "name": "totalNumberrOfDays",
          "type": "uint256"
        },
        {
          "internalType": "address",
          "name": "_member",
          "type": "address"
        }
      ],
      "name": "FutureBurn0xEasier",
      "outputs": [
        {
          "internalType": "bool",
          "name": "success",
          "type": "bool"
        }
      ],
      "stateMutability": "payable",
      "type": "function"
    },
    {
      "inputs": [
        {
          "internalType": "address",
          "name": "member",
          "type": "address"
        }
      ],
      "name": "WholeEraBurn0xForMember",
      "outputs": [
        {
          "internalType": "bool",
          "name": "success",
          "type": "bool"
        }
      ],
      "stateMutability": "payable",
      "type": "function"
    },
    {
      "inputs": [],
      "name": "WithdrawEasiest",
      "outputs": [],
      "stateMutability": "nonpayable",
      "type": "function"
    },
    {
      "inputs": [
        {
          "internalType": "address",
          "name": "_member",
          "type": "address"
        }
      ],
      "name": "WithdrawEz",
      "outputs": [],
      "stateMutability": "nonpayable",
      "type": "function"
    },
    {
      "inputs": [
        {
          "internalType": "uint256",
          "name": "_era",
          "type": "uint256"
        },
        {
          "internalType": "uint256[]",
          "name": "fdays",
          "type": "uint256[]"
        },
        {
          "internalType": "address",
          "name": "_member",
          "type": "address"
        }
      ],
      "name": "WithdrawlsDays",
      "outputs": [
        {
          "internalType": "bool",
          "name": "success",
          "type": "bool"
        }
      ],
      "stateMutability": "nonpayable",
      "type": "function"
    },
    {
      "inputs": [
        {
          "internalType": "address",
          "name": "",
          "type": "address"
        }
      ],
      "name": "ZmapMember_DayClaimedTo",
      "outputs": [
        {
          "internalType": "uint256",
          "name": "",
          "type": "uint256"
        }
      ],
      "stateMutability": "view",
      "type": "function"
    },
    {
      "inputs": [
        {
          "internalType": "address",
          "name": "",
          "type": "address"
        }
      ],
      "name": "ZmapMember_EraClaimedTo",
      "outputs": [
        {
          "internalType": "uint256",
          "name": "",
          "type": "uint256"
        }
      ],
      "stateMutability": "view",
      "type": "function"
    },
    {
      "inputs": [
        {
          "internalType": "address",
          "name": "member",
          "type": "address"
        }
      ],
      "name": "burn0xForMember",
      "outputs": [
        {
          "internalType": "bool",
          "name": "success",
          "type": "bool"
        }
      ],
      "stateMutability": "payable",
      "type": "function"
    },
    {
      "inputs": [],
      "name": "currentDay",
      "outputs": [
        {
          "internalType": "uint256",
          "name": "",
          "type": "uint256"
        }
      ],
      "stateMutability": "view",
      "type": "function"
    },
    {
      "inputs": [],
      "name": "currentEra",
      "outputs": [
        {
          "internalType": "uint256",
          "name": "",
          "type": "uint256"
        }
      ],
      "stateMutability": "view",
      "type": "function"
    },
    {
      "inputs": [],
      "name": "daysPerEra",
      "outputs": [
        {
          "internalType": "uint256",
          "name": "",
          "type": "uint256"
        }
      ],
      "stateMutability": "view",
      "type": "function"
    },
    {
      "inputs": [],
      "name": "decimals",
      "outputs": [
        {
          "internalType": "uint256",
          "name": "",
          "type": "uint256"
        }
      ],
      "stateMutability": "view",
      "type": "function"
    },
    {
      "inputs": [],
      "name": "emission",
      "outputs": [
        {
          "internalType": "uint256",
          "name": "",
          "type": "uint256"
        }
      ],
      "stateMutability": "view",
      "type": "function"
    },
    {
      "inputs": [],
      "name": "extraGas",
      "outputs": [
        {
          "internalType": "uint256",
          "name": "",
          "type": "uint256"
        }
      ],
      "stateMutability": "view",
      "type": "function"
    },
    {
      "inputs": [],
      "name": "getDayEmission",
      "outputs": [
        {
          "internalType": "uint256",
          "name": "",
          "type": "uint256"
        }
      ],
      "stateMutability": "view",
      "type": "function"
    },
    {
      "inputs": [
        {
          "internalType": "address",
          "name": "member",
          "type": "address"
        },
        {
          "internalType": "uint256",
          "name": "era",
          "type": "uint256"
        }
      ],
      "name": "getDaysContributedForEra",
      "outputs": [
        {
          "internalType": "uint256",
          "name": "",
          "type": "uint256"
        }
      ],
      "stateMutability": "view",
      "type": "function"
    },
    {
      "inputs": [
        {
          "internalType": "uint256",
          "name": "era",
          "type": "uint256"
        },
        {
          "internalType": "uint256",
          "name": "day",
          "type": "uint256"
        },
        {
          "internalType": "address",
          "name": "member",
          "type": "address"
        }
      ],
      "name": "getEmissionShare",
      "outputs": [
        {
          "internalType": "uint256",
          "name": "value",
          "type": "uint256"
        }
      ],
      "stateMutability": "view",
      "type": "function"
    },
    {
      "inputs": [],
      "name": "getNextEraEmission",
      "outputs": [
        {
          "internalType": "uint256",
          "name": "",
          "type": "uint256"
        }
      ],
      "stateMutability": "view",
      "type": "function"
    },
    {
      "inputs": [],
      "name": "getSecondsPerDay",
      "outputs": [
        {
          "internalType": "uint256",
          "name": "",
          "type": "uint256"
        }
      ],
      "stateMutability": "view",
      "type": "function"
    },
    {
      "inputs": [],
      "name": "lastMinted",
      "outputs": [
        {
          "internalType": "uint256",
          "name": "",
          "type": "uint256"
        }
      ],
      "stateMutability": "view",
      "type": "function"
    },
    {
      "inputs": [
        {
          "internalType": "uint256",
          "name": "",
          "type": "uint256"
        },
        {
          "internalType": "uint256",
          "name": "",
          "type": "uint256"
        }
      ],
      "name": "mapEraDay_EmissionRemaining",
      "outputs": [
        {
          "internalType": "uint256",
          "name": "",
          "type": "uint256"
        }
      ],
      "stateMutability": "view",
      "type": "function"
    },
    {
      "inputs": [
        {
          "internalType": "uint256",
          "name": "",
          "type": "uint256"
        },
        {
          "internalType": "uint256",
          "name": "",
          "type": "uint256"
        }
      ],
      "name": "mapEraDay_MemberCount",
      "outputs": [
        {
          "internalType": "uint256",
          "name": "",
          "type": "uint256"
        }
      ],
      "stateMutability": "view",
      "type": "function"
    },
    {
      "inputs": [
        {
          "internalType": "uint256",
          "name": "",
          "type": "uint256"
        },
        {
          "internalType": "uint256",
          "name": "",
          "type": "uint256"
        },
        {
          "internalType": "address",
          "name": "",
          "type": "address"
        }
      ],
      "name": "mapEraDay_MemberUnits",
      "outputs": [
        {
          "internalType": "uint256",
          "name": "",
          "type": "uint256"
        }
      ],
      "stateMutability": "view",
      "type": "function"
    },
    {
      "inputs": [
        {
          "internalType": "uint256",
          "name": "",
          "type": "uint256"
        },
        {
          "internalType": "uint256",
          "name": "",
          "type": "uint256"
        },
        {
          "internalType": "uint256",
          "name": "",
          "type": "uint256"
        }
      ],
      "name": "mapEraDay_Members",
      "outputs": [
        {
          "internalType": "address",
          "name": "",
          "type": "address"
        }
      ],
      "stateMutability": "view",
      "type": "function"
    },
    {
      "inputs": [
        {
          "internalType": "uint256",
          "name": "",
          "type": "uint256"
        },
        {
          "internalType": "uint256",
          "name": "",
          "type": "uint256"
        }
      ],
      "name": "mapEraDay_Units",
      "outputs": [
        {
          "internalType": "uint256",
          "name": "",
          "type": "uint256"
        }
      ],
      "stateMutability": "view",
      "type": "function"
    },
    {
      "inputs": [
        {
          "internalType": "uint256",
          "name": "",
          "type": "uint256"
        },
        {
          "internalType": "uint256",
          "name": "",
          "type": "uint256"
        }
      ],
      "name": "mapEraDay_UnitsRemaining",
      "outputs": [
        {
          "internalType": "uint256",
          "name": "",
          "type": "uint256"
        }
      ],
      "stateMutability": "view",
      "type": "function"
    },
    {
      "inputs": [
        {
          "internalType": "uint256",
          "name": "",
          "type": "uint256"
        }
      ],
      "name": "mapEra_Emission",
      "outputs": [
        {
          "internalType": "uint256",
          "name": "",
          "type": "uint256"
        }
      ],
      "stateMutability": "view",
      "type": "function"
    },
    {
      "inputs": [
        {
          "internalType": "address",
          "name": "",
          "type": "address"
        },
        {
          "internalType": "uint256",
          "name": "",
          "type": "uint256"
        },
        {
          "internalType": "uint256",
          "name": "",
          "type": "uint256"
        }
      ],
      "name": "mapMemberEra_Days",
      "outputs": [
        {
          "internalType": "uint256",
          "name": "",
          "type": "uint256"
        }
      ],
      "stateMutability": "view",
      "type": "function"
    },
    {
      "inputs": [],
      "name": "name",
      "outputs": [
        {
          "internalType": "string",
          "name": "",
          "type": "string"
        }
      ],
      "stateMutability": "view",
      "type": "function"
    },
    {
      "inputs": [],
      "name": "nextDayTime",
      "outputs": [
        {
          "internalType": "uint256",
          "name": "",
          "type": "uint256"
        }
      ],
      "stateMutability": "view",
      "type": "function"
    },
    {
      "inputs": [],
      "name": "owner22",
      "outputs": [
        {
          "internalType": "address",
          "name": "",
          "type": "address"
        }
      ],
      "stateMutability": "view",
      "type": "function"
    },
    {
      "inputs": [],
      "name": "secondsPerDay",
      "outputs": [
        {
          "internalType": "uint256",
          "name": "",
          "type": "uint256"
        }
      ],
      "stateMutability": "view",
      "type": "function"
    },
    {
      "inputs": [],
      "name": "totalAuctioned",
      "outputs": [
        {
          "internalType": "uint256",
          "name": "",
          "type": "uint256"
        }
      ],
      "stateMutability": "view",
      "type": "function"
    },
    {
      "inputs": [],
      "name": "totalBurnt",
      "outputs": [
        {
          "internalType": "uint256",
          "name": "",
          "type": "uint256"
        }
      ],
      "stateMutability": "view",
      "type": "function"
    },
    {
      "inputs": [],
      "name": "totalEmitted",
      "outputs": [
        {
          "internalType": "uint256",
          "name": "",
          "type": "uint256"
        }
      ],
      "stateMutability": "view",
      "type": "function"
    },
    {
      "inputs": [
        {
          "internalType": "uint256",
          "name": "era",
          "type": "uint256"
        },
        {
          "internalType": "uint256",
          "name": "day",
          "type": "uint256"
        }
      ],
      "name": "withdrawShare",
      "outputs": [
        {
          "internalType": "uint256",
          "name": "value",
          "type": "uint256"
        }
      ],
      "stateMutability": "nonpayable",
      "type": "function"
    },
    {
      "inputs": [
        {
          "internalType": "uint256",
          "name": "era",
          "type": "uint256"
        },
        {
          "internalType": "uint256",
          "name": "day",
          "type": "uint256"
        },
        {
          "internalType": "address",
          "name": "member",
          "type": "address"
        }
      ],
      "name": "withdrawShareForMember",
      "outputs": [
        {
          "internalType": "uint256",
          "name": "value",
          "type": "uint256"
        }
      ],
      "stateMutability": "nonpayable",
      "type": "function"
    },
    {
      "inputs": [
        {
          "internalType": "address",
          "name": "token",
          "type": "address"
        }
      ],
      "name": "zSetUP1",
      "outputs": [],
      "stateMutability": "nonpayable",
      "type": "function"
    },
    {
      "inputs": [
        {
          "internalType": "uint256",
          "name": "newMaxDay",
          "type": "uint256"
        },
        {
          "internalType": "uint256",
          "name": "newMaxEra",
          "type": "uint256"
        }
      ],
      "name": "z_ChangeMaxWithdrawl",
      "outputs": [
        {
          "internalType": "bool",
          "name": "success",
          "type": "bool"
        }
      ],
      "stateMutability": "nonpayable",
      "type": "function"
    },
    {
      "inputs": [
        {
          "internalType": "address",
          "name": "tokenAddress",
          "type": "address"
        }
      ],
      "name": "z_transferERC20TokenToMinerContract",
      "outputs": [
        {
          "internalType": "bool",
          "name": "success",
          "type": "bool"
        }
      ],
      "stateMutability": "nonpayable",
      "type": "function"
    },
    {
      "stateMutability": "payable",
      "type": "receive"
    }
  ],
  "bytecode": "60806040526005805460ff19908116909155670de0b6b3a76400006006556305f5e1006007556000600e8190556021556022805490911690553480156200004557600080fd5b50600180546001600160a01b03191633908117909155604080516000815260208101929092527f5c486528ec3e3f0ea91181cff8116f02bfa350e03b8b6f12e00765adbb5af85c910160405180910390a16040805180820190915260158082527f414241532041756374696f6e20436f6e747261637400000000000000000000006020909201918252620000dc916008916200017b565b5060126009819055620000f190600a62000336565b600c81905562000104906108006200034b565b600d556001600f81905560105560966011556213c68060128190556000601481905560155562000137906127106200034b565b6200014390426200036d565b601355600d54600f8054600090815260166020908152604080832085905592548252601b8152828220601054835290522055620003c4565b828054620001899062000388565b90600052602060002090601f016020900481019282620001ad5760008555620001f8565b82601f10620001c857805160ff1916838001178555620001f8565b82800160010185558215620001f8579182015b82811115620001f8578251825591602001919060010190620001db565b50620002069291506200020a565b5090565b5b808211156200020657600081556001016200020b565b634e487b7160e01b600052601160045260246000fd5b600181815b80851115620002785781600019048211156200025c576200025c62000221565b808516156200026a57918102915b93841c93908002906200023c565b509250929050565b600082620002915750600162000330565b81620002a05750600062000330565b8160018114620002b95760028114620002c457620002e4565b600191505062000330565b60ff841115620002d857620002d862000221565b50506001821b62000330565b5060208310610133831016604e8410600b841016171562000309575081810a62000330565b62000315838362000237565b80600019048211156200032c576200032c62000221565b0290505b92915050565b600062000344838362000280565b9392505050565b600081600019048311821515161562000368576200036862000221565b500290565b6000821982111562000383576200038362000221565b500190565b600181811c908216806200039d57607f821691505b602082108103620003be57634e487b7160e01b600052602260045260246000fd5b50919050565b61276080620003d46000396000f3fe6080604052600436106102815760003560e01c80638bd56d401161014f578063c8b9ee6f116100c1578063ee1f84c31161007a578063ee1f84c3146107e6578063effbcf7214610806578063f1261e9214610826578063fc5c88fc14610846578063fee05d621461085b578063ffb671861461087157600080fd5b8063c8b9ee6f146106fe578063cb65ee9214610713578063dac679ec14610740578063dc3222a614610778578063df0244b1146107bb578063e82481cf146107d157600080fd5b8063a5a1ba2111610113578063a5a1ba211461063d578063a8db5f5214610675578063b36a8ff214610688578063bbc19ab0146106a8578063bdf75661146106be578063c31842e1146106de57600080fd5b80638bd56d4014610599578063960bc0f1146105b95780639618f7a8146105d9578063966ff65014610611578063973628f61461062757600080fd5b8063510de094116101f3578063787b4a8c116101ac578063787b4a8c146104ee5780637c38a21b14610501578063827c049e146105215780638454ed271461053757806389b86db5146105645780638aab30d31461057957600080fd5b8063510de0941461040c5780635a723dc61461042c5780635c9302c91461044c57806360b2925914610462578063638099531461049a57806377217a89146104b057600080fd5b8063313ce56711610245578063313ce5671461036a57806333c2a419146103805780633767e339146103935780633ac1c863146103a95780633db9a7ec146103bf57806349e8a6ad146103df57600080fd5b806306fdde03146102965780630e21f7b4146102c157806323ba5324146102f95780632a423be8146103195780632f85e4301461034757600080fd5b366102915761028f33610887565b005b600080fd5b3480156102a257600080fd5b506102ab61093e565b6040516102b891906122a9565b60405180910390f35b3480156102cd57600080fd5b506102e16102dc3660046122fe565b6109cc565b6040516001600160a01b0390911681526020016102b8565b34801561030557600080fd5b506001546102e1906001600160a01b031681565b34801561032557600080fd5b5061033961033436600461232a565b610a11565b6040519081526020016102b8565b61035a610355366004612368565b610a55565b60405190151581526020016102b8565b34801561037657600080fd5b5061033960095481565b61035a61038e366004612383565b610a90565b34801561039f57600080fd5b5061033960045481565b3480156103b557600080fd5b5061033960115481565b3480156103cb57600080fd5b506103396103da3660046123c2565b610bb5565b3480156103eb57600080fd5b506103396103fa366004612368565b601e6020526000908152604090205481565b34801561041857600080fd5b506002546102e1906001600160a01b031681565b34801561043857600080fd5b50610339610447366004612368565b610bf3565b34801561045857600080fd5b5061033960105481565b34801561046e57600080fd5b5061033961047d36600461232a565b601960209081526000928352604080842090915290825290205481565b3480156104a657600080fd5b5061033960125481565b3480156104bc57600080fd5b506103396104cb3660046123f5565b601c60209081526000938452604080852082529284528284209052825290205481565b61035a6104fc3660046124db565b610d5b565b34801561050d57600080fd5b5061033961051c366004612559565b610fb9565b34801561052d57600080fd5b50610339600d5481565b34801561054357600080fd5b506103396105523660046125a7565b60166020526000908152604090205481565b34801561057057600080fd5b50610339611152565b34801561058557600080fd5b5061035a61059436600461232a565b61117b565b3480156105a557600080fd5b506020546102e1906001600160a01b031681565b3480156105c557600080fd5b5061035a6105d4366004612559565b6111a3565b3480156105e557600080fd5b506103396105f436600461232a565b601760209081526000928352604080842090915290825290205481565b34801561061d57600080fd5b5061033960145481565b34801561063357600080fd5b50610339600f5481565b34801561064957600080fd5b5061033961065836600461232a565b601b60209081526000928352604080842090915290825290205481565b61035a610683366004612368565b610887565b34801561069457600080fd5b5061035a6106a3366004612368565b61131e565b3480156106b457600080fd5b5061033960215481565b3480156106ca57600080fd5b506103396106d93660046123f5565b611422565b3480156106ea57600080fd5b506103396106f93660046123f5565b611529565b34801561070a57600080fd5b5061028f61156e565b34801561071f57600080fd5b5061033961072e366004612368565b601f6020526000908152604090205481565b34801561074c57600080fd5b5061033961075b36600461232a565b601a60209081526000928352604080842090915290825290205481565b34801561078457600080fd5b506103396107933660046125c0565b6001600160a01b03919091166000908152601d60209081526040808320938352929052205490565b3480156107c757600080fd5b5061033960155481565b3480156107dd57600080fd5b50610339611579565b3480156107f257600080fd5b5061028f610801366004612368565b611637565b34801561081257600080fd5b5061028f610821366004612368565b6117a7565b34801561083257600080fd5b506003546102e1906001600160a01b031681565b34801561085257600080fd5b50601254610339565b34801561086757600080fd5b5061033960135481565b34801561087d57600080fd5b50610339600e5481565b601054600354604051600092916001600160a01b03169081903480156108fc029186818181858888f19350505050506108c73385600f54601054346118ec565b600f546000818152601960209081526040808320601054845282529182902054825193845290830185905234838301526060830152516001600160a01b0386169133917f661f25a08ee5c15fc997f7288c9cd798e1905052f21d761925800799791f130b9181900360800190a35060019392505050565b6008805461094b906125ea565b80601f0160208091040260200160405190810160405280929190818152602001828054610977906125ea565b80156109c45780601f10610999576101008083540402835291602001916109c4565b820191906000526020600020905b8154815290600101906020018083116109a757829003601f168201915b505050505081565b601860205282600052604060002060205281600052604060002081815481106109f457600080fd5b6000918252602090912001546001600160a01b0316925083915050565b6000828152601c602090815260408083208484528252808320338452909152812054808203610a4257610a42612624565b610a4d848433611a7f565b949350505050565b6000806001601054601154610a6a9190612650565b610a749190612650565b9050610a86600f546010548386610a90565b5060019392505050565b6000808367ffffffffffffffff811115610aac57610aac61242a565b604051908082528060200260200182016040528015610ad5578160200160208202803683370190505b50905060008467ffffffffffffffff811115610af357610af361242a565b604051908082528060200260200182016040528015610b1c578160200160208202803683370190505b5090506000865b610b2d8789612667565b811015610b995780848381518110610b4757610b4761267f565b6020908102919091010152610b5c8734612695565b838381518110610b6e57610b6e61267f565b602090810291909101015281610b83816126b7565b9250508080610b91906126b7565b915050610b23565b50610ba688848785610d5b565b50600198975050505050505050565b601d6020528260005260406000206020528160005260406000208181548110610bdd57600080fd5b9060005260206000200160009250925050505481565b60006010546001148015610c095750600f546001145b15610c1657506000919050565b6001600160a01b0382166000908152601f6020908152604080832054601e9092528220549091829003610c4857600191505b80600003610c54575060015b60016000825b600f548111610d5157600f548114610c76576011549250610c88565b6001601054610c859190612650565b92505b6000610c948685612650565b610c9f906001612667565b67ffffffffffffffff811115610cb757610cb761242a565b604051908082528060200260200182016040528015610ce0578160200160208202803683370190505b509050855b848111610d25578082610cf88983612650565b81518110610d0857610d0861267f565b602090810291909101015280610d1d816126b7565b915050610ce5565b50610d3182828a610fb9565b610d3b9084612667565b9250508080610d49906126b7565b915050610c5a565b5095945050505050565b601154600f54600091829180881015610dc75760405162461bcd60e51b815260206004820152602360248201527f6e6f206b6e75636b6c6568656164206f6e6c7920626964206f6e20746869732060448201526265726160e81b60648201526084015b60405180910390fd5b60005b8751811015610f11576000868281518110610de757610de761267f565b60200260200101519050828a03610e6357601054898381518110610e0d57610e0d61267f565b60200260200101511015610e635760405162461bcd60e51b815260206004820152601c60248201527f4d757374206e6f742062696420626568696e64207468652064617973000000006044820152606401610dbe565b83898381518110610e7657610e7661267f565b60200260200101511115610ecc5760405162461bcd60e51b815260206004820152601b60248201527f43616e7420626964206f6e2064617973206e6f7420696e2065726100000000006044820152606401610dbe565b610ed68582611ac3565b9450610efe33898c8c8681518110610ef057610ef061267f565b6020026020010151856118ec565b5080610f09816126b7565b915050610dca565b5082341015610f5b5760405162461bcd60e51b815260206004820152601660248201527509aeae6e840e6cadcc840e4cae2ead2e4cac8408aa8960531b6044820152606401610dbe565b8651604080518a8152602081019290925281018490526001600160a01b0387169033907fb4e1fdf06308d5caa2de01f8db08d933fcf160bcda97c1576b56a0c00e893f319060600160405180910390a3506001979650505050505050565b600080805b845181101561113b57600f54861015611070576000868152601c6020526040812086518290889085908110610ff557610ff561267f565b602002602001015181526020019081526020016000206000866001600160a01b03166001600160a01b031681526020019081526020016000205490508060001461106a5761105d8787848151811061104f5761104f61267f565b602002602001015187611422565b6110679084612667565b92505b50611129565b600f5486036111295760105485828151811061108e5761108e61267f565b60200260200101511015611129576000868152601c60205260408120865182908890859081106110c0576110c061267f565b602002602001015181526020019081526020016000206000866001600160a01b03166001600160a01b03168152602001908152602001600020549050806000146111275761111a8787848151811061104f5761104f61267f565b6111249084612667565b92505b505b80611133816126b7565b915050610fbe565b506111478160106126d0565b9150505b9392505050565b6000600c54600d541115611174576002600d5461116f9190612695565b905090565b50600c5490565b336000908152601f60209081526040808320859055601e909152902081905560015b92915050565b600080805b845181101561124a57600f548610156111f0576111e96111e2878784815181106111d4576111d461267f565b602002602001015187611b11565b8390611ac3565b9150611238565b600f5486036112385760105485828151811061120e5761120e61267f565b60200260200101511015611238576112356111e2878784815181106111d4576111d461267f565b91505b80611242816126b7565b9150506111a8565b5060035460405163a9059cbb60e01b81526001600160a01b038581166004830152602482018490529091169063a9059cbb906044016020604051808303816000875af115801561129e573d6000803e3d6000fd5b505050506040513d601f19601f820116820180604052508101906112c291906126ef565b50835160408051878152602081019290925281018290526001600160a01b0384169033907fc6fadbab41d2daf77182ff3236e4abbb3c021507103dc894b421b1d68f88acea9060600160405180910390a3506001949350505050565b6003546000906001600160a01b039081169083160361133c57600080fd5b6003546040516370a0823160e01b81523060048201526001600160a01b038481169263a9059cbb9291169083906370a0823190602401602060405180830381865afa15801561138f573d6000803e3d6000fd5b505050506040513d601f19601f820116820180604052508101906113b39190612711565b6040516001600160e01b031960e085901b1681526001600160a01b03909216600483015260248201526044016020604051808303816000875af11580156113fe573d6000803e3d6000fd5b505050506040513d601f19601f8201168201806040525081019061119d91906126ef565b6000838152601c6020908152604080832085845282528083206001600160a01b038516845290915281205480820361145e57600091505061114b565b6000858152601a60209081526040808320878452825280832054888452601b83528184208885529092528083205460035491516370a0823160e01b81523060048201529293909290916001600160a01b0316906370a0823190602401602060405180830381865afa1580156114d7573d6000803e3d6000fd5b505050506040513d601f19601f820116820180604052508101906114fb9190612711565b905080821115611509578091505b8261151485846126d0565b61151e9190612695565b94505050505061114b565b6000838152601c6020908152604080832085845282528083206001600160a01b038516845290915281205480820361156357611563612624565b611147858585611a7f565b61157733611637565b565b600e546003546040516370a0823160e01b8152306004820152600092839290916001600160a01b03909116906370a0823190602401602060405180830381865afa1580156115cb573d6000803e3d6000fd5b505050506040513d601f19601f820116820180604052508101906115ef9190612711565b6015546115fc9190612667565b6116069190612650565b9050600d54601061161791906126d0565b811115611626575050600d5490565b611631600382612695565b91505090565b601054600114801561164b5750600f546001145b156116535750565b6001600160a01b0381166000908152601f6020908152604080832054601e909252822054909182900361168557600191505b80600003611691575060015b6001815b600f54811161178157600f5481146116b15760115491506116c3565b60016010546116c09190612650565b91505b60006116cf8584612650565b6116da906001612667565b67ffffffffffffffff8111156116f2576116f261242a565b60405190808252806020026020018201604052801561171b578160200160208202803683370190505b509050845b8381116117605780826117338883612650565b815181106117435761174361267f565b602090810291909101015280611758816126b7565b915050611720565b5061176c8282886111a3565b50508080611779906126b7565b915050611695565b506001600160a01b039093166000908152601f602052604090209283555050600f549055565b6001546001600160a01b031633146117ee5760405162461bcd60e51b815260206004820152600a60248201526937b7363c9037bbb732b960b11b6044820152606401610dbe565b60225460ff16156118365760405162461bcd60e51b81526020600482015260126024820152714d757374206f6e6c792072756e206f6e636560701b6044820152606401610dbe565b6022805460ff191660011790556012546118509042612667565b601355600380546001600160a01b0383166001600160a01b03199182168117909255600180548216905560006021556020805490911682178155604080516306055f5f60e51b8152905163c0abebe0926004808401939192918290030181865afa1580156118c2573d6000803e3d6000fd5b505050506040513d601f19601f820116820180604052508101906118e69190612711565b60215550565b6000838152601c6020908152604080832085845282528083206001600160a01b038816845290915281205490036119bb576001600160a01b0384166000908152601d60209081526040808320868452825280832080546001818101835591855283852001869055868452601783528184208685529092528220805491929091611976908490612667565b9091555050600083815260186020908152604080832085845282528220805460018101825590835291200180546001600160a01b0319166001600160a01b0386161790555b6000838152601c6020908152604080832085845282528083206001600160a01b0388168452909152812080548392906119f5908490612667565b90915550506000838152601a6020908152604080832085845290915281208054839290611a23908490612667565b9091555050600083815260196020908152604080832085845290915281208054839290611a51908490612667565b925050819055508060146000828254611a6a9190612667565b90915550611a789050611c23565b5050505050565b6000611a89611c23565b600f54841015611aa557611a9e848484611df5565b905061114b565b600f54840361114b5760105483101561114b57610a4d848484611df5565b600080611ad08385612667565b90508381101561114b5760405162461bcd60e51b815260206004820152600c60248201526b416464206f766572666c6f7760a01b6044820152606401610dbe565b6000838152601c6020908152604080832085845282528083206001600160a01b0385168452909152812054808203611b4c5760009150611c18565b611b57858585611422565b6000868152601c6020908152604080832088845282528083206001600160a01b03881684528252808320839055888352601a8252808320888452909152902054909250611ba49082612006565b6000868152601a60209081526040808320888452825280832093909355878252601b815282822087835290522054611bdc9083612006565b6000868152601b60209081526040808320888452909152902055611c018260106126d0565b60156000828254611c129190612667565b90915550505b6111478260106126d0565b6013544290811115611df25760115460105410611cbf576001600f6000828254611c4d9190612667565b90915550506000601055611c5f611152565b600d819055600f805460009081526016602090815260409182902084905591546014548251918252928101939093528201527f9d472bcf372fce01fd875c3296e8e5ae0a08bfca42dedac19e202271ce8f39c59060600160405180910390a15b611cc7612052565b600160106000828254611cda9190612667565b9091555050601254611cec9082612667565b601355611cf7611579565b600d819055611d079060106126d0565b600e54611d149190612667565b600e55600d54600f80546000908152601b60209081526040808320601080548552925282209390935590549154611d4d90600190612650565b9050601054600103611d70576001600f54611d689190612650565b915060115490505b600f54601054601354600085815260196020908152604080832087845282528083205488845260178352818420888552835292819020548151968752918601949094528484019290925260608401526080830152517ff0047f88d9bce548f6a3b5f02aae9964bcb69afb1848b6acaab809a2b0629aaf9181900360a00190a150505b50565b6000838152601c6020908152604080832085845282528083206001600160a01b0385168452909152812054808203611e305760009150611c18565b611e3b858585611422565b6000868152601c6020908152604080832088845282528083206001600160a01b03881684528252808320839055888352601a8252808320888452909152902054909250611e889082612006565b6000868152601a60209081526040808320888452825280832093909355878252601b815282822087835290522054611ec09083612006565b6000868152601b60209081526040808320888452909152902055611ee58260106126d0565b60156000828254611ef69190612667565b90915550506001600160a01b038316337f7f3fa649aa08dbaff5b36b865f9585ae5b83bcb35185c846035019b63967b6e98787611f348760106126d0565b60008b8152601b602090815260408083208d845282529182902054825195865290850193909352830152606082015260800160405180910390a36003546001600160a01b031663a9059cbb84611f8b8560106126d0565b6040516001600160e01b031960e085901b1681526001600160a01b03909216600483015260248201526044016020604051808303816000875af1158015611fd6573d6000803e3d6000fd5b505050506040513d601f19601f82011682018060405250810190611ffa91906126ef565b506111478260106126d0565b6000818310156120485760405162461bcd60e51b815260206004820152600d60248201526c53756220756e646572666c6f7760981b6044820152606401610dbe565b61114b8284612650565b60208054604080516306055f5f60e51b815290516000936001600160a01b039093169263c0abebe092600480820193918290030181865afa15801561209b573d6000803e3d6000fd5b505050506040513d601f19601f820116820180604052508101906120bf9190612711565b90506000602154826120d19190612650565b905060006120f760646120f1610ce0600d546121df90919063ffffffff16565b90612247565b905081156121b65780821015612167576000612118836120f18460646121df565b905060006121336103e861212d846064612006565b90612291565b905061215c6121536103e86120f1846012546121df90919063ffffffff16565b60125490611ac3565b601255506121c89050565b6000612178826120f18560646121df565b9050600061218d6103e861212d846064612006565b905061215c6121ad6107d06120f1846012546121df90919063ffffffff16565b60125490612006565b6012546121c49060026126d0565b6012555b6005601254116121d857600a6012555b5050602155565b6000826000036121f15750600061119d565b60006121fd83856126d0565b90508261220a8583612695565b1461114b5760405162461bcd60e51b815260206004820152600d60248201526c4d756c74206f766572666c6f7760981b6044820152606401610dbe565b6000816000036122875760405162461bcd60e51b815260206004820152600b60248201526a446976206279207a65726f60a81b6044820152606401610dbe565b61114b8284612695565b6000818311156122a257508061119d565b5090919050565b600060208083528351808285015260005b818110156122d6578581018301518582016040015282016122ba565b818111156122e8576000604083870101525b50601f01601f1916929092016040019392505050565b60008060006060848603121561231357600080fd5b505081359360208301359350604090920135919050565b6000806040838503121561233d57600080fd5b50508035926020909101359150565b80356001600160a01b038116811461236357600080fd5b919050565b60006020828403121561237a57600080fd5b61114b8261234c565b6000806000806080858703121561239957600080fd5b8435935060208501359250604085013591506123b76060860161234c565b905092959194509250565b6000806000606084860312156123d757600080fd5b6123e08461234c565b95602085013595506040909401359392505050565b60008060006060848603121561240a57600080fd5b83359250602084013591506124216040850161234c565b90509250925092565b634e487b7160e01b600052604160045260246000fd5b600082601f83011261245157600080fd5b8135602067ffffffffffffffff8083111561246e5761246e61242a565b8260051b604051601f19603f830116810181811084821117156124935761249361242a565b6040529384528581018301938381019250878511156124b157600080fd5b83870191505b848210156124d0578135835291830191908301906124b7565b979650505050505050565b600080600080608085870312156124f157600080fd5b84359350602085013567ffffffffffffffff8082111561251057600080fd5b61251c88838901612440565b945061252a6040880161234c565b9350606087013591508082111561254057600080fd5b5061254d87828801612440565b91505092959194509250565b60008060006060848603121561256e57600080fd5b83359250602084013567ffffffffffffffff81111561258c57600080fd5b61259886828701612440565b9250506124216040850161234c565b6000602082840312156125b957600080fd5b5035919050565b600080604083850312156125d357600080fd5b6125dc8361234c565b946020939093013593505050565b600181811c908216806125fe57607f821691505b60208210810361261e57634e487b7160e01b600052602260045260246000fd5b50919050565b634e487b7160e01b600052600160045260246000fd5b634e487b7160e01b600052601160045260246000fd5b6000828210156126625761266261263a565b500390565b6000821982111561267a5761267a61263a565b500190565b634e487b7160e01b600052603260045260246000fd5b6000826126b257634e487b7160e01b600052601260045260246000fd5b500490565b6000600182016126c9576126c961263a565b5060010190565b60008160001904831182151516156126ea576126ea61263a565b500290565b60006020828403121561270157600080fd5b8151801515811461114b57600080fd5b60006020828403121561272357600080fd5b505191905056fea2646970667358221220a49ff05a45ff5b500e6d073ea47640d3e2ced55d0b11f42988642e04e86d1d7c64736f6c634300080e0033",
  "bytecodeSha1": "3e8f0c808b605bf1eb944ed317fbf6e8618bc2dd",
  "compiler": {
    "evm_version": "istanbul",
    "optimizer": {
      "enabled": true,
      "runs": 200
    },
    "version": "0.8.14+commit.80d49f37"
  },
  "contractName": "ArbitrumBitcoinAndStakingAuctions",
  "language": "Solidity",
  "natspec": {
    "kind": "dev",
    "methods": {},
    "version": 1
  },
  "opcodes": "PUSH1 0x80 PUSH1 0x40 MSTORE PUSH1 0x4 CALLDATASIZE LT PUSH2 0x281 JUMPI PUSH1 0x0 CALLDATALOAD PUSH1 0xE0 SHR DUP1 PUSH4 0x8BD56D40 GT PUSH2 0x14F JUMPI DUP1 PUSH4 0xC8B9EE6F GT PUSH2 0xC1 JUMPI DUP1 PUSH4 0xEE1F84C3 GT PUSH2 0x7A JUMPI DUP1 PUSH4 0xEE1F84C3 EQ PUSH2 0x7E6 JUMPI DUP1 PUSH4 0xEFFBCF72 EQ PUSH2 0x806 JUMPI DUP1 PUSH4 0xF1261E92 EQ PUSH2 0x826 JUMPI DUP1 PUSH4 0xFC5C88FC EQ PUSH2 0x846 JUMPI DUP1 PUSH4 0xFEE05D62 EQ PUSH2 0x85B JUMPI DUP1 PUSH4 0xFFB67186 EQ PUSH2 0x871 JUMPI PUSH1 0x0 DUP1 REVERT JUMPDEST DUP1 PUSH4 0xC8B9EE6F EQ PUSH2 0x6FE JUMPI DUP1 PUSH4 0xCB65EE92 EQ PUSH2 0x713 JUMPI DUP1 PUSH4 0xDAC679EC EQ PUSH2 0x740 JUMPI DUP1 PUSH4 0xDC3222A6 EQ PUSH2 0x778 JUMPI DUP1 PUSH4 0xDF0244B1 EQ PUSH2 0x7BB JUMPI DUP1 PUSH4 0xE82481CF EQ PUSH2 0x7D1 JUMPI PUSH1 0x0 DUP1 REVERT JUMPDEST DUP1 PUSH4 0xA5A1BA21 GT PUSH2 0x113 JUMPI DUP1 PUSH4 0xA5A1BA21 EQ PUSH2 0x63D JUMPI DUP1 PUSH4 0xA8DB5F52 EQ PUSH2 0x675 JUMPI DUP1 PUSH4 0xB36A8FF2 EQ PUSH2 0x688 JUMPI DUP1 PUSH4 0xBBC19AB0 EQ PUSH2 0x6A8 JUMPI DUP1 PUSH4 0xBDF75661 EQ PUSH2 0x6BE JUMPI DUP1 PUSH4 0xC31842E1 EQ PUSH2 0x6DE JUMPI PUSH1 0x0 DUP1 REVERT JUMPDEST DUP1 PUSH4 0x8BD56D40 EQ PUSH2 0x599 JUMPI DUP1 PUSH4 0x960BC0F1 EQ PUSH2 0x5B9 JUMPI DUP1 PUSH4 0x9618F7A8 EQ PUSH2 0x5D9 JUMPI DUP1 PUSH4 0x966FF650 EQ PUSH2 0x611 JUMPI DUP1 PUSH4 0x973628F6 EQ PUSH2 0x627 JUMPI PUSH1 0x0 DUP1 REVERT JUMPDEST DUP1 PUSH4 0x510DE094 GT PUSH2 0x1F3 JUMPI DUP1 PUSH4 0x787B4A8C GT PUSH2 0x1AC JUMPI DUP1 PUSH4 0x787B4A8C EQ PUSH2 0x4EE JUMPI DUP1 PUSH4 0x7C38A21B EQ PUSH2 0x501 JUMPI DUP1 PUSH4 0x827C049E EQ PUSH2 0x521 JUMPI DUP1 PUSH4 0x8454ED27 EQ PUSH2 0x537 JUMPI DUP1 PUSH4 0x89B86DB5 EQ PUSH2 0x564 JUMPI DUP1 PUSH4 0x8AAB30D3 EQ PUSH2 0x579 JUMPI PUSH1 0x0 DUP1 REVERT JUMPDEST DUP1 PUSH4 0x510DE094 EQ PUSH2 0x40C JUMPI DUP1 PUSH4 0x5A723DC6 EQ PUSH2 0x42C JUMPI DUP1 PUSH4 0x5C9302C9 EQ PUSH2 0x44C JUMPI DUP1 PUSH4 0x60B29259 EQ PUSH2 0x462 JUMPI DUP1 PUSH4 0x63809953 EQ PUSH2 0x49A JUMPI DUP1 PUSH4 0x77217A89 EQ PUSH2 0x4B0 JUMPI PUSH1 0x0 DUP1 REVERT JUMPDEST DUP1 PUSH4 0x313CE567 GT PUSH2 0x245 JUMPI DUP1 PUSH4 0x313CE567 EQ PUSH2 0x36A JUMPI DUP1 PUSH4 0x33C2A419 EQ PUSH2 0x380 JUMPI DUP1 PUSH4 0x3767E339 EQ PUSH2 0x393 JUMPI DUP1 PUSH4 0x3AC1C863 EQ PUSH2 0x3A9 JUMPI DUP1 PUSH4 0x3DB9A7EC EQ PUSH2 0x3BF JUMPI DUP1 PUSH4 0x49E8A6AD EQ PUSH2 0x3DF JUMPI PUSH1 0x0 DUP1 REVERT JUMPDEST DUP1 PUSH4 0x6FDDE03 EQ PUSH2 0x296 JUMPI DUP1 PUSH4 0xE21F7B4 EQ PUSH2 0x2C1 JUMPI DUP1 PUSH4 0x23BA5324 EQ PUSH2 0x2F9 JUMPI DUP1 PUSH4 0x2A423BE8 EQ PUSH2 0x319 JUMPI DUP1 PUSH4 0x2F85E430 EQ PUSH2 0x347 JUMPI PUSH1 0x0 DUP1 REVERT JUMPDEST CALLDATASIZE PUSH2 0x291 JUMPI PUSH2 0x28F CALLER PUSH2 0x887 JUMP JUMPDEST STOP JUMPDEST PUSH1 0x0 DUP1 REVERT JUMPDEST CALLVALUE DUP1 ISZERO PUSH2 0x2A2 JUMPI PUSH1 0x0 DUP1 REVERT JUMPDEST POP PUSH2 0x2AB PUSH2 0x93E JUMP JUMPDEST PUSH1 0x40 MLOAD PUSH2 0x2B8 SWAP2 SWAP1 PUSH2 0x22A9 JUMP JUMPDEST PUSH1 0x40 MLOAD DUP1 SWAP2 SUB SWAP1 RETURN JUMPDEST CALLVALUE DUP1 ISZERO PUSH2 0x2CD JUMPI PUSH1 0x0 DUP1 REVERT JUMPDEST POP PUSH2 0x2E1 PUSH2 0x2DC CALLDATASIZE PUSH1 0x4 PUSH2 0x22FE JUMP JUMPDEST PUSH2 0x9CC JUMP JUMPDEST PUSH1 0x40 MLOAD PUSH1 0x1 PUSH1 0x1 PUSH1 0xA0 SHL SUB SWAP1 SWAP2 AND DUP2 MSTORE PUSH1 0x20 ADD PUSH2 0x2B8 JUMP JUMPDEST CALLVALUE DUP1 ISZERO PUSH2 0x305 JUMPI PUSH1 0x0 DUP1 REVERT JUMPDEST POP PUSH1 0x1 SLOAD PUSH2 0x2E1 SWAP1 PUSH1 0x1 PUSH1 0x1 PUSH1 0xA0 SHL SUB AND DUP2 JUMP JUMPDEST CALLVALUE DUP1 ISZERO PUSH2 0x325 JUMPI PUSH1 0x0 DUP1 REVERT JUMPDEST POP PUSH2 0x339 PUSH2 0x334 CALLDATASIZE PUSH1 0x4 PUSH2 0x232A JUMP JUMPDEST PUSH2 0xA11 JUMP JUMPDEST PUSH1 0x40 MLOAD SWAP1 DUP2 MSTORE PUSH1 0x20 ADD PUSH2 0x2B8 JUMP JUMPDEST PUSH2 0x35A PUSH2 0x355 CALLDATASIZE PUSH1 0x4 PUSH2 0x2368 JUMP JUMPDEST PUSH2 0xA55 JUMP JUMPDEST PUSH1 0x40 MLOAD SWAP1 ISZERO ISZERO DUP2 MSTORE PUSH1 0x20 ADD PUSH2 0x2B8 JUMP JUMPDEST CALLVALUE DUP1 ISZERO PUSH2 0x376 JUMPI PUSH1 0x0 DUP1 REVERT JUMPDEST POP PUSH2 0x339 PUSH1 0x9 SLOAD DUP2 JUMP JUMPDEST PUSH2 0x35A PUSH2 0x38E CALLDATASIZE PUSH1 0x4 PUSH2 0x2383 JUMP JUMPDEST PUSH2 0xA90 JUMP JUMPDEST CALLVALUE DUP1 ISZERO PUSH2 0x39F JUMPI PUSH1 0x0 DUP1 REVERT JUMPDEST POP PUSH2 0x339 PUSH1 0x4 SLOAD DUP2 JUMP JUMPDEST CALLVALUE DUP1 ISZERO PUSH2 0x3B5 JUMPI PUSH1 0x0 DUP1 REVERT JUMPDEST POP PUSH2 0x339 PUSH1 0x11 SLOAD DUP2 JUMP JUMPDEST CALLVALUE DUP1 ISZERO PUSH2 0x3CB JUMPI PUSH1 0x0 DUP1 REVERT JUMPDEST POP PUSH2 0x339 PUSH2 0x3DA CALLDATASIZE PUSH1 0x4 PUSH2 0x23C2 JUMP JUMPDEST PUSH2 0xBB5 JUMP JUMPDEST CALLVALUE DUP1 ISZERO PUSH2 0x3EB JUMPI PUSH1 0x0 DUP1 REVERT JUMPDEST POP PUSH2 0x339 PUSH2 0x3FA CALLDATASIZE PUSH1 0x4 PUSH2 0x2368 JUMP JUMPDEST PUSH1 0x1E PUSH1 0x20 MSTORE PUSH1 0x0 SWAP1 DUP2 MSTORE PUSH1 0x40 SWAP1 KECCAK256 SLOAD DUP2 JUMP JUMPDEST CALLVALUE DUP1 ISZERO PUSH2 0x418 JUMPI PUSH1 0x0 DUP1 REVERT JUMPDEST POP PUSH1 0x2 SLOAD PUSH2 0x2E1 SWAP1 PUSH1 0x1 PUSH1 0x1 PUSH1 0xA0 SHL SUB AND DUP2 JUMP JUMPDEST CALLVALUE DUP1 ISZERO PUSH2 0x438 JUMPI PUSH1 0x0 DUP1 REVERT JUMPDEST POP PUSH2 0x339 PUSH2 0x447 CALLDATASIZE PUSH1 0x4 PUSH2 0x2368 JUMP JUMPDEST PUSH2 0xBF3 JUMP JUMPDEST CALLVALUE DUP1 ISZERO PUSH2 0x458 JUMPI PUSH1 0x0 DUP1 REVERT JUMPDEST POP PUSH2 0x339 PUSH1 0x10 SLOAD DUP2 JUMP JUMPDEST CALLVALUE DUP1 ISZERO PUSH2 0x46E JUMPI PUSH1 0x0 DUP1 REVERT JUMPDEST POP PUSH2 0x339 PUSH2 0x47D CALLDATASIZE PUSH1 0x4 PUSH2 0x232A JUMP JUMPDEST PUSH1 0x19 PUSH1 0x20 SWAP1 DUP2 MSTORE PUSH1 0x0 SWAP3 DUP4 MSTORE PUSH1 0x40 DUP1 DUP5 KECCAK256 SWAP1 SWAP2 MSTORE SWAP1 DUP3 MSTORE SWAP1 KECCAK256 SLOAD DUP2 JUMP JUMPDEST CALLVALUE DUP1 ISZERO PUSH2 0x4A6 JUMPI PUSH1 0x0 DUP1 REVERT JUMPDEST POP PUSH2 0x339 PUSH1 0x12 SLOAD DUP2 JUMP JUMPDEST CALLVALUE DUP1 ISZERO PUSH2 0x4BC JUMPI PUSH1 0x0 DUP1 REVERT JUMPDEST POP PUSH2 0x339 PUSH2 0x4CB CALLDATASIZE PUSH1 0x4 PUSH2 0x23F5 JUMP JUMPDEST PUSH1 0x1C PUSH1 0x20 SWAP1 DUP2 MSTORE PUSH1 0x0 SWAP4 DUP5 MSTORE PUSH1 0x40 DUP1 DUP6 KECCAK256 DUP3 MSTORE SWAP3 DUP5 MSTORE DUP3 DUP5 KECCAK256 SWAP1 MSTORE DUP3 MSTORE SWAP1 KECCAK256 SLOAD DUP2 JUMP JUMPDEST PUSH2 0x35A PUSH2 0x4FC CALLDATASIZE PUSH1 0x4 PUSH2 0x24DB JUMP JUMPDEST PUSH2 0xD5B JUMP JUMPDEST CALLVALUE DUP1 ISZERO PUSH2 0x50D JUMPI PUSH1 0x0 DUP1 REVERT JUMPDEST POP PUSH2 0x339 PUSH2 0x51C CALLDATASIZE PUSH1 0x4 PUSH2 0x2559 JUMP JUMPDEST PUSH2 0xFB9 JUMP JUMPDEST CALLVALUE DUP1 ISZERO PUSH2 0x52D JUMPI PUSH1 0x0 DUP1 REVERT JUMPDEST POP PUSH2 0x339 PUSH1 0xD SLOAD DUP2 JUMP JUMPDEST CALLVALUE DUP1 ISZERO PUSH2 0x543 JUMPI PUSH1 0x0 DUP1 REVERT JUMPDEST POP PUSH2 0x339 PUSH2 0x552 CALLDATASIZE PUSH1 0x4 PUSH2 0x25A7 JUMP JUMPDEST PUSH1 0x16 PUSH1 0x20 MSTORE PUSH1 0x0 SWAP1 DUP2 MSTORE PUSH1 0x40 SWAP1 KECCAK256 SLOAD DUP2 JUMP JUMPDEST CALLVALUE DUP1 ISZERO PUSH2 0x570 JUMPI PUSH1 0x0 DUP1 REVERT JUMPDEST POP PUSH2 0x339 PUSH2 0x1152 JUMP JUMPDEST CALLVALUE DUP1 ISZERO PUSH2 0x585 JUMPI PUSH1 0x0 DUP1 REVERT JUMPDEST POP PUSH2 0x35A PUSH2 0x594 CALLDATASIZE PUSH1 0x4 PUSH2 0x232A JUMP JUMPDEST PUSH2 0x117B JUMP JUMPDEST CALLVALUE DUP1 ISZERO PUSH2 0x5A5 JUMPI PUSH1 0x0 DUP1 REVERT JUMPDEST POP PUSH1 0x20 SLOAD PUSH2 0x2E1 SWAP1 PUSH1 0x1 PUSH1 0x1 PUSH1 0xA0 SHL SUB AND DUP2 JUMP JUMPDEST CALLVALUE DUP1 ISZERO PUSH2 0x5C5 JUMPI PUSH1 0x0 DUP1 REVERT JUMPDEST POP PUSH2 0x35A PUSH2 0x5D4 CALLDATASIZE PUSH1 0x4 PUSH2 0x2559 JUMP JUMPDEST PUSH2 0x11A3 JUMP JUMPDEST CALLVALUE DUP1 ISZERO PUSH2 0x5E5 JUMPI PUSH1 0x0 DUP1 REVERT JUMPDEST POP PUSH2 0x339 PUSH2 0x5F4 CALLDATASIZE PUSH1 0x4 PUSH2 0x232A JUMP JUMPDEST PUSH1 0x17 PUSH1 0x20 SWAP1 DUP2 MSTORE PUSH1 0x0 SWAP3 DUP4 MSTORE PUSH1 0x40 DUP1 DUP5 KECCAK256 SWAP1 SWAP2 MSTORE SWAP1 DUP3 MSTORE SWAP1 KECCAK256 SLOAD DUP2 JUMP JUMPDEST CALLVALUE DUP1 ISZERO PUSH2 0x61D JUMPI PUSH1 0x0 DUP1 REVERT JUMPDEST POP PUSH2 0x339 PUSH1 0x14 SLOAD DUP2 JUMP JUMPDEST CALLVALUE DUP1 ISZERO PUSH2 0x633 JUMPI PUSH1 0x0 DUP1 REVERT JUMPDEST POP PUSH2 0x339 PUSH1 0xF SLOAD DUP2 JUMP JUMPDEST CALLVALUE DUP1 ISZERO PUSH2 0x649 JUMPI PUSH1 0x0 DUP1 REVERT JUMPDEST POP PUSH2 0x339 PUSH2 0x658 CALLDATASIZE PUSH1 0x4 PUSH2 0x232A JUMP JUMPDEST PUSH1 0x1B PUSH1 0x20 SWAP1 DUP2 MSTORE PUSH1 0x0 SWAP3 DUP4 MSTORE PUSH1 0x40 DUP1 DUP5 KECCAK256 SWAP1 SWAP2 MSTORE SWAP1 DUP3 MSTORE SWAP1 KECCAK256 SLOAD DUP2 JUMP JUMPDEST PUSH2 0x35A PUSH2 0x683 CALLDATASIZE PUSH1 0x4 PUSH2 0x2368 JUMP JUMPDEST PUSH2 0x887 JUMP JUMPDEST CALLVALUE DUP1 ISZERO PUSH2 0x694 JUMPI PUSH1 0x0 DUP1 REVERT JUMPDEST POP PUSH2 0x35A PUSH2 0x6A3 CALLDATASIZE PUSH1 0x4 PUSH2 0x2368 JUMP JUMPDEST PUSH2 0x131E JUMP JUMPDEST CALLVALUE DUP1 ISZERO PUSH2 0x6B4 JUMPI PUSH1 0x0 DUP1 REVERT JUMPDEST POP PUSH2 0x339 PUSH1 0x21 SLOAD DUP2 JUMP JUMPDEST CALLVALUE DUP1 ISZERO PUSH2 0x6CA JUMPI PUSH1 0x0 DUP1 REVERT JUMPDEST POP PUSH2 0x339 PUSH2 0x6D9 CALLDATASIZE PUSH1 0x4 PUSH2 0x23F5 JUMP JUMPDEST PUSH2 0x1422 JUMP JUMPDEST CALLVALUE DUP1 ISZERO PUSH2 0x6EA JUMPI PUSH1 0x0 DUP1 REVERT JUMPDEST POP PUSH2 0x339 PUSH2 0x6F9 CALLDATASIZE PUSH1 0x4 PUSH2 0x23F5 JUMP JUMPDEST PUSH2 0x1529 JUMP JUMPDEST CALLVALUE DUP1 ISZERO PUSH2 0x70A JUMPI PUSH1 0x0 DUP1 REVERT JUMPDEST POP PUSH2 0x28F PUSH2 0x156E JUMP JUMPDEST CALLVALUE DUP1 ISZERO PUSH2 0x71F JUMPI PUSH1 0x0 DUP1 REVERT JUMPDEST POP PUSH2 0x339 PUSH2 0x72E CALLDATASIZE PUSH1 0x4 PUSH2 0x2368 JUMP JUMPDEST PUSH1 0x1F PUSH1 0x20 MSTORE PUSH1 0x0 SWAP1 DUP2 MSTORE PUSH1 0x40 SWAP1 KECCAK256 SLOAD DUP2 JUMP JUMPDEST CALLVALUE DUP1 ISZERO PUSH2 0x74C JUMPI PUSH1 0x0 DUP1 REVERT JUMPDEST POP PUSH2 0x339 PUSH2 0x75B CALLDATASIZE PUSH1 0x4 PUSH2 0x232A JUMP JUMPDEST PUSH1 0x1A PUSH1 0x20 SWAP1 DUP2 MSTORE PUSH1 0x0 SWAP3 DUP4 MSTORE PUSH1 0x40 DUP1 DUP5 KECCAK256 SWAP1 SWAP2 MSTORE SWAP1 DUP3 MSTORE SWAP1 KECCAK256 SLOAD DUP2 JUMP JUMPDEST CALLVALUE DUP1 ISZERO PUSH2 0x784 JUMPI PUSH1 0x0 DUP1 REVERT JUMPDEST POP PUSH2 0x339 PUSH2 0x793 CALLDATASIZE PUSH1 0x4 PUSH2 0x25C0 JUMP JUMPDEST PUSH1 0x1 PUSH1 0x1 PUSH1 0xA0 SHL SUB SWAP2 SWAP1 SWAP2 AND PUSH1 0x0 SWAP1 DUP2 MSTORE PUSH1 0x1D PUSH1 0x20 SWAP1 DUP2 MSTORE PUSH1 0x40 DUP1 DUP4 KECCAK256 SWAP4 DUP4 MSTORE SWAP3 SWAP1 MSTORE KECCAK256 SLOAD SWAP1 JUMP JUMPDEST CALLVALUE DUP1 ISZERO PUSH2 0x7C7 JUMPI PUSH1 0x0 DUP1 REVERT JUMPDEST POP PUSH2 0x339 PUSH1 0x15 SLOAD DUP2 JUMP JUMPDEST CALLVALUE DUP1 ISZERO PUSH2 0x7DD JUMPI PUSH1 0x0 DUP1 REVERT JUMPDEST POP PUSH2 0x339 PUSH2 0x1579 JUMP JUMPDEST CALLVALUE DUP1 ISZERO PUSH2 0x7F2 JUMPI PUSH1 0x0 DUP1 REVERT JUMPDEST POP PUSH2 0x28F PUSH2 0x801 CALLDATASIZE PUSH1 0x4 PUSH2 0x2368 JUMP JUMPDEST PUSH2 0x1637 JUMP JUMPDEST CALLVALUE DUP1 ISZERO PUSH2 0x812 JUMPI PUSH1 0x0 DUP1 REVERT JUMPDEST POP PUSH2 0x28F PUSH2 0x821 CALLDATASIZE PUSH1 0x4 PUSH2 0x2368 JUMP JUMPDEST PUSH2 0x17A7 JUMP JUMPDEST CALLVALUE DUP1 ISZERO PUSH2 0x832 JUMPI PUSH1 0x0 DUP1 REVERT JUMPDEST POP PUSH1 0x3 SLOAD PUSH2 0x2E1 SWAP1 PUSH1 0x1 PUSH1 0x1 PUSH1 0xA0 SHL SUB AND DUP2 JUMP JUMPDEST CALLVALUE DUP1 ISZERO PUSH2 0x852 JUMPI PUSH1 0x0 DUP1 REVERT JUMPDEST POP PUSH1 0x12 SLOAD PUSH2 0x339 JUMP JUMPDEST CALLVALUE DUP1 ISZERO PUSH2 0x867 JUMPI PUSH1 0x0 DUP1 REVERT JUMPDEST POP PUSH2 0x339 PUSH1 0x13 SLOAD DUP2 JUMP JUMPDEST CALLVALUE DUP1 ISZERO PUSH2 0x87D JUMPI PUSH1 0x0 DUP1 REVERT JUMPDEST POP PUSH2 0x339 PUSH1 0xE SLOAD DUP2 JUMP JUMPDEST PUSH1 0x10 SLOAD PUSH1 0x3 SLOAD PUSH1 0x40 MLOAD PUSH1 0x0 SWAP3 SWAP2 PUSH1 0x1 PUSH1 0x1 PUSH1 0xA0 SHL SUB AND SWAP1 DUP2 SWAP1 CALLVALUE DUP1 ISZERO PUSH2 0x8FC MUL SWAP2 DUP7 DUP2 DUP2 DUP2 DUP6 DUP9 DUP9 CALL SWAP4 POP POP POP POP POP PUSH2 0x8C7 CALLER DUP6 PUSH1 0xF SLOAD PUSH1 0x10 SLOAD CALLVALUE PUSH2 0x18EC JUMP JUMPDEST PUSH1 0xF SLOAD PUSH1 0x0 DUP2 DUP2 MSTORE PUSH1 0x19 PUSH1 0x20 SWAP1 DUP2 MSTORE PUSH1 0x40 DUP1 DUP4 KECCAK256 PUSH1 0x10 SLOAD DUP5 MSTORE DUP3 MSTORE SWAP2 DUP3 SWAP1 KECCAK256 SLOAD DUP3 MLOAD SWAP4 DUP5 MSTORE SWAP1 DUP4 ADD DUP6 SWAP1 MSTORE CALLVALUE DUP4 DUP4 ADD MSTORE PUSH1 0x60 DUP4 ADD MSTORE MLOAD PUSH1 0x1 PUSH1 0x1 PUSH1 0xA0 SHL SUB DUP7 AND SWAP2 CALLER SWAP2 PUSH32 0x661F25A08EE5C15FC997F7288C9CD798E1905052F21D761925800799791F130B SWAP2 DUP2 SWAP1 SUB PUSH1 0x80 ADD SWAP1 LOG3 POP PUSH1 0x1 SWAP4 SWAP3 POP POP POP JUMP JUMPDEST PUSH1 0x8 DUP1 SLOAD PUSH2 0x94B SWAP1 PUSH2 0x25EA JUMP JUMPDEST DUP1 PUSH1 0x1F ADD PUSH1 0x20 DUP1 SWAP2 DIV MUL PUSH1 0x20 ADD PUSH1 0x40 MLOAD SWAP1 DUP2 ADD PUSH1 0x40 MSTORE DUP1 SWAP3 SWAP2 SWAP1 DUP2 DUP2 MSTORE PUSH1 0x20 ADD DUP3 DUP1 SLOAD PUSH2 0x977 SWAP1 PUSH2 0x25EA JUMP JUMPDEST DUP1 ISZERO PUSH2 0x9C4 JUMPI DUP1 PUSH1 0x1F LT PUSH2 0x999 JUMPI PUSH2 0x100 DUP1 DUP4 SLOAD DIV MUL DUP4 MSTORE SWAP2 PUSH1 0x20 ADD SWAP2 PUSH2 0x9C4 JUMP JUMPDEST DUP3 ADD SWAP2 SWAP1 PUSH1 0x0 MSTORE PUSH1 0x20 PUSH1 0x0 KECCAK256 SWAP1 JUMPDEST DUP2 SLOAD DUP2 MSTORE SWAP1 PUSH1 0x1 ADD SWAP1 PUSH1 0x20 ADD DUP1 DUP4 GT PUSH2 0x9A7 JUMPI DUP3 SWAP1 SUB PUSH1 0x1F AND DUP3 ADD SWAP2 JUMPDEST POP POP POP POP POP DUP2 JUMP JUMPDEST PUSH1 0x18 PUSH1 0x20 MSTORE DUP3 PUSH1 0x0 MSTORE PUSH1 0x40 PUSH1 0x0 KECCAK256 PUSH1 0x20 MSTORE DUP2 PUSH1 0x0 MSTORE PUSH1 0x40 PUSH1 0x0 KECCAK256 DUP2 DUP2 SLOAD DUP2 LT PUSH2 0x9F4 JUMPI PUSH1 0x0 DUP1 REVERT JUMPDEST PUSH1 0x0 SWAP2 DUP3 MSTORE PUSH1 0x20 SWAP1 SWAP2 KECCAK256 ADD SLOAD PUSH1 0x1 PUSH1 0x1 PUSH1 0xA0 SHL SUB AND SWAP3 POP DUP4 SWAP2 POP POP JUMP JUMPDEST PUSH1 0x0 DUP3 DUP2 MSTORE PUSH1 0x1C PUSH1 0x20 SWAP1 DUP2 MSTORE PUSH1 0x40 DUP1 DUP4 KECCAK256 DUP5 DUP5 MSTORE DUP3 MSTORE DUP1 DUP4 KECCAK256 CALLER DUP5 MSTORE SWAP1 SWAP2 MSTORE DUP2 KECCAK256 SLOAD DUP1 DUP3 SUB PUSH2 0xA42 JUMPI PUSH2 0xA42 PUSH2 0x2624 JUMP JUMPDEST PUSH2 0xA4D DUP5 DUP5 CALLER PUSH2 0x1A7F JUMP JUMPDEST SWAP5 SWAP4 POP POP POP POP JUMP JUMPDEST PUSH1 0x0 DUP1 PUSH1 0x1 PUSH1 0x10 SLOAD PUSH1 0x11 SLOAD PUSH2 0xA6A SWAP2 SWAP1 PUSH2 0x2650 JUMP JUMPDEST PUSH2 0xA74 SWAP2 SWAP1 PUSH2 0x2650 JUMP JUMPDEST SWAP1 POP PUSH2 0xA86 PUSH1 0xF SLOAD PUSH1 0x10 SLOAD DUP4 DUP7 PUSH2 0xA90 JUMP JUMPDEST POP PUSH1 0x1 SWAP4 SWAP3 POP POP POP JUMP JUMPDEST PUSH1 0x0 DUP1 DUP4 PUSH8 0xFFFFFFFFFFFFFFFF DUP2 GT ISZERO PUSH2 0xAAC JUMPI PUSH2 0xAAC PUSH2 0x242A JUMP JUMPDEST PUSH1 0x40 MLOAD SWAP1 DUP1 DUP3 MSTORE DUP1 PUSH1 0x20 MUL PUSH1 0x20 ADD DUP3 ADD PUSH1 0x40 MSTORE DUP1 ISZERO PUSH2 0xAD5 JUMPI DUP2 PUSH1 0x20 ADD PUSH1 0x20 DUP3 MUL DUP1 CALLDATASIZE DUP4 CALLDATACOPY ADD SWAP1 POP JUMPDEST POP SWAP1 POP PUSH1 0x0 DUP5 PUSH8 0xFFFFFFFFFFFFFFFF DUP2 GT ISZERO PUSH2 0xAF3 JUMPI PUSH2 0xAF3 PUSH2 0x242A JUMP JUMPDEST PUSH1 0x40 MLOAD SWAP1 DUP1 DUP3 MSTORE DUP1 PUSH1 0x20 MUL PUSH1 0x20 ADD DUP3 ADD PUSH1 0x40 MSTORE DUP1 ISZERO PUSH2 0xB1C JUMPI DUP2 PUSH1 0x20 ADD PUSH1 0x20 DUP3 MUL DUP1 CALLDATASIZE DUP4 CALLDATACOPY ADD SWAP1 POP JUMPDEST POP SWAP1 POP PUSH1 0x0 DUP7 JUMPDEST PUSH2 0xB2D DUP8 DUP10 PUSH2 0x2667 JUMP JUMPDEST DUP2 LT ISZERO PUSH2 0xB99 JUMPI DUP1 DUP5 DUP4 DUP2 MLOAD DUP2 LT PUSH2 0xB47 JUMPI PUSH2 0xB47 PUSH2 0x267F JUMP JUMPDEST PUSH1 0x20 SWAP1 DUP2 MUL SWAP2 SWAP1 SWAP2 ADD ADD MSTORE PUSH2 0xB5C DUP8 CALLVALUE PUSH2 0x2695 JUMP JUMPDEST DUP4 DUP4 DUP2 MLOAD DUP2 LT PUSH2 0xB6E JUMPI PUSH2 0xB6E PUSH2 0x267F JUMP JUMPDEST PUSH1 0x20 SWAP1 DUP2 MUL SWAP2 SWAP1 SWAP2 ADD ADD MSTORE DUP2 PUSH2 0xB83 DUP2 PUSH2 0x26B7 JUMP JUMPDEST SWAP3 POP POP DUP1 DUP1 PUSH2 0xB91 SWAP1 PUSH2 0x26B7 JUMP JUMPDEST SWAP2 POP POP PUSH2 0xB23 JUMP JUMPDEST POP PUSH2 0xBA6 DUP9 DUP5 DUP8 DUP6 PUSH2 0xD5B JUMP JUMPDEST POP PUSH1 0x1 SWAP9 SWAP8 POP POP POP POP POP POP POP POP JUMP JUMPDEST PUSH1 0x1D PUSH1 0x20 MSTORE DUP3 PUSH1 0x0 MSTORE PUSH1 0x40 PUSH1 0x0 KECCAK256 PUSH1 0x20 MSTORE DUP2 PUSH1 0x0 MSTORE PUSH1 0x40 PUSH1 0x0 KECCAK256 DUP2 DUP2 SLOAD DUP2 LT PUSH2 0xBDD JUMPI PUSH1 0x0 DUP1 REVERT JUMPDEST SWAP1 PUSH1 0x0 MSTORE PUSH1 0x20 PUSH1 0x0 KECCAK256 ADD PUSH1 0x0 SWAP3 POP SWAP3 POP POP POP SLOAD DUP2 JUMP JUMPDEST PUSH1 0x0 PUSH1 0x10 SLOAD PUSH1 0x1 EQ DUP1 ISZERO PUSH2 0xC09 JUMPI POP PUSH1 0xF SLOAD PUSH1 0x1 EQ JUMPDEST ISZERO PUSH2 0xC16 JUMPI POP PUSH1 0x0 SWAP2 SWAP1 POP JUMP JUMPDEST PUSH1 0x1 PUSH1 0x1 PUSH1 0xA0 SHL SUB DUP3 AND PUSH1 0x0 SWAP1 DUP2 MSTORE PUSH1 0x1F PUSH1 0x20 SWAP1 DUP2 MSTORE PUSH1 0x40 DUP1 DUP4 KECCAK256 SLOAD PUSH1 0x1E SWAP1 SWAP3 MSTORE DUP3 KECCAK256 SLOAD SWAP1 SWAP2 DUP3 SWAP1 SUB PUSH2 0xC48 JUMPI PUSH1 0x1 SWAP2 POP JUMPDEST DUP1 PUSH1 0x0 SUB PUSH2 0xC54 JUMPI POP PUSH1 0x1 JUMPDEST PUSH1 0x1 PUSH1 0x0 DUP3 JUMPDEST PUSH1 0xF SLOAD DUP2 GT PUSH2 0xD51 JUMPI PUSH1 0xF SLOAD DUP2 EQ PUSH2 0xC76 JUMPI PUSH1 0x11 SLOAD SWAP3 POP PUSH2 0xC88 JUMP JUMPDEST PUSH1 0x1 PUSH1 0x10 SLOAD PUSH2 0xC85 SWAP2 SWAP1 PUSH2 0x2650 JUMP JUMPDEST SWAP3 POP JUMPDEST PUSH1 0x0 PUSH2 0xC94 DUP7 DUP6 PUSH2 0x2650 JUMP JUMPDEST PUSH2 0xC9F SWAP1 PUSH1 0x1 PUSH2 0x2667 JUMP JUMPDEST PUSH8 0xFFFFFFFFFFFFFFFF DUP2 GT ISZERO PUSH2 0xCB7 JUMPI PUSH2 0xCB7 PUSH2 0x242A JUMP JUMPDEST PUSH1 0x40 MLOAD SWAP1 DUP1 DUP3 MSTORE DUP1 PUSH1 0x20 MUL PUSH1 0x20 ADD DUP3 ADD PUSH1 0x40 MSTORE DUP1 ISZERO PUSH2 0xCE0 JUMPI DUP2 PUSH1 0x20 ADD PUSH1 0x20 DUP3 MUL DUP1 CALLDATASIZE DUP4 CALLDATACOPY ADD SWAP1 POP JUMPDEST POP SWAP1 POP DUP6 JUMPDEST DUP5 DUP2 GT PUSH2 0xD25 JUMPI DUP1 DUP3 PUSH2 0xCF8 DUP10 DUP4 PUSH2 0x2650 JUMP JUMPDEST DUP2 MLOAD DUP2 LT PUSH2 0xD08 JUMPI PUSH2 0xD08 PUSH2 0x267F JUMP JUMPDEST PUSH1 0x20 SWAP1 DUP2 MUL SWAP2 SWAP1 SWAP2 ADD ADD MSTORE DUP1 PUSH2 0xD1D DUP2 PUSH2 0x26B7 JUMP JUMPDEST SWAP2 POP POP PUSH2 0xCE5 JUMP JUMPDEST POP PUSH2 0xD31 DUP3 DUP3 DUP11 PUSH2 0xFB9 JUMP JUMPDEST PUSH2 0xD3B SWAP1 DUP5 PUSH2 0x2667 JUMP JUMPDEST SWAP3 POP POP DUP1 DUP1 PUSH2 0xD49 SWAP1 PUSH2 0x26B7 JUMP JUMPDEST SWAP2 POP POP PUSH2 0xC5A JUMP JUMPDEST POP SWAP6 SWAP5 POP POP POP POP POP JUMP JUMPDEST PUSH1 0x11 SLOAD PUSH1 0xF SLOAD PUSH1 0x0 SWAP2 DUP3 SWAP2 DUP1 DUP9 LT ISZERO PUSH2 0xDC7 JUMPI PUSH1 0x40 MLOAD PUSH3 0x461BCD PUSH1 0xE5 SHL DUP2 MSTORE PUSH1 0x20 PUSH1 0x4 DUP3 ADD MSTORE PUSH1 0x23 PUSH1 0x24 DUP3 ADD MSTORE PUSH32 0x6E6F206B6E75636B6C6568656164206F6E6C7920626964206F6E207468697320 PUSH1 0x44 DUP3 ADD MSTORE PUSH3 0x657261 PUSH1 0xE8 SHL PUSH1 0x64 DUP3 ADD MSTORE PUSH1 0x84 ADD JUMPDEST PUSH1 0x40 MLOAD DUP1 SWAP2 SUB SWAP1 REVERT JUMPDEST PUSH1 0x0 JUMPDEST DUP8 MLOAD DUP2 LT ISZERO PUSH2 0xF11 JUMPI PUSH1 0x0 DUP7 DUP3 DUP2 MLOAD DUP2 LT PUSH2 0xDE7 JUMPI PUSH2 0xDE7 PUSH2 0x267F JUMP JUMPDEST PUSH1 0x20 MUL PUSH1 0x20 ADD ADD MLOAD SWAP1 POP DUP3 DUP11 SUB PUSH2 0xE63 JUMPI PUSH1 0x10 SLOAD DUP10 DUP4 DUP2 MLOAD DUP2 LT PUSH2 0xE0D JUMPI PUSH2 0xE0D PUSH2 0x267F JUMP JUMPDEST PUSH1 0x20 MUL PUSH1 0x20 ADD ADD MLOAD LT ISZERO PUSH2 0xE63 JUMPI PUSH1 0x40 MLOAD PUSH3 0x461BCD PUSH1 0xE5 SHL DUP2 MSTORE PUSH1 0x20 PUSH1 0x4 DUP3 ADD MSTORE PUSH1 0x1C PUSH1 0x24 DUP3 ADD MSTORE PUSH32 0x4D757374206E6F742062696420626568696E6420746865206461797300000000 PUSH1 0x44 DUP3 ADD MSTORE PUSH1 0x64 ADD PUSH2 0xDBE JUMP JUMPDEST DUP4 DUP10 DUP4 DUP2 MLOAD DUP2 LT PUSH2 0xE76 JUMPI PUSH2 0xE76 PUSH2 0x267F JUMP JUMPDEST PUSH1 0x20 MUL PUSH1 0x20 ADD ADD MLOAD GT ISZERO PUSH2 0xECC JUMPI PUSH1 0x40 MLOAD PUSH3 0x461BCD PUSH1 0xE5 SHL DUP2 MSTORE PUSH1 0x20 PUSH1 0x4 DUP3 ADD MSTORE PUSH1 0x1B PUSH1 0x24 DUP3 ADD MSTORE PUSH32 0x43616E7420626964206F6E2064617973206E6F7420696E206572610000000000 PUSH1 0x44 DUP3 ADD MSTORE PUSH1 0x64 ADD PUSH2 0xDBE JUMP JUMPDEST PUSH2 0xED6 DUP6 DUP3 PUSH2 0x1AC3 JUMP JUMPDEST SWAP5 POP PUSH2 0xEFE CALLER DUP10 DUP13 DUP13 DUP7 DUP2 MLOAD DUP2 LT PUSH2 0xEF0 JUMPI PUSH2 0xEF0 PUSH2 0x267F JUMP JUMPDEST PUSH1 0x20 MUL PUSH1 0x20 ADD ADD MLOAD DUP6 PUSH2 0x18EC JUMP JUMPDEST POP DUP1 PUSH2 0xF09 DUP2 PUSH2 0x26B7 JUMP JUMPDEST SWAP2 POP POP PUSH2 0xDCA JUMP JUMPDEST POP DUP3 CALLVALUE LT ISZERO PUSH2 0xF5B JUMPI PUSH1 0x40 MLOAD PUSH3 0x461BCD PUSH1 0xE5 SHL DUP2 MSTORE PUSH1 0x20 PUSH1 0x4 DUP3 ADD MSTORE PUSH1 0x16 PUSH1 0x24 DUP3 ADD MSTORE PUSH22 0x9AEAE6E840E6CADCC840E4CAE2EAD2E4CAC8408AA89 PUSH1 0x53 SHL PUSH1 0x44 DUP3 ADD MSTORE PUSH1 0x64 ADD PUSH2 0xDBE JUMP JUMPDEST DUP7 MLOAD PUSH1 0x40 DUP1 MLOAD DUP11 DUP2 MSTORE PUSH1 0x20 DUP2 ADD SWAP3 SWAP1 SWAP3 MSTORE DUP2 ADD DUP5 SWAP1 MSTORE PUSH1 0x1 PUSH1 0x1 PUSH1 0xA0 SHL SUB DUP8 AND SWAP1 CALLER SWAP1 PUSH32 0xB4E1FDF06308D5CAA2DE01F8DB08D933FCF160BCDA97C1576B56A0C00E893F31 SWAP1 PUSH1 0x60 ADD PUSH1 0x40 MLOAD DUP1 SWAP2 SUB SWAP1 LOG3 POP PUSH1 0x1 SWAP8 SWAP7 POP POP POP POP POP POP POP JUMP JUMPDEST PUSH1 0x0 DUP1 DUP1 JUMPDEST DUP5 MLOAD DUP2 LT ISZERO PUSH2 0x113B JUMPI PUSH1 0xF SLOAD DUP7 LT ISZERO PUSH2 0x1070 JUMPI PUSH1 0x0 DUP7 DUP2 MSTORE PUSH1 0x1C PUSH1 0x20 MSTORE PUSH1 0x40 DUP2 KECCAK256 DUP7 MLOAD DUP3 SWAP1 DUP9 SWAP1 DUP6 SWAP1 DUP2 LT PUSH2 0xFF5 JUMPI PUSH2 0xFF5 PUSH2 0x267F JUMP JUMPDEST PUSH1 0x20 MUL PUSH1 0x20 ADD ADD MLOAD DUP2 MSTORE PUSH1 0x20 ADD SWAP1 DUP2 MSTORE PUSH1 0x20 ADD PUSH1 0x0 KECCAK256 PUSH1 0x0 DUP7 PUSH1 0x1 PUSH1 0x1 PUSH1 0xA0 SHL SUB AND PUSH1 0x1 PUSH1 0x1 PUSH1 0xA0 SHL SUB AND DUP2 MSTORE PUSH1 0x20 ADD SWAP1 DUP2 MSTORE PUSH1 0x20 ADD PUSH1 0x0 KECCAK256 SLOAD SWAP1 POP DUP1 PUSH1 0x0 EQ PUSH2 0x106A JUMPI PUSH2 0x105D DUP8 DUP8 DUP5 DUP2 MLOAD DUP2 LT PUSH2 0x104F JUMPI PUSH2 0x104F PUSH2 0x267F JUMP JUMPDEST PUSH1 0x20 MUL PUSH1 0x20 ADD ADD MLOAD DUP8 PUSH2 0x1422 JUMP JUMPDEST PUSH2 0x1067 SWAP1 DUP5 PUSH2 0x2667 JUMP JUMPDEST SWAP3 POP JUMPDEST POP PUSH2 0x1129 JUMP JUMPDEST PUSH1 0xF SLOAD DUP7 SUB PUSH2 0x1129 JUMPI PUSH1 0x10 SLOAD DUP6 DUP3 DUP2 MLOAD DUP2 LT PUSH2 0x108E JUMPI PUSH2 0x108E PUSH2 0x267F JUMP JUMPDEST PUSH1 0x20 MUL PUSH1 0x20 ADD ADD MLOAD LT ISZERO PUSH2 0x1129 JUMPI PUSH1 0x0 DUP7 DUP2 MSTORE PUSH1 0x1C PUSH1 0x20 MSTORE PUSH1 0x40 DUP2 KECCAK256 DUP7 MLOAD DUP3 SWAP1 DUP9 SWAP1 DUP6 SWAP1 DUP2 LT PUSH2 0x10C0 JUMPI PUSH2 0x10C0 PUSH2 0x267F JUMP JUMPDEST PUSH1 0x20 MUL PUSH1 0x20 ADD ADD MLOAD DUP2 MSTORE PUSH1 0x20 ADD SWAP1 DUP2 MSTORE PUSH1 0x20 ADD PUSH1 0x0 KECCAK256 PUSH1 0x0 DUP7 PUSH1 0x1 PUSH1 0x1 PUSH1 0xA0 SHL SUB AND PUSH1 0x1 PUSH1 0x1 PUSH1 0xA0 SHL SUB AND DUP2 MSTORE PUSH1 0x20 ADD SWAP1 DUP2 MSTORE PUSH1 0x20 ADD PUSH1 0x0 KECCAK256 SLOAD SWAP1 POP DUP1 PUSH1 0x0 EQ PUSH2 0x1127 JUMPI PUSH2 0x111A DUP8 DUP8 DUP5 DUP2 MLOAD DUP2 LT PUSH2 0x104F JUMPI PUSH2 0x104F PUSH2 0x267F JUMP JUMPDEST PUSH2 0x1124 SWAP1 DUP5 PUSH2 0x2667 JUMP JUMPDEST SWAP3 POP JUMPDEST POP JUMPDEST DUP1 PUSH2 0x1133 DUP2 PUSH2 0x26B7 JUMP JUMPDEST SWAP2 POP POP PUSH2 0xFBE JUMP JUMPDEST POP PUSH2 0x1147 DUP2 PUSH1 0x10 PUSH2 0x26D0 JUMP JUMPDEST SWAP2 POP POP JUMPDEST SWAP4 SWAP3 POP POP POP JUMP JUMPDEST PUSH1 0x0 PUSH1 0xC SLOAD PUSH1 0xD SLOAD GT ISZERO PUSH2 0x1174 JUMPI PUSH1 0x2 PUSH1 0xD SLOAD PUSH2 0x116F SWAP2 SWAP1 PUSH2 0x2695 JUMP JUMPDEST SWAP1 POP SWAP1 JUMP JUMPDEST POP PUSH1 0xC SLOAD SWAP1 JUMP JUMPDEST CALLER PUSH1 0x0 SWAP1 DUP2 MSTORE PUSH1 0x1F PUSH1 0x20 SWAP1 DUP2 MSTORE PUSH1 0x40 DUP1 DUP4 KECCAK256 DUP6 SWAP1 SSTORE PUSH1 0x1E SWAP1 SWAP2 MSTORE SWAP1 KECCAK256 DUP2 SWAP1 SSTORE PUSH1 0x1 JUMPDEST SWAP3 SWAP2 POP POP JUMP JUMPDEST PUSH1 0x0 DUP1 DUP1 JUMPDEST DUP5 MLOAD DUP2 LT ISZERO PUSH2 0x124A JUMPI PUSH1 0xF SLOAD DUP7 LT ISZERO PUSH2 0x11F0 JUMPI PUSH2 0x11E9 PUSH2 0x11E2 DUP8 DUP8 DUP5 DUP2 MLOAD DUP2 LT PUSH2 0x11D4 JUMPI PUSH2 0x11D4 PUSH2 0x267F JUMP JUMPDEST PUSH1 0x20 MUL PUSH1 0x20 ADD ADD MLOAD DUP8 PUSH2 0x1B11 JUMP JUMPDEST DUP4 SWAP1 PUSH2 0x1AC3 JUMP JUMPDEST SWAP2 POP PUSH2 0x1238 JUMP JUMPDEST PUSH1 0xF SLOAD DUP7 SUB PUSH2 0x1238 JUMPI PUSH1 0x10 SLOAD DUP6 DUP3 DUP2 MLOAD DUP2 LT PUSH2 0x120E JUMPI PUSH2 0x120E PUSH2 0x267F JUMP JUMPDEST PUSH1 0x20 MUL PUSH1 0x20 ADD ADD MLOAD LT ISZERO PUSH2 0x1238 JUMPI PUSH2 0x1235 PUSH2 0x11E2 DUP8 DUP8 DUP5 DUP2 MLOAD DUP2 LT PUSH2 0x11D4 JUMPI PUSH2 0x11D4 PUSH2 0x267F JUMP JUMPDEST SWAP2 POP JUMPDEST DUP1 PUSH2 0x1242 DUP2 PUSH2 0x26B7 JUMP JUMPDEST SWAP2 POP POP PUSH2 0x11A8 JUMP JUMPDEST POP PUSH1 0x3 SLOAD PUSH1 0x40 MLOAD PUSH4 0xA9059CBB PUSH1 0xE0 SHL DUP2 MSTORE PUSH1 0x1 PUSH1 0x1 PUSH1 0xA0 SHL SUB DUP6 DUP2 AND PUSH1 0x4 DUP4 ADD MSTORE PUSH1 0x24 DUP3 ADD DUP5 SWAP1 MSTORE SWAP1 SWAP2 AND SWAP1 PUSH4 0xA9059CBB SWAP1 PUSH1 0x44 ADD PUSH1 0x20 PUSH1 0x40 MLOAD DUP1 DUP4 SUB DUP2 PUSH1 0x0 DUP8 GAS CALL ISZERO DUP1 ISZERO PUSH2 0x129E JUMPI RETURNDATASIZE PUSH1 0x0 DUP1 RETURNDATACOPY RETURNDATASIZE PUSH1 0x0 REVERT JUMPDEST POP POP POP POP PUSH1 0x40 MLOAD RETURNDATASIZE PUSH1 0x1F NOT PUSH1 0x1F DUP3 ADD AND DUP3 ADD DUP1 PUSH1 0x40 MSTORE POP DUP2 ADD SWAP1 PUSH2 0x12C2 SWAP2 SWAP1 PUSH2 0x26EF JUMP JUMPDEST POP DUP4 MLOAD PUSH1 0x40 DUP1 MLOAD DUP8 DUP2 MSTORE PUSH1 0x20 DUP2 ADD SWAP3 SWAP1 SWAP3 MSTORE DUP2 ADD DUP3 SWAP1 MSTORE PUSH1 0x1 PUSH1 0x1 PUSH1 0xA0 SHL SUB DUP5 AND SWAP1 CALLER SWAP1 PUSH32 0xC6FADBAB41D2DAF77182FF3236E4ABBB3C021507103DC894B421B1D68F88ACEA SWAP1 PUSH1 0x60 ADD PUSH1 0x40 MLOAD DUP1 SWAP2 SUB SWAP1 LOG3 POP PUSH1 0x1 SWAP5 SWAP4 POP POP POP POP JUMP JUMPDEST PUSH1 0x3 SLOAD PUSH1 0x0 SWAP1 PUSH1 0x1 PUSH1 0x1 PUSH1 0xA0 SHL SUB SWAP1 DUP2 AND SWAP1 DUP4 AND SUB PUSH2 0x133C JUMPI PUSH1 0x0 DUP1 REVERT JUMPDEST PUSH1 0x3 SLOAD PUSH1 0x40 MLOAD PUSH4 0x70A08231 PUSH1 0xE0 SHL DUP2 MSTORE ADDRESS PUSH1 0x4 DUP3 ADD MSTORE PUSH1 0x1 PUSH1 0x1 PUSH1 0xA0 SHL SUB DUP5 DUP2 AND SWAP3 PUSH4 0xA9059CBB SWAP3 SWAP2 AND SWAP1 DUP4 SWAP1 PUSH4 0x70A08231 SWAP1 PUSH1 0x24 ADD PUSH1 0x20 PUSH1 0x40 MLOAD DUP1 DUP4 SUB DUP2 DUP7 GAS STATICCALL ISZERO DUP1 ISZERO PUSH2 0x138F JUMPI RETURNDATASIZE PUSH1 0x0 DUP1 RETURNDATACOPY RETURNDATASIZE PUSH1 0x0 REVERT JUMPDEST POP POP POP POP PUSH1 0x40 MLOAD RETURNDATASIZE PUSH1 0x1F NOT PUSH1 0x1F DUP3 ADD AND DUP3 ADD DUP1 PUSH1 0x40 MSTORE POP DUP2 ADD SWAP1 PUSH2 0x13B3 SWAP2 SWAP1 PUSH2 0x2711 JUMP JUMPDEST PUSH1 0x40 MLOAD PUSH1 0x1 PUSH1 0x1 PUSH1 0xE0 SHL SUB NOT PUSH1 0xE0 DUP6 SWAP1 SHL AND DUP2 MSTORE PUSH1 0x1 PUSH1 0x1 PUSH1 0xA0 SHL SUB SWAP1 SWAP3 AND PUSH1 0x4 DUP4 ADD MSTORE PUSH1 0x24 DUP3 ADD MSTORE PUSH1 0x44 ADD PUSH1 0x20 PUSH1 0x40 MLOAD DUP1 DUP4 SUB DUP2 PUSH1 0x0 DUP8 GAS CALL ISZERO DUP1 ISZERO PUSH2 0x13FE JUMPI RETURNDATASIZE PUSH1 0x0 DUP1 RETURNDATACOPY RETURNDATASIZE PUSH1 0x0 REVERT JUMPDEST POP POP POP POP PUSH1 0x40 MLOAD RETURNDATASIZE PUSH1 0x1F NOT PUSH1 0x1F DUP3 ADD AND DUP3 ADD DUP1 PUSH1 0x40 MSTORE POP DUP2 ADD SWAP1 PUSH2 0x119D SWAP2 SWAP1 PUSH2 0x26EF JUMP JUMPDEST PUSH1 0x0 DUP4 DUP2 MSTORE PUSH1 0x1C PUSH1 0x20 SWAP1 DUP2 MSTORE PUSH1 0x40 DUP1 DUP4 KECCAK256 DUP6 DUP5 MSTORE DUP3 MSTORE DUP1 DUP4 KECCAK256 PUSH1 0x1 PUSH1 0x1 PUSH1 0xA0 SHL SUB DUP6 AND DUP5 MSTORE SWAP1 SWAP2 MSTORE DUP2 KECCAK256 SLOAD DUP1 DUP3 SUB PUSH2 0x145E JUMPI PUSH1 0x0 SWAP2 POP POP PUSH2 0x114B JUMP JUMPDEST PUSH1 0x0 DUP6 DUP2 MSTORE PUSH1 0x1A PUSH1 0x20 SWAP1 DUP2 MSTORE PUSH1 0x40 DUP1 DUP4 KECCAK256 DUP8 DUP5 MSTORE DUP3 MSTORE DUP1 DUP4 KECCAK256 SLOAD DUP9 DUP5 MSTORE PUSH1 0x1B DUP4 MSTORE DUP2 DUP5 KECCAK256 DUP9 DUP6 MSTORE SWAP1 SWAP3 MSTORE DUP1 DUP4 KECCAK256 SLOAD PUSH1 0x3 SLOAD SWAP2 MLOAD PUSH4 0x70A08231 PUSH1 0xE0 SHL DUP2 MSTORE ADDRESS PUSH1 0x4 DUP3 ADD MSTORE SWAP3 SWAP4 SWAP1 SWAP3 SWAP1 SWAP2 PUSH1 0x1 PUSH1 0x1 PUSH1 0xA0 SHL SUB AND SWAP1 PUSH4 0x70A08231 SWAP1 PUSH1 0x24 ADD PUSH1 0x20 PUSH1 0x40 MLOAD DUP1 DUP4 SUB DUP2 DUP7 GAS STATICCALL ISZERO DUP1 ISZERO PUSH2 0x14D7 JUMPI RETURNDATASIZE PUSH1 0x0 DUP1 RETURNDATACOPY RETURNDATASIZE PUSH1 0x0 REVERT JUMPDEST POP POP POP POP PUSH1 0x40 MLOAD RETURNDATASIZE PUSH1 0x1F NOT PUSH1 0x1F DUP3 ADD AND DUP3 ADD DUP1 PUSH1 0x40 MSTORE POP DUP2 ADD SWAP1 PUSH2 0x14FB SWAP2 SWAP1 PUSH2 0x2711 JUMP JUMPDEST SWAP1 POP DUP1 DUP3 GT ISZERO PUSH2 0x1509 JUMPI DUP1 SWAP2 POP JUMPDEST DUP3 PUSH2 0x1514 DUP6 DUP5 PUSH2 0x26D0 JUMP JUMPDEST PUSH2 0x151E SWAP2 SWAP1 PUSH2 0x2695 JUMP JUMPDEST SWAP5 POP POP POP POP POP PUSH2 0x114B JUMP JUMPDEST PUSH1 0x0 DUP4 DUP2 MSTORE PUSH1 0x1C PUSH1 0x20 SWAP1 DUP2 MSTORE PUSH1 0x40 DUP1 DUP4 KECCAK256 DUP6 DUP5 MSTORE DUP3 MSTORE DUP1 DUP4 KECCAK256 PUSH1 0x1 PUSH1 0x1 PUSH1 0xA0 SHL SUB DUP6 AND DUP5 MSTORE SWAP1 SWAP2 MSTORE DUP2 KECCAK256 SLOAD DUP1 DUP3 SUB PUSH2 0x1563 JUMPI PUSH2 0x1563 PUSH2 0x2624 JUMP JUMPDEST PUSH2 0x1147 DUP6 DUP6 DUP6 PUSH2 0x1A7F JUMP JUMPDEST PUSH2 0x1577 CALLER PUSH2 0x1637 JUMP JUMPDEST JUMP JUMPDEST PUSH1 0xE SLOAD PUSH1 0x3 SLOAD PUSH1 0x40 MLOAD PUSH4 0x70A08231 PUSH1 0xE0 SHL DUP2 MSTORE ADDRESS PUSH1 0x4 DUP3 ADD MSTORE PUSH1 0x0 SWAP3 DUP4 SWAP3 SWAP1 SWAP2 PUSH1 0x1 PUSH1 0x1 PUSH1 0xA0 SHL SUB SWAP1 SWAP2 AND SWAP1 PUSH4 0x70A08231 SWAP1 PUSH1 0x24 ADD PUSH1 0x20 PUSH1 0x40 MLOAD DUP1 DUP4 SUB DUP2 DUP7 GAS STATICCALL ISZERO DUP1 ISZERO PUSH2 0x15CB JUMPI RETURNDATASIZE PUSH1 0x0 DUP1 RETURNDATACOPY RETURNDATASIZE PUSH1 0x0 REVERT JUMPDEST POP POP POP POP PUSH1 0x40 MLOAD RETURNDATASIZE PUSH1 0x1F NOT PUSH1 0x1F DUP3 ADD AND DUP3 ADD DUP1 PUSH1 0x40 MSTORE POP DUP2 ADD SWAP1 PUSH2 0x15EF SWAP2 SWAP1 PUSH2 0x2711 JUMP JUMPDEST PUSH1 0x15 SLOAD PUSH2 0x15FC SWAP2 SWAP1 PUSH2 0x2667 JUMP JUMPDEST PUSH2 0x1606 SWAP2 SWAP1 PUSH2 0x2650 JUMP JUMPDEST SWAP1 POP PUSH1 0xD SLOAD PUSH1 0x10 PUSH2 0x1617 SWAP2 SWAP1 PUSH2 0x26D0 JUMP JUMPDEST DUP2 GT ISZERO PUSH2 0x1626 JUMPI POP POP PUSH1 0xD SLOAD SWAP1 JUMP JUMPDEST PUSH2 0x1631 PUSH1 0x3 DUP3 PUSH2 0x2695 JUMP JUMPDEST SWAP2 POP POP SWAP1 JUMP JUMPDEST PUSH1 0x10 SLOAD PUSH1 0x1 EQ DUP1 ISZERO PUSH2 0x164B JUMPI POP PUSH1 0xF SLOAD PUSH1 0x1 EQ JUMPDEST ISZERO PUSH2 0x1653 JUMPI POP JUMP JUMPDEST PUSH1 0x1 PUSH1 0x1 PUSH1 0xA0 SHL SUB DUP2 AND PUSH1 0x0 SWAP1 DUP2 MSTORE PUSH1 0x1F PUSH1 0x20 SWAP1 DUP2 MSTORE PUSH1 0x40 DUP1 DUP4 KECCAK256 SLOAD PUSH1 0x1E SWAP1 SWAP3 MSTORE DUP3 KECCAK256 SLOAD SWAP1 SWAP2 DUP3 SWAP1 SUB PUSH2 0x1685 JUMPI PUSH1 0x1 SWAP2 POP JUMPDEST DUP1 PUSH1 0x0 SUB PUSH2 0x1691 JUMPI POP PUSH1 0x1 JUMPDEST PUSH1 0x1 DUP2 JUMPDEST PUSH1 0xF SLOAD DUP2 GT PUSH2 0x1781 JUMPI PUSH1 0xF SLOAD DUP2 EQ PUSH2 0x16B1 JUMPI PUSH1 0x11 SLOAD SWAP2 POP PUSH2 0x16C3 JUMP JUMPDEST PUSH1 0x1 PUSH1 0x10 SLOAD PUSH2 0x16C0 SWAP2 SWAP1 PUSH2 0x2650 JUMP JUMPDEST SWAP2 POP JUMPDEST PUSH1 0x0 PUSH2 0x16CF DUP6 DUP5 PUSH2 0x2650 JUMP JUMPDEST PUSH2 0x16DA SWAP1 PUSH1 0x1 PUSH2 0x2667 JUMP JUMPDEST PUSH8 0xFFFFFFFFFFFFFFFF DUP2 GT ISZERO PUSH2 0x16F2 JUMPI PUSH2 0x16F2 PUSH2 0x242A JUMP JUMPDEST PUSH1 0x40 MLOAD SWAP1 DUP1 DUP3 MSTORE DUP1 PUSH1 0x20 MUL PUSH1 0x20 ADD DUP3 ADD PUSH1 0x40 MSTORE DUP1 ISZERO PUSH2 0x171B JUMPI DUP2 PUSH1 0x20 ADD PUSH1 0x20 DUP3 MUL DUP1 CALLDATASIZE DUP4 CALLDATACOPY ADD SWAP1 POP JUMPDEST POP SWAP1 POP DUP5 JUMPDEST DUP4 DUP2 GT PUSH2 0x1760 JUMPI DUP1 DUP3 PUSH2 0x1733 DUP9 DUP4 PUSH2 0x2650 JUMP JUMPDEST DUP2 MLOAD DUP2 LT PUSH2 0x1743 JUMPI PUSH2 0x1743 PUSH2 0x267F JUMP JUMPDEST PUSH1 0x20 SWAP1 DUP2 MUL SWAP2 SWAP1 SWAP2 ADD ADD MSTORE DUP1 PUSH2 0x1758 DUP2 PUSH2 0x26B7 JUMP JUMPDEST SWAP2 POP POP PUSH2 0x1720 JUMP JUMPDEST POP PUSH2 0x176C DUP3 DUP3 DUP9 PUSH2 0x11A3 JUMP JUMPDEST POP POP DUP1 DUP1 PUSH2 0x1779 SWAP1 PUSH2 0x26B7 JUMP JUMPDEST SWAP2 POP POP PUSH2 0x1695 JUMP JUMPDEST POP PUSH1 0x1 PUSH1 0x1 PUSH1 0xA0 SHL SUB SWAP1 SWAP4 AND PUSH1 0x0 SWAP1 DUP2 MSTORE PUSH1 0x1F PUSH1 0x20 MSTORE PUSH1 0x40 SWAP1 KECCAK256 SWAP3 DUP4 SSTORE POP POP PUSH1 0xF SLOAD SWAP1 SSTORE JUMP JUMPDEST PUSH1 0x1 SLOAD PUSH1 0x1 PUSH1 0x1 PUSH1 0xA0 SHL SUB AND CALLER EQ PUSH2 0x17EE JUMPI PUSH1 0x40 MLOAD PUSH3 0x461BCD PUSH1 0xE5 SHL DUP2 MSTORE PUSH1 0x20 PUSH1 0x4 DUP3 ADD MSTORE PUSH1 0xA PUSH1 0x24 DUP3 ADD MSTORE PUSH10 0x37B7363C9037BBB732B9 PUSH1 0xB1 SHL PUSH1 0x44 DUP3 ADD MSTORE PUSH1 0x64 ADD PUSH2 0xDBE JUMP JUMPDEST PUSH1 0x22 SLOAD PUSH1 0xFF AND ISZERO PUSH2 0x1836 JUMPI PUSH1 0x40 MLOAD PUSH3 0x461BCD PUSH1 0xE5 SHL DUP2 MSTORE PUSH1 0x20 PUSH1 0x4 DUP3 ADD MSTORE PUSH1 0x12 PUSH1 0x24 DUP3 ADD MSTORE PUSH18 0x4D757374206F6E6C792072756E206F6E6365 PUSH1 0x70 SHL PUSH1 0x44 DUP3 ADD MSTORE PUSH1 0x64 ADD PUSH2 0xDBE JUMP JUMPDEST PUSH1 0x22 DUP1 SLOAD PUSH1 0xFF NOT AND PUSH1 0x1 OR SWAP1 SSTORE PUSH1 0x12 SLOAD PUSH2 0x1850 SWAP1 TIMESTAMP PUSH2 0x2667 JUMP JUMPDEST PUSH1 0x13 SSTORE PUSH1 0x3 DUP1 SLOAD PUSH1 0x1 PUSH1 0x1 PUSH1 0xA0 SHL SUB DUP4 AND PUSH1 0x1 PUSH1 0x1 PUSH1 0xA0 SHL SUB NOT SWAP2 DUP3 AND DUP2 OR SWAP1 SWAP3 SSTORE PUSH1 0x1 DUP1 SLOAD DUP3 AND SWAP1 SSTORE PUSH1 0x0 PUSH1 0x21 SSTORE PUSH1 0x20 DUP1 SLOAD SWAP1 SWAP2 AND DUP3 OR DUP2 SSTORE PUSH1 0x40 DUP1 MLOAD PUSH4 0x6055F5F PUSH1 0xE5 SHL DUP2 MSTORE SWAP1 MLOAD PUSH4 0xC0ABEBE0 SWAP3 PUSH1 0x4 DUP1 DUP5 ADD SWAP4 SWAP2 SWAP3 SWAP2 DUP3 SWAP1 SUB ADD DUP2 DUP7 GAS STATICCALL ISZERO DUP1 ISZERO PUSH2 0x18C2 JUMPI RETURNDATASIZE PUSH1 0x0 DUP1 RETURNDATACOPY RETURNDATASIZE PUSH1 0x0 REVERT JUMPDEST POP POP POP POP PUSH1 0x40 MLOAD RETURNDATASIZE PUSH1 0x1F NOT PUSH1 0x1F DUP3 ADD AND DUP3 ADD DUP1 PUSH1 0x40 MSTORE POP DUP2 ADD SWAP1 PUSH2 0x18E6 SWAP2 SWAP1 PUSH2 0x2711 JUMP JUMPDEST PUSH1 0x21 SSTORE POP JUMP JUMPDEST PUSH1 0x0 DUP4 DUP2 MSTORE PUSH1 0x1C PUSH1 0x20 SWAP1 DUP2 MSTORE PUSH1 0x40 DUP1 DUP4 KECCAK256 DUP6 DUP5 MSTORE DUP3 MSTORE DUP1 DUP4 KECCAK256 PUSH1 0x1 PUSH1 0x1 PUSH1 0xA0 SHL SUB DUP9 AND DUP5 MSTORE SWAP1 SWAP2 MSTORE DUP2 KECCAK256 SLOAD SWAP1 SUB PUSH2 0x19BB JUMPI PUSH1 0x1 PUSH1 0x1 PUSH1 0xA0 SHL SUB DUP5 AND PUSH1 0x0 SWAP1 DUP2 MSTORE PUSH1 0x1D PUSH1 0x20 SWAP1 DUP2 MSTORE PUSH1 0x40 DUP1 DUP4 KECCAK256 DUP7 DUP5 MSTORE DUP3 MSTORE DUP1 DUP4 KECCAK256 DUP1 SLOAD PUSH1 0x1 DUP2 DUP2 ADD DUP4 SSTORE SWAP2 DUP6 MSTORE DUP4 DUP6 KECCAK256 ADD DUP7 SWAP1 SSTORE DUP7 DUP5 MSTORE PUSH1 0x17 DUP4 MSTORE DUP2 DUP5 KECCAK256 DUP7 DUP6 MSTORE SWAP1 SWAP3 MSTORE DUP3 KECCAK256 DUP1 SLOAD SWAP2 SWAP3 SWAP1 SWAP2 PUSH2 0x1976 SWAP1 DUP5 SWAP1 PUSH2 0x2667 JUMP JUMPDEST SWAP1 SWAP2 SSTORE POP POP PUSH1 0x0 DUP4 DUP2 MSTORE PUSH1 0x18 PUSH1 0x20 SWAP1 DUP2 MSTORE PUSH1 0x40 DUP1 DUP4 KECCAK256 DUP6 DUP5 MSTORE DUP3 MSTORE DUP3 KECCAK256 DUP1 SLOAD PUSH1 0x1 DUP2 ADD DUP3 SSTORE SWAP1 DUP4 MSTORE SWAP2 KECCAK256 ADD DUP1 SLOAD PUSH1 0x1 PUSH1 0x1 PUSH1 0xA0 SHL SUB NOT AND PUSH1 0x1 PUSH1 0x1 PUSH1 0xA0 SHL SUB DUP7 AND OR SWAP1 SSTORE JUMPDEST PUSH1 0x0 DUP4 DUP2 MSTORE PUSH1 0x1C PUSH1 0x20 SWAP1 DUP2 MSTORE PUSH1 0x40 DUP1 DUP4 KECCAK256 DUP6 DUP5 MSTORE DUP3 MSTORE DUP1 DUP4 KECCAK256 PUSH1 0x1 PUSH1 0x1 PUSH1 0xA0 SHL SUB DUP9 AND DUP5 MSTORE SWAP1 SWAP2 MSTORE DUP2 KECCAK256 DUP1 SLOAD DUP4 SWAP3 SWAP1 PUSH2 0x19F5 SWAP1 DUP5 SWAP1 PUSH2 0x2667 JUMP JUMPDEST SWAP1 SWAP2 SSTORE POP POP PUSH1 0x0 DUP4 DUP2 MSTORE PUSH1 0x1A PUSH1 0x20 SWAP1 DUP2 MSTORE PUSH1 0x40 DUP1 DUP4 KECCAK256 DUP6 DUP5 MSTORE SWAP1 SWAP2 MSTORE DUP2 KECCAK256 DUP1 SLOAD DUP4 SWAP3 SWAP1 PUSH2 0x1A23 SWAP1 DUP5 SWAP1 PUSH2 0x2667 JUMP JUMPDEST SWAP1 SWAP2 SSTORE POP POP PUSH1 0x0 DUP4 DUP2 MSTORE PUSH1 0x19 PUSH1 0x20 SWAP1 DUP2 MSTORE PUSH1 0x40 DUP1 DUP4 KECCAK256 DUP6 DUP5 MSTORE SWAP1 SWAP2 MSTORE DUP2 KECCAK256 DUP1 SLOAD DUP4 SWAP3 SWAP1 PUSH2 0x1A51 SWAP1 DUP5 SWAP1 PUSH2 0x2667 JUMP JUMPDEST SWAP3 POP POP DUP2 SWAP1 SSTORE POP DUP1 PUSH1 0x14 PUSH1 0x0 DUP3 DUP3 SLOAD PUSH2 0x1A6A SWAP2 SWAP1 PUSH2 0x2667 JUMP JUMPDEST SWAP1 SWAP2 SSTORE POP PUSH2 0x1A78 SWAP1 POP PUSH2 0x1C23 JUMP JUMPDEST POP POP POP POP POP JUMP JUMPDEST PUSH1 0x0 PUSH2 0x1A89 PUSH2 0x1C23 JUMP JUMPDEST PUSH1 0xF SLOAD DUP5 LT ISZERO PUSH2 0x1AA5 JUMPI PUSH2 0x1A9E DUP5 DUP5 DUP5 PUSH2 0x1DF5 JUMP JUMPDEST SWAP1 POP PUSH2 0x114B JUMP JUMPDEST PUSH1 0xF SLOAD DUP5 SUB PUSH2 0x114B JUMPI PUSH1 0x10 SLOAD DUP4 LT ISZERO PUSH2 0x114B JUMPI PUSH2 0xA4D DUP5 DUP5 DUP5 PUSH2 0x1DF5 JUMP JUMPDEST PUSH1 0x0 DUP1 PUSH2 0x1AD0 DUP4 DUP6 PUSH2 0x2667 JUMP JUMPDEST SWAP1 POP DUP4 DUP2 LT ISZERO PUSH2 0x114B JUMPI PUSH1 0x40 MLOAD PUSH3 0x461BCD PUSH1 0xE5 SHL DUP2 MSTORE PUSH1 0x20 PUSH1 0x4 DUP3 ADD MSTORE PUSH1 0xC PUSH1 0x24 DUP3 ADD MSTORE PUSH12 0x416464206F766572666C6F77 PUSH1 0xA0 SHL PUSH1 0x44 DUP3 ADD MSTORE PUSH1 0x64 ADD PUSH2 0xDBE JUMP JUMPDEST PUSH1 0x0 DUP4 DUP2 MSTORE PUSH1 0x1C PUSH1 0x20 SWAP1 DUP2 MSTORE PUSH1 0x40 DUP1 DUP4 KECCAK256 DUP6 DUP5 MSTORE DUP3 MSTORE DUP1 DUP4 KECCAK256 PUSH1 0x1 PUSH1 0x1 PUSH1 0xA0 SHL SUB DUP6 AND DUP5 MSTORE SWAP1 SWAP2 MSTORE DUP2 KECCAK256 SLOAD DUP1 DUP3 SUB PUSH2 0x1B4C JUMPI PUSH1 0x0 SWAP2 POP PUSH2 0x1C18 JUMP JUMPDEST PUSH2 0x1B57 DUP6 DUP6 DUP6 PUSH2 0x1422 JUMP JUMPDEST PUSH1 0x0 DUP7 DUP2 MSTORE PUSH1 0x1C PUSH1 0x20 SWAP1 DUP2 MSTORE PUSH1 0x40 DUP1 DUP4 KECCAK256 DUP9 DUP5 MSTORE DUP3 MSTORE DUP1 DUP4 KECCAK256 PUSH1 0x1 PUSH1 0x1 PUSH1 0xA0 SHL SUB DUP9 AND DUP5 MSTORE DUP3 MSTORE DUP1 DUP4 KECCAK256 DUP4 SWAP1 SSTORE DUP9 DUP4 MSTORE PUSH1 0x1A DUP3 MSTORE DUP1 DUP4 KECCAK256 DUP9 DUP5 MSTORE SWAP1 SWAP2 MSTORE SWAP1 KECCAK256 SLOAD SWAP1 SWAP3 POP PUSH2 0x1BA4 SWAP1 DUP3 PUSH2 0x2006 JUMP JUMPDEST PUSH1 0x0 DUP7 DUP2 MSTORE PUSH1 0x1A PUSH1 0x20 SWAP1 DUP2 MSTORE PUSH1 0x40 DUP1 DUP4 KECCAK256 DUP9 DUP5 MSTORE DUP3 MSTORE DUP1 DUP4 KECCAK256 SWAP4 SWAP1 SWAP4 SSTORE DUP8 DUP3 MSTORE PUSH1 0x1B DUP2 MSTORE DUP3 DUP3 KECCAK256 DUP8 DUP4 MSTORE SWAP1 MSTORE KECCAK256 SLOAD PUSH2 0x1BDC SWAP1 DUP4 PUSH2 0x2006 JUMP JUMPDEST PUSH1 0x0 DUP7 DUP2 MSTORE PUSH1 0x1B PUSH1 0x20 SWAP1 DUP2 MSTORE PUSH1 0x40 DUP1 DUP4 KECCAK256 DUP9 DUP5 MSTORE SWAP1 SWAP2 MSTORE SWAP1 KECCAK256 SSTORE PUSH2 0x1C01 DUP3 PUSH1 0x10 PUSH2 0x26D0 JUMP JUMPDEST PUSH1 0x15 PUSH1 0x0 DUP3 DUP3 SLOAD PUSH2 0x1C12 SWAP2 SWAP1 PUSH2 0x2667 JUMP JUMPDEST SWAP1 SWAP2 SSTORE POP POP JUMPDEST PUSH2 0x1147 DUP3 PUSH1 0x10 PUSH2 0x26D0 JUMP JUMPDEST PUSH1 0x13 SLOAD TIMESTAMP SWAP1 DUP2 GT ISZERO PUSH2 0x1DF2 JUMPI PUSH1 0x11 SLOAD PUSH1 0x10 SLOAD LT PUSH2 0x1CBF JUMPI PUSH1 0x1 PUSH1 0xF PUSH1 0x0 DUP3 DUP3 SLOAD PUSH2 0x1C4D SWAP2 SWAP1 PUSH2 0x2667 JUMP JUMPDEST SWAP1 SWAP2 SSTORE POP POP PUSH1 0x0 PUSH1 0x10 SSTORE PUSH2 0x1C5F PUSH2 0x1152 JUMP JUMPDEST PUSH1 0xD DUP2 SWAP1 SSTORE PUSH1 0xF DUP1 SLOAD PUSH1 0x0 SWAP1 DUP2 MSTORE PUSH1 0x16 PUSH1 0x20 SWAP1 DUP2 MSTORE PUSH1 0x40 SWAP2 DUP3 SWAP1 KECCAK256 DUP5 SWAP1 SSTORE SWAP2 SLOAD PUSH1 0x14 SLOAD DUP3 MLOAD SWAP2 DUP3 MSTORE SWAP3 DUP2 ADD SWAP4 SWAP1 SWAP4 MSTORE DUP3 ADD MSTORE PUSH32 0x9D472BCF372FCE01FD875C3296E8E5AE0A08BFCA42DEDAC19E202271CE8F39C5 SWAP1 PUSH1 0x60 ADD PUSH1 0x40 MLOAD DUP1 SWAP2 SUB SWAP1 LOG1 JUMPDEST PUSH2 0x1CC7 PUSH2 0x2052 JUMP JUMPDEST PUSH1 0x1 PUSH1 0x10 PUSH1 0x0 DUP3 DUP3 SLOAD PUSH2 0x1CDA SWAP2 SWAP1 PUSH2 0x2667 JUMP JUMPDEST SWAP1 SWAP2 SSTORE POP POP PUSH1 0x12 SLOAD PUSH2 0x1CEC SWAP1 DUP3 PUSH2 0x2667 JUMP JUMPDEST PUSH1 0x13 SSTORE PUSH2 0x1CF7 PUSH2 0x1579 JUMP JUMPDEST PUSH1 0xD DUP2 SWAP1 SSTORE PUSH2 0x1D07 SWAP1 PUSH1 0x10 PUSH2 0x26D0 JUMP JUMPDEST PUSH1 0xE SLOAD PUSH2 0x1D14 SWAP2 SWAP1 PUSH2 0x2667 JUMP JUMPDEST PUSH1 0xE SSTORE PUSH1 0xD SLOAD PUSH1 0xF DUP1 SLOAD PUSH1 0x0 SWAP1 DUP2 MSTORE PUSH1 0x1B PUSH1 0x20 SWAP1 DUP2 MSTORE PUSH1 0x40 DUP1 DUP4 KECCAK256 PUSH1 0x10 DUP1 SLOAD DUP6 MSTORE SWAP3 MSTORE DUP3 KECCAK256 SWAP4 SWAP1 SWAP4 SSTORE SWAP1 SLOAD SWAP2 SLOAD PUSH2 0x1D4D SWAP1 PUSH1 0x1 SWAP1 PUSH2 0x2650 JUMP JUMPDEST SWAP1 POP PUSH1 0x10 SLOAD PUSH1 0x1 SUB PUSH2 0x1D70 JUMPI PUSH1 0x1 PUSH1 0xF SLOAD PUSH2 0x1D68 SWAP2 SWAP1 PUSH2 0x2650 JUMP JUMPDEST SWAP2 POP PUSH1 0x11 SLOAD SWAP1 POP JUMPDEST PUSH1 0xF SLOAD PUSH1 0x10 SLOAD PUSH1 0x13 SLOAD PUSH1 0x0 DUP6 DUP2 MSTORE PUSH1 0x19 PUSH1 0x20 SWAP1 DUP2 MSTORE PUSH1 0x40 DUP1 DUP4 KECCAK256 DUP8 DUP5 MSTORE DUP3 MSTORE DUP1 DUP4 KECCAK256 SLOAD DUP9 DUP5 MSTORE PUSH1 0x17 DUP4 MSTORE DUP2 DUP5 KECCAK256 DUP9 DUP6 MSTORE DUP4 MSTORE SWAP3 DUP2 SWAP1 KECCAK256 SLOAD DUP2 MLOAD SWAP7 DUP8 MSTORE SWAP2 DUP7 ADD SWAP5 SWAP1 SWAP5 MSTORE DUP5 DUP5 ADD SWAP3 SWAP1 SWAP3 MSTORE PUSH1 0x60 DUP5 ADD MSTORE PUSH1 0x80 DUP4 ADD MSTORE MLOAD PUSH32 0xF0047F88D9BCE548F6A3B5F02AAE9964BCB69AFB1848B6ACAAB809A2B0629AAF SWAP2 DUP2 SWAP1 SUB PUSH1 0xA0 ADD SWAP1 LOG1 POP POP JUMPDEST POP JUMP JUMPDEST PUSH1 0x0 DUP4 DUP2 MSTORE PUSH1 0x1C PUSH1 0x20 SWAP1 DUP2 MSTORE PUSH1 0x40 DUP1 DUP4 KECCAK256 DUP6 DUP5 MSTORE DUP3 MSTORE DUP1 DUP4 KECCAK256 PUSH1 0x1 PUSH1 0x1 PUSH1 0xA0 SHL SUB DUP6 AND DUP5 MSTORE SWAP1 SWAP2 MSTORE DUP2 KECCAK256 SLOAD DUP1 DUP3 SUB PUSH2 0x1E30 JUMPI PUSH1 0x0 SWAP2 POP PUSH2 0x1C18 JUMP JUMPDEST PUSH2 0x1E3B DUP6 DUP6 DUP6 PUSH2 0x1422 JUMP JUMPDEST PUSH1 0x0 DUP7 DUP2 MSTORE PUSH1 0x1C PUSH1 0x20 SWAP1 DUP2 MSTORE PUSH1 0x40 DUP1 DUP4 KECCAK256 DUP9 DUP5 MSTORE DUP3 MSTORE DUP1 DUP4 KECCAK256 PUSH1 0x1 PUSH1 0x1 PUSH1 0xA0 SHL SUB DUP9 AND DUP5 MSTORE DUP3 MSTORE DUP1 DUP4 KECCAK256 DUP4 SWAP1 SSTORE DUP9 DUP4 MSTORE PUSH1 0x1A DUP3 MSTORE DUP1 DUP4 KECCAK256 DUP9 DUP5 MSTORE SWAP1 SWAP2 MSTORE SWAP1 KECCAK256 SLOAD SWAP1 SWAP3 POP PUSH2 0x1E88 SWAP1 DUP3 PUSH2 0x2006 JUMP JUMPDEST PUSH1 0x0 DUP7 DUP2 MSTORE PUSH1 0x1A PUSH1 0x20 SWAP1 DUP2 MSTORE PUSH1 0x40 DUP1 DUP4 KECCAK256 DUP9 DUP5 MSTORE DUP3 MSTORE DUP1 DUP4 KECCAK256 SWAP4 SWAP1 SWAP4 SSTORE DUP8 DUP3 MSTORE PUSH1 0x1B DUP2 MSTORE DUP3 DUP3 KECCAK256 DUP8 DUP4 MSTORE SWAP1 MSTORE KECCAK256 SLOAD PUSH2 0x1EC0 SWAP1 DUP4 PUSH2 0x2006 JUMP JUMPDEST PUSH1 0x0 DUP7 DUP2 MSTORE PUSH1 0x1B PUSH1 0x20 SWAP1 DUP2 MSTORE PUSH1 0x40 DUP1 DUP4 KECCAK256 DUP9 DUP5 MSTORE SWAP1 SWAP2 MSTORE SWAP1 KECCAK256 SSTORE PUSH2 0x1EE5 DUP3 PUSH1 0x10 PUSH2 0x26D0 JUMP JUMPDEST PUSH1 0x15 PUSH1 0x0 DUP3 DUP3 SLOAD PUSH2 0x1EF6 SWAP2 SWAP1 PUSH2 0x2667 JUMP JUMPDEST SWAP1 SWAP2 SSTORE POP POP PUSH1 0x1 PUSH1 0x1 PUSH1 0xA0 SHL SUB DUP4 AND CALLER PUSH32 0x7F3FA649AA08DBAFF5B36B865F9585AE5B83BCB35185C846035019B63967B6E9 DUP8 DUP8 PUSH2 0x1F34 DUP8 PUSH1 0x10 PUSH2 0x26D0 JUMP JUMPDEST PUSH1 0x0 DUP12 DUP2 MSTORE PUSH1 0x1B PUSH1 0x20 SWAP1 DUP2 MSTORE PUSH1 0x40 DUP1 DUP4 KECCAK256 DUP14 DUP5 MSTORE DUP3 MSTORE SWAP2 DUP3 SWAP1 KECCAK256 SLOAD DUP3 MLOAD SWAP6 DUP7 MSTORE SWAP1 DUP6 ADD SWAP4 SWAP1 SWAP4 MSTORE DUP4 ADD MSTORE PUSH1 0x60 DUP3 ADD MSTORE PUSH1 0x80 ADD PUSH1 0x40 MLOAD DUP1 SWAP2 SUB SWAP1 LOG3 PUSH1 0x3 SLOAD PUSH1 0x1 PUSH1 0x1 PUSH1 0xA0 SHL SUB AND PUSH4 0xA9059CBB DUP5 PUSH2 0x1F8B DUP6 PUSH1 0x10 PUSH2 0x26D0 JUMP JUMPDEST PUSH1 0x40 MLOAD PUSH1 0x1 PUSH1 0x1 PUSH1 0xE0 SHL SUB NOT PUSH1 0xE0 DUP6 SWAP1 SHL AND DUP2 MSTORE PUSH1 0x1 PUSH1 0x1 PUSH1 0xA0 SHL SUB SWAP1 SWAP3 AND PUSH1 0x4 DUP4 ADD MSTORE PUSH1 0x24 DUP3 ADD MSTORE PUSH1 0x44 ADD PUSH1 0x20 PUSH1 0x40 MLOAD DUP1 DUP4 SUB DUP2 PUSH1 0x0 DUP8 GAS CALL ISZERO DUP1 ISZERO PUSH2 0x1FD6 JUMPI RETURNDATASIZE PUSH1 0x0 DUP1 RETURNDATACOPY RETURNDATASIZE PUSH1 0x0 REVERT JUMPDEST POP POP POP POP PUSH1 0x40 MLOAD RETURNDATASIZE PUSH1 0x1F NOT PUSH1 0x1F DUP3 ADD AND DUP3 ADD DUP1 PUSH1 0x40 MSTORE POP DUP2 ADD SWAP1 PUSH2 0x1FFA SWAP2 SWAP1 PUSH2 0x26EF JUMP JUMPDEST POP PUSH2 0x1147 DUP3 PUSH1 0x10 PUSH2 0x26D0 JUMP JUMPDEST PUSH1 0x0 DUP2 DUP4 LT ISZERO PUSH2 0x2048 JUMPI PUSH1 0x40 MLOAD PUSH3 0x461BCD PUSH1 0xE5 SHL DUP2 MSTORE PUSH1 0x20 PUSH1 0x4 DUP3 ADD MSTORE PUSH1 0xD PUSH1 0x24 DUP3 ADD MSTORE PUSH13 0x53756220756E646572666C6F77 PUSH1 0x98 SHL PUSH1 0x44 DUP3 ADD MSTORE PUSH1 0x64 ADD PUSH2 0xDBE JUMP JUMPDEST PUSH2 0x114B DUP3 DUP5 PUSH2 0x2650 JUMP JUMPDEST PUSH1 0x20 DUP1 SLOAD PUSH1 0x40 DUP1 MLOAD PUSH4 0x6055F5F PUSH1 0xE5 SHL DUP2 MSTORE SWAP1 MLOAD PUSH1 0x0 SWAP4 PUSH1 0x1 PUSH1 0x1 PUSH1 0xA0 SHL SUB SWAP1 SWAP4 AND SWAP3 PUSH4 0xC0ABEBE0 SWAP3 PUSH1 0x4 DUP1 DUP3 ADD SWAP4 SWAP2 DUP3 SWAP1 SUB ADD DUP2 DUP7 GAS STATICCALL ISZERO DUP1 ISZERO PUSH2 0x209B JUMPI RETURNDATASIZE PUSH1 0x0 DUP1 RETURNDATACOPY RETURNDATASIZE PUSH1 0x0 REVERT JUMPDEST POP POP POP POP PUSH1 0x40 MLOAD RETURNDATASIZE PUSH1 0x1F NOT PUSH1 0x1F DUP3 ADD AND DUP3 ADD DUP1 PUSH1 0x40 MSTORE POP DUP2 ADD SWAP1 PUSH2 0x20BF SWAP2 SWAP1 PUSH2 0x2711 JUMP JUMPDEST SWAP1 POP PUSH1 0x0 PUSH1 0x21 SLOAD DUP3 PUSH2 0x20D1 SWAP2 SWAP1 PUSH2 0x2650 JUMP JUMPDEST SWAP1 POP PUSH1 0x0 PUSH2 0x20F7 PUSH1 0x64 PUSH2 0x20F1 PUSH2 0xCE0 PUSH1 0xD SLOAD PUSH2 0x21DF SWAP1 SWAP2 SWAP1 PUSH4 0xFFFFFFFF AND JUMP JUMPDEST SWAP1 PUSH2 0x2247 JUMP JUMPDEST SWAP1 POP DUP2 ISZERO PUSH2 0x21B6 JUMPI DUP1 DUP3 LT ISZERO PUSH2 0x2167 JUMPI PUSH1 0x0 PUSH2 0x2118 DUP4 PUSH2 0x20F1 DUP5 PUSH1 0x64 PUSH2 0x21DF JUMP JUMPDEST SWAP1 POP PUSH1 0x0 PUSH2 0x2133 PUSH2 0x3E8 PUSH2 0x212D DUP5 PUSH1 0x64 PUSH2 0x2006 JUMP JUMPDEST SWAP1 PUSH2 0x2291 JUMP JUMPDEST SWAP1 POP PUSH2 0x215C PUSH2 0x2153 PUSH2 0x3E8 PUSH2 0x20F1 DUP5 PUSH1 0x12 SLOAD PUSH2 0x21DF SWAP1 SWAP2 SWAP1 PUSH4 0xFFFFFFFF AND JUMP JUMPDEST PUSH1 0x12 SLOAD SWAP1 PUSH2 0x1AC3 JUMP JUMPDEST PUSH1 0x12 SSTORE POP PUSH2 0x21C8 SWAP1 POP JUMP JUMPDEST PUSH1 0x0 PUSH2 0x2178 DUP3 PUSH2 0x20F1 DUP6 PUSH1 0x64 PUSH2 0x21DF JUMP JUMPDEST SWAP1 POP PUSH1 0x0 PUSH2 0x218D PUSH2 0x3E8 PUSH2 0x212D DUP5 PUSH1 0x64 PUSH2 0x2006 JUMP JUMPDEST SWAP1 POP PUSH2 0x215C PUSH2 0x21AD PUSH2 0x7D0 PUSH2 0x20F1 DUP5 PUSH1 0x12 SLOAD PUSH2 0x21DF SWAP1 SWAP2 SWAP1 PUSH4 0xFFFFFFFF AND JUMP JUMPDEST PUSH1 0x12 SLOAD SWAP1 PUSH2 0x2006 JUMP JUMPDEST PUSH1 0x12 SLOAD PUSH2 0x21C4 SWAP1 PUSH1 0x2 PUSH2 0x26D0 JUMP JUMPDEST PUSH1 0x12 SSTORE JUMPDEST PUSH1 0x5 PUSH1 0x12 SLOAD GT PUSH2 0x21D8 JUMPI PUSH1 0xA PUSH1 0x12 SSTORE JUMPDEST POP POP PUSH1 0x21 SSTORE JUMP JUMPDEST PUSH1 0x0 DUP3 PUSH1 0x0 SUB PUSH2 0x21F1 JUMPI POP PUSH1 0x0 PUSH2 0x119D JUMP JUMPDEST PUSH1 0x0 PUSH2 0x21FD DUP4 DUP6 PUSH2 0x26D0 JUMP JUMPDEST SWAP1 POP DUP3 PUSH2 0x220A DUP6 DUP4 PUSH2 0x2695 JUMP JUMPDEST EQ PUSH2 0x114B JUMPI PUSH1 0x40 MLOAD PUSH3 0x461BCD PUSH1 0xE5 SHL DUP2 MSTORE PUSH1 0x20 PUSH1 0x4 DUP3 ADD MSTORE PUSH1 0xD PUSH1 0x24 DUP3 ADD MSTORE PUSH13 0x4D756C74206F766572666C6F77 PUSH1 0x98 SHL PUSH1 0x44 DUP3 ADD MSTORE PUSH1 0x64 ADD PUSH2 0xDBE JUMP JUMPDEST PUSH1 0x0 DUP2 PUSH1 0x0 SUB PUSH2 0x2287 JUMPI PUSH1 0x40 MLOAD PUSH3 0x461BCD PUSH1 0xE5 SHL DUP2 MSTORE PUSH1 0x20 PUSH1 0x4 DUP3 ADD MSTORE PUSH1 0xB PUSH1 0x24 DUP3 ADD MSTORE PUSH11 0x446976206279207A65726F PUSH1 0xA8 SHL PUSH1 0x44 DUP3 ADD MSTORE PUSH1 0x64 ADD PUSH2 0xDBE JUMP JUMPDEST PUSH2 0x114B DUP3 DUP5 PUSH2 0x2695 JUMP JUMPDEST PUSH1 0x0 DUP2 DUP4 GT ISZERO PUSH2 0x22A2 JUMPI POP DUP1 PUSH2 0x119D JUMP JUMPDEST POP SWAP1 SWAP2 SWAP1 POP JUMP JUMPDEST PUSH1 0x0 PUSH1 0x20 DUP1 DUP4 MSTORE DUP4 MLOAD DUP1 DUP3 DUP6 ADD MSTORE PUSH1 0x0 JUMPDEST DUP2 DUP2 LT ISZERO PUSH2 0x22D6 JUMPI DUP6 DUP2 ADD DUP4 ADD MLOAD DUP6 DUP3 ADD PUSH1 0x40 ADD MSTORE DUP3 ADD PUSH2 0x22BA JUMP JUMPDEST DUP2 DUP2 GT ISZERO PUSH2 0x22E8 JUMPI PUSH1 0x0 PUSH1 0x40 DUP4 DUP8 ADD ADD MSTORE JUMPDEST POP PUSH1 0x1F ADD PUSH1 0x1F NOT AND SWAP3 SWAP1 SWAP3 ADD PUSH1 0x40 ADD SWAP4 SWAP3 POP POP POP JUMP JUMPDEST PUSH1 0x0 DUP1 PUSH1 0x0 PUSH1 0x60 DUP5 DUP7 SUB SLT ISZERO PUSH2 0x2313 JUMPI PUSH1 0x0 DUP1 REVERT JUMPDEST POP POP DUP2 CALLDATALOAD SWAP4 PUSH1 0x20 DUP4 ADD CALLDATALOAD SWAP4 POP PUSH1 0x40 SWAP1 SWAP3 ADD CALLDATALOAD SWAP2 SWAP1 POP JUMP JUMPDEST PUSH1 0x0 DUP1 PUSH1 0x40 DUP4 DUP6 SUB SLT ISZERO PUSH2 0x233D JUMPI PUSH1 0x0 DUP1 REVERT JUMPDEST POP POP DUP1 CALLDATALOAD SWAP3 PUSH1 0x20 SWAP1 SWAP2 ADD CALLDATALOAD SWAP2 POP JUMP JUMPDEST DUP1 CALLDATALOAD PUSH1 0x1 PUSH1 0x1 PUSH1 0xA0 SHL SUB DUP2 AND DUP2 EQ PUSH2 0x2363 JUMPI PUSH1 0x0 DUP1 REVERT JUMPDEST SWAP2 SWAP1 POP JUMP JUMPDEST PUSH1 0x0 PUSH1 0x20 DUP3 DUP5 SUB SLT ISZERO PUSH2 0x237A JUMPI PUSH1 0x0 DUP1 REVERT JUMPDEST PUSH2 0x114B DUP3 PUSH2 0x234C JUMP JUMPDEST PUSH1 0x0 DUP1 PUSH1 0x0 DUP1 PUSH1 0x80 DUP6 DUP8 SUB SLT ISZERO PUSH2 0x2399 JUMPI PUSH1 0x0 DUP1 REVERT JUMPDEST DUP5 CALLDATALOAD SWAP4 POP PUSH1 0x20 DUP6 ADD CALLDATALOAD SWAP3 POP PUSH1 0x40 DUP6 ADD CALLDATALOAD SWAP2 POP PUSH2 0x23B7 PUSH1 0x60 DUP7 ADD PUSH2 0x234C JUMP JUMPDEST SWAP1 POP SWAP3 SWAP6 SWAP2 SWAP5 POP SWAP3 POP JUMP JUMPDEST PUSH1 0x0 DUP1 PUSH1 0x0 PUSH1 0x60 DUP5 DUP7 SUB SLT ISZERO PUSH2 0x23D7 JUMPI PUSH1 0x0 DUP1 REVERT JUMPDEST PUSH2 0x23E0 DUP5 PUSH2 0x234C JUMP JUMPDEST SWAP6 PUSH1 0x20 DUP6 ADD CALLDATALOAD SWAP6 POP PUSH1 0x40 SWAP1 SWAP5 ADD CALLDATALOAD SWAP4 SWAP3 POP POP POP JUMP JUMPDEST PUSH1 0x0 DUP1 PUSH1 0x0 PUSH1 0x60 DUP5 DUP7 SUB SLT ISZERO PUSH2 0x240A JUMPI PUSH1 0x0 DUP1 REVERT JUMPDEST DUP4 CALLDATALOAD SWAP3 POP PUSH1 0x20 DUP5 ADD CALLDATALOAD SWAP2 POP PUSH2 0x2421 PUSH1 0x40 DUP6 ADD PUSH2 0x234C JUMP JUMPDEST SWAP1 POP SWAP3 POP SWAP3 POP SWAP3 JUMP JUMPDEST PUSH4 0x4E487B71 PUSH1 0xE0 SHL PUSH1 0x0 MSTORE PUSH1 0x41 PUSH1 0x4 MSTORE PUSH1 0x24 PUSH1 0x0 REVERT JUMPDEST PUSH1 0x0 DUP3 PUSH1 0x1F DUP4 ADD SLT PUSH2 0x2451 JUMPI PUSH1 0x0 DUP1 REVERT JUMPDEST DUP2 CALLDATALOAD PUSH1 0x20 PUSH8 0xFFFFFFFFFFFFFFFF DUP1 DUP4 GT ISZERO PUSH2 0x246E JUMPI PUSH2 0x246E PUSH2 0x242A JUMP JUMPDEST DUP3 PUSH1 0x5 SHL PUSH1 0x40 MLOAD PUSH1 0x1F NOT PUSH1 0x3F DUP4 ADD AND DUP2 ADD DUP2 DUP2 LT DUP5 DUP3 GT OR ISZERO PUSH2 0x2493 JUMPI PUSH2 0x2493 PUSH2 0x242A JUMP JUMPDEST PUSH1 0x40 MSTORE SWAP4 DUP5 MSTORE DUP6 DUP2 ADD DUP4 ADD SWAP4 DUP4 DUP2 ADD SWAP3 POP DUP8 DUP6 GT ISZERO PUSH2 0x24B1 JUMPI PUSH1 0x0 DUP1 REVERT JUMPDEST DUP4 DUP8 ADD SWAP2 POP JUMPDEST DUP5 DUP3 LT ISZERO PUSH2 0x24D0 JUMPI DUP2 CALLDATALOAD DUP4 MSTORE SWAP2 DUP4 ADD SWAP2 SWAP1 DUP4 ADD SWAP1 PUSH2 0x24B7 JUMP JUMPDEST SWAP8 SWAP7 POP POP POP POP POP POP POP JUMP JUMPDEST PUSH1 0x0 DUP1 PUSH1 0x0 DUP1 PUSH1 0x80 DUP6 DUP8 SUB SLT ISZERO PUSH2 0x24F1 JUMPI PUSH1 0x0 DUP1 REVERT JUMPDEST DUP5 CALLDATALOAD SWAP4 POP PUSH1 0x20 DUP6 ADD CALLDATALOAD PUSH8 0xFFFFFFFFFFFFFFFF DUP1 DUP3 GT ISZERO PUSH2 0x2510 JUMPI PUSH1 0x0 DUP1 REVERT JUMPDEST PUSH2 0x251C DUP9 DUP4 DUP10 ADD PUSH2 0x2440 JUMP JUMPDEST SWAP5 POP PUSH2 0x252A PUSH1 0x40 DUP9 ADD PUSH2 0x234C JUMP JUMPDEST SWAP4 POP PUSH1 0x60 DUP8 ADD CALLDATALOAD SWAP2 POP DUP1 DUP3 GT ISZERO PUSH2 0x2540 JUMPI PUSH1 0x0 DUP1 REVERT JUMPDEST POP PUSH2 0x254D DUP8 DUP3 DUP9 ADD PUSH2 0x2440 JUMP JUMPDEST SWAP2 POP POP SWAP3 SWAP6 SWAP2 SWAP5 POP SWAP3 POP JUMP JUMPDEST PUSH1 0x0 DUP1 PUSH1 0x0 PUSH1 0x60 DUP5 DUP7 SUB SLT ISZERO PUSH2 0x256E JUMPI PUSH1 0x0 DUP1 REVERT JUMPDEST DUP4 CALLDATALOAD SWAP3 POP PUSH1 0x20 DUP5 ADD CALLDATALOAD PUSH8 0xFFFFFFFFFFFFFFFF DUP2 GT ISZERO PUSH2 0x258C JUMPI PUSH1 0x0 DUP1 REVERT JUMPDEST PUSH2 0x2598 DUP7 DUP3 DUP8 ADD PUSH2 0x2440 JUMP JUMPDEST SWAP3 POP POP PUSH2 0x2421 PUSH1 0x40 DUP6 ADD PUSH2 0x234C JUMP JUMPDEST PUSH1 0x0 PUSH1 0x20 DUP3 DUP5 SUB SLT ISZERO PUSH2 0x25B9 JUMPI PUSH1 0x0 DUP1 REVERT JUMPDEST POP CALLDATALOAD SWAP2 SWAP1 POP JUMP JUMPDEST PUSH1 0x0 DUP1 PUSH1 0x40 DUP4 DUP6 SUB SLT ISZERO PUSH2 0x25D3 JUMPI PUSH1 0x0 DUP1 REVERT JUMPDEST PUSH2 0x25DC DUP4 PUSH2 0x234C JUMP JUMPDEST SWAP5 PUSH1 0x20 SWAP4 SWAP1 SWAP4 ADD CALLDATALOAD SWAP4 POP POP POP JUMP JUMPDEST PUSH1 0x1 DUP2 DUP2 SHR SWAP1 DUP3 AND DUP1 PUSH2 0x25FE JUMPI PUSH1 0x7F DUP3 AND SWAP2 POP JUMPDEST PUSH1 0x20 DUP3 LT DUP2 SUB PUSH2 0x261E JUMPI PUSH4 0x4E487B71 PUSH1 0xE0 SHL PUSH1 0x0 MSTORE PUSH1 0x22 PUSH1 0x4 MSTORE PUSH1 0x24 PUSH1 0x0 REVERT JUMPDEST POP SWAP2 SWAP1 POP JUMP JUMPDEST PUSH4 0x4E487B71 PUSH1 0xE0 SHL PUSH1 0x0 MSTORE PUSH1 0x1 PUSH1 0x4 MSTORE PUSH1 0x24 PUSH1 0x0 REVERT JUMPDEST PUSH4 0x4E487B71 PUSH1 0xE0 SHL PUSH1 0x0 MSTORE PUSH1 0x11 PUSH1 0x4 MSTORE PUSH1 0x24 PUSH1 0x0 REVERT JUMPDEST PUSH1 0x0 DUP3 DUP3 LT ISZERO PUSH2 0x2662 JUMPI PUSH2 0x2662 PUSH2 0x263A JUMP JUMPDEST POP SUB SWAP1 JUMP JUMPDEST PUSH1 0x0 DUP3 NOT DUP3 GT ISZERO PUSH2 0x267A JUMPI PUSH2 0x267A PUSH2 0x263A JUMP JUMPDEST POP ADD SWAP1 JUMP JUMPDEST PUSH4 0x4E487B71 PUSH1 0xE0 SHL PUSH1 0x0 MSTORE PUSH1 0x32 PUSH1 0x4 MSTORE PUSH1 0x24 PUSH1 0x0 REVERT JUMPDEST PUSH1 0x0 DUP3 PUSH2 0x26B2 JUMPI PUSH4 0x4E487B71 PUSH1 0xE0 SHL PUSH1 0x0 MSTORE PUSH1 0x12 PUSH1 0x4 MSTORE PUSH1 0x24 PUSH1 0x0 REVERT JUMPDEST POP DIV SWAP1 JUMP JUMPDEST PUSH1 0x0 PUSH1 0x1 DUP3 ADD PUSH2 0x26C9 JUMPI PUSH2 0x26C9 PUSH2 0x263A JUMP JUMPDEST POP PUSH1 0x1 ADD SWAP1 JUMP JUMPDEST PUSH1 0x0 DUP2 PUSH1 0x0 NOT DIV DUP4 GT DUP3 ISZERO ISZERO AND ISZERO PUSH2 0x26EA JUMPI PUSH2 0x26EA PUSH2 0x263A JUMP JUMPDEST POP MUL SWAP1 JUMP JUMPDEST PUSH1 0x0 PUSH1 0x20 DUP3 DUP5 SUB SLT ISZERO PUSH2 0x2701 JUMPI PUSH1 0x0 DUP1 REVERT JUMPDEST DUP2 MLOAD DUP1 ISZERO ISZERO DUP2 EQ PUSH2 0x114B JUMPI PUSH1 0x0 DUP1 REVERT JUMPDEST PUSH1 0x0 PUSH1 0x20 DUP3 DUP5 SUB SLT ISZERO PUSH2 0x2723 JUMPI PUSH1 0x0 DUP1 REVERT JUMPDEST POP MLOAD SWAP2 SWAP1 POP JUMP INVALID LOG2 PUSH5 0x6970667358 0x22 SLT KECCAK256 LOG4 SWAP16 CREATE GAS GASLIMIT SELFDESTRUCT JUMPDEST POP 0xE PUSH14 0x73EA47640D3E2CED55D0B11F429 DUP9 PUSH5 0x2E04E86D1D PUSH29 0x64736F6C634300080E0033000000000000000000000000000000000000 ",
  "sha1": "aa0c7b7e1f7552f5853501872e1a7f6b11433341",
  "source": "/**\n *Submitted for verification at Arbiscan on 2022-12-02\n*/\n\n//  Arbitrum Bitcoin and Staking - Auctions Contract\n//  Auctions Arbitrum Bitcoin and Staking (ABAS) tokens every 12 days and users are able to withdraw anytime after!\n//\n//  The Ethereum collected by ABAS Auctions go to miners and liquidity providers!\n//\n//  10,500,000 ABAS tokens are Auctioned off over 100 years in this contract! In the first era ~5,000,000 are auctioned and half every era after!\n//\n//  Distributes 32,768 ABAS tokens every 10-14 days for the first era(~5 years) and halves the amount of ABAS every era after.\n//\n// By simply sending this contract Ethereum, you will be auto entered into the current auction!\n// *You must control the wallet sending the Ethereum to retrieve your ABAS\n\n\npragma solidity ^0.8.11;\n\ncontract Ownabled {\n    address public owner22;\n    event TransferOwnership(address _from, address _to);\n\n    constructor()  {\n        owner22 = msg.sender;\n        emit TransferOwnership(address(0), msg.sender);\n    }\n\n    modifier onlyOwner22() {\n        require(msg.sender == owner22, \"only owner\");\n        _;\n    }\n    function setOwner(address _owner22) internal onlyOwner22 {\n        emit TransferOwnership(owner22, _owner22);\n        owner22 = _owner22;\n    }\n}\n\nlibrary SafeMath {\n    function add(uint256 x, uint256 y) internal pure returns (uint256) {\n        uint256 z = x + y;\n        require(z >= x, \"Add overflow\");\n        return z;\n    }\n\n    function sub(uint256 x, uint256 y) internal pure returns (uint256) {\n        require(x >= y, \"Sub underflow\");\n        return x - y;\n    }\n\n    function mult(uint256 x, uint256 y) internal pure returns (uint256) {\n        if (x == 0) {\n            return 0;\n        }\n\n        uint256 z = x * y;\n        require(z / x == y, \"Mult overflow\");\n        return z;\n    }\n\n    function div(uint256 x, uint256 y) internal pure returns (uint256) {\n        require(y != 0, \"Div by zero\");\n        return x / y;\n    }\n\n    function divRound(uint256 x, uint256 y) internal pure returns (uint256) {\n        require(y != 0, \"Div by zero\");\n        uint256 r = x / y;\n        if (x % y != 0) {\n            r = r + 1;\n        }\n\n        return r;\n    }\n}\n\nlibrary ExtendedMath {\n\n\n    //return the smaller of the two inputs (a or b)\n    function limitLessThan(uint a, uint b) internal pure returns (uint c) {\n\n        if(a > b) return b;\n\n        return a;\n\n    }\n}\ninterface IERC20 {\n\n    /**\n     * @dev Returns the amount of tokens owned by `account`.\n     */\n    function balanceOf(address account) external view returns (uint256);\n\n    /**\n     * @dev Moves `amount` tokens from the caller's account to `recipient`.\n     *\n     * Returns a boolean value indicating whether the operation succeeded.\n     *\n     * Emits a {Transfer} event.\n     */\n    function transfer(address recipient, uint256 amount) external returns (bool);\n\n    /**\n     * @dev Returns the remaining number of tokens that `spender` will be\n     * allowed to spend on behalf of `owner` through {transferFrom}. This is\n     * zero by default.\n     *\n     * This value changes when {approve} or {transferFrom} are called.\n     */\n    function allowance(address owner, address spender) external view returns (uint256);\n\n    /**\n     * @dev Sets `amount` as the allowance of `spender` over the caller's tokens.\n     *\n     * Returns a boolean value indicating whether the operation succeeded.\n     *\n     * IMPORTANT: Beware that changing an allowance with this method brings the risk\n     * that someone may use both the old and the new allowance by unfortunate\n     * transaction ordering. One possible solution to mitigate this race\n     * condition is to first reduce the spender's allowance to 0 and set the\n     * desired value afterwards:\n     * https://github.com/ethereum/EIPs/issues/20#issuecomment-263524729\n     *\n     * Emits an {Approval} event.\n     */\n    function approve(address spender, uint256 amount) external returns (bool);\n\n    /**\n     * @dev Moves `amount` tokens from `sender` to `recipient` using the\n     * allowance mechanism. `amount` is then deducted from the caller's\n     * allowance.\n     *\n     * Returns a boolean value indicating whether the operation succeeded.\n     *\n     * Emits a {Transfer} event.\n     */\n    function transferFrom(address sender, address recipient, uint256 amount) external returns (bool);\n\n    /**\n     * @dev Emitted when `value` tokens are moved from one account (`from`) to\n     * another (`to`).\n     *\n     * Note that `value` may be zero.\n     */\n\n    /**\n     * @dev Emitted when the allowance of a `spender` for an `owner` is set by\n     * a call to {approve}. `value` is the new allowance.\n     */\n    event Approval(address indexed owner, address indexed spender, uint256 value);\n   \n    \n}\n\ncontract GasPump {\n    bytes32 private stub;\n\n    modifier requestGas(uint256 _factor) {\n        if (tx.gasprice == 0 || gasleft() > block.gaslimit) {\n            uint256 startgas = gasleft();\n            _;\n            uint256 delta = startgas - gasleft();\n            uint256 target = (delta * _factor) / 100;\n            startgas = gasleft();\n            while (startgas - gasleft() < target) {\n                // Burn gas\n                stub = keccak256(abi.encodePacked(stub));\n            }\n        } else {\n            _;\n        }\n    }\n}\n\ncontract ABASMining{\n    function getMiningMinted() public view returns (uint256) {}\n    \n    }\n\n  contract ArbitrumBitcoinAndStakingAuctions is  GasPump, Ownabled\n{\n\n    using SafeMath for uint;\n    using ExtendedMath for uint;\n    address public AddressZeroXBTC;\n    address public AddressForgeToken;\n    // ERC-20 Parameters\n    uint256 public extraGas;\n    bool runonce = false;\n    uint256 oneEthUnit = 1000000000000000000; \n    uint256 one0xBTCUnit =         100000000;\n    string public name;\n    uint public decimals;\n\n    // ERC-20 Mappings\n    mapping(address => uint) private _balances;\n    mapping(address => mapping(address => uint)) private _allowances;\n\n    // Public Parameters\n    uint coin; uint public emission; uint public totalAuctioned = 0;\n    uint public currentEra; uint public currentDay;\n    uint public daysPerEra; uint public secondsPerDay;\n    uint public nextDayTime;\n    uint public totalBurnt; uint public totalEmitted;\n    // Public Mappings\n    \n    mapping(uint=>uint) public mapEra_Emission;                                             // Era->Emission\n    mapping(uint=>mapping(uint=>uint)) public mapEraDay_MemberCount;                        // Era,Days->MemberCount\n    mapping(uint=>mapping(uint=>address[])) public mapEraDay_Members;                       // Era,Days->Members\n    mapping(uint=>mapping(uint=>uint)) public mapEraDay_Units;                              // Era,Days->Units\n    mapping(uint=>mapping(uint=>uint)) public mapEraDay_UnitsRemaining;                     // Era,Days->TotalUnits\n    mapping(uint=>mapping(uint=>uint)) public mapEraDay_EmissionRemaining;                  // Era,Days->Emission\n    mapping(uint=>mapping(uint=>mapping(address=>uint))) public mapEraDay_MemberUnits;      // Era,Days,Member->Units\n    mapping(address=>mapping(uint=>uint[])) public mapMemberEra_Days;                       // Member,Era->Days[]   \n    mapping(address=>uint) public ZmapMember_EraClaimedTo;      // Era,Days,Member->Units\n    mapping(address=>uint) public ZmapMember_DayClaimedTo; \n    \n    ABASMining public ABASMiningToken;\n    // Events\n    event SetExtraGas(uint256 _prev, uint256 _new);\n    event NewEra(uint era, uint emission, uint totalBurnt);\n    event NewDay(uint era, uint day, uint time, uint previousDayTotal, uint previousDayMembers);\n    event Burn(address indexed payer, address indexed member, uint era, uint day, uint units, uint dailyTotal);\n    event BurnMultipleDays(address indexed payer, address indexed member, uint era, uint NumberOfDays, uint totalUnits);\n  \n    event Withdrawal(address indexed caller, address indexed member, uint era, uint day, uint value, uint vetherRemaining);\n    event MegaWithdrawal(address indexed caller, address indexed member, uint era, uint TotalDays, uint256 stricttotal);\n    uint256 public lastMinted = 0;\n    bool inited = false;\n    //=====================================CREATION=========================================//\n\n    // Constructor\n    constructor () {\n        name = \"ABAS Auction Contract\"; decimals = 18; \n        coin = 10**decimals; emission = 2048*coin;\n        currentEra = 1; currentDay = 1; \n        daysPerEra = 150; secondsPerDay = 15 * 60 * 60 * 24; //start out at 15 days avg\n        totalBurnt = 0;\n        totalEmitted = 0;\n        nextDayTime = block.timestamp + secondsPerDay * 10000;\n        mapEra_Emission[currentEra] = emission; \n        mapEraDay_EmissionRemaining[currentEra][currentDay] = emission; \n                                                              \n    }\n    \n    \n    \n\n\n        function zSetUP1(address token) public onlyOwner22 {\n            require(!inited, \"Must only run once\");\n            inited = true;\n        nextDayTime = block.timestamp + secondsPerDay;\n        AddressForgeToken = token;\n        owner22 = address(0);\n        lastMinted =  0;\n        ABASMiningToken = ABASMining(token);\n        lastMinted = ABASMiningToken.getMiningMinted();\n\n    }\n    //Emission * 8 * 4.12 = 66,519 * 150 = 10.2 million ArbiForge\n    function changeAuctionAmt() internal {\n        uint tokensMinted = ABASMiningToken.getMiningMinted();\n      \n        uint diff = tokensMinted - lastMinted;\n        uint expected = emission.mult(8*412).div(100);\n        if(diff != 0){\n            if( diff < expected )\n            {\n                uint excess_block_pct = (expected.mult(100)).div( diff );\n                uint excess_block_pct_extra = excess_block_pct.sub(100).limitLessThan(1000);\n            \n            // If there were 5% more blocks mined than expected then this is 5.  If there were 100% more blocks mined than expected then this is 100.\n            //make it longer since we are not mining enough\n            \n                secondsPerDay = secondsPerDay.add(secondsPerDay.mult(excess_block_pct_extra).div(1000));   //by up to 100 %\n            }else{\n                uint shortage_block_pct = (diff.mult(100)).div( expected );\n                uint shortage_block_pct_extra = shortage_block_pct.sub(100).limitLessThan(1000); //always between 0 and 1000\n\n             //make it shorter since we are mining too many\n                 secondsPerDay = secondsPerDay.sub(secondsPerDay.mult(shortage_block_pct_extra).div(2000));   //by up to 50 %\n              }\n        }else{\n            secondsPerDay = secondsPerDay * 2;\n        }\n       if(secondsPerDay <= 5)  \n       {\n           secondsPerDay = 10;\n       }\n\n           \n       lastMinted = tokensMinted;\n\n    }\n\n\n    receive() external payable {\n\n        burn0xForMember(msg.sender);\n\n\n    }\n\n\n    //Bids for Whole Era\n    function WholeEraBurn0xForMember(address member) public payable returns (bool success)\n    {\n        uint256 daysleft = daysPerEra - currentDay - 1 ;//just incase\n        FutureBurn0xEasier(currentEra, currentDay, daysleft, member);\n        \n        return true;\n        \n    }\n    \n    \n    //Bids for Future in consequitive days\n    function FutureBurn0xEasier(uint _era, uint startingday, uint totalNumberrOfDays, address _member) public payable returns (bool success)\n    {\n        uint[] memory dd = new uint[](totalNumberrOfDays); \n        uint[] memory amt = new uint[](totalNumberrOfDays);\n        uint y=0;\n        for(uint x=startingday; x< (startingday+totalNumberrOfDays); x++)\n        {\n            dd[y] = x;\n            amt[y] = (msg.value) / totalNumberrOfDays;\n            y++;\n        }\n        FutureBurn0xArrays(_era, dd, _member, amt);\n    \n        return true;\n    }\n\n\n    //Burns any amount for any day(s) in any order\n    function FutureBurn0xArrays(uint _era, uint[] memory fdays, address _member, uint[] memory _0xAmount) public payable returns (bool success)\n    {\n        uint256 stricttotal =0;\n        uint256 _daysPerEra=daysPerEra;\n        uint _currentEra = currentEra; \n        require(_era >= currentEra, \"no knucklehead only bid on this era\");\n        for(uint256 x = 0; x < fdays.length; x++)\n        {\n            uint256 dayamt = _0xAmount[x];\n            if(_era == _currentEra)\n            {\n                require(fdays[x] >= currentDay, \"Must not bid behind the days\");\n            }\n            require(fdays[x] <= _daysPerEra, \"Cant bid on days not in era\");\n            stricttotal = stricttotal.add(dayamt);\n            _recordBurn(msg.sender, _member, _era, fdays[x], dayamt);\n        }\n    \n        //require(IERC20(AddressZeroXBTC).transferFrom(msg.sender, AddressForgeToken, stricttotal), \"NO OTHER WAY, send it the required 0xBitcoin\");\n        require(msg.value >= stricttotal, \"Must send required ETH\");\n        emit BurnMultipleDays(msg.sender, _member, _era, fdays.length, stricttotal);\n        \n        return true;\n    \n    }\n\n\n    function burn0xForMember(address member) public payable returns (bool success) {\n        uint day = currentDay;\n       // require(IERC20(AddressZeroXBTC).transferFrom(msg.sender, AddressForgeToken, _0xbtcAmount), \"NO WAY, requires 0xBTC send\");\n\n        address payable To = payable (AddressForgeToken );\n        To.send(msg.value);\n        _recordBurn(msg.sender, member, currentEra, currentDay, msg.value);\n        emit Burn(msg.sender, member, currentEra, day, msg.value, mapEraDay_Units[currentEra][currentDay]);\n        \n        return true;\n    }\n    \n    \n    // Internal - Records burn\n    function _recordBurn(address _payer, address _member, uint _era, uint _day, uint _eth) private {\n        if (mapEraDay_MemberUnits[_era][_day][_member] == 0){                               // If hasn't contributed to this Day yet\n            mapMemberEra_Days[_member][_era].push(_day);                                    // Add it\n            mapEraDay_MemberCount[_era][_day] += 1;                                         // Count member\n            mapEraDay_Members[_era][_day].push(_member);                                    // Add member\n        }\n        mapEraDay_MemberUnits[_era][_day][_member] += _eth;                                 // Add member's share\n        mapEraDay_UnitsRemaining[_era][_day] += _eth;                                       // Add to total historicals\n        mapEraDay_Units[_era][_day] += _eth;                                                // Add to total outstanding\n        totalBurnt += _eth;                                                                 // Add to total burnt\n        _updateEmission();                                                                  // Update emission Schedule\n    }\n    \n    \n    \n        //======================================WITHDRAWAL======================================//\n    // Used to efficiently track participation in each era\n    function getDaysContributedForEra(address member, uint era) public view returns(uint){\n        return mapMemberEra_Days[member][era].length;\n    }\n    \n    \n    // Call to withdraw a claim\n    function withdrawShare(uint era, uint day) external returns (uint value) {\n        uint memberUnits = mapEraDay_MemberUnits[era][day][msg.sender];  \n        assert (memberUnits != 0); // Get Member Units\n        value = _withdrawShare(era, day, msg.sender);\n    }\n    \n    \n    // Call to withdraw a claim for another member\n    function withdrawShareForMember(uint era, uint day, address member) public returns (uint value) {\n        uint memberUnits = mapEraDay_MemberUnits[era][day][member];  \n        assert (memberUnits != 0); // Get Member Units\n        value = _withdrawShare(era, day, member);\n        return value;\n    }\n    \n    \n    // Internal - withdraw function\n    function _withdrawShare (uint _era, uint _day, address _member) private returns (uint value) {\n        _updateEmission(); \n        if (_era < currentEra) {                                                            // Allow if in previous Era\n            value = _processWithdrawal(_era, _day, _member);                                // Process Withdrawal\n        } else if (_era == currentEra) {                                                    // Handle if in current Era\n            if (_day < currentDay) {                                                        // Allow only if in previous Day\n                value = _processWithdrawal(_era, _day, _member);                            // Process Withdrawal\n            }\n        } \n \n        return value;\n        \n    }\n    \n\n    //To change your claiming if somehow error occurs\n    function z_ChangeMaxWithdrawl( uint newMaxDay, uint newMaxEra) public returns  (bool success){\n        ZmapMember_DayClaimedTo[msg.sender] = newMaxDay;\n        ZmapMember_EraClaimedTo[msg.sender] = newMaxEra;\n        \n        return true;\n        \n    }\n    \n    \n    //Super easy auction redeeming\n    function WithdrawEasiest() public\n    {\n        WithdrawEz(msg.sender);\n    }\n\n\n    //Helper Function for efficent redeeming of auctions\n    function WithdrawEz(address _member) public {                \n        if(currentDay == 1 && currentEra == 1){\n            return;\n        }\n        uint startingday = ZmapMember_DayClaimedTo[_member];\n        uint startingera = ZmapMember_EraClaimedTo[_member];\n        if(startingday == 0)\n        {\n            startingday = 1;\n        }\n        if(startingera == 0)\n        {\n            startingera = 1;\n        }\n        uint maxDay=1;\n        for(uint y=startingera; y <= currentEra; y++){\n            if(y != currentEra){\n                maxDay = daysPerEra;\n             }else{\n               maxDay = currentDay - 1;\n             }\n          \n             uint[] memory dd = new uint[](maxDay-startingday+1); \n             for(uint x=startingday; x<= maxDay; x++)\n             {\n                  dd[x-startingday] = x ;\n             }\n             WithdrawlsDays(y, dd, _member);\n        }\n        \n        ZmapMember_DayClaimedTo[_member] = maxDay;\n        ZmapMember_DayClaimedTo[_member] = currentEra;\n        \n    }\n    \n    \n    function Check_Withdraw_Amt(address _member) public view returns(uint amt) {\n        if(currentDay == 1 && currentEra == 1){\n            return 0;\n        }\n        uint startingday = ZmapMember_DayClaimedTo[_member];\n        uint startingera = ZmapMember_EraClaimedTo[_member];\n        if(startingday == 0)\n        {\n            startingday = 1;\n        }\n        if(startingera == 0)\n        {\n            startingera = 1;\n        }\n        uint maxDay=1;\n        uint totz = 0;\n        for(uint y=startingera; y <= currentEra; y++){\n            if(y != currentEra){\n                maxDay = daysPerEra;\n             }else{\n               maxDay = currentDay - 1;\n             }\n          \n             uint[] memory dd = new uint[](maxDay-startingday+1); \n             for(uint x=startingday; x<= maxDay; x++)\n             {\n                  dd[x-startingday] = x ;\n             }\n             totz = totz + Check_Withdrawls_Days(y, dd, _member);\n        }\n        return totz;\n    }\n    \n    //Withdraws All days in era for member\n    function Check_Withdrawls_Days(uint _era, uint[] memory fdays, address _member) public view returns (uint check)\n    {\n    \n        uint256 stricttotal = 0;\n        for(uint256 x = 0; x < fdays.length; x++)\n        {\n            if (_era < currentEra) {                                                                          // Allow if in previous Era\n                \n                uint memberUnits = mapEraDay_MemberUnits[_era][fdays[x]][_member];\n                if (memberUnits!= 0) {\n                    stricttotal = stricttotal + getEmissionShare(_era, fdays[x], _member);\n                }\n            } else if (_era == currentEra) {                                                                  // Handle if in current Era\n                if (fdays[x] < currentDay) {                                                                      // Allow only if in previous Day\n                    uint memberUnits = mapEraDay_MemberUnits[_era][fdays[x]][_member];\n                    if (memberUnits!= 0) {\n                        stricttotal = stricttotal + getEmissionShare(_era, fdays[x], _member);\n                    }\n                }\n            } \n        }\n    \n        return stricttotal*16;\n    }\n\n    \n    //Withdraws All days in era for member\n    function WithdrawlsDays(uint _era, uint[] memory fdays, address _member) public returns (bool success)\n    {\n    \n        uint256 stricttotal = 0;\n        for(uint256 x = 0; x < fdays.length; x++)\n        {\n            if (_era < currentEra) {                                                                          // Allow if in previous Era\n                stricttotal = stricttotal.add( _processWithdrawalRETURNSVAL (_era, fdays[x], _member) );      // Process Withdrawal\n            } else if (_era == currentEra) {                                                                  // Handle if in current Era\n                if (fdays[x] < currentDay) {                                                                      // Allow only if in previous Day\n                    stricttotal = stricttotal.add( _processWithdrawalRETURNSVAL (_era, fdays[x], _member) );  // Process Withdrawal\n                }\n            } \n        }\n        IERC20(AddressForgeToken).transfer(_member, stricttotal);\n        emit MegaWithdrawal(msg.sender, _member, _era, fdays.length, stricttotal);\n    \n        return true;\n    }\n\n\n    function _processWithdrawalRETURNSVAL (uint _era, uint256 _day, address _member) private returns (uint256 value) {\n        uint memberUnits = mapEraDay_MemberUnits[_era][_day][_member];                      // Get Member Units\n        if (memberUnits == 0) { \n            value = 0;                                                                      // Do nothing if 0 (prevents revert)\n        } else {\n            value = getEmissionShare(_era, _day, _member);                                  // Get the emission Share for Member\n            mapEraDay_MemberUnits[_era][_day][_member] = 0;                                 // Set to 0 since it will be withdrawn\n            mapEraDay_UnitsRemaining[_era][_day] = mapEraDay_UnitsRemaining[_era][_day].sub(memberUnits);  // Decrement Member Units\n            mapEraDay_EmissionRemaining[_era][_day] = mapEraDay_EmissionRemaining[_era][_day].sub(value);  // Decrement emission\n            totalEmitted += value*16;\n            //We emit all in one transfer.   \n        }\n        \n        return value*16;\n        \n    }\n    \n    \n    function _processWithdrawal (uint _era, uint _day, address _member) private returns (uint value) {\n        uint memberUnits = mapEraDay_MemberUnits[_era][_day][_member];                      // Get Member Units\n        if (memberUnits == 0) { \n            value = 0;                                                                      // Do nothing if 0 (prevents revert)\n        } else {\n            value = getEmissionShare(_era, _day, _member);                                  // Get the emission Share for Member\n            mapEraDay_MemberUnits[_era][_day][_member] = 0;                                 // Set to 0 since it will be withdrawn\n            mapEraDay_UnitsRemaining[_era][_day] = mapEraDay_UnitsRemaining[_era][_day].sub(memberUnits);  // Decrement Member Units\n            mapEraDay_EmissionRemaining[_era][_day] = mapEraDay_EmissionRemaining[_era][_day].sub(value);  // Decrement emission\n            totalEmitted += value*16;            \n            emit Withdrawal(msg.sender, _member, _era, _day, value*16, mapEraDay_EmissionRemaining[_era][_day]);\n            // ERC20 transfer function\n            IERC20(AddressForgeToken).transfer(_member, value*16); // 8,192 tokens a auction aka almost half the supply an era!\n        }\n        \n        return value*16;\n        \n    }\n    \n    \n    //======================================EMISSION========================================//\n    \n    function getEmissionShare(uint era, uint day, address member) public view returns (uint value) {\n    \n        uint memberUnits = mapEraDay_MemberUnits[era][day][member];                         // Get Member Units\n        if (memberUnits == 0) {\n            return 0;                                                                       // If 0, return 0\n        } else {\n            uint totalUnits = mapEraDay_UnitsRemaining[era][day];                           // Get Total Units\n            uint emissionRemaining = mapEraDay_EmissionRemaining[era][day];                 // Get emission remaining for Day\n            uint balance = IERC20(AddressForgeToken).balanceOf(address(this));                                      // Find remaining balance\n            if (emissionRemaining > balance) { emissionRemaining = balance; }               // In case less than required emission\n            value = (emissionRemaining * memberUnits) / totalUnits;                         // Calculate share\n            return  value;                            \n        }\n    }\n    \n    \n    \n    // Internal - Update emission function\n    function _updateEmission() private {\n        uint _now = block.timestamp;                                                                    // Find now()\n        if (_now > nextDayTime) {                                                          // If time passed the next Day time\n            if (currentDay >= daysPerEra) {                                                 // If time passed the next Era time\n                currentEra += 1; currentDay = 0;                                            // Increment Era, reset Day\n                emission = getNextEraEmission();                                            // Get correct emission\n                mapEra_Emission[currentEra] = emission;                                     // Map emission to Era\n                emit NewEra(currentEra, emission, totalBurnt); \n            }\n            changeAuctionAmt(); \n            currentDay += 1;                                                                // Increment Day\n            nextDayTime = _now + secondsPerDay;                                             // Set next Day time\n         \n            emission = getDayEmission();  \n            totalAuctioned = totalAuctioned + emission*16;\n            // Check daily Dmission\n            mapEraDay_EmissionRemaining[currentEra][currentDay] = emission;                 // Map emission to Day\n            uint _era = currentEra; uint _day = currentDay-1;\n            if(currentDay == 1){ _era = currentEra-1; _day = daysPerEra; }                  // Handle New Era\n            emit NewDay(currentEra, currentDay, nextDayTime, \n            mapEraDay_Units[_era][_day], mapEraDay_MemberCount[_era][_day]);\n            \n        }\n    }\n    \n    \n    // Calculate Era emission\n    function getNextEraEmission() public view returns (uint) {\n        if (emission > coin) {                                                              // Normal Emission Schedule\n            return emission / 2;                                                            // Emissions: 2048 -> 1.0\n        } else{                                                                             // Enters Fee Era\n            return coin;                                                                    // Return 1.0 from fees\n        }\n    }\n    \n    \n     function getSecondsPerDay() public view returns (uint256) {\n     \n        return secondsPerDay;                                                             // Return 1.0 from fees\n    }\n       \n       \n    // Calculate Day emission\n    function getDayEmission() public view returns (uint) {\n        uint balance = (totalEmitted + IERC20(AddressForgeToken).balanceOf(address(this))) - totalAuctioned;                                     // Find remaining balance\n        if (balance > emission*16) {                                                           // Balance is sufficient\n            return emission;                                                                // Return emission\n        } else {                                                                            // Balance has dropped low\n            return balance/3;                                                                 // Return full balance\n        }\n    }\n    \n    \n    function z_transferERC20TokenToMinerContract(address tokenAddress) public returns (bool success) {\n        require(tokenAddress != AddressForgeToken);\n        \n        return IERC20(tokenAddress).transfer(AddressForgeToken, IERC20(tokenAddress).balanceOf(address(this))); \n    }\n    \n    \n}\n\n/*\n*\n* MIT License\n* ===========\n*\n* Copyright (c) 2022 Arbitrum Bitcoin and Staking (ABAS)\n*\n* Permission is hereby granted, free of charge, to any person obtaining a copy\n* of this software and associated documentation files (the \"Software\"), to deal\n* in the Software without restriction, including without limitation the rights\n* to use, copy, modify, merge, publish, distribute, sublicense, and/or sell\n* copies of the Software, and to permit persons to whom the Software is\n* furnished to do so, subject to the following conditions:\n*\n* The above copyright notice and this permission notice shall be included in all\n* copies or substantial portions of the Software.   \n*\n* THE SOFTWARE IS PROVIDED \"AS IS\", WITHOUT WARRANTY OF ANY KIND, EXPRESS OR\n* IMPLIED, INCLUDING BUT NOT LIMITED TO THE WARRANTIES OF MERCHANTABILITY,\n* FITNESS FOR A PARTICULAR PURPOSE AND NONINFRINGEMENT. IN NO EVENT SHALL THE\n* AUTHORS OR COPYRIGHT HOLDERS BE LIABLE FOR ANY CLAIM, DAMAGES OR OTHER\n* LIABILITY, WHETHER IN AN ACTION OF CONTRACT, TORT OR OTHERWISE, ARISING FROM,\n* OUT OF OR IN CONNECTION WITH THE SOFTWARE OR THE USE OR OTHER DEALINGS IN THE\n*/\n",
  "sourcePath": "contracts/Auctions.sol",
  "type": "contract"
}