{
  "abi": [
    {
      "inputs": [],
      "stateMutability": "nonpayable",
      "type": "constructor"
    },
    {
      "anonymous": false,
      "inputs": [
        {
          "indexed": true,
          "internalType": "address",
          "name": "payer",
          "type": "address"
        },
        {
          "indexed": true,
          "internalType": "address",
          "name": "member",
          "type": "address"
        },
        {
          "indexed": false,
          "internalType": "uint256",
          "name": "era",
          "type": "uint256"
        },
        {
          "indexed": false,
          "internalType": "uint256",
          "name": "day",
          "type": "uint256"
        },
        {
          "indexed": false,
          "internalType": "uint256",
          "name": "units",
          "type": "uint256"
        },
        {
          "indexed": false,
          "internalType": "uint256",
          "name": "dailyTotal",
          "type": "uint256"
        }
      ],
      "name": "Burn",
      "type": "event"
    },
    {
      "anonymous": false,
      "inputs": [
        {
          "indexed": true,
          "internalType": "address",
          "name": "payer",
          "type": "address"
        },
        {
          "indexed": true,
          "internalType": "address",
          "name": "member",
          "type": "address"
        },
        {
          "indexed": false,
          "internalType": "uint256",
          "name": "era",
          "type": "uint256"
        },
        {
          "indexed": false,
          "internalType": "uint256",
          "name": "NumberOfDays",
          "type": "uint256"
        },
        {
          "indexed": false,
          "internalType": "uint256",
          "name": "totalUnits",
          "type": "uint256"
        }
      ],
      "name": "BurnMultipleDays",
      "type": "event"
    },
    {
      "anonymous": false,
      "inputs": [
        {
          "indexed": true,
          "internalType": "address",
          "name": "caller",
          "type": "address"
        },
        {
          "indexed": true,
          "internalType": "address",
          "name": "member",
          "type": "address"
        },
        {
          "indexed": false,
          "internalType": "uint256",
          "name": "era",
          "type": "uint256"
        },
        {
          "indexed": false,
          "internalType": "uint256",
          "name": "TotalDays",
          "type": "uint256"
        },
        {
          "indexed": false,
          "internalType": "uint256",
          "name": "stricttotal",
          "type": "uint256"
        }
      ],
      "name": "MegaWithdrawal",
      "type": "event"
    },
    {
      "anonymous": false,
      "inputs": [
        {
          "indexed": false,
          "internalType": "uint256",
          "name": "era",
          "type": "uint256"
        },
        {
          "indexed": false,
          "internalType": "uint256",
          "name": "day",
          "type": "uint256"
        },
        {
          "indexed": false,
          "internalType": "uint256",
          "name": "time",
          "type": "uint256"
        },
        {
          "indexed": false,
          "internalType": "uint256",
          "name": "previousDayTotal",
          "type": "uint256"
        },
        {
          "indexed": false,
          "internalType": "uint256",
          "name": "previousDayMembers",
          "type": "uint256"
        }
      ],
      "name": "NewDay",
      "type": "event"
    },
    {
      "anonymous": false,
      "inputs": [
        {
          "indexed": false,
          "internalType": "uint256",
          "name": "era",
          "type": "uint256"
        },
        {
          "indexed": false,
          "internalType": "uint256",
          "name": "emission",
          "type": "uint256"
        },
        {
          "indexed": false,
          "internalType": "uint256",
          "name": "totalBurnt",
          "type": "uint256"
        }
      ],
      "name": "NewEra",
      "type": "event"
    },
    {
      "anonymous": false,
      "inputs": [
        {
          "indexed": false,
          "internalType": "uint256",
          "name": "_prev",
          "type": "uint256"
        },
        {
          "indexed": false,
          "internalType": "uint256",
          "name": "_new",
          "type": "uint256"
        }
      ],
      "name": "SetExtraGas",
      "type": "event"
    },
    {
      "anonymous": false,
      "inputs": [
        {
          "indexed": false,
          "internalType": "address",
          "name": "_from",
          "type": "address"
        },
        {
          "indexed": false,
          "internalType": "address",
          "name": "_to",
          "type": "address"
        }
      ],
      "name": "TransferOwnership",
      "type": "event"
    },
    {
      "anonymous": false,
      "inputs": [
        {
          "indexed": true,
          "internalType": "address",
          "name": "caller",
          "type": "address"
        },
        {
          "indexed": true,
          "internalType": "address",
          "name": "member",
          "type": "address"
        },
        {
          "indexed": false,
          "internalType": "uint256",
          "name": "era",
          "type": "uint256"
        },
        {
          "indexed": false,
          "internalType": "uint256",
          "name": "day",
          "type": "uint256"
        },
        {
          "indexed": false,
          "internalType": "uint256",
          "name": "value",
          "type": "uint256"
        },
        {
          "indexed": false,
          "internalType": "uint256",
          "name": "vetherRemaining",
          "type": "uint256"
        }
      ],
      "name": "Withdrawal",
      "type": "event"
    },
    {
      "inputs": [],
      "name": "AddressForgeToken",
      "outputs": [
        {
          "internalType": "address",
          "name": "",
          "type": "address"
        }
      ],
      "stateMutability": "view",
      "type": "function"
    },
    {
      "inputs": [],
      "name": "AddressZeroXBTC",
      "outputs": [
        {
          "internalType": "address",
          "name": "",
          "type": "address"
        }
      ],
      "stateMutability": "view",
      "type": "function"
    },
    {
      "inputs": [
        {
          "internalType": "address",
          "name": "_member",
          "type": "address"
        }
      ],
      "name": "Check_Withdraw_Amt",
      "outputs": [
        {
          "internalType": "uint256",
          "name": "amt",
          "type": "uint256"
        }
      ],
      "stateMutability": "view",
      "type": "function"
    },
    {
      "inputs": [
        {
          "internalType": "uint256",
          "name": "_era",
          "type": "uint256"
        },
        {
          "internalType": "uint256[]",
          "name": "fdays",
          "type": "uint256[]"
        },
        {
          "internalType": "address",
          "name": "_member",
          "type": "address"
        }
      ],
      "name": "Check_Withdrawls_Days",
      "outputs": [
        {
          "internalType": "uint256",
          "name": "check",
          "type": "uint256"
        }
      ],
      "stateMutability": "view",
      "type": "function"
    },
    {
      "inputs": [
        {
          "internalType": "uint256",
          "name": "_era",
          "type": "uint256"
        },
        {
          "internalType": "uint256[]",
          "name": "fdays",
          "type": "uint256[]"
        },
        {
          "internalType": "address",
          "name": "_member",
          "type": "address"
        },
        {
          "internalType": "uint256[]",
          "name": "_0xAmount",
          "type": "uint256[]"
        }
      ],
      "name": "FutureBurn0xArrays",
      "outputs": [
        {
          "internalType": "bool",
          "name": "success",
          "type": "bool"
        }
      ],
      "stateMutability": "payable",
      "type": "function"
    },
    {
      "inputs": [
        {
          "internalType": "uint256",
          "name": "_era",
          "type": "uint256"
        },
        {
          "internalType": "uint256",
          "name": "startingday",
          "type": "uint256"
        },
        {
          "internalType": "uint256",
          "name": "totalNumberrOfDays",
          "type": "uint256"
        },
        {
          "internalType": "address",
          "name": "_member",
          "type": "address"
        }
      ],
      "name": "FutureBurn0xEasier",
      "outputs": [
        {
          "internalType": "bool",
          "name": "success",
          "type": "bool"
        }
      ],
      "stateMutability": "payable",
      "type": "function"
    },
    {
      "inputs": [
        {
          "internalType": "address",
          "name": "member",
          "type": "address"
        }
      ],
      "name": "WholeEraBurn0xForMember",
      "outputs": [
        {
          "internalType": "bool",
          "name": "success",
          "type": "bool"
        }
      ],
      "stateMutability": "payable",
      "type": "function"
    },
    {
      "inputs": [],
      "name": "WithdrawEasiest",
      "outputs": [],
      "stateMutability": "nonpayable",
      "type": "function"
    },
    {
      "inputs": [
        {
          "internalType": "address",
          "name": "_member",
          "type": "address"
        }
      ],
      "name": "WithdrawEz",
      "outputs": [],
      "stateMutability": "nonpayable",
      "type": "function"
    },
    {
      "inputs": [
        {
          "internalType": "uint256",
          "name": "_era",
          "type": "uint256"
        },
        {
          "internalType": "uint256[]",
          "name": "fdays",
          "type": "uint256[]"
        },
        {
          "internalType": "address",
          "name": "_member",
          "type": "address"
        }
      ],
      "name": "WithdrawlsDays",
      "outputs": [
        {
          "internalType": "bool",
          "name": "success",
          "type": "bool"
        }
      ],
      "stateMutability": "nonpayable",
      "type": "function"
    },
    {
      "inputs": [
        {
          "internalType": "address",
          "name": "",
          "type": "address"
        }
      ],
      "name": "ZmapMember_DayClaimedTo",
      "outputs": [
        {
          "internalType": "uint256",
          "name": "",
          "type": "uint256"
        }
      ],
      "stateMutability": "view",
      "type": "function"
    },
    {
      "inputs": [
        {
          "internalType": "address",
          "name": "",
          "type": "address"
        }
      ],
      "name": "ZmapMember_EraClaimedTo",
      "outputs": [
        {
          "internalType": "uint256",
          "name": "",
          "type": "uint256"
        }
      ],
      "stateMutability": "view",
      "type": "function"
    },
    {
      "inputs": [
        {
          "internalType": "address",
          "name": "member",
          "type": "address"
        }
      ],
      "name": "burn0xForMember",
      "outputs": [
        {
          "internalType": "bool",
          "name": "success",
          "type": "bool"
        }
      ],
      "stateMutability": "payable",
      "type": "function"
    },
    {
      "inputs": [],
      "name": "currentDay",
      "outputs": [
        {
          "internalType": "uint256",
          "name": "",
          "type": "uint256"
        }
      ],
      "stateMutability": "view",
      "type": "function"
    },
    {
      "inputs": [],
      "name": "currentEra",
      "outputs": [
        {
          "internalType": "uint256",
          "name": "",
          "type": "uint256"
        }
      ],
      "stateMutability": "view",
      "type": "function"
    },
    {
      "inputs": [],
      "name": "daysPerEra",
      "outputs": [
        {
          "internalType": "uint256",
          "name": "",
          "type": "uint256"
        }
      ],
      "stateMutability": "view",
      "type": "function"
    },
    {
      "inputs": [],
      "name": "decimals",
      "outputs": [
        {
          "internalType": "uint256",
          "name": "",
          "type": "uint256"
        }
      ],
      "stateMutability": "view",
      "type": "function"
    },
    {
      "inputs": [],
      "name": "emission",
      "outputs": [
        {
          "internalType": "uint256",
          "name": "",
          "type": "uint256"
        }
      ],
      "stateMutability": "view",
      "type": "function"
    },
    {
      "inputs": [],
      "name": "extraGas",
      "outputs": [
        {
          "internalType": "uint256",
          "name": "",
          "type": "uint256"
        }
      ],
      "stateMutability": "view",
      "type": "function"
    },
    {
      "inputs": [],
      "name": "getDayEmission",
      "outputs": [
        {
          "internalType": "uint256",
          "name": "",
          "type": "uint256"
        }
      ],
      "stateMutability": "view",
      "type": "function"
    },
    {
      "inputs": [
        {
          "internalType": "address",
          "name": "member",
          "type": "address"
        },
        {
          "internalType": "uint256",
          "name": "era",
          "type": "uint256"
        }
      ],
      "name": "getDaysContributedForEra",
      "outputs": [
        {
          "internalType": "uint256",
          "name": "",
          "type": "uint256"
        }
      ],
      "stateMutability": "view",
      "type": "function"
    },
    {
      "inputs": [
        {
          "internalType": "uint256",
          "name": "era",
          "type": "uint256"
        },
        {
          "internalType": "uint256",
          "name": "day",
          "type": "uint256"
        },
        {
          "internalType": "address",
          "name": "member",
          "type": "address"
        }
      ],
      "name": "getEmissionShare",
      "outputs": [
        {
          "internalType": "uint256",
          "name": "value",
          "type": "uint256"
        }
      ],
      "stateMutability": "view",
      "type": "function"
    },
    {
      "inputs": [],
      "name": "getNextEraEmission",
      "outputs": [
        {
          "internalType": "uint256",
          "name": "",
          "type": "uint256"
        }
      ],
      "stateMutability": "view",
      "type": "function"
    },
    {
      "inputs": [],
      "name": "getSecondsPerDay",
      "outputs": [
        {
          "internalType": "uint256",
          "name": "",
          "type": "uint256"
        }
      ],
      "stateMutability": "view",
      "type": "function"
    },
    {
      "inputs": [],
      "name": "lastMinted",
      "outputs": [
        {
          "internalType": "uint256",
          "name": "",
          "type": "uint256"
        }
      ],
      "stateMutability": "view",
      "type": "function"
    },
    {
      "inputs": [
        {
          "internalType": "uint256",
          "name": "",
          "type": "uint256"
        },
        {
          "internalType": "uint256",
          "name": "",
          "type": "uint256"
        }
      ],
      "name": "mapEraDay_EmissionRemaining",
      "outputs": [
        {
          "internalType": "uint256",
          "name": "",
          "type": "uint256"
        }
      ],
      "stateMutability": "view",
      "type": "function"
    },
    {
      "inputs": [
        {
          "internalType": "uint256",
          "name": "",
          "type": "uint256"
        },
        {
          "internalType": "uint256",
          "name": "",
          "type": "uint256"
        }
      ],
      "name": "mapEraDay_MemberCount",
      "outputs": [
        {
          "internalType": "uint256",
          "name": "",
          "type": "uint256"
        }
      ],
      "stateMutability": "view",
      "type": "function"
    },
    {
      "inputs": [
        {
          "internalType": "uint256",
          "name": "",
          "type": "uint256"
        },
        {
          "internalType": "uint256",
          "name": "",
          "type": "uint256"
        },
        {
          "internalType": "address",
          "name": "",
          "type": "address"
        }
      ],
      "name": "mapEraDay_MemberUnits",
      "outputs": [
        {
          "internalType": "uint256",
          "name": "",
          "type": "uint256"
        }
      ],
      "stateMutability": "view",
      "type": "function"
    },
    {
      "inputs": [
        {
          "internalType": "uint256",
          "name": "",
          "type": "uint256"
        },
        {
          "internalType": "uint256",
          "name": "",
          "type": "uint256"
        },
        {
          "internalType": "uint256",
          "name": "",
          "type": "uint256"
        }
      ],
      "name": "mapEraDay_Members",
      "outputs": [
        {
          "internalType": "address",
          "name": "",
          "type": "address"
        }
      ],
      "stateMutability": "view",
      "type": "function"
    },
    {
      "inputs": [
        {
          "internalType": "uint256",
          "name": "",
          "type": "uint256"
        },
        {
          "internalType": "uint256",
          "name": "",
          "type": "uint256"
        }
      ],
      "name": "mapEraDay_Units",
      "outputs": [
        {
          "internalType": "uint256",
          "name": "",
          "type": "uint256"
        }
      ],
      "stateMutability": "view",
      "type": "function"
    },
    {
      "inputs": [
        {
          "internalType": "uint256",
          "name": "",
          "type": "uint256"
        },
        {
          "internalType": "uint256",
          "name": "",
          "type": "uint256"
        }
      ],
      "name": "mapEraDay_UnitsRemaining",
      "outputs": [
        {
          "internalType": "uint256",
          "name": "",
          "type": "uint256"
        }
      ],
      "stateMutability": "view",
      "type": "function"
    },
    {
      "inputs": [
        {
          "internalType": "uint256",
          "name": "",
          "type": "uint256"
        }
      ],
      "name": "mapEra_Emission",
      "outputs": [
        {
          "internalType": "uint256",
          "name": "",
          "type": "uint256"
        }
      ],
      "stateMutability": "view",
      "type": "function"
    },
    {
      "inputs": [
        {
          "internalType": "address",
          "name": "",
          "type": "address"
        },
        {
          "internalType": "uint256",
          "name": "",
          "type": "uint256"
        },
        {
          "internalType": "uint256",
          "name": "",
          "type": "uint256"
        }
      ],
      "name": "mapMemberEra_Days",
      "outputs": [
        {
          "internalType": "uint256",
          "name": "",
          "type": "uint256"
        }
      ],
      "stateMutability": "view",
      "type": "function"
    },
    {
      "inputs": [],
      "name": "name",
      "outputs": [
        {
          "internalType": "string",
          "name": "",
          "type": "string"
        }
      ],
      "stateMutability": "view",
      "type": "function"
    },
    {
      "inputs": [],
      "name": "nextDayTime",
      "outputs": [
        {
          "internalType": "uint256",
          "name": "",
          "type": "uint256"
        }
      ],
      "stateMutability": "view",
      "type": "function"
    },
    {
      "inputs": [],
      "name": "owner22",
      "outputs": [
        {
          "internalType": "address",
          "name": "",
          "type": "address"
        }
      ],
      "stateMutability": "view",
      "type": "function"
    },
    {
      "inputs": [],
      "name": "secondsPerDay",
      "outputs": [
        {
          "internalType": "uint256",
          "name": "",
          "type": "uint256"
        }
      ],
      "stateMutability": "view",
      "type": "function"
    },
    {
      "inputs": [],
      "name": "totalAuctioned",
      "outputs": [
        {
          "internalType": "uint256",
          "name": "",
          "type": "uint256"
        }
      ],
      "stateMutability": "view",
      "type": "function"
    },
    {
      "inputs": [],
      "name": "totalBurnt",
      "outputs": [
        {
          "internalType": "uint256",
          "name": "",
          "type": "uint256"
        }
      ],
      "stateMutability": "view",
      "type": "function"
    },
    {
      "inputs": [],
      "name": "totalEmitted",
      "outputs": [
        {
          "internalType": "uint256",
          "name": "",
          "type": "uint256"
        }
      ],
      "stateMutability": "view",
      "type": "function"
    },
    {
      "inputs": [
        {
          "internalType": "uint256",
          "name": "era",
          "type": "uint256"
        },
        {
          "internalType": "uint256",
          "name": "day",
          "type": "uint256"
        }
      ],
      "name": "withdrawShare",
      "outputs": [
        {
          "internalType": "uint256",
          "name": "value",
          "type": "uint256"
        }
      ],
      "stateMutability": "nonpayable",
      "type": "function"
    },
    {
      "inputs": [
        {
          "internalType": "uint256",
          "name": "era",
          "type": "uint256"
        },
        {
          "internalType": "uint256",
          "name": "day",
          "type": "uint256"
        },
        {
          "internalType": "address",
          "name": "member",
          "type": "address"
        }
      ],
      "name": "withdrawShareForMember",
      "outputs": [
        {
          "internalType": "uint256",
          "name": "value",
          "type": "uint256"
        }
      ],
      "stateMutability": "nonpayable",
      "type": "function"
    },
    {
      "inputs": [
        {
          "internalType": "address",
          "name": "token",
          "type": "address"
        }
      ],
      "name": "zSetUP1",
      "outputs": [],
      "stateMutability": "nonpayable",
      "type": "function"
    },
    {
      "inputs": [
        {
          "internalType": "uint256",
          "name": "newMaxDay",
          "type": "uint256"
        },
        {
          "internalType": "uint256",
          "name": "newMaxEra",
          "type": "uint256"
        }
      ],
      "name": "z_ChangeMaxWithdrawl",
      "outputs": [
        {
          "internalType": "bool",
          "name": "success",
          "type": "bool"
        }
      ],
      "stateMutability": "nonpayable",
      "type": "function"
    },
    {
      "inputs": [
        {
          "internalType": "address",
          "name": "tokenAddress",
          "type": "address"
        }
      ],
      "name": "z_transferERC20TokenToMinerContract",
      "outputs": [
        {
          "internalType": "bool",
          "name": "success",
          "type": "bool"
        }
      ],
      "stateMutability": "nonpayable",
      "type": "function"
    },
    {
      "stateMutability": "payable",
      "type": "receive"
    }
  ],
  "bytecode": "60806040526005805460ff19908116909155670de0b6b3a76400006006556305f5e1006007556000600e8190556021556022805490911690553480156200004557600080fd5b50600180546001600160a01b03191633908117909155604080516000815260208101929092527f5c486528ec3e3f0ea91181cff8116f02bfa350e03b8b6f12e00765adbb5af85c910160405180910390a16040805180820190915260108082526f105d58dd1a5bdb8810dbdb9d1c9858dd60821b6020909201918252620000cf916008916200015f565b5060126009819055620000e490600a6200031a565b600c819055620000f7906108006200032f565b600d556001600f819055601055610258601155607860128190556000601481905560155562000127904262000351565b601355600d54600f8054600090815260166020908152604080832085905592548252601b8152828220601054835290522055620003a8565b8280546200016d906200036c565b90600052602060002090601f016020900481019282620001915760008555620001dc565b82601f10620001ac57805160ff1916838001178555620001dc565b82800160010185558215620001dc579182015b82811115620001dc578251825591602001919060010190620001bf565b50620001ea929150620001ee565b5090565b5b80821115620001ea5760008155600101620001ef565b634e487b7160e01b600052601160045260246000fd5b600181815b808511156200025c57816000190482111562000240576200024062000205565b808516156200024e57918102915b93841c939080029062000220565b509250929050565b600082620002755750600162000314565b81620002845750600062000314565b81600181146200029d5760028114620002a857620002c8565b600191505062000314565b60ff841115620002bc57620002bc62000205565b50506001821b62000314565b5060208310610133831016604e8410600b8410161715620002ed575081810a62000314565b620002f983836200021b565b806000190482111562000310576200031062000205565b0290505b92915050565b600062000328838362000264565b9392505050565b60008160001904831182151516156200034c576200034c62000205565b500290565b6000821982111562000367576200036762000205565b500190565b600181811c908216806200038157607f821691505b602082108103620003a257634e487b7160e01b600052602260045260246000fd5b50919050565b61269580620003b86000396000f3fe6080604052600436106102765760003560e01c80638aab30d31161014f578063c8b9ee6f116100c1578063ee1f84c31161007a578063ee1f84c3146107bb578063effbcf72146107db578063f1261e92146107fb578063fc5c88fc1461081b578063fee05d6214610830578063ffb671861461084657600080fd5b8063c8b9ee6f146106d3578063cb65ee92146106e8578063dac679ec14610715578063dc3222a61461074d578063df0244b114610790578063e82481cf146107a657600080fd5b8063a5a1ba2111610113578063a5a1ba2114610612578063a8db5f521461064a578063b36a8ff21461065d578063bbc19ab01461067d578063bdf7566114610693578063c31842e1146106b357600080fd5b80638aab30d31461056e578063960bc0f11461058e5780639618f7a8146105ae578063966ff650146105e6578063973628f6146105fc57600080fd5b8063510de094116101e857806377217a89116101ac57806377217a89146104a5578063787b4a8c146104e35780637c38a21b146104f6578063827c049e146105165780638454ed271461052c57806389b86db51461055957600080fd5b8063510de094146104015780635a723dc6146104215780635c9302c91461044157806360b2925914610457578063638099531461048f57600080fd5b8063313ce5671161023a578063313ce5671461035f57806333c2a419146103755780633767e339146103885780633ac1c8631461039e5780633db9a7ec146103b457806349e8a6ad146103d457600080fd5b806306fdde031461028b5780630e21f7b4146102b657806323ba5324146102ee5780632a423be81461030e5780632f85e4301461033c57600080fd5b36610286576102843361085c565b005b600080fd5b34801561029757600080fd5b506102a0610913565b6040516102ad91906121de565b60405180910390f35b3480156102c257600080fd5b506102d66102d1366004612233565b6109a1565b6040516001600160a01b0390911681526020016102ad565b3480156102fa57600080fd5b506001546102d6906001600160a01b031681565b34801561031a57600080fd5b5061032e61032936600461225f565b6109e6565b6040519081526020016102ad565b61034f61034a36600461229d565b610a2a565b60405190151581526020016102ad565b34801561036b57600080fd5b5061032e60095481565b61034f6103833660046122b8565b610a65565b34801561039457600080fd5b5061032e60045481565b3480156103aa57600080fd5b5061032e60115481565b3480156103c057600080fd5b5061032e6103cf3660046122f7565b610b8a565b3480156103e057600080fd5b5061032e6103ef36600461229d565b601e6020526000908152604090205481565b34801561040d57600080fd5b506002546102d6906001600160a01b031681565b34801561042d57600080fd5b5061032e61043c36600461229d565b610bc8565b34801561044d57600080fd5b5061032e60105481565b34801561046357600080fd5b5061032e61047236600461225f565b601960209081526000928352604080842090915290825290205481565b34801561049b57600080fd5b5061032e60125481565b3480156104b157600080fd5b5061032e6104c036600461232a565b601c60209081526000938452604080852082529284528284209052825290205481565b61034f6104f1366004612410565b610d0b565b34801561050257600080fd5b5061032e61051136600461248e565b610f6f565b34801561052257600080fd5b5061032e600d5481565b34801561053857600080fd5b5061032e6105473660046124dc565b60166020526000908152604090205481565b34801561056557600080fd5b5061032e611108565b34801561057a57600080fd5b5061034f61058936600461225f565b611131565b34801561059a57600080fd5b5061034f6105a936600461248e565b611159565b3480156105ba57600080fd5b5061032e6105c936600461225f565b601760209081526000928352604080842090915290825290205481565b3480156105f257600080fd5b5061032e60145481565b34801561060857600080fd5b5061032e600f5481565b34801561061e57600080fd5b5061032e61062d36600461225f565b601b60209081526000928352604080842090915290825290205481565b61034f61065836600461229d565b61085c565b34801561066957600080fd5b5061034f61067836600461229d565b6112d4565b34801561068957600080fd5b5061032e60215481565b34801561069f57600080fd5b5061032e6106ae36600461232a565b6113d8565b3480156106bf57600080fd5b5061032e6106ce36600461232a565b6114df565b3480156106df57600080fd5b50610284611524565b3480156106f457600080fd5b5061032e61070336600461229d565b601f6020526000908152604090205481565b34801561072157600080fd5b5061032e61073036600461225f565b601a60209081526000928352604080842090915290825290205481565b34801561075957600080fd5b5061032e6107683660046124f5565b6001600160a01b03919091166000908152601d60209081526040808320938352929052205490565b34801561079c57600080fd5b5061032e60155481565b3480156107b257600080fd5b5061032e61152f565b3480156107c757600080fd5b506102846107d636600461229d565b6115ed565b3480156107e757600080fd5b506102846107f636600461229d565b611741565b34801561080757600080fd5b506003546102d6906001600160a01b031681565b34801561082757600080fd5b5060125461032e565b34801561083c57600080fd5b5061032e60135481565b34801561085257600080fd5b5061032e600e5481565b601054600354604051600092916001600160a01b03169081903480156108fc029186818181858888f193505050505061089c3385600f5460105434611821565b600f546000818152601960209081526040808320601054845282529182902054825193845290830185905234838301526060830152516001600160a01b0386169133917f661f25a08ee5c15fc997f7288c9cd798e1905052f21d761925800799791f130b9181900360800190a35060019392505050565b600880546109209061251f565b80601f016020809104026020016040519081016040528092919081815260200182805461094c9061251f565b80156109995780601f1061096e57610100808354040283529160200191610999565b820191906000526020600020905b81548152906001019060200180831161097c57829003601f168201915b505050505081565b601860205282600052604060002060205281600052604060002081815481106109c957600080fd5b6000918252602090912001546001600160a01b0316925083915050565b6000828152601c602090815260408083208484528252808320338452909152812054808203610a1757610a17612559565b610a228484336119b4565b949350505050565b6000806001601054601154610a3f9190612585565b610a499190612585565b9050610a5b600f546010548386610a65565b5060019392505050565b6000808367ffffffffffffffff811115610a8157610a8161235f565b604051908082528060200260200182016040528015610aaa578160200160208202803683370190505b50905060008467ffffffffffffffff811115610ac857610ac861235f565b604051908082528060200260200182016040528015610af1578160200160208202803683370190505b5090506000865b610b02878961259c565b811015610b6e5780848381518110610b1c57610b1c6125b4565b6020908102919091010152610b3187346125ca565b838381518110610b4357610b436125b4565b602090810291909101015281610b58816125ec565b9250508080610b66906125ec565b915050610af8565b50610b7b88848785610d0b565b50600198975050505050505050565b601d6020528260005260406000206020528160005260406000208181548110610bb257600080fd5b9060005260206000200160009250925050505481565b6001600160a01b0381166000908152601f6020908152604080832054601e909252822054818303610bf857600191505b80600003610c04575060015b60016000825b600f548111610d0157600f548114610c26576011549250610c38565b6001601054610c359190612585565b92505b6000610c448685612585565b610c4f90600161259c565b67ffffffffffffffff811115610c6757610c6761235f565b604051908082528060200260200182016040528015610c90578160200160208202803683370190505b509050855b848111610cd5578082610ca88983612585565b81518110610cb857610cb86125b4565b602090810291909101015280610ccd816125ec565b915050610c95565b50610ce182828a610f6f565b610ceb908461259c565b9250508080610cf9906125ec565b915050610c0a565b5095945050505050565b601154600f546010546000928392909181891015610d7c5760405162461bcd60e51b815260206004820152602360248201527f6e6f206b6e75636b6c6568656164206f6e6c7920626964206f6e20746869732060448201526265726160e81b60648201526084015b60405180910390fd5b60005b8851811015610ec6576000878281518110610d9c57610d9c6125b4565b60200260200101519050838b03610e18576010548a8381518110610dc257610dc26125b4565b60200260200101511015610e185760405162461bcd60e51b815260206004820152601c60248201527f4d757374206e6f742062696420626568696e64207468652064617973000000006044820152606401610d73565b848a8381518110610e2b57610e2b6125b4565b60200260200101511115610e815760405162461bcd60e51b815260206004820152601b60248201527f43616e7420626964206f6e2064617973206e6f7420696e2065726100000000006044820152606401610d73565b610e8b86826119f8565b9550610eb3338a8d8d8681518110610ea557610ea56125b4565b602002602001015185611821565b5080610ebe816125ec565b915050610d7f565b5083341015610f105760405162461bcd60e51b815260206004820152601660248201527509aeae6e840e6cadcc840e4cae2ead2e4cac8408aa8960531b6044820152606401610d73565b8751604080518b8152602081019290925281018590526001600160a01b0388169033907fb4e1fdf06308d5caa2de01f8db08d933fcf160bcda97c1576b56a0c00e893f319060600160405180910390a350600198975050505050505050565b600080805b84518110156110f157600f54861015611026576000868152601c6020526040812086518290889085908110610fab57610fab6125b4565b602002602001015181526020019081526020016000206000866001600160a01b03166001600160a01b03168152602001908152602001600020549050806000146110205761101387878481518110611005576110056125b4565b6020026020010151876113d8565b61101d908461259c565b92505b506110df565b600f5486036110df57601054858281518110611044576110446125b4565b602002602001015110156110df576000868152601c6020526040812086518290889085908110611076576110766125b4565b602002602001015181526020019081526020016000206000866001600160a01b03166001600160a01b03168152602001908152602001600020549050806000146110dd576110d087878481518110611005576110056125b4565b6110da908461259c565b92505b505b806110e9816125ec565b915050610f74565b506110fd816004612605565b9150505b9392505050565b6000600c54600d54111561112a576002600d5461112591906125ca565b905090565b50600c5490565b336000908152601f60209081526040808320859055601e909152902081905560015b92915050565b600080805b845181101561120057600f548610156111a65761119f6111988787848151811061118a5761118a6125b4565b602002602001015187611a46565b83906119f8565b91506111ee565b600f5486036111ee576010548582815181106111c4576111c46125b4565b602002602001015110156111ee576111eb6111988787848151811061118a5761118a6125b4565b91505b806111f8816125ec565b91505061115e565b5060035460405163a9059cbb60e01b81526001600160a01b038581166004830152602482018490529091169063a9059cbb906044016020604051808303816000875af1158015611254573d6000803e3d6000fd5b505050506040513d601f19601f820116820180604052508101906112789190612624565b50835160408051878152602081019290925281018290526001600160a01b0384169033907fc6fadbab41d2daf77182ff3236e4abbb3c021507103dc894b421b1d68f88acea9060600160405180910390a3506001949350505050565b6003546000906001600160a01b03908116908316036112f257600080fd5b6003546040516370a0823160e01b81523060048201526001600160a01b038481169263a9059cbb9291169083906370a0823190602401602060405180830381865afa158015611345573d6000803e3d6000fd5b505050506040513d601f19601f820116820180604052508101906113699190612646565b6040516001600160e01b031960e085901b1681526001600160a01b03909216600483015260248201526044016020604051808303816000875af11580156113b4573d6000803e3d6000fd5b505050506040513d601f19601f820116820180604052508101906111539190612624565b6000838152601c6020908152604080832085845282528083206001600160a01b0385168452909152812054808203611414576000915050611101565b6000858152601a60209081526040808320878452825280832054888452601b83528184208885529092528083205460035491516370a0823160e01b81523060048201529293909290916001600160a01b0316906370a0823190602401602060405180830381865afa15801561148d573d6000803e3d6000fd5b505050506040513d601f19601f820116820180604052508101906114b19190612646565b9050808211156114bf578091505b826114ca8584612605565b6114d491906125ca565b945050505050611101565b6000838152601c6020908152604080832085845282528083206001600160a01b038516845290915281205480820361151957611519612559565b6110fd8585856119b4565b61152d336115ed565b565b600e546003546040516370a0823160e01b8152306004820152600092839290916001600160a01b03909116906370a0823190602401602060405180830381865afa158015611581573d6000803e3d6000fd5b505050506040513d601f19601f820116820180604052508101906115a59190612646565b6015546115b2919061259c565b6115bc9190612585565b9050600d5460046115cd9190612605565b8111156115dc575050600d5490565b6115e76004826125ca565b91505090565b6001600160a01b0381166000908152601f6020908152604080832054601e909252822054909182900361161f57600191505b8060000361162b575060015b6001815b600f54811161171b57600f54811461164b57601154915061165d565b600160105461165a9190612585565b91505b60006116698584612585565b61167490600161259c565b67ffffffffffffffff81111561168c5761168c61235f565b6040519080825280602002602001820160405280156116b5578160200160208202803683370190505b509050845b8381116116fa5780826116cd8883612585565b815181106116dd576116dd6125b4565b6020908102919091010152806116f2816125ec565b9150506116ba565b50611706828288611159565b50508080611713906125ec565b91505061162f565b506001600160a01b039093166000908152601f602052604090209283555050600f549055565b6001546001600160a01b031633146117885760405162461bcd60e51b815260206004820152600a60248201526937b7363c9037bbb732b960b11b6044820152606401610d73565b600380546001600160a01b0383166001600160a01b03199182168117909255600180548216905560006021556020805490911682178155604080516306055f5f60e51b8152905163c0abebe0926004808401939192918290030181865afa1580156117f7573d6000803e3d6000fd5b505050506040513d601f19601f8201168201806040525081019061181b9190612646565b60215550565b6000838152601c6020908152604080832085845282528083206001600160a01b038816845290915281205490036118f0576001600160a01b0384166000908152601d602090815260408083208684528252808320805460018181018355918552838520018690558684526017835281842086855290925282208054919290916118ab90849061259c565b9091555050600083815260186020908152604080832085845282528220805460018101825590835291200180546001600160a01b0319166001600160a01b0386161790555b6000838152601c6020908152604080832085845282528083206001600160a01b03881684529091528120805483929061192a90849061259c565b90915550506000838152601a602090815260408083208584529091528120805483929061195890849061259c565b909155505060008381526019602090815260408083208584529091528120805483929061198690849061259c565b92505081905550806014600082825461199f919061259c565b909155506119ad9050611b58565b5050505050565b60006119be611b58565b600f548410156119da576119d3848484611d2a565b9050611101565b600f5484036111015760105483101561110157610a22848484611d2a565b600080611a05838561259c565b9050838110156111015760405162461bcd60e51b815260206004820152600c60248201526b416464206f766572666c6f7760a01b6044820152606401610d73565b6000838152601c6020908152604080832085845282528083206001600160a01b0385168452909152812054808203611a815760009150611b4d565b611a8c8585856113d8565b6000868152601c6020908152604080832088845282528083206001600160a01b03881684528252808320839055888352601a8252808320888452909152902054909250611ad99082611f3b565b6000868152601a60209081526040808320888452825280832093909355878252601b815282822087835290522054611b119083611f3b565b6000868152601b60209081526040808320888452909152902055611b36826004612605565b60156000828254611b47919061259c565b90915550505b6110fd826004612605565b6013544290811115611d275760115460105410611bf4576001600f6000828254611b82919061259c565b90915550506000601055611b94611108565b600d819055600f805460009081526016602090815260409182902084905591546014548251918252928101939093528201527f9d472bcf372fce01fd875c3296e8e5ae0a08bfca42dedac19e202271ce8f39c59060600160405180910390a15b611bfc611f87565b600160106000828254611c0f919061259c565b9091555050601254611c21908261259c565b601355611c2c61152f565b600d819055611c3c906004612605565b600e54611c49919061259c565b600e55600d54600f80546000908152601b60209081526040808320601080548552925282209390935590549154611c8290600190612585565b9050601054600103611ca5576001600f54611c9d9190612585565b915060115490505b600f54601054601354600085815260196020908152604080832087845282528083205488845260178352818420888552835292819020548151968752918601949094528484019290925260608401526080830152517ff0047f88d9bce548f6a3b5f02aae9964bcb69afb1848b6acaab809a2b0629aaf9181900360a00190a150505b50565b6000838152601c6020908152604080832085845282528083206001600160a01b0385168452909152812054808203611d655760009150611b4d565b611d708585856113d8565b6000868152601c6020908152604080832088845282528083206001600160a01b03881684528252808320839055888352601a8252808320888452909152902054909250611dbd9082611f3b565b6000868152601a60209081526040808320888452825280832093909355878252601b815282822087835290522054611df59083611f3b565b6000868152601b60209081526040808320888452909152902055611e1a826004612605565b60156000828254611e2b919061259c565b90915550506001600160a01b038316337f7f3fa649aa08dbaff5b36b865f9585ae5b83bcb35185c846035019b63967b6e98787611e69876004612605565b60008b8152601b602090815260408083208d845282529182902054825195865290850193909352830152606082015260800160405180910390a36003546001600160a01b031663a9059cbb84611ec0856004612605565b6040516001600160e01b031960e085901b1681526001600160a01b03909216600483015260248201526044016020604051808303816000875af1158015611f0b573d6000803e3d6000fd5b505050506040513d601f19601f82011682018060405250810190611f2f9190612624565b506110fd826004612605565b600081831015611f7d5760405162461bcd60e51b815260206004820152600d60248201526c53756220756e646572666c6f7760981b6044820152606401610d73565b6111018284612585565b60208054604080516306055f5f60e51b815290516000936001600160a01b039093169263c0abebe092600480820193918290030181865afa158015611fd0573d6000803e3d6000fd5b505050506040513d601f19601f82011682018060405250810190611ff49190612646565b90506000602154826120069190612585565b9050600061202c6064612026610350600d5461211490919063ffffffff16565b9061217c565b905081156120eb578082101561209c57600061204d83612026846064612114565b905060006120686103e8612062846064611f3b565b906121c6565b90506120916120886103e86120268460125461211490919063ffffffff16565b601254906119f8565b601255506120fd9050565b60006120ad82612026856064612114565b905060006120c26103e8612062846064611f3b565b90506120916120e26107d06120268460125461211490919063ffffffff16565b60125490611f3b565b6012546120f9906002612605565b6012555b60056012541161210d57600a6012555b5050602155565b60008260000361212657506000611153565b60006121328385612605565b90508261213f85836125ca565b146111015760405162461bcd60e51b815260206004820152600d60248201526c4d756c74206f766572666c6f7760981b6044820152606401610d73565b6000816000036121bc5760405162461bcd60e51b815260206004820152600b60248201526a446976206279207a65726f60a81b6044820152606401610d73565b61110182846125ca565b6000818311156121d7575080611153565b5090919050565b600060208083528351808285015260005b8181101561220b578581018301518582016040015282016121ef565b8181111561221d576000604083870101525b50601f01601f1916929092016040019392505050565b60008060006060848603121561224857600080fd5b505081359360208301359350604090920135919050565b6000806040838503121561227257600080fd5b50508035926020909101359150565b80356001600160a01b038116811461229857600080fd5b919050565b6000602082840312156122af57600080fd5b61110182612281565b600080600080608085870312156122ce57600080fd5b8435935060208501359250604085013591506122ec60608601612281565b905092959194509250565b60008060006060848603121561230c57600080fd5b61231584612281565b95602085013595506040909401359392505050565b60008060006060848603121561233f57600080fd5b833592506020840135915061235660408501612281565b90509250925092565b634e487b7160e01b600052604160045260246000fd5b600082601f83011261238657600080fd5b8135602067ffffffffffffffff808311156123a3576123a361235f565b8260051b604051601f19603f830116810181811084821117156123c8576123c861235f565b6040529384528581018301938381019250878511156123e657600080fd5b83870191505b84821015612405578135835291830191908301906123ec565b979650505050505050565b6000806000806080858703121561242657600080fd5b84359350602085013567ffffffffffffffff8082111561244557600080fd5b61245188838901612375565b945061245f60408801612281565b9350606087013591508082111561247557600080fd5b5061248287828801612375565b91505092959194509250565b6000806000606084860312156124a357600080fd5b83359250602084013567ffffffffffffffff8111156124c157600080fd5b6124cd86828701612375565b92505061235660408501612281565b6000602082840312156124ee57600080fd5b5035919050565b6000806040838503121561250857600080fd5b61251183612281565b946020939093013593505050565b600181811c9082168061253357607f821691505b60208210810361255357634e487b7160e01b600052602260045260246000fd5b50919050565b634e487b7160e01b600052600160045260246000fd5b634e487b7160e01b600052601160045260246000fd5b6000828210156125975761259761256f565b500390565b600082198211156125af576125af61256f565b500190565b634e487b7160e01b600052603260045260246000fd5b6000826125e757634e487b7160e01b600052601260045260246000fd5b500490565b6000600182016125fe576125fe61256f565b5060010190565b600081600019048311821515161561261f5761261f61256f565b500290565b60006020828403121561263657600080fd5b8151801515811461110157600080fd5b60006020828403121561265857600080fd5b505191905056fea2646970667358221220eefb20c9e16f94ca891b4d7dcd879d6f3727968f277d3fd978cb88213746552264736f6c634300080e0033",
  "bytecodeSha1": "d52eed10d8c98fcdde44bb6df8545faccb65eca4",
  "compiler": {
    "evm_version": "istanbul",
    "optimizer": {
      "enabled": true,
      "runs": 200
    },
    "version": "0.8.14+commit.80d49f37"
  },
  "contractName": "ArbiForgeAuctions",
  "language": "Solidity",
  "natspec": {
    "kind": "dev",
    "methods": {},
    "version": 1
  },
  "opcodes": "PUSH1 0x80 PUSH1 0x40 MSTORE PUSH1 0x4 CALLDATASIZE LT PUSH2 0x276 JUMPI PUSH1 0x0 CALLDATALOAD PUSH1 0xE0 SHR DUP1 PUSH4 0x8AAB30D3 GT PUSH2 0x14F JUMPI DUP1 PUSH4 0xC8B9EE6F GT PUSH2 0xC1 JUMPI DUP1 PUSH4 0xEE1F84C3 GT PUSH2 0x7A JUMPI DUP1 PUSH4 0xEE1F84C3 EQ PUSH2 0x7BB JUMPI DUP1 PUSH4 0xEFFBCF72 EQ PUSH2 0x7DB JUMPI DUP1 PUSH4 0xF1261E92 EQ PUSH2 0x7FB JUMPI DUP1 PUSH4 0xFC5C88FC EQ PUSH2 0x81B JUMPI DUP1 PUSH4 0xFEE05D62 EQ PUSH2 0x830 JUMPI DUP1 PUSH4 0xFFB67186 EQ PUSH2 0x846 JUMPI PUSH1 0x0 DUP1 REVERT JUMPDEST DUP1 PUSH4 0xC8B9EE6F EQ PUSH2 0x6D3 JUMPI DUP1 PUSH4 0xCB65EE92 EQ PUSH2 0x6E8 JUMPI DUP1 PUSH4 0xDAC679EC EQ PUSH2 0x715 JUMPI DUP1 PUSH4 0xDC3222A6 EQ PUSH2 0x74D JUMPI DUP1 PUSH4 0xDF0244B1 EQ PUSH2 0x790 JUMPI DUP1 PUSH4 0xE82481CF EQ PUSH2 0x7A6 JUMPI PUSH1 0x0 DUP1 REVERT JUMPDEST DUP1 PUSH4 0xA5A1BA21 GT PUSH2 0x113 JUMPI DUP1 PUSH4 0xA5A1BA21 EQ PUSH2 0x612 JUMPI DUP1 PUSH4 0xA8DB5F52 EQ PUSH2 0x64A JUMPI DUP1 PUSH4 0xB36A8FF2 EQ PUSH2 0x65D JUMPI DUP1 PUSH4 0xBBC19AB0 EQ PUSH2 0x67D JUMPI DUP1 PUSH4 0xBDF75661 EQ PUSH2 0x693 JUMPI DUP1 PUSH4 0xC31842E1 EQ PUSH2 0x6B3 JUMPI PUSH1 0x0 DUP1 REVERT JUMPDEST DUP1 PUSH4 0x8AAB30D3 EQ PUSH2 0x56E JUMPI DUP1 PUSH4 0x960BC0F1 EQ PUSH2 0x58E JUMPI DUP1 PUSH4 0x9618F7A8 EQ PUSH2 0x5AE JUMPI DUP1 PUSH4 0x966FF650 EQ PUSH2 0x5E6 JUMPI DUP1 PUSH4 0x973628F6 EQ PUSH2 0x5FC JUMPI PUSH1 0x0 DUP1 REVERT JUMPDEST DUP1 PUSH4 0x510DE094 GT PUSH2 0x1E8 JUMPI DUP1 PUSH4 0x77217A89 GT PUSH2 0x1AC JUMPI DUP1 PUSH4 0x77217A89 EQ PUSH2 0x4A5 JUMPI DUP1 PUSH4 0x787B4A8C EQ PUSH2 0x4E3 JUMPI DUP1 PUSH4 0x7C38A21B EQ PUSH2 0x4F6 JUMPI DUP1 PUSH4 0x827C049E EQ PUSH2 0x516 JUMPI DUP1 PUSH4 0x8454ED27 EQ PUSH2 0x52C JUMPI DUP1 PUSH4 0x89B86DB5 EQ PUSH2 0x559 JUMPI PUSH1 0x0 DUP1 REVERT JUMPDEST DUP1 PUSH4 0x510DE094 EQ PUSH2 0x401 JUMPI DUP1 PUSH4 0x5A723DC6 EQ PUSH2 0x421 JUMPI DUP1 PUSH4 0x5C9302C9 EQ PUSH2 0x441 JUMPI DUP1 PUSH4 0x60B29259 EQ PUSH2 0x457 JUMPI DUP1 PUSH4 0x63809953 EQ PUSH2 0x48F JUMPI PUSH1 0x0 DUP1 REVERT JUMPDEST DUP1 PUSH4 0x313CE567 GT PUSH2 0x23A JUMPI DUP1 PUSH4 0x313CE567 EQ PUSH2 0x35F JUMPI DUP1 PUSH4 0x33C2A419 EQ PUSH2 0x375 JUMPI DUP1 PUSH4 0x3767E339 EQ PUSH2 0x388 JUMPI DUP1 PUSH4 0x3AC1C863 EQ PUSH2 0x39E JUMPI DUP1 PUSH4 0x3DB9A7EC EQ PUSH2 0x3B4 JUMPI DUP1 PUSH4 0x49E8A6AD EQ PUSH2 0x3D4 JUMPI PUSH1 0x0 DUP1 REVERT JUMPDEST DUP1 PUSH4 0x6FDDE03 EQ PUSH2 0x28B JUMPI DUP1 PUSH4 0xE21F7B4 EQ PUSH2 0x2B6 JUMPI DUP1 PUSH4 0x23BA5324 EQ PUSH2 0x2EE JUMPI DUP1 PUSH4 0x2A423BE8 EQ PUSH2 0x30E JUMPI DUP1 PUSH4 0x2F85E430 EQ PUSH2 0x33C JUMPI PUSH1 0x0 DUP1 REVERT JUMPDEST CALLDATASIZE PUSH2 0x286 JUMPI PUSH2 0x284 CALLER PUSH2 0x85C JUMP JUMPDEST STOP JUMPDEST PUSH1 0x0 DUP1 REVERT JUMPDEST CALLVALUE DUP1 ISZERO PUSH2 0x297 JUMPI PUSH1 0x0 DUP1 REVERT JUMPDEST POP PUSH2 0x2A0 PUSH2 0x913 JUMP JUMPDEST PUSH1 0x40 MLOAD PUSH2 0x2AD SWAP2 SWAP1 PUSH2 0x21DE JUMP JUMPDEST PUSH1 0x40 MLOAD DUP1 SWAP2 SUB SWAP1 RETURN JUMPDEST CALLVALUE DUP1 ISZERO PUSH2 0x2C2 JUMPI PUSH1 0x0 DUP1 REVERT JUMPDEST POP PUSH2 0x2D6 PUSH2 0x2D1 CALLDATASIZE PUSH1 0x4 PUSH2 0x2233 JUMP JUMPDEST PUSH2 0x9A1 JUMP JUMPDEST PUSH1 0x40 MLOAD PUSH1 0x1 PUSH1 0x1 PUSH1 0xA0 SHL SUB SWAP1 SWAP2 AND DUP2 MSTORE PUSH1 0x20 ADD PUSH2 0x2AD JUMP JUMPDEST CALLVALUE DUP1 ISZERO PUSH2 0x2FA JUMPI PUSH1 0x0 DUP1 REVERT JUMPDEST POP PUSH1 0x1 SLOAD PUSH2 0x2D6 SWAP1 PUSH1 0x1 PUSH1 0x1 PUSH1 0xA0 SHL SUB AND DUP2 JUMP JUMPDEST CALLVALUE DUP1 ISZERO PUSH2 0x31A JUMPI PUSH1 0x0 DUP1 REVERT JUMPDEST POP PUSH2 0x32E PUSH2 0x329 CALLDATASIZE PUSH1 0x4 PUSH2 0x225F JUMP JUMPDEST PUSH2 0x9E6 JUMP JUMPDEST PUSH1 0x40 MLOAD SWAP1 DUP2 MSTORE PUSH1 0x20 ADD PUSH2 0x2AD JUMP JUMPDEST PUSH2 0x34F PUSH2 0x34A CALLDATASIZE PUSH1 0x4 PUSH2 0x229D JUMP JUMPDEST PUSH2 0xA2A JUMP JUMPDEST PUSH1 0x40 MLOAD SWAP1 ISZERO ISZERO DUP2 MSTORE PUSH1 0x20 ADD PUSH2 0x2AD JUMP JUMPDEST CALLVALUE DUP1 ISZERO PUSH2 0x36B JUMPI PUSH1 0x0 DUP1 REVERT JUMPDEST POP PUSH2 0x32E PUSH1 0x9 SLOAD DUP2 JUMP JUMPDEST PUSH2 0x34F PUSH2 0x383 CALLDATASIZE PUSH1 0x4 PUSH2 0x22B8 JUMP JUMPDEST PUSH2 0xA65 JUMP JUMPDEST CALLVALUE DUP1 ISZERO PUSH2 0x394 JUMPI PUSH1 0x0 DUP1 REVERT JUMPDEST POP PUSH2 0x32E PUSH1 0x4 SLOAD DUP2 JUMP JUMPDEST CALLVALUE DUP1 ISZERO PUSH2 0x3AA JUMPI PUSH1 0x0 DUP1 REVERT JUMPDEST POP PUSH2 0x32E PUSH1 0x11 SLOAD DUP2 JUMP JUMPDEST CALLVALUE DUP1 ISZERO PUSH2 0x3C0 JUMPI PUSH1 0x0 DUP1 REVERT JUMPDEST POP PUSH2 0x32E PUSH2 0x3CF CALLDATASIZE PUSH1 0x4 PUSH2 0x22F7 JUMP JUMPDEST PUSH2 0xB8A JUMP JUMPDEST CALLVALUE DUP1 ISZERO PUSH2 0x3E0 JUMPI PUSH1 0x0 DUP1 REVERT JUMPDEST POP PUSH2 0x32E PUSH2 0x3EF CALLDATASIZE PUSH1 0x4 PUSH2 0x229D JUMP JUMPDEST PUSH1 0x1E PUSH1 0x20 MSTORE PUSH1 0x0 SWAP1 DUP2 MSTORE PUSH1 0x40 SWAP1 KECCAK256 SLOAD DUP2 JUMP JUMPDEST CALLVALUE DUP1 ISZERO PUSH2 0x40D JUMPI PUSH1 0x0 DUP1 REVERT JUMPDEST POP PUSH1 0x2 SLOAD PUSH2 0x2D6 SWAP1 PUSH1 0x1 PUSH1 0x1 PUSH1 0xA0 SHL SUB AND DUP2 JUMP JUMPDEST CALLVALUE DUP1 ISZERO PUSH2 0x42D JUMPI PUSH1 0x0 DUP1 REVERT JUMPDEST POP PUSH2 0x32E PUSH2 0x43C CALLDATASIZE PUSH1 0x4 PUSH2 0x229D JUMP JUMPDEST PUSH2 0xBC8 JUMP JUMPDEST CALLVALUE DUP1 ISZERO PUSH2 0x44D JUMPI PUSH1 0x0 DUP1 REVERT JUMPDEST POP PUSH2 0x32E PUSH1 0x10 SLOAD DUP2 JUMP JUMPDEST CALLVALUE DUP1 ISZERO PUSH2 0x463 JUMPI PUSH1 0x0 DUP1 REVERT JUMPDEST POP PUSH2 0x32E PUSH2 0x472 CALLDATASIZE PUSH1 0x4 PUSH2 0x225F JUMP JUMPDEST PUSH1 0x19 PUSH1 0x20 SWAP1 DUP2 MSTORE PUSH1 0x0 SWAP3 DUP4 MSTORE PUSH1 0x40 DUP1 DUP5 KECCAK256 SWAP1 SWAP2 MSTORE SWAP1 DUP3 MSTORE SWAP1 KECCAK256 SLOAD DUP2 JUMP JUMPDEST CALLVALUE DUP1 ISZERO PUSH2 0x49B JUMPI PUSH1 0x0 DUP1 REVERT JUMPDEST POP PUSH2 0x32E PUSH1 0x12 SLOAD DUP2 JUMP JUMPDEST CALLVALUE DUP1 ISZERO PUSH2 0x4B1 JUMPI PUSH1 0x0 DUP1 REVERT JUMPDEST POP PUSH2 0x32E PUSH2 0x4C0 CALLDATASIZE PUSH1 0x4 PUSH2 0x232A JUMP JUMPDEST PUSH1 0x1C PUSH1 0x20 SWAP1 DUP2 MSTORE PUSH1 0x0 SWAP4 DUP5 MSTORE PUSH1 0x40 DUP1 DUP6 KECCAK256 DUP3 MSTORE SWAP3 DUP5 MSTORE DUP3 DUP5 KECCAK256 SWAP1 MSTORE DUP3 MSTORE SWAP1 KECCAK256 SLOAD DUP2 JUMP JUMPDEST PUSH2 0x34F PUSH2 0x4F1 CALLDATASIZE PUSH1 0x4 PUSH2 0x2410 JUMP JUMPDEST PUSH2 0xD0B JUMP JUMPDEST CALLVALUE DUP1 ISZERO PUSH2 0x502 JUMPI PUSH1 0x0 DUP1 REVERT JUMPDEST POP PUSH2 0x32E PUSH2 0x511 CALLDATASIZE PUSH1 0x4 PUSH2 0x248E JUMP JUMPDEST PUSH2 0xF6F JUMP JUMPDEST CALLVALUE DUP1 ISZERO PUSH2 0x522 JUMPI PUSH1 0x0 DUP1 REVERT JUMPDEST POP PUSH2 0x32E PUSH1 0xD SLOAD DUP2 JUMP JUMPDEST CALLVALUE DUP1 ISZERO PUSH2 0x538 JUMPI PUSH1 0x0 DUP1 REVERT JUMPDEST POP PUSH2 0x32E PUSH2 0x547 CALLDATASIZE PUSH1 0x4 PUSH2 0x24DC JUMP JUMPDEST PUSH1 0x16 PUSH1 0x20 MSTORE PUSH1 0x0 SWAP1 DUP2 MSTORE PUSH1 0x40 SWAP1 KECCAK256 SLOAD DUP2 JUMP JUMPDEST CALLVALUE DUP1 ISZERO PUSH2 0x565 JUMPI PUSH1 0x0 DUP1 REVERT JUMPDEST POP PUSH2 0x32E PUSH2 0x1108 JUMP JUMPDEST CALLVALUE DUP1 ISZERO PUSH2 0x57A JUMPI PUSH1 0x0 DUP1 REVERT JUMPDEST POP PUSH2 0x34F PUSH2 0x589 CALLDATASIZE PUSH1 0x4 PUSH2 0x225F JUMP JUMPDEST PUSH2 0x1131 JUMP JUMPDEST CALLVALUE DUP1 ISZERO PUSH2 0x59A JUMPI PUSH1 0x0 DUP1 REVERT JUMPDEST POP PUSH2 0x34F PUSH2 0x5A9 CALLDATASIZE PUSH1 0x4 PUSH2 0x248E JUMP JUMPDEST PUSH2 0x1159 JUMP JUMPDEST CALLVALUE DUP1 ISZERO PUSH2 0x5BA JUMPI PUSH1 0x0 DUP1 REVERT JUMPDEST POP PUSH2 0x32E PUSH2 0x5C9 CALLDATASIZE PUSH1 0x4 PUSH2 0x225F JUMP JUMPDEST PUSH1 0x17 PUSH1 0x20 SWAP1 DUP2 MSTORE PUSH1 0x0 SWAP3 DUP4 MSTORE PUSH1 0x40 DUP1 DUP5 KECCAK256 SWAP1 SWAP2 MSTORE SWAP1 DUP3 MSTORE SWAP1 KECCAK256 SLOAD DUP2 JUMP JUMPDEST CALLVALUE DUP1 ISZERO PUSH2 0x5F2 JUMPI PUSH1 0x0 DUP1 REVERT JUMPDEST POP PUSH2 0x32E PUSH1 0x14 SLOAD DUP2 JUMP JUMPDEST CALLVALUE DUP1 ISZERO PUSH2 0x608 JUMPI PUSH1 0x0 DUP1 REVERT JUMPDEST POP PUSH2 0x32E PUSH1 0xF SLOAD DUP2 JUMP JUMPDEST CALLVALUE DUP1 ISZERO PUSH2 0x61E JUMPI PUSH1 0x0 DUP1 REVERT JUMPDEST POP PUSH2 0x32E PUSH2 0x62D CALLDATASIZE PUSH1 0x4 PUSH2 0x225F JUMP JUMPDEST PUSH1 0x1B PUSH1 0x20 SWAP1 DUP2 MSTORE PUSH1 0x0 SWAP3 DUP4 MSTORE PUSH1 0x40 DUP1 DUP5 KECCAK256 SWAP1 SWAP2 MSTORE SWAP1 DUP3 MSTORE SWAP1 KECCAK256 SLOAD DUP2 JUMP JUMPDEST PUSH2 0x34F PUSH2 0x658 CALLDATASIZE PUSH1 0x4 PUSH2 0x229D JUMP JUMPDEST PUSH2 0x85C JUMP JUMPDEST CALLVALUE DUP1 ISZERO PUSH2 0x669 JUMPI PUSH1 0x0 DUP1 REVERT JUMPDEST POP PUSH2 0x34F PUSH2 0x678 CALLDATASIZE PUSH1 0x4 PUSH2 0x229D JUMP JUMPDEST PUSH2 0x12D4 JUMP JUMPDEST CALLVALUE DUP1 ISZERO PUSH2 0x689 JUMPI PUSH1 0x0 DUP1 REVERT JUMPDEST POP PUSH2 0x32E PUSH1 0x21 SLOAD DUP2 JUMP JUMPDEST CALLVALUE DUP1 ISZERO PUSH2 0x69F JUMPI PUSH1 0x0 DUP1 REVERT JUMPDEST POP PUSH2 0x32E PUSH2 0x6AE CALLDATASIZE PUSH1 0x4 PUSH2 0x232A JUMP JUMPDEST PUSH2 0x13D8 JUMP JUMPDEST CALLVALUE DUP1 ISZERO PUSH2 0x6BF JUMPI PUSH1 0x0 DUP1 REVERT JUMPDEST POP PUSH2 0x32E PUSH2 0x6CE CALLDATASIZE PUSH1 0x4 PUSH2 0x232A JUMP JUMPDEST PUSH2 0x14DF JUMP JUMPDEST CALLVALUE DUP1 ISZERO PUSH2 0x6DF JUMPI PUSH1 0x0 DUP1 REVERT JUMPDEST POP PUSH2 0x284 PUSH2 0x1524 JUMP JUMPDEST CALLVALUE DUP1 ISZERO PUSH2 0x6F4 JUMPI PUSH1 0x0 DUP1 REVERT JUMPDEST POP PUSH2 0x32E PUSH2 0x703 CALLDATASIZE PUSH1 0x4 PUSH2 0x229D JUMP JUMPDEST PUSH1 0x1F PUSH1 0x20 MSTORE PUSH1 0x0 SWAP1 DUP2 MSTORE PUSH1 0x40 SWAP1 KECCAK256 SLOAD DUP2 JUMP JUMPDEST CALLVALUE DUP1 ISZERO PUSH2 0x721 JUMPI PUSH1 0x0 DUP1 REVERT JUMPDEST POP PUSH2 0x32E PUSH2 0x730 CALLDATASIZE PUSH1 0x4 PUSH2 0x225F JUMP JUMPDEST PUSH1 0x1A PUSH1 0x20 SWAP1 DUP2 MSTORE PUSH1 0x0 SWAP3 DUP4 MSTORE PUSH1 0x40 DUP1 DUP5 KECCAK256 SWAP1 SWAP2 MSTORE SWAP1 DUP3 MSTORE SWAP1 KECCAK256 SLOAD DUP2 JUMP JUMPDEST CALLVALUE DUP1 ISZERO PUSH2 0x759 JUMPI PUSH1 0x0 DUP1 REVERT JUMPDEST POP PUSH2 0x32E PUSH2 0x768 CALLDATASIZE PUSH1 0x4 PUSH2 0x24F5 JUMP JUMPDEST PUSH1 0x1 PUSH1 0x1 PUSH1 0xA0 SHL SUB SWAP2 SWAP1 SWAP2 AND PUSH1 0x0 SWAP1 DUP2 MSTORE PUSH1 0x1D PUSH1 0x20 SWAP1 DUP2 MSTORE PUSH1 0x40 DUP1 DUP4 KECCAK256 SWAP4 DUP4 MSTORE SWAP3 SWAP1 MSTORE KECCAK256 SLOAD SWAP1 JUMP JUMPDEST CALLVALUE DUP1 ISZERO PUSH2 0x79C JUMPI PUSH1 0x0 DUP1 REVERT JUMPDEST POP PUSH2 0x32E PUSH1 0x15 SLOAD DUP2 JUMP JUMPDEST CALLVALUE DUP1 ISZERO PUSH2 0x7B2 JUMPI PUSH1 0x0 DUP1 REVERT JUMPDEST POP PUSH2 0x32E PUSH2 0x152F JUMP JUMPDEST CALLVALUE DUP1 ISZERO PUSH2 0x7C7 JUMPI PUSH1 0x0 DUP1 REVERT JUMPDEST POP PUSH2 0x284 PUSH2 0x7D6 CALLDATASIZE PUSH1 0x4 PUSH2 0x229D JUMP JUMPDEST PUSH2 0x15ED JUMP JUMPDEST CALLVALUE DUP1 ISZERO PUSH2 0x7E7 JUMPI PUSH1 0x0 DUP1 REVERT JUMPDEST POP PUSH2 0x284 PUSH2 0x7F6 CALLDATASIZE PUSH1 0x4 PUSH2 0x229D JUMP JUMPDEST PUSH2 0x1741 JUMP JUMPDEST CALLVALUE DUP1 ISZERO PUSH2 0x807 JUMPI PUSH1 0x0 DUP1 REVERT JUMPDEST POP PUSH1 0x3 SLOAD PUSH2 0x2D6 SWAP1 PUSH1 0x1 PUSH1 0x1 PUSH1 0xA0 SHL SUB AND DUP2 JUMP JUMPDEST CALLVALUE DUP1 ISZERO PUSH2 0x827 JUMPI PUSH1 0x0 DUP1 REVERT JUMPDEST POP PUSH1 0x12 SLOAD PUSH2 0x32E JUMP JUMPDEST CALLVALUE DUP1 ISZERO PUSH2 0x83C JUMPI PUSH1 0x0 DUP1 REVERT JUMPDEST POP PUSH2 0x32E PUSH1 0x13 SLOAD DUP2 JUMP JUMPDEST CALLVALUE DUP1 ISZERO PUSH2 0x852 JUMPI PUSH1 0x0 DUP1 REVERT JUMPDEST POP PUSH2 0x32E PUSH1 0xE SLOAD DUP2 JUMP JUMPDEST PUSH1 0x10 SLOAD PUSH1 0x3 SLOAD PUSH1 0x40 MLOAD PUSH1 0x0 SWAP3 SWAP2 PUSH1 0x1 PUSH1 0x1 PUSH1 0xA0 SHL SUB AND SWAP1 DUP2 SWAP1 CALLVALUE DUP1 ISZERO PUSH2 0x8FC MUL SWAP2 DUP7 DUP2 DUP2 DUP2 DUP6 DUP9 DUP9 CALL SWAP4 POP POP POP POP POP PUSH2 0x89C CALLER DUP6 PUSH1 0xF SLOAD PUSH1 0x10 SLOAD CALLVALUE PUSH2 0x1821 JUMP JUMPDEST PUSH1 0xF SLOAD PUSH1 0x0 DUP2 DUP2 MSTORE PUSH1 0x19 PUSH1 0x20 SWAP1 DUP2 MSTORE PUSH1 0x40 DUP1 DUP4 KECCAK256 PUSH1 0x10 SLOAD DUP5 MSTORE DUP3 MSTORE SWAP2 DUP3 SWAP1 KECCAK256 SLOAD DUP3 MLOAD SWAP4 DUP5 MSTORE SWAP1 DUP4 ADD DUP6 SWAP1 MSTORE CALLVALUE DUP4 DUP4 ADD MSTORE PUSH1 0x60 DUP4 ADD MSTORE MLOAD PUSH1 0x1 PUSH1 0x1 PUSH1 0xA0 SHL SUB DUP7 AND SWAP2 CALLER SWAP2 PUSH32 0x661F25A08EE5C15FC997F7288C9CD798E1905052F21D761925800799791F130B SWAP2 DUP2 SWAP1 SUB PUSH1 0x80 ADD SWAP1 LOG3 POP PUSH1 0x1 SWAP4 SWAP3 POP POP POP JUMP JUMPDEST PUSH1 0x8 DUP1 SLOAD PUSH2 0x920 SWAP1 PUSH2 0x251F JUMP JUMPDEST DUP1 PUSH1 0x1F ADD PUSH1 0x20 DUP1 SWAP2 DIV MUL PUSH1 0x20 ADD PUSH1 0x40 MLOAD SWAP1 DUP2 ADD PUSH1 0x40 MSTORE DUP1 SWAP3 SWAP2 SWAP1 DUP2 DUP2 MSTORE PUSH1 0x20 ADD DUP3 DUP1 SLOAD PUSH2 0x94C SWAP1 PUSH2 0x251F JUMP JUMPDEST DUP1 ISZERO PUSH2 0x999 JUMPI DUP1 PUSH1 0x1F LT PUSH2 0x96E JUMPI PUSH2 0x100 DUP1 DUP4 SLOAD DIV MUL DUP4 MSTORE SWAP2 PUSH1 0x20 ADD SWAP2 PUSH2 0x999 JUMP JUMPDEST DUP3 ADD SWAP2 SWAP1 PUSH1 0x0 MSTORE PUSH1 0x20 PUSH1 0x0 KECCAK256 SWAP1 JUMPDEST DUP2 SLOAD DUP2 MSTORE SWAP1 PUSH1 0x1 ADD SWAP1 PUSH1 0x20 ADD DUP1 DUP4 GT PUSH2 0x97C JUMPI DUP3 SWAP1 SUB PUSH1 0x1F AND DUP3 ADD SWAP2 JUMPDEST POP POP POP POP POP DUP2 JUMP JUMPDEST PUSH1 0x18 PUSH1 0x20 MSTORE DUP3 PUSH1 0x0 MSTORE PUSH1 0x40 PUSH1 0x0 KECCAK256 PUSH1 0x20 MSTORE DUP2 PUSH1 0x0 MSTORE PUSH1 0x40 PUSH1 0x0 KECCAK256 DUP2 DUP2 SLOAD DUP2 LT PUSH2 0x9C9 JUMPI PUSH1 0x0 DUP1 REVERT JUMPDEST PUSH1 0x0 SWAP2 DUP3 MSTORE PUSH1 0x20 SWAP1 SWAP2 KECCAK256 ADD SLOAD PUSH1 0x1 PUSH1 0x1 PUSH1 0xA0 SHL SUB AND SWAP3 POP DUP4 SWAP2 POP POP JUMP JUMPDEST PUSH1 0x0 DUP3 DUP2 MSTORE PUSH1 0x1C PUSH1 0x20 SWAP1 DUP2 MSTORE PUSH1 0x40 DUP1 DUP4 KECCAK256 DUP5 DUP5 MSTORE DUP3 MSTORE DUP1 DUP4 KECCAK256 CALLER DUP5 MSTORE SWAP1 SWAP2 MSTORE DUP2 KECCAK256 SLOAD DUP1 DUP3 SUB PUSH2 0xA17 JUMPI PUSH2 0xA17 PUSH2 0x2559 JUMP JUMPDEST PUSH2 0xA22 DUP5 DUP5 CALLER PUSH2 0x19B4 JUMP JUMPDEST SWAP5 SWAP4 POP POP POP POP JUMP JUMPDEST PUSH1 0x0 DUP1 PUSH1 0x1 PUSH1 0x10 SLOAD PUSH1 0x11 SLOAD PUSH2 0xA3F SWAP2 SWAP1 PUSH2 0x2585 JUMP JUMPDEST PUSH2 0xA49 SWAP2 SWAP1 PUSH2 0x2585 JUMP JUMPDEST SWAP1 POP PUSH2 0xA5B PUSH1 0xF SLOAD PUSH1 0x10 SLOAD DUP4 DUP7 PUSH2 0xA65 JUMP JUMPDEST POP PUSH1 0x1 SWAP4 SWAP3 POP POP POP JUMP JUMPDEST PUSH1 0x0 DUP1 DUP4 PUSH8 0xFFFFFFFFFFFFFFFF DUP2 GT ISZERO PUSH2 0xA81 JUMPI PUSH2 0xA81 PUSH2 0x235F JUMP JUMPDEST PUSH1 0x40 MLOAD SWAP1 DUP1 DUP3 MSTORE DUP1 PUSH1 0x20 MUL PUSH1 0x20 ADD DUP3 ADD PUSH1 0x40 MSTORE DUP1 ISZERO PUSH2 0xAAA JUMPI DUP2 PUSH1 0x20 ADD PUSH1 0x20 DUP3 MUL DUP1 CALLDATASIZE DUP4 CALLDATACOPY ADD SWAP1 POP JUMPDEST POP SWAP1 POP PUSH1 0x0 DUP5 PUSH8 0xFFFFFFFFFFFFFFFF DUP2 GT ISZERO PUSH2 0xAC8 JUMPI PUSH2 0xAC8 PUSH2 0x235F JUMP JUMPDEST PUSH1 0x40 MLOAD SWAP1 DUP1 DUP3 MSTORE DUP1 PUSH1 0x20 MUL PUSH1 0x20 ADD DUP3 ADD PUSH1 0x40 MSTORE DUP1 ISZERO PUSH2 0xAF1 JUMPI DUP2 PUSH1 0x20 ADD PUSH1 0x20 DUP3 MUL DUP1 CALLDATASIZE DUP4 CALLDATACOPY ADD SWAP1 POP JUMPDEST POP SWAP1 POP PUSH1 0x0 DUP7 JUMPDEST PUSH2 0xB02 DUP8 DUP10 PUSH2 0x259C JUMP JUMPDEST DUP2 LT ISZERO PUSH2 0xB6E JUMPI DUP1 DUP5 DUP4 DUP2 MLOAD DUP2 LT PUSH2 0xB1C JUMPI PUSH2 0xB1C PUSH2 0x25B4 JUMP JUMPDEST PUSH1 0x20 SWAP1 DUP2 MUL SWAP2 SWAP1 SWAP2 ADD ADD MSTORE PUSH2 0xB31 DUP8 CALLVALUE PUSH2 0x25CA JUMP JUMPDEST DUP4 DUP4 DUP2 MLOAD DUP2 LT PUSH2 0xB43 JUMPI PUSH2 0xB43 PUSH2 0x25B4 JUMP JUMPDEST PUSH1 0x20 SWAP1 DUP2 MUL SWAP2 SWAP1 SWAP2 ADD ADD MSTORE DUP2 PUSH2 0xB58 DUP2 PUSH2 0x25EC JUMP JUMPDEST SWAP3 POP POP DUP1 DUP1 PUSH2 0xB66 SWAP1 PUSH2 0x25EC JUMP JUMPDEST SWAP2 POP POP PUSH2 0xAF8 JUMP JUMPDEST POP PUSH2 0xB7B DUP9 DUP5 DUP8 DUP6 PUSH2 0xD0B JUMP JUMPDEST POP PUSH1 0x1 SWAP9 SWAP8 POP POP POP POP POP POP POP POP JUMP JUMPDEST PUSH1 0x1D PUSH1 0x20 MSTORE DUP3 PUSH1 0x0 MSTORE PUSH1 0x40 PUSH1 0x0 KECCAK256 PUSH1 0x20 MSTORE DUP2 PUSH1 0x0 MSTORE PUSH1 0x40 PUSH1 0x0 KECCAK256 DUP2 DUP2 SLOAD DUP2 LT PUSH2 0xBB2 JUMPI PUSH1 0x0 DUP1 REVERT JUMPDEST SWAP1 PUSH1 0x0 MSTORE PUSH1 0x20 PUSH1 0x0 KECCAK256 ADD PUSH1 0x0 SWAP3 POP SWAP3 POP POP POP SLOAD DUP2 JUMP JUMPDEST PUSH1 0x1 PUSH1 0x1 PUSH1 0xA0 SHL SUB DUP2 AND PUSH1 0x0 SWAP1 DUP2 MSTORE PUSH1 0x1F PUSH1 0x20 SWAP1 DUP2 MSTORE PUSH1 0x40 DUP1 DUP4 KECCAK256 SLOAD PUSH1 0x1E SWAP1 SWAP3 MSTORE DUP3 KECCAK256 SLOAD DUP2 DUP4 SUB PUSH2 0xBF8 JUMPI PUSH1 0x1 SWAP2 POP JUMPDEST DUP1 PUSH1 0x0 SUB PUSH2 0xC04 JUMPI POP PUSH1 0x1 JUMPDEST PUSH1 0x1 PUSH1 0x0 DUP3 JUMPDEST PUSH1 0xF SLOAD DUP2 GT PUSH2 0xD01 JUMPI PUSH1 0xF SLOAD DUP2 EQ PUSH2 0xC26 JUMPI PUSH1 0x11 SLOAD SWAP3 POP PUSH2 0xC38 JUMP JUMPDEST PUSH1 0x1 PUSH1 0x10 SLOAD PUSH2 0xC35 SWAP2 SWAP1 PUSH2 0x2585 JUMP JUMPDEST SWAP3 POP JUMPDEST PUSH1 0x0 PUSH2 0xC44 DUP7 DUP6 PUSH2 0x2585 JUMP JUMPDEST PUSH2 0xC4F SWAP1 PUSH1 0x1 PUSH2 0x259C JUMP JUMPDEST PUSH8 0xFFFFFFFFFFFFFFFF DUP2 GT ISZERO PUSH2 0xC67 JUMPI PUSH2 0xC67 PUSH2 0x235F JUMP JUMPDEST PUSH1 0x40 MLOAD SWAP1 DUP1 DUP3 MSTORE DUP1 PUSH1 0x20 MUL PUSH1 0x20 ADD DUP3 ADD PUSH1 0x40 MSTORE DUP1 ISZERO PUSH2 0xC90 JUMPI DUP2 PUSH1 0x20 ADD PUSH1 0x20 DUP3 MUL DUP1 CALLDATASIZE DUP4 CALLDATACOPY ADD SWAP1 POP JUMPDEST POP SWAP1 POP DUP6 JUMPDEST DUP5 DUP2 GT PUSH2 0xCD5 JUMPI DUP1 DUP3 PUSH2 0xCA8 DUP10 DUP4 PUSH2 0x2585 JUMP JUMPDEST DUP2 MLOAD DUP2 LT PUSH2 0xCB8 JUMPI PUSH2 0xCB8 PUSH2 0x25B4 JUMP JUMPDEST PUSH1 0x20 SWAP1 DUP2 MUL SWAP2 SWAP1 SWAP2 ADD ADD MSTORE DUP1 PUSH2 0xCCD DUP2 PUSH2 0x25EC JUMP JUMPDEST SWAP2 POP POP PUSH2 0xC95 JUMP JUMPDEST POP PUSH2 0xCE1 DUP3 DUP3 DUP11 PUSH2 0xF6F JUMP JUMPDEST PUSH2 0xCEB SWAP1 DUP5 PUSH2 0x259C JUMP JUMPDEST SWAP3 POP POP DUP1 DUP1 PUSH2 0xCF9 SWAP1 PUSH2 0x25EC JUMP JUMPDEST SWAP2 POP POP PUSH2 0xC0A JUMP JUMPDEST POP SWAP6 SWAP5 POP POP POP POP POP JUMP JUMPDEST PUSH1 0x11 SLOAD PUSH1 0xF SLOAD PUSH1 0x10 SLOAD PUSH1 0x0 SWAP3 DUP4 SWAP3 SWAP1 SWAP2 DUP2 DUP10 LT ISZERO PUSH2 0xD7C JUMPI PUSH1 0x40 MLOAD PUSH3 0x461BCD PUSH1 0xE5 SHL DUP2 MSTORE PUSH1 0x20 PUSH1 0x4 DUP3 ADD MSTORE PUSH1 0x23 PUSH1 0x24 DUP3 ADD MSTORE PUSH32 0x6E6F206B6E75636B6C6568656164206F6E6C7920626964206F6E207468697320 PUSH1 0x44 DUP3 ADD MSTORE PUSH3 0x657261 PUSH1 0xE8 SHL PUSH1 0x64 DUP3 ADD MSTORE PUSH1 0x84 ADD JUMPDEST PUSH1 0x40 MLOAD DUP1 SWAP2 SUB SWAP1 REVERT JUMPDEST PUSH1 0x0 JUMPDEST DUP9 MLOAD DUP2 LT ISZERO PUSH2 0xEC6 JUMPI PUSH1 0x0 DUP8 DUP3 DUP2 MLOAD DUP2 LT PUSH2 0xD9C JUMPI PUSH2 0xD9C PUSH2 0x25B4 JUMP JUMPDEST PUSH1 0x20 MUL PUSH1 0x20 ADD ADD MLOAD SWAP1 POP DUP4 DUP12 SUB PUSH2 0xE18 JUMPI PUSH1 0x10 SLOAD DUP11 DUP4 DUP2 MLOAD DUP2 LT PUSH2 0xDC2 JUMPI PUSH2 0xDC2 PUSH2 0x25B4 JUMP JUMPDEST PUSH1 0x20 MUL PUSH1 0x20 ADD ADD MLOAD LT ISZERO PUSH2 0xE18 JUMPI PUSH1 0x40 MLOAD PUSH3 0x461BCD PUSH1 0xE5 SHL DUP2 MSTORE PUSH1 0x20 PUSH1 0x4 DUP3 ADD MSTORE PUSH1 0x1C PUSH1 0x24 DUP3 ADD MSTORE PUSH32 0x4D757374206E6F742062696420626568696E6420746865206461797300000000 PUSH1 0x44 DUP3 ADD MSTORE PUSH1 0x64 ADD PUSH2 0xD73 JUMP JUMPDEST DUP5 DUP11 DUP4 DUP2 MLOAD DUP2 LT PUSH2 0xE2B JUMPI PUSH2 0xE2B PUSH2 0x25B4 JUMP JUMPDEST PUSH1 0x20 MUL PUSH1 0x20 ADD ADD MLOAD GT ISZERO PUSH2 0xE81 JUMPI PUSH1 0x40 MLOAD PUSH3 0x461BCD PUSH1 0xE5 SHL DUP2 MSTORE PUSH1 0x20 PUSH1 0x4 DUP3 ADD MSTORE PUSH1 0x1B PUSH1 0x24 DUP3 ADD MSTORE PUSH32 0x43616E7420626964206F6E2064617973206E6F7420696E206572610000000000 PUSH1 0x44 DUP3 ADD MSTORE PUSH1 0x64 ADD PUSH2 0xD73 JUMP JUMPDEST PUSH2 0xE8B DUP7 DUP3 PUSH2 0x19F8 JUMP JUMPDEST SWAP6 POP PUSH2 0xEB3 CALLER DUP11 DUP14 DUP14 DUP7 DUP2 MLOAD DUP2 LT PUSH2 0xEA5 JUMPI PUSH2 0xEA5 PUSH2 0x25B4 JUMP JUMPDEST PUSH1 0x20 MUL PUSH1 0x20 ADD ADD MLOAD DUP6 PUSH2 0x1821 JUMP JUMPDEST POP DUP1 PUSH2 0xEBE DUP2 PUSH2 0x25EC JUMP JUMPDEST SWAP2 POP POP PUSH2 0xD7F JUMP JUMPDEST POP DUP4 CALLVALUE LT ISZERO PUSH2 0xF10 JUMPI PUSH1 0x40 MLOAD PUSH3 0x461BCD PUSH1 0xE5 SHL DUP2 MSTORE PUSH1 0x20 PUSH1 0x4 DUP3 ADD MSTORE PUSH1 0x16 PUSH1 0x24 DUP3 ADD MSTORE PUSH22 0x9AEAE6E840E6CADCC840E4CAE2EAD2E4CAC8408AA89 PUSH1 0x53 SHL PUSH1 0x44 DUP3 ADD MSTORE PUSH1 0x64 ADD PUSH2 0xD73 JUMP JUMPDEST DUP8 MLOAD PUSH1 0x40 DUP1 MLOAD DUP12 DUP2 MSTORE PUSH1 0x20 DUP2 ADD SWAP3 SWAP1 SWAP3 MSTORE DUP2 ADD DUP6 SWAP1 MSTORE PUSH1 0x1 PUSH1 0x1 PUSH1 0xA0 SHL SUB DUP9 AND SWAP1 CALLER SWAP1 PUSH32 0xB4E1FDF06308D5CAA2DE01F8DB08D933FCF160BCDA97C1576B56A0C00E893F31 SWAP1 PUSH1 0x60 ADD PUSH1 0x40 MLOAD DUP1 SWAP2 SUB SWAP1 LOG3 POP PUSH1 0x1 SWAP9 SWAP8 POP POP POP POP POP POP POP POP JUMP JUMPDEST PUSH1 0x0 DUP1 DUP1 JUMPDEST DUP5 MLOAD DUP2 LT ISZERO PUSH2 0x10F1 JUMPI PUSH1 0xF SLOAD DUP7 LT ISZERO PUSH2 0x1026 JUMPI PUSH1 0x0 DUP7 DUP2 MSTORE PUSH1 0x1C PUSH1 0x20 MSTORE PUSH1 0x40 DUP2 KECCAK256 DUP7 MLOAD DUP3 SWAP1 DUP9 SWAP1 DUP6 SWAP1 DUP2 LT PUSH2 0xFAB JUMPI PUSH2 0xFAB PUSH2 0x25B4 JUMP JUMPDEST PUSH1 0x20 MUL PUSH1 0x20 ADD ADD MLOAD DUP2 MSTORE PUSH1 0x20 ADD SWAP1 DUP2 MSTORE PUSH1 0x20 ADD PUSH1 0x0 KECCAK256 PUSH1 0x0 DUP7 PUSH1 0x1 PUSH1 0x1 PUSH1 0xA0 SHL SUB AND PUSH1 0x1 PUSH1 0x1 PUSH1 0xA0 SHL SUB AND DUP2 MSTORE PUSH1 0x20 ADD SWAP1 DUP2 MSTORE PUSH1 0x20 ADD PUSH1 0x0 KECCAK256 SLOAD SWAP1 POP DUP1 PUSH1 0x0 EQ PUSH2 0x1020 JUMPI PUSH2 0x1013 DUP8 DUP8 DUP5 DUP2 MLOAD DUP2 LT PUSH2 0x1005 JUMPI PUSH2 0x1005 PUSH2 0x25B4 JUMP JUMPDEST PUSH1 0x20 MUL PUSH1 0x20 ADD ADD MLOAD DUP8 PUSH2 0x13D8 JUMP JUMPDEST PUSH2 0x101D SWAP1 DUP5 PUSH2 0x259C JUMP JUMPDEST SWAP3 POP JUMPDEST POP PUSH2 0x10DF JUMP JUMPDEST PUSH1 0xF SLOAD DUP7 SUB PUSH2 0x10DF JUMPI PUSH1 0x10 SLOAD DUP6 DUP3 DUP2 MLOAD DUP2 LT PUSH2 0x1044 JUMPI PUSH2 0x1044 PUSH2 0x25B4 JUMP JUMPDEST PUSH1 0x20 MUL PUSH1 0x20 ADD ADD MLOAD LT ISZERO PUSH2 0x10DF JUMPI PUSH1 0x0 DUP7 DUP2 MSTORE PUSH1 0x1C PUSH1 0x20 MSTORE PUSH1 0x40 DUP2 KECCAK256 DUP7 MLOAD DUP3 SWAP1 DUP9 SWAP1 DUP6 SWAP1 DUP2 LT PUSH2 0x1076 JUMPI PUSH2 0x1076 PUSH2 0x25B4 JUMP JUMPDEST PUSH1 0x20 MUL PUSH1 0x20 ADD ADD MLOAD DUP2 MSTORE PUSH1 0x20 ADD SWAP1 DUP2 MSTORE PUSH1 0x20 ADD PUSH1 0x0 KECCAK256 PUSH1 0x0 DUP7 PUSH1 0x1 PUSH1 0x1 PUSH1 0xA0 SHL SUB AND PUSH1 0x1 PUSH1 0x1 PUSH1 0xA0 SHL SUB AND DUP2 MSTORE PUSH1 0x20 ADD SWAP1 DUP2 MSTORE PUSH1 0x20 ADD PUSH1 0x0 KECCAK256 SLOAD SWAP1 POP DUP1 PUSH1 0x0 EQ PUSH2 0x10DD JUMPI PUSH2 0x10D0 DUP8 DUP8 DUP5 DUP2 MLOAD DUP2 LT PUSH2 0x1005 JUMPI PUSH2 0x1005 PUSH2 0x25B4 JUMP JUMPDEST PUSH2 0x10DA SWAP1 DUP5 PUSH2 0x259C JUMP JUMPDEST SWAP3 POP JUMPDEST POP JUMPDEST DUP1 PUSH2 0x10E9 DUP2 PUSH2 0x25EC JUMP JUMPDEST SWAP2 POP POP PUSH2 0xF74 JUMP JUMPDEST POP PUSH2 0x10FD DUP2 PUSH1 0x4 PUSH2 0x2605 JUMP JUMPDEST SWAP2 POP POP JUMPDEST SWAP4 SWAP3 POP POP POP JUMP JUMPDEST PUSH1 0x0 PUSH1 0xC SLOAD PUSH1 0xD SLOAD GT ISZERO PUSH2 0x112A JUMPI PUSH1 0x2 PUSH1 0xD SLOAD PUSH2 0x1125 SWAP2 SWAP1 PUSH2 0x25CA JUMP JUMPDEST SWAP1 POP SWAP1 JUMP JUMPDEST POP PUSH1 0xC SLOAD SWAP1 JUMP JUMPDEST CALLER PUSH1 0x0 SWAP1 DUP2 MSTORE PUSH1 0x1F PUSH1 0x20 SWAP1 DUP2 MSTORE PUSH1 0x40 DUP1 DUP4 KECCAK256 DUP6 SWAP1 SSTORE PUSH1 0x1E SWAP1 SWAP2 MSTORE SWAP1 KECCAK256 DUP2 SWAP1 SSTORE PUSH1 0x1 JUMPDEST SWAP3 SWAP2 POP POP JUMP JUMPDEST PUSH1 0x0 DUP1 DUP1 JUMPDEST DUP5 MLOAD DUP2 LT ISZERO PUSH2 0x1200 JUMPI PUSH1 0xF SLOAD DUP7 LT ISZERO PUSH2 0x11A6 JUMPI PUSH2 0x119F PUSH2 0x1198 DUP8 DUP8 DUP5 DUP2 MLOAD DUP2 LT PUSH2 0x118A JUMPI PUSH2 0x118A PUSH2 0x25B4 JUMP JUMPDEST PUSH1 0x20 MUL PUSH1 0x20 ADD ADD MLOAD DUP8 PUSH2 0x1A46 JUMP JUMPDEST DUP4 SWAP1 PUSH2 0x19F8 JUMP JUMPDEST SWAP2 POP PUSH2 0x11EE JUMP JUMPDEST PUSH1 0xF SLOAD DUP7 SUB PUSH2 0x11EE JUMPI PUSH1 0x10 SLOAD DUP6 DUP3 DUP2 MLOAD DUP2 LT PUSH2 0x11C4 JUMPI PUSH2 0x11C4 PUSH2 0x25B4 JUMP JUMPDEST PUSH1 0x20 MUL PUSH1 0x20 ADD ADD MLOAD LT ISZERO PUSH2 0x11EE JUMPI PUSH2 0x11EB PUSH2 0x1198 DUP8 DUP8 DUP5 DUP2 MLOAD DUP2 LT PUSH2 0x118A JUMPI PUSH2 0x118A PUSH2 0x25B4 JUMP JUMPDEST SWAP2 POP JUMPDEST DUP1 PUSH2 0x11F8 DUP2 PUSH2 0x25EC JUMP JUMPDEST SWAP2 POP POP PUSH2 0x115E JUMP JUMPDEST POP PUSH1 0x3 SLOAD PUSH1 0x40 MLOAD PUSH4 0xA9059CBB PUSH1 0xE0 SHL DUP2 MSTORE PUSH1 0x1 PUSH1 0x1 PUSH1 0xA0 SHL SUB DUP6 DUP2 AND PUSH1 0x4 DUP4 ADD MSTORE PUSH1 0x24 DUP3 ADD DUP5 SWAP1 MSTORE SWAP1 SWAP2 AND SWAP1 PUSH4 0xA9059CBB SWAP1 PUSH1 0x44 ADD PUSH1 0x20 PUSH1 0x40 MLOAD DUP1 DUP4 SUB DUP2 PUSH1 0x0 DUP8 GAS CALL ISZERO DUP1 ISZERO PUSH2 0x1254 JUMPI RETURNDATASIZE PUSH1 0x0 DUP1 RETURNDATACOPY RETURNDATASIZE PUSH1 0x0 REVERT JUMPDEST POP POP POP POP PUSH1 0x40 MLOAD RETURNDATASIZE PUSH1 0x1F NOT PUSH1 0x1F DUP3 ADD AND DUP3 ADD DUP1 PUSH1 0x40 MSTORE POP DUP2 ADD SWAP1 PUSH2 0x1278 SWAP2 SWAP1 PUSH2 0x2624 JUMP JUMPDEST POP DUP4 MLOAD PUSH1 0x40 DUP1 MLOAD DUP8 DUP2 MSTORE PUSH1 0x20 DUP2 ADD SWAP3 SWAP1 SWAP3 MSTORE DUP2 ADD DUP3 SWAP1 MSTORE PUSH1 0x1 PUSH1 0x1 PUSH1 0xA0 SHL SUB DUP5 AND SWAP1 CALLER SWAP1 PUSH32 0xC6FADBAB41D2DAF77182FF3236E4ABBB3C021507103DC894B421B1D68F88ACEA SWAP1 PUSH1 0x60 ADD PUSH1 0x40 MLOAD DUP1 SWAP2 SUB SWAP1 LOG3 POP PUSH1 0x1 SWAP5 SWAP4 POP POP POP POP JUMP JUMPDEST PUSH1 0x3 SLOAD PUSH1 0x0 SWAP1 PUSH1 0x1 PUSH1 0x1 PUSH1 0xA0 SHL SUB SWAP1 DUP2 AND SWAP1 DUP4 AND SUB PUSH2 0x12F2 JUMPI PUSH1 0x0 DUP1 REVERT JUMPDEST PUSH1 0x3 SLOAD PUSH1 0x40 MLOAD PUSH4 0x70A08231 PUSH1 0xE0 SHL DUP2 MSTORE ADDRESS PUSH1 0x4 DUP3 ADD MSTORE PUSH1 0x1 PUSH1 0x1 PUSH1 0xA0 SHL SUB DUP5 DUP2 AND SWAP3 PUSH4 0xA9059CBB SWAP3 SWAP2 AND SWAP1 DUP4 SWAP1 PUSH4 0x70A08231 SWAP1 PUSH1 0x24 ADD PUSH1 0x20 PUSH1 0x40 MLOAD DUP1 DUP4 SUB DUP2 DUP7 GAS STATICCALL ISZERO DUP1 ISZERO PUSH2 0x1345 JUMPI RETURNDATASIZE PUSH1 0x0 DUP1 RETURNDATACOPY RETURNDATASIZE PUSH1 0x0 REVERT JUMPDEST POP POP POP POP PUSH1 0x40 MLOAD RETURNDATASIZE PUSH1 0x1F NOT PUSH1 0x1F DUP3 ADD AND DUP3 ADD DUP1 PUSH1 0x40 MSTORE POP DUP2 ADD SWAP1 PUSH2 0x1369 SWAP2 SWAP1 PUSH2 0x2646 JUMP JUMPDEST PUSH1 0x40 MLOAD PUSH1 0x1 PUSH1 0x1 PUSH1 0xE0 SHL SUB NOT PUSH1 0xE0 DUP6 SWAP1 SHL AND DUP2 MSTORE PUSH1 0x1 PUSH1 0x1 PUSH1 0xA0 SHL SUB SWAP1 SWAP3 AND PUSH1 0x4 DUP4 ADD MSTORE PUSH1 0x24 DUP3 ADD MSTORE PUSH1 0x44 ADD PUSH1 0x20 PUSH1 0x40 MLOAD DUP1 DUP4 SUB DUP2 PUSH1 0x0 DUP8 GAS CALL ISZERO DUP1 ISZERO PUSH2 0x13B4 JUMPI RETURNDATASIZE PUSH1 0x0 DUP1 RETURNDATACOPY RETURNDATASIZE PUSH1 0x0 REVERT JUMPDEST POP POP POP POP PUSH1 0x40 MLOAD RETURNDATASIZE PUSH1 0x1F NOT PUSH1 0x1F DUP3 ADD AND DUP3 ADD DUP1 PUSH1 0x40 MSTORE POP DUP2 ADD SWAP1 PUSH2 0x1153 SWAP2 SWAP1 PUSH2 0x2624 JUMP JUMPDEST PUSH1 0x0 DUP4 DUP2 MSTORE PUSH1 0x1C PUSH1 0x20 SWAP1 DUP2 MSTORE PUSH1 0x40 DUP1 DUP4 KECCAK256 DUP6 DUP5 MSTORE DUP3 MSTORE DUP1 DUP4 KECCAK256 PUSH1 0x1 PUSH1 0x1 PUSH1 0xA0 SHL SUB DUP6 AND DUP5 MSTORE SWAP1 SWAP2 MSTORE DUP2 KECCAK256 SLOAD DUP1 DUP3 SUB PUSH2 0x1414 JUMPI PUSH1 0x0 SWAP2 POP POP PUSH2 0x1101 JUMP JUMPDEST PUSH1 0x0 DUP6 DUP2 MSTORE PUSH1 0x1A PUSH1 0x20 SWAP1 DUP2 MSTORE PUSH1 0x40 DUP1 DUP4 KECCAK256 DUP8 DUP5 MSTORE DUP3 MSTORE DUP1 DUP4 KECCAK256 SLOAD DUP9 DUP5 MSTORE PUSH1 0x1B DUP4 MSTORE DUP2 DUP5 KECCAK256 DUP9 DUP6 MSTORE SWAP1 SWAP3 MSTORE DUP1 DUP4 KECCAK256 SLOAD PUSH1 0x3 SLOAD SWAP2 MLOAD PUSH4 0x70A08231 PUSH1 0xE0 SHL DUP2 MSTORE ADDRESS PUSH1 0x4 DUP3 ADD MSTORE SWAP3 SWAP4 SWAP1 SWAP3 SWAP1 SWAP2 PUSH1 0x1 PUSH1 0x1 PUSH1 0xA0 SHL SUB AND SWAP1 PUSH4 0x70A08231 SWAP1 PUSH1 0x24 ADD PUSH1 0x20 PUSH1 0x40 MLOAD DUP1 DUP4 SUB DUP2 DUP7 GAS STATICCALL ISZERO DUP1 ISZERO PUSH2 0x148D JUMPI RETURNDATASIZE PUSH1 0x0 DUP1 RETURNDATACOPY RETURNDATASIZE PUSH1 0x0 REVERT JUMPDEST POP POP POP POP PUSH1 0x40 MLOAD RETURNDATASIZE PUSH1 0x1F NOT PUSH1 0x1F DUP3 ADD AND DUP3 ADD DUP1 PUSH1 0x40 MSTORE POP DUP2 ADD SWAP1 PUSH2 0x14B1 SWAP2 SWAP1 PUSH2 0x2646 JUMP JUMPDEST SWAP1 POP DUP1 DUP3 GT ISZERO PUSH2 0x14BF JUMPI DUP1 SWAP2 POP JUMPDEST DUP3 PUSH2 0x14CA DUP6 DUP5 PUSH2 0x2605 JUMP JUMPDEST PUSH2 0x14D4 SWAP2 SWAP1 PUSH2 0x25CA JUMP JUMPDEST SWAP5 POP POP POP POP POP PUSH2 0x1101 JUMP JUMPDEST PUSH1 0x0 DUP4 DUP2 MSTORE PUSH1 0x1C PUSH1 0x20 SWAP1 DUP2 MSTORE PUSH1 0x40 DUP1 DUP4 KECCAK256 DUP6 DUP5 MSTORE DUP3 MSTORE DUP1 DUP4 KECCAK256 PUSH1 0x1 PUSH1 0x1 PUSH1 0xA0 SHL SUB DUP6 AND DUP5 MSTORE SWAP1 SWAP2 MSTORE DUP2 KECCAK256 SLOAD DUP1 DUP3 SUB PUSH2 0x1519 JUMPI PUSH2 0x1519 PUSH2 0x2559 JUMP JUMPDEST PUSH2 0x10FD DUP6 DUP6 DUP6 PUSH2 0x19B4 JUMP JUMPDEST PUSH2 0x152D CALLER PUSH2 0x15ED JUMP JUMPDEST JUMP JUMPDEST PUSH1 0xE SLOAD PUSH1 0x3 SLOAD PUSH1 0x40 MLOAD PUSH4 0x70A08231 PUSH1 0xE0 SHL DUP2 MSTORE ADDRESS PUSH1 0x4 DUP3 ADD MSTORE PUSH1 0x0 SWAP3 DUP4 SWAP3 SWAP1 SWAP2 PUSH1 0x1 PUSH1 0x1 PUSH1 0xA0 SHL SUB SWAP1 SWAP2 AND SWAP1 PUSH4 0x70A08231 SWAP1 PUSH1 0x24 ADD PUSH1 0x20 PUSH1 0x40 MLOAD DUP1 DUP4 SUB DUP2 DUP7 GAS STATICCALL ISZERO DUP1 ISZERO PUSH2 0x1581 JUMPI RETURNDATASIZE PUSH1 0x0 DUP1 RETURNDATACOPY RETURNDATASIZE PUSH1 0x0 REVERT JUMPDEST POP POP POP POP PUSH1 0x40 MLOAD RETURNDATASIZE PUSH1 0x1F NOT PUSH1 0x1F DUP3 ADD AND DUP3 ADD DUP1 PUSH1 0x40 MSTORE POP DUP2 ADD SWAP1 PUSH2 0x15A5 SWAP2 SWAP1 PUSH2 0x2646 JUMP JUMPDEST PUSH1 0x15 SLOAD PUSH2 0x15B2 SWAP2 SWAP1 PUSH2 0x259C JUMP JUMPDEST PUSH2 0x15BC SWAP2 SWAP1 PUSH2 0x2585 JUMP JUMPDEST SWAP1 POP PUSH1 0xD SLOAD PUSH1 0x4 PUSH2 0x15CD SWAP2 SWAP1 PUSH2 0x2605 JUMP JUMPDEST DUP2 GT ISZERO PUSH2 0x15DC JUMPI POP POP PUSH1 0xD SLOAD SWAP1 JUMP JUMPDEST PUSH2 0x15E7 PUSH1 0x4 DUP3 PUSH2 0x25CA JUMP JUMPDEST SWAP2 POP POP SWAP1 JUMP JUMPDEST PUSH1 0x1 PUSH1 0x1 PUSH1 0xA0 SHL SUB DUP2 AND PUSH1 0x0 SWAP1 DUP2 MSTORE PUSH1 0x1F PUSH1 0x20 SWAP1 DUP2 MSTORE PUSH1 0x40 DUP1 DUP4 KECCAK256 SLOAD PUSH1 0x1E SWAP1 SWAP3 MSTORE DUP3 KECCAK256 SLOAD SWAP1 SWAP2 DUP3 SWAP1 SUB PUSH2 0x161F JUMPI PUSH1 0x1 SWAP2 POP JUMPDEST DUP1 PUSH1 0x0 SUB PUSH2 0x162B JUMPI POP PUSH1 0x1 JUMPDEST PUSH1 0x1 DUP2 JUMPDEST PUSH1 0xF SLOAD DUP2 GT PUSH2 0x171B JUMPI PUSH1 0xF SLOAD DUP2 EQ PUSH2 0x164B JUMPI PUSH1 0x11 SLOAD SWAP2 POP PUSH2 0x165D JUMP JUMPDEST PUSH1 0x1 PUSH1 0x10 SLOAD PUSH2 0x165A SWAP2 SWAP1 PUSH2 0x2585 JUMP JUMPDEST SWAP2 POP JUMPDEST PUSH1 0x0 PUSH2 0x1669 DUP6 DUP5 PUSH2 0x2585 JUMP JUMPDEST PUSH2 0x1674 SWAP1 PUSH1 0x1 PUSH2 0x259C JUMP JUMPDEST PUSH8 0xFFFFFFFFFFFFFFFF DUP2 GT ISZERO PUSH2 0x168C JUMPI PUSH2 0x168C PUSH2 0x235F JUMP JUMPDEST PUSH1 0x40 MLOAD SWAP1 DUP1 DUP3 MSTORE DUP1 PUSH1 0x20 MUL PUSH1 0x20 ADD DUP3 ADD PUSH1 0x40 MSTORE DUP1 ISZERO PUSH2 0x16B5 JUMPI DUP2 PUSH1 0x20 ADD PUSH1 0x20 DUP3 MUL DUP1 CALLDATASIZE DUP4 CALLDATACOPY ADD SWAP1 POP JUMPDEST POP SWAP1 POP DUP5 JUMPDEST DUP4 DUP2 GT PUSH2 0x16FA JUMPI DUP1 DUP3 PUSH2 0x16CD DUP9 DUP4 PUSH2 0x2585 JUMP JUMPDEST DUP2 MLOAD DUP2 LT PUSH2 0x16DD JUMPI PUSH2 0x16DD PUSH2 0x25B4 JUMP JUMPDEST PUSH1 0x20 SWAP1 DUP2 MUL SWAP2 SWAP1 SWAP2 ADD ADD MSTORE DUP1 PUSH2 0x16F2 DUP2 PUSH2 0x25EC JUMP JUMPDEST SWAP2 POP POP PUSH2 0x16BA JUMP JUMPDEST POP PUSH2 0x1706 DUP3 DUP3 DUP9 PUSH2 0x1159 JUMP JUMPDEST POP POP DUP1 DUP1 PUSH2 0x1713 SWAP1 PUSH2 0x25EC JUMP JUMPDEST SWAP2 POP POP PUSH2 0x162F JUMP JUMPDEST POP PUSH1 0x1 PUSH1 0x1 PUSH1 0xA0 SHL SUB SWAP1 SWAP4 AND PUSH1 0x0 SWAP1 DUP2 MSTORE PUSH1 0x1F PUSH1 0x20 MSTORE PUSH1 0x40 SWAP1 KECCAK256 SWAP3 DUP4 SSTORE POP POP PUSH1 0xF SLOAD SWAP1 SSTORE JUMP JUMPDEST PUSH1 0x1 SLOAD PUSH1 0x1 PUSH1 0x1 PUSH1 0xA0 SHL SUB AND CALLER EQ PUSH2 0x1788 JUMPI PUSH1 0x40 MLOAD PUSH3 0x461BCD PUSH1 0xE5 SHL DUP2 MSTORE PUSH1 0x20 PUSH1 0x4 DUP3 ADD MSTORE PUSH1 0xA PUSH1 0x24 DUP3 ADD MSTORE PUSH10 0x37B7363C9037BBB732B9 PUSH1 0xB1 SHL PUSH1 0x44 DUP3 ADD MSTORE PUSH1 0x64 ADD PUSH2 0xD73 JUMP JUMPDEST PUSH1 0x3 DUP1 SLOAD PUSH1 0x1 PUSH1 0x1 PUSH1 0xA0 SHL SUB DUP4 AND PUSH1 0x1 PUSH1 0x1 PUSH1 0xA0 SHL SUB NOT SWAP2 DUP3 AND DUP2 OR SWAP1 SWAP3 SSTORE PUSH1 0x1 DUP1 SLOAD DUP3 AND SWAP1 SSTORE PUSH1 0x0 PUSH1 0x21 SSTORE PUSH1 0x20 DUP1 SLOAD SWAP1 SWAP2 AND DUP3 OR DUP2 SSTORE PUSH1 0x40 DUP1 MLOAD PUSH4 0x6055F5F PUSH1 0xE5 SHL DUP2 MSTORE SWAP1 MLOAD PUSH4 0xC0ABEBE0 SWAP3 PUSH1 0x4 DUP1 DUP5 ADD SWAP4 SWAP2 SWAP3 SWAP2 DUP3 SWAP1 SUB ADD DUP2 DUP7 GAS STATICCALL ISZERO DUP1 ISZERO PUSH2 0x17F7 JUMPI RETURNDATASIZE PUSH1 0x0 DUP1 RETURNDATACOPY RETURNDATASIZE PUSH1 0x0 REVERT JUMPDEST POP POP POP POP PUSH1 0x40 MLOAD RETURNDATASIZE PUSH1 0x1F NOT PUSH1 0x1F DUP3 ADD AND DUP3 ADD DUP1 PUSH1 0x40 MSTORE POP DUP2 ADD SWAP1 PUSH2 0x181B SWAP2 SWAP1 PUSH2 0x2646 JUMP JUMPDEST PUSH1 0x21 SSTORE POP JUMP JUMPDEST PUSH1 0x0 DUP4 DUP2 MSTORE PUSH1 0x1C PUSH1 0x20 SWAP1 DUP2 MSTORE PUSH1 0x40 DUP1 DUP4 KECCAK256 DUP6 DUP5 MSTORE DUP3 MSTORE DUP1 DUP4 KECCAK256 PUSH1 0x1 PUSH1 0x1 PUSH1 0xA0 SHL SUB DUP9 AND DUP5 MSTORE SWAP1 SWAP2 MSTORE DUP2 KECCAK256 SLOAD SWAP1 SUB PUSH2 0x18F0 JUMPI PUSH1 0x1 PUSH1 0x1 PUSH1 0xA0 SHL SUB DUP5 AND PUSH1 0x0 SWAP1 DUP2 MSTORE PUSH1 0x1D PUSH1 0x20 SWAP1 DUP2 MSTORE PUSH1 0x40 DUP1 DUP4 KECCAK256 DUP7 DUP5 MSTORE DUP3 MSTORE DUP1 DUP4 KECCAK256 DUP1 SLOAD PUSH1 0x1 DUP2 DUP2 ADD DUP4 SSTORE SWAP2 DUP6 MSTORE DUP4 DUP6 KECCAK256 ADD DUP7 SWAP1 SSTORE DUP7 DUP5 MSTORE PUSH1 0x17 DUP4 MSTORE DUP2 DUP5 KECCAK256 DUP7 DUP6 MSTORE SWAP1 SWAP3 MSTORE DUP3 KECCAK256 DUP1 SLOAD SWAP2 SWAP3 SWAP1 SWAP2 PUSH2 0x18AB SWAP1 DUP5 SWAP1 PUSH2 0x259C JUMP JUMPDEST SWAP1 SWAP2 SSTORE POP POP PUSH1 0x0 DUP4 DUP2 MSTORE PUSH1 0x18 PUSH1 0x20 SWAP1 DUP2 MSTORE PUSH1 0x40 DUP1 DUP4 KECCAK256 DUP6 DUP5 MSTORE DUP3 MSTORE DUP3 KECCAK256 DUP1 SLOAD PUSH1 0x1 DUP2 ADD DUP3 SSTORE SWAP1 DUP4 MSTORE SWAP2 KECCAK256 ADD DUP1 SLOAD PUSH1 0x1 PUSH1 0x1 PUSH1 0xA0 SHL SUB NOT AND PUSH1 0x1 PUSH1 0x1 PUSH1 0xA0 SHL SUB DUP7 AND OR SWAP1 SSTORE JUMPDEST PUSH1 0x0 DUP4 DUP2 MSTORE PUSH1 0x1C PUSH1 0x20 SWAP1 DUP2 MSTORE PUSH1 0x40 DUP1 DUP4 KECCAK256 DUP6 DUP5 MSTORE DUP3 MSTORE DUP1 DUP4 KECCAK256 PUSH1 0x1 PUSH1 0x1 PUSH1 0xA0 SHL SUB DUP9 AND DUP5 MSTORE SWAP1 SWAP2 MSTORE DUP2 KECCAK256 DUP1 SLOAD DUP4 SWAP3 SWAP1 PUSH2 0x192A SWAP1 DUP5 SWAP1 PUSH2 0x259C JUMP JUMPDEST SWAP1 SWAP2 SSTORE POP POP PUSH1 0x0 DUP4 DUP2 MSTORE PUSH1 0x1A PUSH1 0x20 SWAP1 DUP2 MSTORE PUSH1 0x40 DUP1 DUP4 KECCAK256 DUP6 DUP5 MSTORE SWAP1 SWAP2 MSTORE DUP2 KECCAK256 DUP1 SLOAD DUP4 SWAP3 SWAP1 PUSH2 0x1958 SWAP1 DUP5 SWAP1 PUSH2 0x259C JUMP JUMPDEST SWAP1 SWAP2 SSTORE POP POP PUSH1 0x0 DUP4 DUP2 MSTORE PUSH1 0x19 PUSH1 0x20 SWAP1 DUP2 MSTORE PUSH1 0x40 DUP1 DUP4 KECCAK256 DUP6 DUP5 MSTORE SWAP1 SWAP2 MSTORE DUP2 KECCAK256 DUP1 SLOAD DUP4 SWAP3 SWAP1 PUSH2 0x1986 SWAP1 DUP5 SWAP1 PUSH2 0x259C JUMP JUMPDEST SWAP3 POP POP DUP2 SWAP1 SSTORE POP DUP1 PUSH1 0x14 PUSH1 0x0 DUP3 DUP3 SLOAD PUSH2 0x199F SWAP2 SWAP1 PUSH2 0x259C JUMP JUMPDEST SWAP1 SWAP2 SSTORE POP PUSH2 0x19AD SWAP1 POP PUSH2 0x1B58 JUMP JUMPDEST POP POP POP POP POP JUMP JUMPDEST PUSH1 0x0 PUSH2 0x19BE PUSH2 0x1B58 JUMP JUMPDEST PUSH1 0xF SLOAD DUP5 LT ISZERO PUSH2 0x19DA JUMPI PUSH2 0x19D3 DUP5 DUP5 DUP5 PUSH2 0x1D2A JUMP JUMPDEST SWAP1 POP PUSH2 0x1101 JUMP JUMPDEST PUSH1 0xF SLOAD DUP5 SUB PUSH2 0x1101 JUMPI PUSH1 0x10 SLOAD DUP4 LT ISZERO PUSH2 0x1101 JUMPI PUSH2 0xA22 DUP5 DUP5 DUP5 PUSH2 0x1D2A JUMP JUMPDEST PUSH1 0x0 DUP1 PUSH2 0x1A05 DUP4 DUP6 PUSH2 0x259C JUMP JUMPDEST SWAP1 POP DUP4 DUP2 LT ISZERO PUSH2 0x1101 JUMPI PUSH1 0x40 MLOAD PUSH3 0x461BCD PUSH1 0xE5 SHL DUP2 MSTORE PUSH1 0x20 PUSH1 0x4 DUP3 ADD MSTORE PUSH1 0xC PUSH1 0x24 DUP3 ADD MSTORE PUSH12 0x416464206F766572666C6F77 PUSH1 0xA0 SHL PUSH1 0x44 DUP3 ADD MSTORE PUSH1 0x64 ADD PUSH2 0xD73 JUMP JUMPDEST PUSH1 0x0 DUP4 DUP2 MSTORE PUSH1 0x1C PUSH1 0x20 SWAP1 DUP2 MSTORE PUSH1 0x40 DUP1 DUP4 KECCAK256 DUP6 DUP5 MSTORE DUP3 MSTORE DUP1 DUP4 KECCAK256 PUSH1 0x1 PUSH1 0x1 PUSH1 0xA0 SHL SUB DUP6 AND DUP5 MSTORE SWAP1 SWAP2 MSTORE DUP2 KECCAK256 SLOAD DUP1 DUP3 SUB PUSH2 0x1A81 JUMPI PUSH1 0x0 SWAP2 POP PUSH2 0x1B4D JUMP JUMPDEST PUSH2 0x1A8C DUP6 DUP6 DUP6 PUSH2 0x13D8 JUMP JUMPDEST PUSH1 0x0 DUP7 DUP2 MSTORE PUSH1 0x1C PUSH1 0x20 SWAP1 DUP2 MSTORE PUSH1 0x40 DUP1 DUP4 KECCAK256 DUP9 DUP5 MSTORE DUP3 MSTORE DUP1 DUP4 KECCAK256 PUSH1 0x1 PUSH1 0x1 PUSH1 0xA0 SHL SUB DUP9 AND DUP5 MSTORE DUP3 MSTORE DUP1 DUP4 KECCAK256 DUP4 SWAP1 SSTORE DUP9 DUP4 MSTORE PUSH1 0x1A DUP3 MSTORE DUP1 DUP4 KECCAK256 DUP9 DUP5 MSTORE SWAP1 SWAP2 MSTORE SWAP1 KECCAK256 SLOAD SWAP1 SWAP3 POP PUSH2 0x1AD9 SWAP1 DUP3 PUSH2 0x1F3B JUMP JUMPDEST PUSH1 0x0 DUP7 DUP2 MSTORE PUSH1 0x1A PUSH1 0x20 SWAP1 DUP2 MSTORE PUSH1 0x40 DUP1 DUP4 KECCAK256 DUP9 DUP5 MSTORE DUP3 MSTORE DUP1 DUP4 KECCAK256 SWAP4 SWAP1 SWAP4 SSTORE DUP8 DUP3 MSTORE PUSH1 0x1B DUP2 MSTORE DUP3 DUP3 KECCAK256 DUP8 DUP4 MSTORE SWAP1 MSTORE KECCAK256 SLOAD PUSH2 0x1B11 SWAP1 DUP4 PUSH2 0x1F3B JUMP JUMPDEST PUSH1 0x0 DUP7 DUP2 MSTORE PUSH1 0x1B PUSH1 0x20 SWAP1 DUP2 MSTORE PUSH1 0x40 DUP1 DUP4 KECCAK256 DUP9 DUP5 MSTORE SWAP1 SWAP2 MSTORE SWAP1 KECCAK256 SSTORE PUSH2 0x1B36 DUP3 PUSH1 0x4 PUSH2 0x2605 JUMP JUMPDEST PUSH1 0x15 PUSH1 0x0 DUP3 DUP3 SLOAD PUSH2 0x1B47 SWAP2 SWAP1 PUSH2 0x259C JUMP JUMPDEST SWAP1 SWAP2 SSTORE POP POP JUMPDEST PUSH2 0x10FD DUP3 PUSH1 0x4 PUSH2 0x2605 JUMP JUMPDEST PUSH1 0x13 SLOAD TIMESTAMP SWAP1 DUP2 GT ISZERO PUSH2 0x1D27 JUMPI PUSH1 0x11 SLOAD PUSH1 0x10 SLOAD LT PUSH2 0x1BF4 JUMPI PUSH1 0x1 PUSH1 0xF PUSH1 0x0 DUP3 DUP3 SLOAD PUSH2 0x1B82 SWAP2 SWAP1 PUSH2 0x259C JUMP JUMPDEST SWAP1 SWAP2 SSTORE POP POP PUSH1 0x0 PUSH1 0x10 SSTORE PUSH2 0x1B94 PUSH2 0x1108 JUMP JUMPDEST PUSH1 0xD DUP2 SWAP1 SSTORE PUSH1 0xF DUP1 SLOAD PUSH1 0x0 SWAP1 DUP2 MSTORE PUSH1 0x16 PUSH1 0x20 SWAP1 DUP2 MSTORE PUSH1 0x40 SWAP2 DUP3 SWAP1 KECCAK256 DUP5 SWAP1 SSTORE SWAP2 SLOAD PUSH1 0x14 SLOAD DUP3 MLOAD SWAP2 DUP3 MSTORE SWAP3 DUP2 ADD SWAP4 SWAP1 SWAP4 MSTORE DUP3 ADD MSTORE PUSH32 0x9D472BCF372FCE01FD875C3296E8E5AE0A08BFCA42DEDAC19E202271CE8F39C5 SWAP1 PUSH1 0x60 ADD PUSH1 0x40 MLOAD DUP1 SWAP2 SUB SWAP1 LOG1 JUMPDEST PUSH2 0x1BFC PUSH2 0x1F87 JUMP JUMPDEST PUSH1 0x1 PUSH1 0x10 PUSH1 0x0 DUP3 DUP3 SLOAD PUSH2 0x1C0F SWAP2 SWAP1 PUSH2 0x259C JUMP JUMPDEST SWAP1 SWAP2 SSTORE POP POP PUSH1 0x12 SLOAD PUSH2 0x1C21 SWAP1 DUP3 PUSH2 0x259C JUMP JUMPDEST PUSH1 0x13 SSTORE PUSH2 0x1C2C PUSH2 0x152F JUMP JUMPDEST PUSH1 0xD DUP2 SWAP1 SSTORE PUSH2 0x1C3C SWAP1 PUSH1 0x4 PUSH2 0x2605 JUMP JUMPDEST PUSH1 0xE SLOAD PUSH2 0x1C49 SWAP2 SWAP1 PUSH2 0x259C JUMP JUMPDEST PUSH1 0xE SSTORE PUSH1 0xD SLOAD PUSH1 0xF DUP1 SLOAD PUSH1 0x0 SWAP1 DUP2 MSTORE PUSH1 0x1B PUSH1 0x20 SWAP1 DUP2 MSTORE PUSH1 0x40 DUP1 DUP4 KECCAK256 PUSH1 0x10 DUP1 SLOAD DUP6 MSTORE SWAP3 MSTORE DUP3 KECCAK256 SWAP4 SWAP1 SWAP4 SSTORE SWAP1 SLOAD SWAP2 SLOAD PUSH2 0x1C82 SWAP1 PUSH1 0x1 SWAP1 PUSH2 0x2585 JUMP JUMPDEST SWAP1 POP PUSH1 0x10 SLOAD PUSH1 0x1 SUB PUSH2 0x1CA5 JUMPI PUSH1 0x1 PUSH1 0xF SLOAD PUSH2 0x1C9D SWAP2 SWAP1 PUSH2 0x2585 JUMP JUMPDEST SWAP2 POP PUSH1 0x11 SLOAD SWAP1 POP JUMPDEST PUSH1 0xF SLOAD PUSH1 0x10 SLOAD PUSH1 0x13 SLOAD PUSH1 0x0 DUP6 DUP2 MSTORE PUSH1 0x19 PUSH1 0x20 SWAP1 DUP2 MSTORE PUSH1 0x40 DUP1 DUP4 KECCAK256 DUP8 DUP5 MSTORE DUP3 MSTORE DUP1 DUP4 KECCAK256 SLOAD DUP9 DUP5 MSTORE PUSH1 0x17 DUP4 MSTORE DUP2 DUP5 KECCAK256 DUP9 DUP6 MSTORE DUP4 MSTORE SWAP3 DUP2 SWAP1 KECCAK256 SLOAD DUP2 MLOAD SWAP7 DUP8 MSTORE SWAP2 DUP7 ADD SWAP5 SWAP1 SWAP5 MSTORE DUP5 DUP5 ADD SWAP3 SWAP1 SWAP3 MSTORE PUSH1 0x60 DUP5 ADD MSTORE PUSH1 0x80 DUP4 ADD MSTORE MLOAD PUSH32 0xF0047F88D9BCE548F6A3B5F02AAE9964BCB69AFB1848B6ACAAB809A2B0629AAF SWAP2 DUP2 SWAP1 SUB PUSH1 0xA0 ADD SWAP1 LOG1 POP POP JUMPDEST POP JUMP JUMPDEST PUSH1 0x0 DUP4 DUP2 MSTORE PUSH1 0x1C PUSH1 0x20 SWAP1 DUP2 MSTORE PUSH1 0x40 DUP1 DUP4 KECCAK256 DUP6 DUP5 MSTORE DUP3 MSTORE DUP1 DUP4 KECCAK256 PUSH1 0x1 PUSH1 0x1 PUSH1 0xA0 SHL SUB DUP6 AND DUP5 MSTORE SWAP1 SWAP2 MSTORE DUP2 KECCAK256 SLOAD DUP1 DUP3 SUB PUSH2 0x1D65 JUMPI PUSH1 0x0 SWAP2 POP PUSH2 0x1B4D JUMP JUMPDEST PUSH2 0x1D70 DUP6 DUP6 DUP6 PUSH2 0x13D8 JUMP JUMPDEST PUSH1 0x0 DUP7 DUP2 MSTORE PUSH1 0x1C PUSH1 0x20 SWAP1 DUP2 MSTORE PUSH1 0x40 DUP1 DUP4 KECCAK256 DUP9 DUP5 MSTORE DUP3 MSTORE DUP1 DUP4 KECCAK256 PUSH1 0x1 PUSH1 0x1 PUSH1 0xA0 SHL SUB DUP9 AND DUP5 MSTORE DUP3 MSTORE DUP1 DUP4 KECCAK256 DUP4 SWAP1 SSTORE DUP9 DUP4 MSTORE PUSH1 0x1A DUP3 MSTORE DUP1 DUP4 KECCAK256 DUP9 DUP5 MSTORE SWAP1 SWAP2 MSTORE SWAP1 KECCAK256 SLOAD SWAP1 SWAP3 POP PUSH2 0x1DBD SWAP1 DUP3 PUSH2 0x1F3B JUMP JUMPDEST PUSH1 0x0 DUP7 DUP2 MSTORE PUSH1 0x1A PUSH1 0x20 SWAP1 DUP2 MSTORE PUSH1 0x40 DUP1 DUP4 KECCAK256 DUP9 DUP5 MSTORE DUP3 MSTORE DUP1 DUP4 KECCAK256 SWAP4 SWAP1 SWAP4 SSTORE DUP8 DUP3 MSTORE PUSH1 0x1B DUP2 MSTORE DUP3 DUP3 KECCAK256 DUP8 DUP4 MSTORE SWAP1 MSTORE KECCAK256 SLOAD PUSH2 0x1DF5 SWAP1 DUP4 PUSH2 0x1F3B JUMP JUMPDEST PUSH1 0x0 DUP7 DUP2 MSTORE PUSH1 0x1B PUSH1 0x20 SWAP1 DUP2 MSTORE PUSH1 0x40 DUP1 DUP4 KECCAK256 DUP9 DUP5 MSTORE SWAP1 SWAP2 MSTORE SWAP1 KECCAK256 SSTORE PUSH2 0x1E1A DUP3 PUSH1 0x4 PUSH2 0x2605 JUMP JUMPDEST PUSH1 0x15 PUSH1 0x0 DUP3 DUP3 SLOAD PUSH2 0x1E2B SWAP2 SWAP1 PUSH2 0x259C JUMP JUMPDEST SWAP1 SWAP2 SSTORE POP POP PUSH1 0x1 PUSH1 0x1 PUSH1 0xA0 SHL SUB DUP4 AND CALLER PUSH32 0x7F3FA649AA08DBAFF5B36B865F9585AE5B83BCB35185C846035019B63967B6E9 DUP8 DUP8 PUSH2 0x1E69 DUP8 PUSH1 0x4 PUSH2 0x2605 JUMP JUMPDEST PUSH1 0x0 DUP12 DUP2 MSTORE PUSH1 0x1B PUSH1 0x20 SWAP1 DUP2 MSTORE PUSH1 0x40 DUP1 DUP4 KECCAK256 DUP14 DUP5 MSTORE DUP3 MSTORE SWAP2 DUP3 SWAP1 KECCAK256 SLOAD DUP3 MLOAD SWAP6 DUP7 MSTORE SWAP1 DUP6 ADD SWAP4 SWAP1 SWAP4 MSTORE DUP4 ADD MSTORE PUSH1 0x60 DUP3 ADD MSTORE PUSH1 0x80 ADD PUSH1 0x40 MLOAD DUP1 SWAP2 SUB SWAP1 LOG3 PUSH1 0x3 SLOAD PUSH1 0x1 PUSH1 0x1 PUSH1 0xA0 SHL SUB AND PUSH4 0xA9059CBB DUP5 PUSH2 0x1EC0 DUP6 PUSH1 0x4 PUSH2 0x2605 JUMP JUMPDEST PUSH1 0x40 MLOAD PUSH1 0x1 PUSH1 0x1 PUSH1 0xE0 SHL SUB NOT PUSH1 0xE0 DUP6 SWAP1 SHL AND DUP2 MSTORE PUSH1 0x1 PUSH1 0x1 PUSH1 0xA0 SHL SUB SWAP1 SWAP3 AND PUSH1 0x4 DUP4 ADD MSTORE PUSH1 0x24 DUP3 ADD MSTORE PUSH1 0x44 ADD PUSH1 0x20 PUSH1 0x40 MLOAD DUP1 DUP4 SUB DUP2 PUSH1 0x0 DUP8 GAS CALL ISZERO DUP1 ISZERO PUSH2 0x1F0B JUMPI RETURNDATASIZE PUSH1 0x0 DUP1 RETURNDATACOPY RETURNDATASIZE PUSH1 0x0 REVERT JUMPDEST POP POP POP POP PUSH1 0x40 MLOAD RETURNDATASIZE PUSH1 0x1F NOT PUSH1 0x1F DUP3 ADD AND DUP3 ADD DUP1 PUSH1 0x40 MSTORE POP DUP2 ADD SWAP1 PUSH2 0x1F2F SWAP2 SWAP1 PUSH2 0x2624 JUMP JUMPDEST POP PUSH2 0x10FD DUP3 PUSH1 0x4 PUSH2 0x2605 JUMP JUMPDEST PUSH1 0x0 DUP2 DUP4 LT ISZERO PUSH2 0x1F7D JUMPI PUSH1 0x40 MLOAD PUSH3 0x461BCD PUSH1 0xE5 SHL DUP2 MSTORE PUSH1 0x20 PUSH1 0x4 DUP3 ADD MSTORE PUSH1 0xD PUSH1 0x24 DUP3 ADD MSTORE PUSH13 0x53756220756E646572666C6F77 PUSH1 0x98 SHL PUSH1 0x44 DUP3 ADD MSTORE PUSH1 0x64 ADD PUSH2 0xD73 JUMP JUMPDEST PUSH2 0x1101 DUP3 DUP5 PUSH2 0x2585 JUMP JUMPDEST PUSH1 0x20 DUP1 SLOAD PUSH1 0x40 DUP1 MLOAD PUSH4 0x6055F5F PUSH1 0xE5 SHL DUP2 MSTORE SWAP1 MLOAD PUSH1 0x0 SWAP4 PUSH1 0x1 PUSH1 0x1 PUSH1 0xA0 SHL SUB SWAP1 SWAP4 AND SWAP3 PUSH4 0xC0ABEBE0 SWAP3 PUSH1 0x4 DUP1 DUP3 ADD SWAP4 SWAP2 DUP3 SWAP1 SUB ADD DUP2 DUP7 GAS STATICCALL ISZERO DUP1 ISZERO PUSH2 0x1FD0 JUMPI RETURNDATASIZE PUSH1 0x0 DUP1 RETURNDATACOPY RETURNDATASIZE PUSH1 0x0 REVERT JUMPDEST POP POP POP POP PUSH1 0x40 MLOAD RETURNDATASIZE PUSH1 0x1F NOT PUSH1 0x1F DUP3 ADD AND DUP3 ADD DUP1 PUSH1 0x40 MSTORE POP DUP2 ADD SWAP1 PUSH2 0x1FF4 SWAP2 SWAP1 PUSH2 0x2646 JUMP JUMPDEST SWAP1 POP PUSH1 0x0 PUSH1 0x21 SLOAD DUP3 PUSH2 0x2006 SWAP2 SWAP1 PUSH2 0x2585 JUMP JUMPDEST SWAP1 POP PUSH1 0x0 PUSH2 0x202C PUSH1 0x64 PUSH2 0x2026 PUSH2 0x350 PUSH1 0xD SLOAD PUSH2 0x2114 SWAP1 SWAP2 SWAP1 PUSH4 0xFFFFFFFF AND JUMP JUMPDEST SWAP1 PUSH2 0x217C JUMP JUMPDEST SWAP1 POP DUP2 ISZERO PUSH2 0x20EB JUMPI DUP1 DUP3 LT ISZERO PUSH2 0x209C JUMPI PUSH1 0x0 PUSH2 0x204D DUP4 PUSH2 0x2026 DUP5 PUSH1 0x64 PUSH2 0x2114 JUMP JUMPDEST SWAP1 POP PUSH1 0x0 PUSH2 0x2068 PUSH2 0x3E8 PUSH2 0x2062 DUP5 PUSH1 0x64 PUSH2 0x1F3B JUMP JUMPDEST SWAP1 PUSH2 0x21C6 JUMP JUMPDEST SWAP1 POP PUSH2 0x2091 PUSH2 0x2088 PUSH2 0x3E8 PUSH2 0x2026 DUP5 PUSH1 0x12 SLOAD PUSH2 0x2114 SWAP1 SWAP2 SWAP1 PUSH4 0xFFFFFFFF AND JUMP JUMPDEST PUSH1 0x12 SLOAD SWAP1 PUSH2 0x19F8 JUMP JUMPDEST PUSH1 0x12 SSTORE POP PUSH2 0x20FD SWAP1 POP JUMP JUMPDEST PUSH1 0x0 PUSH2 0x20AD DUP3 PUSH2 0x2026 DUP6 PUSH1 0x64 PUSH2 0x2114 JUMP JUMPDEST SWAP1 POP PUSH1 0x0 PUSH2 0x20C2 PUSH2 0x3E8 PUSH2 0x2062 DUP5 PUSH1 0x64 PUSH2 0x1F3B JUMP JUMPDEST SWAP1 POP PUSH2 0x2091 PUSH2 0x20E2 PUSH2 0x7D0 PUSH2 0x2026 DUP5 PUSH1 0x12 SLOAD PUSH2 0x2114 SWAP1 SWAP2 SWAP1 PUSH4 0xFFFFFFFF AND JUMP JUMPDEST PUSH1 0x12 SLOAD SWAP1 PUSH2 0x1F3B JUMP JUMPDEST PUSH1 0x12 SLOAD PUSH2 0x20F9 SWAP1 PUSH1 0x2 PUSH2 0x2605 JUMP JUMPDEST PUSH1 0x12 SSTORE JUMPDEST PUSH1 0x5 PUSH1 0x12 SLOAD GT PUSH2 0x210D JUMPI PUSH1 0xA PUSH1 0x12 SSTORE JUMPDEST POP POP PUSH1 0x21 SSTORE JUMP JUMPDEST PUSH1 0x0 DUP3 PUSH1 0x0 SUB PUSH2 0x2126 JUMPI POP PUSH1 0x0 PUSH2 0x1153 JUMP JUMPDEST PUSH1 0x0 PUSH2 0x2132 DUP4 DUP6 PUSH2 0x2605 JUMP JUMPDEST SWAP1 POP DUP3 PUSH2 0x213F DUP6 DUP4 PUSH2 0x25CA JUMP JUMPDEST EQ PUSH2 0x1101 JUMPI PUSH1 0x40 MLOAD PUSH3 0x461BCD PUSH1 0xE5 SHL DUP2 MSTORE PUSH1 0x20 PUSH1 0x4 DUP3 ADD MSTORE PUSH1 0xD PUSH1 0x24 DUP3 ADD MSTORE PUSH13 0x4D756C74206F766572666C6F77 PUSH1 0x98 SHL PUSH1 0x44 DUP3 ADD MSTORE PUSH1 0x64 ADD PUSH2 0xD73 JUMP JUMPDEST PUSH1 0x0 DUP2 PUSH1 0x0 SUB PUSH2 0x21BC JUMPI PUSH1 0x40 MLOAD PUSH3 0x461BCD PUSH1 0xE5 SHL DUP2 MSTORE PUSH1 0x20 PUSH1 0x4 DUP3 ADD MSTORE PUSH1 0xB PUSH1 0x24 DUP3 ADD MSTORE PUSH11 0x446976206279207A65726F PUSH1 0xA8 SHL PUSH1 0x44 DUP3 ADD MSTORE PUSH1 0x64 ADD PUSH2 0xD73 JUMP JUMPDEST PUSH2 0x1101 DUP3 DUP5 PUSH2 0x25CA JUMP JUMPDEST PUSH1 0x0 DUP2 DUP4 GT ISZERO PUSH2 0x21D7 JUMPI POP DUP1 PUSH2 0x1153 JUMP JUMPDEST POP SWAP1 SWAP2 SWAP1 POP JUMP JUMPDEST PUSH1 0x0 PUSH1 0x20 DUP1 DUP4 MSTORE DUP4 MLOAD DUP1 DUP3 DUP6 ADD MSTORE PUSH1 0x0 JUMPDEST DUP2 DUP2 LT ISZERO PUSH2 0x220B JUMPI DUP6 DUP2 ADD DUP4 ADD MLOAD DUP6 DUP3 ADD PUSH1 0x40 ADD MSTORE DUP3 ADD PUSH2 0x21EF JUMP JUMPDEST DUP2 DUP2 GT ISZERO PUSH2 0x221D JUMPI PUSH1 0x0 PUSH1 0x40 DUP4 DUP8 ADD ADD MSTORE JUMPDEST POP PUSH1 0x1F ADD PUSH1 0x1F NOT AND SWAP3 SWAP1 SWAP3 ADD PUSH1 0x40 ADD SWAP4 SWAP3 POP POP POP JUMP JUMPDEST PUSH1 0x0 DUP1 PUSH1 0x0 PUSH1 0x60 DUP5 DUP7 SUB SLT ISZERO PUSH2 0x2248 JUMPI PUSH1 0x0 DUP1 REVERT JUMPDEST POP POP DUP2 CALLDATALOAD SWAP4 PUSH1 0x20 DUP4 ADD CALLDATALOAD SWAP4 POP PUSH1 0x40 SWAP1 SWAP3 ADD CALLDATALOAD SWAP2 SWAP1 POP JUMP JUMPDEST PUSH1 0x0 DUP1 PUSH1 0x40 DUP4 DUP6 SUB SLT ISZERO PUSH2 0x2272 JUMPI PUSH1 0x0 DUP1 REVERT JUMPDEST POP POP DUP1 CALLDATALOAD SWAP3 PUSH1 0x20 SWAP1 SWAP2 ADD CALLDATALOAD SWAP2 POP JUMP JUMPDEST DUP1 CALLDATALOAD PUSH1 0x1 PUSH1 0x1 PUSH1 0xA0 SHL SUB DUP2 AND DUP2 EQ PUSH2 0x2298 JUMPI PUSH1 0x0 DUP1 REVERT JUMPDEST SWAP2 SWAP1 POP JUMP JUMPDEST PUSH1 0x0 PUSH1 0x20 DUP3 DUP5 SUB SLT ISZERO PUSH2 0x22AF JUMPI PUSH1 0x0 DUP1 REVERT JUMPDEST PUSH2 0x1101 DUP3 PUSH2 0x2281 JUMP JUMPDEST PUSH1 0x0 DUP1 PUSH1 0x0 DUP1 PUSH1 0x80 DUP6 DUP8 SUB SLT ISZERO PUSH2 0x22CE JUMPI PUSH1 0x0 DUP1 REVERT JUMPDEST DUP5 CALLDATALOAD SWAP4 POP PUSH1 0x20 DUP6 ADD CALLDATALOAD SWAP3 POP PUSH1 0x40 DUP6 ADD CALLDATALOAD SWAP2 POP PUSH2 0x22EC PUSH1 0x60 DUP7 ADD PUSH2 0x2281 JUMP JUMPDEST SWAP1 POP SWAP3 SWAP6 SWAP2 SWAP5 POP SWAP3 POP JUMP JUMPDEST PUSH1 0x0 DUP1 PUSH1 0x0 PUSH1 0x60 DUP5 DUP7 SUB SLT ISZERO PUSH2 0x230C JUMPI PUSH1 0x0 DUP1 REVERT JUMPDEST PUSH2 0x2315 DUP5 PUSH2 0x2281 JUMP JUMPDEST SWAP6 PUSH1 0x20 DUP6 ADD CALLDATALOAD SWAP6 POP PUSH1 0x40 SWAP1 SWAP5 ADD CALLDATALOAD SWAP4 SWAP3 POP POP POP JUMP JUMPDEST PUSH1 0x0 DUP1 PUSH1 0x0 PUSH1 0x60 DUP5 DUP7 SUB SLT ISZERO PUSH2 0x233F JUMPI PUSH1 0x0 DUP1 REVERT JUMPDEST DUP4 CALLDATALOAD SWAP3 POP PUSH1 0x20 DUP5 ADD CALLDATALOAD SWAP2 POP PUSH2 0x2356 PUSH1 0x40 DUP6 ADD PUSH2 0x2281 JUMP JUMPDEST SWAP1 POP SWAP3 POP SWAP3 POP SWAP3 JUMP JUMPDEST PUSH4 0x4E487B71 PUSH1 0xE0 SHL PUSH1 0x0 MSTORE PUSH1 0x41 PUSH1 0x4 MSTORE PUSH1 0x24 PUSH1 0x0 REVERT JUMPDEST PUSH1 0x0 DUP3 PUSH1 0x1F DUP4 ADD SLT PUSH2 0x2386 JUMPI PUSH1 0x0 DUP1 REVERT JUMPDEST DUP2 CALLDATALOAD PUSH1 0x20 PUSH8 0xFFFFFFFFFFFFFFFF DUP1 DUP4 GT ISZERO PUSH2 0x23A3 JUMPI PUSH2 0x23A3 PUSH2 0x235F JUMP JUMPDEST DUP3 PUSH1 0x5 SHL PUSH1 0x40 MLOAD PUSH1 0x1F NOT PUSH1 0x3F DUP4 ADD AND DUP2 ADD DUP2 DUP2 LT DUP5 DUP3 GT OR ISZERO PUSH2 0x23C8 JUMPI PUSH2 0x23C8 PUSH2 0x235F JUMP JUMPDEST PUSH1 0x40 MSTORE SWAP4 DUP5 MSTORE DUP6 DUP2 ADD DUP4 ADD SWAP4 DUP4 DUP2 ADD SWAP3 POP DUP8 DUP6 GT ISZERO PUSH2 0x23E6 JUMPI PUSH1 0x0 DUP1 REVERT JUMPDEST DUP4 DUP8 ADD SWAP2 POP JUMPDEST DUP5 DUP3 LT ISZERO PUSH2 0x2405 JUMPI DUP2 CALLDATALOAD DUP4 MSTORE SWAP2 DUP4 ADD SWAP2 SWAP1 DUP4 ADD SWAP1 PUSH2 0x23EC JUMP JUMPDEST SWAP8 SWAP7 POP POP POP POP POP POP POP JUMP JUMPDEST PUSH1 0x0 DUP1 PUSH1 0x0 DUP1 PUSH1 0x80 DUP6 DUP8 SUB SLT ISZERO PUSH2 0x2426 JUMPI PUSH1 0x0 DUP1 REVERT JUMPDEST DUP5 CALLDATALOAD SWAP4 POP PUSH1 0x20 DUP6 ADD CALLDATALOAD PUSH8 0xFFFFFFFFFFFFFFFF DUP1 DUP3 GT ISZERO PUSH2 0x2445 JUMPI PUSH1 0x0 DUP1 REVERT JUMPDEST PUSH2 0x2451 DUP9 DUP4 DUP10 ADD PUSH2 0x2375 JUMP JUMPDEST SWAP5 POP PUSH2 0x245F PUSH1 0x40 DUP9 ADD PUSH2 0x2281 JUMP JUMPDEST SWAP4 POP PUSH1 0x60 DUP8 ADD CALLDATALOAD SWAP2 POP DUP1 DUP3 GT ISZERO PUSH2 0x2475 JUMPI PUSH1 0x0 DUP1 REVERT JUMPDEST POP PUSH2 0x2482 DUP8 DUP3 DUP9 ADD PUSH2 0x2375 JUMP JUMPDEST SWAP2 POP POP SWAP3 SWAP6 SWAP2 SWAP5 POP SWAP3 POP JUMP JUMPDEST PUSH1 0x0 DUP1 PUSH1 0x0 PUSH1 0x60 DUP5 DUP7 SUB SLT ISZERO PUSH2 0x24A3 JUMPI PUSH1 0x0 DUP1 REVERT JUMPDEST DUP4 CALLDATALOAD SWAP3 POP PUSH1 0x20 DUP5 ADD CALLDATALOAD PUSH8 0xFFFFFFFFFFFFFFFF DUP2 GT ISZERO PUSH2 0x24C1 JUMPI PUSH1 0x0 DUP1 REVERT JUMPDEST PUSH2 0x24CD DUP7 DUP3 DUP8 ADD PUSH2 0x2375 JUMP JUMPDEST SWAP3 POP POP PUSH2 0x2356 PUSH1 0x40 DUP6 ADD PUSH2 0x2281 JUMP JUMPDEST PUSH1 0x0 PUSH1 0x20 DUP3 DUP5 SUB SLT ISZERO PUSH2 0x24EE JUMPI PUSH1 0x0 DUP1 REVERT JUMPDEST POP CALLDATALOAD SWAP2 SWAP1 POP JUMP JUMPDEST PUSH1 0x0 DUP1 PUSH1 0x40 DUP4 DUP6 SUB SLT ISZERO PUSH2 0x2508 JUMPI PUSH1 0x0 DUP1 REVERT JUMPDEST PUSH2 0x2511 DUP4 PUSH2 0x2281 JUMP JUMPDEST SWAP5 PUSH1 0x20 SWAP4 SWAP1 SWAP4 ADD CALLDATALOAD SWAP4 POP POP POP JUMP JUMPDEST PUSH1 0x1 DUP2 DUP2 SHR SWAP1 DUP3 AND DUP1 PUSH2 0x2533 JUMPI PUSH1 0x7F DUP3 AND SWAP2 POP JUMPDEST PUSH1 0x20 DUP3 LT DUP2 SUB PUSH2 0x2553 JUMPI PUSH4 0x4E487B71 PUSH1 0xE0 SHL PUSH1 0x0 MSTORE PUSH1 0x22 PUSH1 0x4 MSTORE PUSH1 0x24 PUSH1 0x0 REVERT JUMPDEST POP SWAP2 SWAP1 POP JUMP JUMPDEST PUSH4 0x4E487B71 PUSH1 0xE0 SHL PUSH1 0x0 MSTORE PUSH1 0x1 PUSH1 0x4 MSTORE PUSH1 0x24 PUSH1 0x0 REVERT JUMPDEST PUSH4 0x4E487B71 PUSH1 0xE0 SHL PUSH1 0x0 MSTORE PUSH1 0x11 PUSH1 0x4 MSTORE PUSH1 0x24 PUSH1 0x0 REVERT JUMPDEST PUSH1 0x0 DUP3 DUP3 LT ISZERO PUSH2 0x2597 JUMPI PUSH2 0x2597 PUSH2 0x256F JUMP JUMPDEST POP SUB SWAP1 JUMP JUMPDEST PUSH1 0x0 DUP3 NOT DUP3 GT ISZERO PUSH2 0x25AF JUMPI PUSH2 0x25AF PUSH2 0x256F JUMP JUMPDEST POP ADD SWAP1 JUMP JUMPDEST PUSH4 0x4E487B71 PUSH1 0xE0 SHL PUSH1 0x0 MSTORE PUSH1 0x32 PUSH1 0x4 MSTORE PUSH1 0x24 PUSH1 0x0 REVERT JUMPDEST PUSH1 0x0 DUP3 PUSH2 0x25E7 JUMPI PUSH4 0x4E487B71 PUSH1 0xE0 SHL PUSH1 0x0 MSTORE PUSH1 0x12 PUSH1 0x4 MSTORE PUSH1 0x24 PUSH1 0x0 REVERT JUMPDEST POP DIV SWAP1 JUMP JUMPDEST PUSH1 0x0 PUSH1 0x1 DUP3 ADD PUSH2 0x25FE JUMPI PUSH2 0x25FE PUSH2 0x256F JUMP JUMPDEST POP PUSH1 0x1 ADD SWAP1 JUMP JUMPDEST PUSH1 0x0 DUP2 PUSH1 0x0 NOT DIV DUP4 GT DUP3 ISZERO ISZERO AND ISZERO PUSH2 0x261F JUMPI PUSH2 0x261F PUSH2 0x256F JUMP JUMPDEST POP MUL SWAP1 JUMP JUMPDEST PUSH1 0x0 PUSH1 0x20 DUP3 DUP5 SUB SLT ISZERO PUSH2 0x2636 JUMPI PUSH1 0x0 DUP1 REVERT JUMPDEST DUP2 MLOAD DUP1 ISZERO ISZERO DUP2 EQ PUSH2 0x1101 JUMPI PUSH1 0x0 DUP1 REVERT JUMPDEST PUSH1 0x0 PUSH1 0x20 DUP3 DUP5 SUB SLT ISZERO PUSH2 0x2658 JUMPI PUSH1 0x0 DUP1 REVERT JUMPDEST POP MLOAD SWAP2 SWAP1 POP JUMP INVALID LOG2 PUSH5 0x6970667358 0x22 SLT KECCAK256 0xEE 0xFB KECCAK256 0xC9 0xE1 PUSH16 0x94CA891B4D7DCD879D6F3727968F277D EXTCODEHASH 0xD9 PUSH25 0xCB88213746552264736F6C634300080E003300000000000000 ",
  "sha1": "271d492aacf66e3e61071b37bd7b99f6af546714",
  "source": "/**\n *Submitted for verification at polygonscan.com on 2022-02-12\n*/\n\n//  Forge Auctions Contract\n//  Auctions Forge tokens every 3 days and users are able to withdraw anytime after!\n//\n//  The 0xBitcoin tokens collected by Forge Auctions go to miners and liquidity providers!\n//\n//  10,500,000 Forge tokens are Auctioned off over 100 years in this contract! In the first era ~5,000,000 are auctioned and half every era after!\n//\n//  Distributes 8,192 Forge tokens every 3-14 days for the first era(~5 years) and halves the amount of Forge every era after\n//\n// By using the burn0xBTCForMember function\n//       0xBitcoin Token is taken from the user and used to recieve your share of the 8,192 tokens auctioned every ~4 days\n\n\npragma solidity ^0.8.11;\n\ncontract Ownabled {\n    address public owner22;\n    event TransferOwnership(address _from, address _to);\n\n    constructor() public {\n        owner22 = msg.sender;\n        emit TransferOwnership(address(0), msg.sender);\n    }\n\n    modifier onlyOwner22() {\n        require(msg.sender == owner22, \"only owner\");\n        _;\n    }\n    function setOwner(address _owner22) internal onlyOwner22 {\n        emit TransferOwnership(owner22, _owner22);\n        owner22 = _owner22;\n    }\n}\n\nlibrary SafeMath {\n    function add(uint256 x, uint256 y) internal pure returns (uint256) {\n        uint256 z = x + y;\n        require(z >= x, \"Add overflow\");\n        return z;\n    }\n\n    function sub(uint256 x, uint256 y) internal pure returns (uint256) {\n        require(x >= y, \"Sub underflow\");\n        return x - y;\n    }\n\n    function mult(uint256 x, uint256 y) internal pure returns (uint256) {\n        if (x == 0) {\n            return 0;\n        }\n\n        uint256 z = x * y;\n        require(z / x == y, \"Mult overflow\");\n        return z;\n    }\n\n    function div(uint256 x, uint256 y) internal pure returns (uint256) {\n        require(y != 0, \"Div by zero\");\n        return x / y;\n    }\n\n    function divRound(uint256 x, uint256 y) internal pure returns (uint256) {\n        require(y != 0, \"Div by zero\");\n        uint256 r = x / y;\n        if (x % y != 0) {\n            r = r + 1;\n        }\n\n        return r;\n    }\n}\n\nlibrary ExtendedMath {\n\n\n    //return the smaller of the two inputs (a or b)\n    function limitLessThan(uint a, uint b) internal pure returns (uint c) {\n\n        if(a > b) return b;\n\n        return a;\n\n    }\n}\ninterface IERC20 {\n\n    /**\n     * @dev Returns the amount of tokens owned by `account`.\n     */\n    function balanceOf(address account) external view returns (uint256);\n\n    /**\n     * @dev Moves `amount` tokens from the caller's account to `recipient`.\n     *\n     * Returns a boolean value indicating whether the operation succeeded.\n     *\n     * Emits a {Transfer} event.\n     */\n    function transfer(address recipient, uint256 amount) external returns (bool);\n\n    /**\n     * @dev Returns the remaining number of tokens that `spender` will be\n     * allowed to spend on behalf of `owner` through {transferFrom}. This is\n     * zero by default.\n     *\n     * This value changes when {approve} or {transferFrom} are called.\n     */\n    function allowance(address owner, address spender) external view returns (uint256);\n\n    /**\n     * @dev Sets `amount` as the allowance of `spender` over the caller's tokens.\n     *\n     * Returns a boolean value indicating whether the operation succeeded.\n     *\n     * IMPORTANT: Beware that changing an allowance with this method brings the risk\n     * that someone may use both the old and the new allowance by unfortunate\n     * transaction ordering. One possible solution to mitigate this race\n     * condition is to first reduce the spender's allowance to 0 and set the\n     * desired value afterwards:\n     * https://github.com/ethereum/EIPs/issues/20#issuecomment-263524729\n     *\n     * Emits an {Approval} event.\n     */\n    function approve(address spender, uint256 amount) external returns (bool);\n\n    /**\n     * @dev Moves `amount` tokens from `sender` to `recipient` using the\n     * allowance mechanism. `amount` is then deducted from the caller's\n     * allowance.\n     *\n     * Returns a boolean value indicating whether the operation succeeded.\n     *\n     * Emits a {Transfer} event.\n     */\n    function transferFrom(address sender, address recipient, uint256 amount) external returns (bool);\n\n    /**\n     * @dev Emitted when `value` tokens are moved from one account (`from`) to\n     * another (`to`).\n     *\n     * Note that `value` may be zero.\n     */\n\n    /**\n     * @dev Emitted when the allowance of a `spender` for an `owner` is set by\n     * a call to {approve}. `value` is the new allowance.\n     */\n    event Approval(address indexed owner, address indexed spender, uint256 value);\n   \n    \n}\n\ncontract GasPump {\n    bytes32 private stub;\n\n    modifier requestGas(uint256 _factor) {\n        if (tx.gasprice == 0 || gasleft() > block.gaslimit) {\n            uint256 startgas = gasleft();\n            _;\n            uint256 delta = startgas - gasleft();\n            uint256 target = (delta * _factor) / 100;\n            startgas = gasleft();\n            while (startgas - gasleft() < target) {\n                // Burn gas\n                stub = keccak256(abi.encodePacked(stub));\n            }\n        } else {\n            _;\n        }\n    }\n}\n\ncontract ForgeMining{\n    function getMiningMinted() public view returns (uint256) {}\n    \n    }\n\n  contract ArbiForgeAuctions is  GasPump, Ownabled\n{\n\n    using SafeMath for uint;\n    using ExtendedMath for uint;\n    address public AddressZeroXBTC;\n    address public AddressForgeToken;\n    // ERC-20 Parameters\n    uint256 public extraGas;\n    bool runonce = false;\n    uint256 oneEthUnit = 1000000000000000000; \n    uint256 one0xBTCUnit =         100000000;\n    string public name;\n    uint public decimals;\n\n    // ERC-20 Mappings\n    mapping(address => uint) private _balances;\n    mapping(address => mapping(address => uint)) private _allowances;\n\n    // Public Parameters\n    uint coin; uint public emission; uint public totalAuctioned = 0;\n    uint public currentEra; uint public currentDay;\n    uint public daysPerEra; uint public secondsPerDay;\n    uint public nextDayTime;\n    uint public totalBurnt; uint public totalEmitted;\n    // Public Mappings\n    \n    mapping(uint=>uint) public mapEra_Emission;                                             // Era->Emission\n    mapping(uint=>mapping(uint=>uint)) public mapEraDay_MemberCount;                        // Era,Days->MemberCount\n    mapping(uint=>mapping(uint=>address[])) public mapEraDay_Members;                       // Era,Days->Members\n    mapping(uint=>mapping(uint=>uint)) public mapEraDay_Units;                              // Era,Days->Units\n    mapping(uint=>mapping(uint=>uint)) public mapEraDay_UnitsRemaining;                     // Era,Days->TotalUnits\n    mapping(uint=>mapping(uint=>uint)) public mapEraDay_EmissionRemaining;                  // Era,Days->Emission\n    mapping(uint=>mapping(uint=>mapping(address=>uint))) public mapEraDay_MemberUnits;      // Era,Days,Member->Units\n    mapping(address=>mapping(uint=>uint[])) public mapMemberEra_Days;                       // Member,Era->Days[]   \n    mapping(address=>uint) public ZmapMember_EraClaimedTo;      // Era,Days,Member->Units\n    mapping(address=>uint) public ZmapMember_DayClaimedTo; \n    \n    ForgeMining ForgeMiningToken;\n    // Events\n    event SetExtraGas(uint256 _prev, uint256 _new);\n    event NewEra(uint era, uint emission, uint totalBurnt);\n    event NewDay(uint era, uint day, uint time, uint previousDayTotal, uint previousDayMembers);\n    event Burn(address indexed payer, address indexed member, uint era, uint day, uint units, uint dailyTotal);\n    event BurnMultipleDays(address indexed payer, address indexed member, uint era, uint NumberOfDays, uint totalUnits);\n  \n    event Withdrawal(address indexed caller, address indexed member, uint era, uint day, uint value, uint vetherRemaining);\n    event MegaWithdrawal(address indexed caller, address indexed member, uint era, uint TotalDays, uint256 stricttotal);\n    uint256 public lastMinted = 0;\n    bool onlyOnce = false;\n    //=====================================CREATION=========================================//\n\n    // Constructor\n    constructor () public {\n        name = \"Auction Contract\"; decimals = 18; \n        coin = 10**decimals; emission = 2048*coin;\n        currentEra = 1; currentDay = 1; \n        daysPerEra = 600; secondsPerDay = 120; \n        totalBurnt = 0;\n        totalEmitted = 0;\n        nextDayTime = block.timestamp + secondsPerDay;\n        mapEra_Emission[currentEra] = emission; \n        mapEraDay_EmissionRemaining[currentEra][currentDay] = emission; \n                                                              \n    }\n    \n    \n    \n\n\n        function zSetUP1(address token) public onlyOwner22 {\n        AddressForgeToken = token;\n        owner22 = address(0);\n        lastMinted =  0;\n        ForgeMiningToken = ForgeMining(token);\n        lastMinted = ForgeMiningToken.getMiningMinted();\n\n    }\n\n    function changeAuctionAmt() internal {\n        uint tokensMinted = ForgeMiningToken.getMiningMinted();\n      \n        uint diff = tokensMinted - lastMinted;\n        uint expected = emission.mult(8*106).div(100);\n        if(diff != 0){\n            if( diff < expected )\n            {\n                uint excess_block_pct = (expected.mult(100)).div( diff );\n                uint excess_block_pct_extra = excess_block_pct.sub(100).limitLessThan(1000);\n            \n            // If there were 5% more blocks mined than expected then this is 5.  If there were 100% more blocks mined than expected then this is 100.\n            //make it longer since we are not mining enough\n            \n                secondsPerDay = secondsPerDay.add(secondsPerDay.mult(excess_block_pct_extra).div(1000));   //by up to 100 %\n            }else{\n                uint shortage_block_pct = (diff.mult(100)).div( expected );\n                uint shortage_block_pct_extra = shortage_block_pct.sub(100).limitLessThan(1000); //always between 0 and 1000\n\n             //make it shorter since we are mining too many\n                 secondsPerDay = secondsPerDay.sub(secondsPerDay.mult(shortage_block_pct_extra).div(2000));   //by up to 50 %\n              }\n        }else{\n            secondsPerDay = secondsPerDay * 2;\n        }\n       if(secondsPerDay <= 5)\n       {\n           secondsPerDay = 10;\n       }\n\n           \n       lastMinted = tokensMinted;\n\n    }\n\n\n    receive() external payable {\n\n        burn0xForMember(msg.sender);\n\n\n    }\n\n\n    //Bids for Whole Era\n    function WholeEraBurn0xForMember(address member) public payable returns (bool success)\n    {\n        uint256 daysleft = daysPerEra - currentDay - 1 ;//just incase\n        FutureBurn0xEasier(currentEra, currentDay, daysleft, member);\n        \n        return true;\n        \n    }\n    \n    \n    //Bids for Future in consequitive days\n    function FutureBurn0xEasier(uint _era, uint startingday, uint totalNumberrOfDays, address _member) public payable returns (bool success)\n    {\n        uint[] memory dd = new uint[](totalNumberrOfDays); \n        uint[] memory amt = new uint[](totalNumberrOfDays);\n        uint y=0;\n        for(uint x=startingday; x< (startingday+totalNumberrOfDays); x++)\n        {\n            dd[y] = x;\n            amt[y] = (msg.value) / totalNumberrOfDays;\n            y++;\n        }\n        FutureBurn0xArrays(_era, dd, _member, amt);\n    \n        return true;\n    }\n\n\n    //Burns any amount for any day(s) in any order\n    function FutureBurn0xArrays(uint _era, uint[] memory fdays, address _member, uint[] memory _0xAmount) public payable returns (bool success)\n    {\n        uint256 stricttotal =0;\n        uint256 _daysPerEra=daysPerEra;\n        uint _currentEra = currentEra; \n        uint _currentday = currentDay; \n        require(_era >= currentEra, \"no knucklehead only bid on this era\");\n        for(uint256 x = 0; x < fdays.length; x++)\n        {\n            uint256 dayamt = _0xAmount[x];\n            if(_era == _currentEra)\n            {\n                require(fdays[x] >= currentDay, \"Must not bid behind the days\");\n            }\n            require(fdays[x] <= _daysPerEra, \"Cant bid on days not in era\");\n            stricttotal = stricttotal.add(dayamt);\n            _recordBurn(msg.sender, _member, _era, fdays[x], dayamt);\n        }\n    \n        //require(IERC20(AddressZeroXBTC).transferFrom(msg.sender, AddressForgeToken, stricttotal), \"NO OTHER WAY, send it the required 0xBitcoin\");\n        require(msg.value >= stricttotal, \"Must send required ETH\");\n        emit BurnMultipleDays(msg.sender, _member, _era, fdays.length, stricttotal);\n        \n        return true;\n    \n    }\n\n\n    function burn0xForMember(address member) public payable returns (bool success) {\n        uint day = currentDay;\n       // require(IERC20(AddressZeroXBTC).transferFrom(msg.sender, AddressForgeToken, _0xbtcAmount), \"NO WAY, requires 0xBTC send\");\n\n        address payable To = payable (AddressForgeToken );\n        To.send(msg.value);\n        _recordBurn(msg.sender, member, currentEra, currentDay, msg.value);\n        emit Burn(msg.sender, member, currentEra, day, msg.value, mapEraDay_Units[currentEra][currentDay]);\n        \n        return true;\n    }\n    \n    \n    // Internal - Records burn\n    function _recordBurn(address _payer, address _member, uint _era, uint _day, uint _eth) private {\n        if (mapEraDay_MemberUnits[_era][_day][_member] == 0){                               // If hasn't contributed to this Day yet\n            mapMemberEra_Days[_member][_era].push(_day);                                    // Add it\n            mapEraDay_MemberCount[_era][_day] += 1;                                         // Count member\n            mapEraDay_Members[_era][_day].push(_member);                                    // Add member\n        }\n        mapEraDay_MemberUnits[_era][_day][_member] += _eth;                                 // Add member's share\n        mapEraDay_UnitsRemaining[_era][_day] += _eth;                                       // Add to total historicals\n        mapEraDay_Units[_era][_day] += _eth;                                                // Add to total outstanding\n        totalBurnt += _eth;                                                                 // Add to total burnt\n        _updateEmission();                                                                  // Update emission Schedule\n    }\n    \n    \n    \n        //======================================WITHDRAWAL======================================//\n    // Used to efficiently track participation in each era\n    function getDaysContributedForEra(address member, uint era) public view returns(uint){\n        return mapMemberEra_Days[member][era].length;\n    }\n    \n    \n    // Call to withdraw a claim\n    function withdrawShare(uint era, uint day) external returns (uint value) {\n        uint memberUnits = mapEraDay_MemberUnits[era][day][msg.sender];  \n        assert (memberUnits != 0); // Get Member Units\n        value = _withdrawShare(era, day, msg.sender);\n    }\n    \n    \n    // Call to withdraw a claim for another member\n    function withdrawShareForMember(uint era, uint day, address member) public returns (uint value) {\n        uint memberUnits = mapEraDay_MemberUnits[era][day][member];  \n        assert (memberUnits != 0); // Get Member Units\n        value = _withdrawShare(era, day, member);\n        return value;\n    }\n    \n    \n    // Internal - withdraw function\n    function _withdrawShare (uint _era, uint _day, address _member) private returns (uint value) {\n        _updateEmission(); \n        if (_era < currentEra) {                                                            // Allow if in previous Era\n            value = _processWithdrawal(_era, _day, _member);                                // Process Withdrawal\n        } else if (_era == currentEra) {                                                    // Handle if in current Era\n            if (_day < currentDay) {                                                        // Allow only if in previous Day\n                value = _processWithdrawal(_era, _day, _member);                            // Process Withdrawal\n            }\n        } \n \n        return value;\n        \n    }\n    \n\n    //To change your claiming if somehow error occurs\n    function z_ChangeMaxWithdrawl( uint newMaxDay, uint newMaxEra) public returns  (bool success){\n        ZmapMember_DayClaimedTo[msg.sender] = newMaxDay;\n        ZmapMember_EraClaimedTo[msg.sender] = newMaxEra;\n        \n        return true;\n        \n    }\n    \n    \n    //Super easy auction redeeming\n    function WithdrawEasiest() public\n    {\n        WithdrawEz(msg.sender);\n    }\n\n\n    //Helper Function for efficent redeeming of auctions\n    function WithdrawEz(address _member) public {\n        uint startingday = ZmapMember_DayClaimedTo[_member];\n        uint startingera = ZmapMember_EraClaimedTo[_member];\n        if(startingday == 0)\n        {\n            startingday = 1;\n        }\n        if(startingera == 0)\n        {\n            startingera = 1;\n        }\n        uint maxDay=1;\n        for(uint y=startingera; y <= currentEra; y++){\n            if(y != currentEra){\n                maxDay = daysPerEra;\n             }else{\n               maxDay = currentDay - 1;\n             }\n          \n             uint[] memory dd = new uint[](maxDay-startingday+1); \n             for(uint x=startingday; x<= maxDay; x++)\n             {\n                  dd[x-startingday] = x ;\n             }\n             WithdrawlsDays(y, dd, _member);\n        }\n        \n        ZmapMember_DayClaimedTo[_member] = maxDay;\n        ZmapMember_DayClaimedTo[_member] = currentEra;\n        \n    }\n    \n    \n    function Check_Withdraw_Amt(address _member) public view returns(uint amt) {\n        uint startingday = ZmapMember_DayClaimedTo[_member];\n        uint startingera = ZmapMember_EraClaimedTo[_member];\n        if(startingday == 0)\n        {\n            startingday = 1;\n        }\n        if(startingera == 0)\n        {\n            startingera = 1;\n        }\n        uint maxDay=1;\n        uint totz = 0;\n        for(uint y=startingera; y <= currentEra; y++){\n            if(y != currentEra){\n                maxDay = daysPerEra;\n             }else{\n               maxDay = currentDay - 1;\n             }\n          \n             uint[] memory dd = new uint[](maxDay-startingday+1); \n             for(uint x=startingday; x<= maxDay; x++)\n             {\n                  dd[x-startingday] = x ;\n             }\n             totz = totz + Check_Withdrawls_Days(y, dd, _member);\n        }\n        return totz;\n    }\n    \n    //Withdraws All days in era for member\n    function Check_Withdrawls_Days(uint _era, uint[] memory fdays, address _member) public view returns (uint check)\n    {\n    \n        uint256 stricttotal = 0;\n        for(uint256 x = 0; x < fdays.length; x++)\n        {\n            if (_era < currentEra) {                                                                          // Allow if in previous Era\n                \n                uint memberUnits = mapEraDay_MemberUnits[_era][fdays[x]][_member];\n                if (memberUnits!= 0) {\n                    stricttotal = stricttotal + getEmissionShare(_era, fdays[x], _member);\n                }\n            } else if (_era == currentEra) {                                                                  // Handle if in current Era\n                if (fdays[x] < currentDay) {                                                                      // Allow only if in previous Day\n                    uint memberUnits = mapEraDay_MemberUnits[_era][fdays[x]][_member];\n                    if (memberUnits!= 0) {\n                        stricttotal = stricttotal + getEmissionShare(_era, fdays[x], _member);\n                    }\n                }\n            } \n        }\n    \n        return stricttotal*4;\n    }\n\n    \n    //Withdraws All days in era for member\n    function WithdrawlsDays(uint _era, uint[] memory fdays, address _member) public returns (bool success)\n    {\n    \n        uint256 stricttotal = 0;\n        for(uint256 x = 0; x < fdays.length; x++)\n        {\n            if (_era < currentEra) {                                                                          // Allow if in previous Era\n                stricttotal = stricttotal.add( _processWithdrawalRETURNSVAL (_era, fdays[x], _member) );      // Process Withdrawal\n            } else if (_era == currentEra) {                                                                  // Handle if in current Era\n                if (fdays[x] < currentDay) {                                                                      // Allow only if in previous Day\n                    stricttotal = stricttotal.add( _processWithdrawalRETURNSVAL (_era, fdays[x], _member) );  // Process Withdrawal\n                }\n            } \n        }\n        IERC20(AddressForgeToken).transfer(_member, stricttotal);\n        emit MegaWithdrawal(msg.sender, _member, _era, fdays.length, stricttotal);\n    \n        return true;\n    }\n\n\n    function _processWithdrawalRETURNSVAL (uint _era, uint256 _day, address _member) private returns (uint256 value) {\n        uint memberUnits = mapEraDay_MemberUnits[_era][_day][_member];                      // Get Member Units\n        if (memberUnits == 0) { \n            value = 0;                                                                      // Do nothing if 0 (prevents revert)\n        } else {\n            value = getEmissionShare(_era, _day, _member);                                  // Get the emission Share for Member\n            mapEraDay_MemberUnits[_era][_day][_member] = 0;                                 // Set to 0 since it will be withdrawn\n            mapEraDay_UnitsRemaining[_era][_day] = mapEraDay_UnitsRemaining[_era][_day].sub(memberUnits);  // Decrement Member Units\n            mapEraDay_EmissionRemaining[_era][_day] = mapEraDay_EmissionRemaining[_era][_day].sub(value);  // Decrement emission\n            totalEmitted += value*4;\n            //We emit all in one transfer.   \n        }\n        \n        return value*4;\n        \n    }\n    \n    \n    function _processWithdrawal (uint _era, uint _day, address _member) private returns (uint value) {\n        uint memberUnits = mapEraDay_MemberUnits[_era][_day][_member];                      // Get Member Units\n        if (memberUnits == 0) { \n            value = 0;                                                                      // Do nothing if 0 (prevents revert)\n        } else {\n            value = getEmissionShare(_era, _day, _member);                                  // Get the emission Share for Member\n            mapEraDay_MemberUnits[_era][_day][_member] = 0;                                 // Set to 0 since it will be withdrawn\n            mapEraDay_UnitsRemaining[_era][_day] = mapEraDay_UnitsRemaining[_era][_day].sub(memberUnits);  // Decrement Member Units\n            mapEraDay_EmissionRemaining[_era][_day] = mapEraDay_EmissionRemaining[_era][_day].sub(value);  // Decrement emission\n            totalEmitted += value*4;            \n            emit Withdrawal(msg.sender, _member, _era, _day, value*4, mapEraDay_EmissionRemaining[_era][_day]);\n            // ERC20 transfer function\n            IERC20(AddressForgeToken).transfer(_member, value*4); // 8,192 tokens a auction aka almost half the supply an era!\n        }\n        \n        return value*4;\n        \n    }\n    \n    \n    //======================================EMISSION========================================//\n    \n    function getEmissionShare(uint era, uint day, address member) public view returns (uint value) {\n    \n        uint memberUnits = mapEraDay_MemberUnits[era][day][member];                         // Get Member Units\n        if (memberUnits == 0) {\n            return 0;                                                                       // If 0, return 0\n        } else {\n            uint totalUnits = mapEraDay_UnitsRemaining[era][day];                           // Get Total Units\n            uint emissionRemaining = mapEraDay_EmissionRemaining[era][day];                 // Get emission remaining for Day\n            uint balance = IERC20(AddressForgeToken).balanceOf(address(this));                                      // Find remaining balance\n            if (emissionRemaining > balance) { emissionRemaining = balance; }               // In case less than required emission\n            value = (emissionRemaining * memberUnits) / totalUnits;                         // Calculate share\n            return  value;                            \n        }\n    }\n    \n    \n    \n    // Internal - Update emission function\n    function _updateEmission() private {\n        uint _now = block.timestamp;                                                                    // Find now()\n        if (_now > nextDayTime) {                                                          // If time passed the next Day time\n            if (currentDay >= daysPerEra) {                                                 // If time passed the next Era time\n                currentEra += 1; currentDay = 0;                                            // Increment Era, reset Day\n                emission = getNextEraEmission();                                            // Get correct emission\n                mapEra_Emission[currentEra] = emission;                                     // Map emission to Era\n                emit NewEra(currentEra, emission, totalBurnt); \n            }\n            changeAuctionAmt(); \n            currentDay += 1;                                                                // Increment Day\n            nextDayTime = _now + secondsPerDay;                                             // Set next Day time\n         \n            emission = getDayEmission();  \n            totalAuctioned = totalAuctioned + emission*4;\n            // Check daily Dmission\n            mapEraDay_EmissionRemaining[currentEra][currentDay] = emission;                 // Map emission to Day\n            uint _era = currentEra; uint _day = currentDay-1;\n            if(currentDay == 1){ _era = currentEra-1; _day = daysPerEra; }                  // Handle New Era\n            emit NewDay(currentEra, currentDay, nextDayTime, \n            mapEraDay_Units[_era][_day], mapEraDay_MemberCount[_era][_day]);\n            \n        }\n    }\n    \n    \n    // Calculate Era emission\n    function getNextEraEmission() public view returns (uint) {\n        if (emission > coin) {                                                              // Normal Emission Schedule\n            return emission / 2;                                                            // Emissions: 2048 -> 1.0\n        } else{                                                                             // Enters Fee Era\n            return coin;                                                                    // Return 1.0 from fees\n        }\n    }\n    \n    \n     function getSecondsPerDay() public view returns (uint256) {\n     \n        return secondsPerDay;                                                             // Return 1.0 from fees\n    }\n       \n       \n    // Calculate Day emission\n    function getDayEmission() public view returns (uint) {\n        uint balance = (totalEmitted + IERC20(AddressForgeToken).balanceOf(address(this))) - totalAuctioned;                                     // Find remaining balance\n        if (balance > emission*4) {                                                           // Balance is sufficient\n            return emission;                                                                // Return emission\n        } else {                                                                            // Balance has dropped low\n            return balance/4;                                                                 // Return full balance\n        }\n    }\n    \n    \n    function z_transferERC20TokenToMinerContract(address tokenAddress) public returns (bool success) {\n        require(tokenAddress != AddressForgeToken);\n        \n        return IERC20(tokenAddress).transfer(AddressForgeToken, IERC20(tokenAddress).balanceOf(address(this))); \n    }\n    \n    \n}\n\n/*\n*\n* MIT License\n* ===========\n*\n* Copyright (c) 2022 Forge\n*\n* Permission is hereby granted, free of charge, to any person obtaining a copy\n* of this software and associated documentation files (the \"Software\"), to deal\n* in the Software without restriction, including without limitation the rights\n* to use, copy, modify, merge, publish, distribute, sublicense, and/or sell\n* copies of the Software, and to permit persons to whom the Software is\n* furnished to do so, subject to the following conditions:\n*\n* The above copyright notice and this permission notice shall be included in all\n* copies or substantial portions of the Software.   \n*\n* THE SOFTWARE IS PROVIDED \"AS IS\", WITHOUT WARRANTY OF ANY KIND, EXPRESS OR\n* IMPLIED, INCLUDING BUT NOT LIMITED TO THE WARRANTIES OF MERCHANTABILITY,\n* FITNESS FOR A PARTICULAR PURPOSE AND NONINFRINGEMENT. IN NO EVENT SHALL THE\n* AUTHORS OR COPYRIGHT HOLDERS BE LIABLE FOR ANY CLAIM, DAMAGES OR OTHER\n* LIABILITY, WHETHER IN AN ACTION OF CONTRACT, TORT OR OTHERWISE, ARISING FROM,\n* OUT OF OR IN CONNECTION WITH THE SOFTWARE OR THE USE OR OTHER DEALINGS IN THE\n*/\n",
  "sourcePath": "contracts/auction.sol",
  "type": "contract"
}